{"contracts/Notes256.sol":{"Notes256":{"abi":[{"inputs":[],"stateMutability":"nonpayable","type":"constructor"},{"inputs":[{"internalType":"address","name":"sender","type":"address"},{"internalType":"uint256","name":"tokenId","type":"uint256"},{"internalType":"address","name":"owner","type":"address"}],"name":"ERC721IncorrectOwner","type":"error"},{"inputs":[{"internalType":"address","name":"operator","type":"address"},{"internalType":"uint256","name":"tokenId","type":"uint256"}],"name":"ERC721InsufficientApproval","type":"error"},{"inputs":[{"internalType":"address","name":"approver","type":"address"}],"name":"ERC721InvalidApprover","type":"error"},{"inputs":[{"internalType":"address","name":"operator","type":"address"}],"name":"ERC721InvalidOperator","type":"error"},{"inputs":[{"internalType":"address","name":"owner","type":"address"}],"name":"ERC721InvalidOwner","type":"error"},{"inputs":[{"internalType":"address","name":"receiver","type":"address"}],"name":"ERC721InvalidReceiver","type":"error"},{"inputs":[{"internalType":"address","name":"sender","type":"address"}],"name":"ERC721InvalidSender","type":"error"},{"inputs":[{"internalType":"uint256","name":"tokenId","type":"uint256"}],"name":"ERC721NonexistentToken","type":"error"},{"anonymous":false,"inputs":[{"indexed":true,"internalType":"address","name":"owner","type":"address"},{"indexed":true,"internalType":"address","name":"approved","type":"address"},{"indexed":true,"internalType":"uint256","name":"tokenId","type":"uint256"}],"name":"Approval","type":"event"},{"anonymous":false,"inputs":[{"indexed":true,"internalType":"address","name":"owner","type":"address"},{"indexed":true,"internalType":"address","name":"operator","type":"address"},{"indexed":false,"internalType":"bool","name":"approved","type":"bool"}],"name":"ApprovalForAll","type":"event"},{"anonymous":false,"inputs":[{"indexed":false,"internalType":"uint256","name":"_fromTokenId","type":"uint256"},{"indexed":false,"internalType":"uint256","name":"_toTokenId","type":"uint256"}],"name":"BatchMetadataUpdate","type":"event"},{"anonymous":false,"inputs":[{"indexed":false,"internalType":"uint256","name":"_tokenId","type":"uint256"}],"name":"MetadataUpdate","type":"event"},{"anonymous":false,"inputs":[{"indexed":true,"internalType":"uint256","name":"tokenId","type":"uint256"},{"indexed":false,"internalType":"string","name":"name","type":"string"},{"indexed":false,"internalType":"string","name":"content","type":"string"}],"name":"NoteCreated","type":"event"},{"anonymous":false,"inputs":[{"indexed":true,"internalType":"uint256","name":"tokenId","type":"uint256"}],"name":"NoteDeleted","type":"event"},{"anonymous":false,"inputs":[{"indexed":true,"internalType":"uint256","name":"tokenId","type":"uint256"},{"indexed":true,"internalType":"address","name":"from","type":"address"},{"indexed":true,"internalType":"address","name":"to","type":"address"}],"name":"NoteTransfered","type":"event"},{"anonymous":false,"inputs":[{"indexed":true,"internalType":"uint256","name":"tokenId","type":"uint256"},{"indexed":false,"internalType":"string","name":"name","type":"string"},{"indexed":false,"internalType":"string","name":"content","type":"string"}],"name":"NoteUpdated","type":"event"},{"anonymous":false,"inputs":[{"indexed":true,"internalType":"address","name":"from","type":"address"},{"indexed":true,"internalType":"address","name":"to","type":"address"},{"indexed":true,"internalType":"uint256","name":"tokenId","type":"uint256"}],"name":"Transfer","type":"event"},{"inputs":[{"internalType":"address","name":"to","type":"address"},{"internalType":"uint256","name":"tokenId","type":"uint256"}],"name":"approve","outputs":[],"stateMutability":"nonpayable","type":"function"},{"inputs":[{"internalType":"address","name":"owner","type":"address"}],"name":"balanceOf","outputs":[{"internalType":"uint256","name":"","type":"uint256"}],"stateMutability":"view","type":"function"},{"inputs":[{"internalType":"uint256","name":"tokenId","type":"uint256"}],"name":"burn","outputs":[],"stateMutability":"nonpayable","type":"function"},{"inputs":[{"internalType":"string","name":"_name","type":"string"},{"internalType":"string","name":"_content","type":"string"},{"internalType":"string","name":"_tokenURI","type":"string"}],"name":"createNote","outputs":[],"stateMutability":"nonpayable","type":"function"},{"inputs":[{"internalType":"uint256","name":"_tokenId","type":"uint256"}],"name":"deleteNote","outputs":[],"stateMutability":"nonpayable","type":"function"},{"inputs":[{"internalType":"uint256","name":"tokenId","type":"uint256"}],"name":"getApproved","outputs":[{"internalType":"address","name":"","type":"address"}],"stateMutability":"view","type":"function"},{"inputs":[{"internalType":"address","name":"owner","type":"address"},{"internalType":"address","name":"operator","type":"address"}],"name":"isApprovedForAll","outputs":[{"internalType":"bool","name":"","type":"bool"}],"stateMutability":"view","type":"function"},{"inputs":[],"name":"lastTokenId","outputs":[{"internalType":"uint256","name":"","type":"uint256"}],"stateMutability":"view","type":"function"},{"inputs":[],"name":"name","outputs":[{"internalType":"string","name":"","type":"string"}],"stateMutability":"view","type":"function"},{"inputs":[{"internalType":"uint256","name":"","type":"uint256"}],"name":"notes","outputs":[{"internalType":"bytes32","name":"id","type":"bytes32"},{"internalType":"string","name":"title","type":"string"},{"internalType":"string","name":"content","type":"string"},{"internalType":"uint256","name":"timestamp","type":"uint256"}],"stateMutability":"view","type":"function"},{"inputs":[{"internalType":"bytes32","name":"","type":"bytes32"}],"name":"notesIds","outputs":[{"internalType":"uint256","name":"","type":"uint256"}],"stateMutability":"view","type":"function"},{"inputs":[{"internalType":"uint256","name":"tokenId","type":"uint256"}],"name":"ownerOf","outputs":[{"internalType":"address","name":"","type":"address"}],"stateMutability":"view","type":"function"},{"inputs":[{"internalType":"address","name":"from","type":"address"},{"internalType":"address","name":"to","type":"address"},{"internalType":"uint256","name":"tokenId","type":"uint256"}],"name":"safeTransferFrom","outputs":[],"stateMutability":"nonpayable","type":"function"},{"inputs":[{"internalType":"address","name":"from","type":"address"},{"internalType":"address","name":"to","type":"address"},{"internalType":"uint256","name":"tokenId","type":"uint256"},{"internalType":"bytes","name":"data","type":"bytes"}],"name":"safeTransferFrom","outputs":[],"stateMutability":"nonpayable","type":"function"},{"inputs":[{"internalType":"address","name":"operator","type":"address"},{"internalType":"bool","name":"approved","type":"bool"}],"name":"setApprovalForAll","outputs":[],"stateMutability":"nonpayable","type":"function"},{"inputs":[{"internalType":"bytes4","name":"interfaceId","type":"bytes4"}],"name":"supportsInterface","outputs":[{"internalType":"bool","name":"","type":"bool"}],"stateMutability":"view","type":"function"},{"inputs":[],"name":"symbol","outputs":[{"internalType":"string","name":"","type":"string"}],"stateMutability":"view","type":"function"},{"inputs":[{"internalType":"uint256","name":"tokenId","type":"uint256"}],"name":"tokenURI","outputs":[{"internalType":"string","name":"","type":"string"}],"stateMutability":"view","type":"function"},{"inputs":[{"internalType":"address","name":"from","type":"address"},{"internalType":"address","name":"to","type":"address"},{"internalType":"uint256","name":"tokenId","type":"uint256"}],"name":"transferFrom","outputs":[],"stateMutability":"nonpayable","type":"function"},{"inputs":[{"internalType":"address","name":"to","type":"address"},{"internalType":"uint256","name":"_tokenId","type":"uint256"}],"name":"transferNote","outputs":[],"stateMutability":"nonpayable","type":"function"},{"inputs":[{"internalType":"uint256","name":"_tokenId","type":"uint256"},{"internalType":"string","name":"_title","type":"string"},{"internalType":"string","name":"_content","type":"string"}],"name":"updateNote","outputs":[],"stateMutability":"nonpayable","type":"function"}],"evm":{"bytecode":{"linkReferences":{},"object":"60806040526032600760006101000a81548161ffff021916908361ffff1602179055506103e8600760026101000a81548163ffffffff021916908363ffffffff1602179055503480156200005257600080fd5b506040518060400160405280600881526020017f4e6f7465733235360000000000000000000000000000000000000000000000008152506040518060400160405280600381526020017f4e545300000000000000000000000000000000000000000000000000000000008152508160009081620000d0919062000365565b508060019081620000e2919062000365565b5050506200044c565b600081519050919050565b7f4e487b7100000000000000000000000000000000000000000000000000000000600052604160045260246000fd5b7f4e487b7100000000000000000000000000000000000000000000000000000000600052602260045260246000fd5b600060028204905060018216806200016d57607f821691505b60208210810362000183576200018262000125565b5b50919050565b60008190508160005260206000209050919050565b60006020601f8301049050919050565b600082821b905092915050565b600060088302620001ed7fffffffffffffffffffffffffffffffffffffffffffffffffffffffffffffffff82620001ae565b620001f98683620001ae565b95508019841693508086168417925050509392505050565b6000819050919050565b6000819050919050565b600062000246620002406200023a8462000211565b6200021b565b62000211565b9050919050565b6000819050919050565b620002628362000225565b6200027a62000271826200024d565b848454620001bb565b825550505050565b600090565b6200029162000282565b6200029e81848462000257565b505050565b5b81811015620002c657620002ba60008262000287565b600181019050620002a4565b5050565b601f8211156200031557620002df8162000189565b620002ea846200019e565b81016020851015620002fa578190505b6200031262000309856200019e565b830182620002a3565b50505b505050565b600082821c905092915050565b60006200033a600019846008026200031a565b1980831691505092915050565b600062000355838362000327565b9150826002028217905092915050565b6200037082620000eb565b67ffffffffffffffff8111156200038c576200038b620000f6565b5b62000398825462000154565b620003a5828285620002ca565b600060209050601f831160018114620003dd5760008415620003c8578287015190505b620003d4858262000347565b86555062000444565b601f198416620003ed8662000189565b60005b828110156200041757848901518255600182019150602085019450602081019050620003f0565b8683101562000437578489015162000433601f89168262000327565b8355505b6001600288020188555050505b505050505050565b612f30806200045c6000396000f3fe608060405234801561001057600080fd5b50600436106101375760003560e01c80636352211e116100b8578063b88d4fde1161007c578063b88d4fde1461035f578063c47177f41461037b578063c87b56dd14610397578063e985e9c5146103c7578063f84ddf0b146103f7578063ffe657491461041557610137565b80636352211e1461029557806370a08231146102c55780637ffcb16c146102f557806395d89b4114610325578063a22cb4651461034357610137565b806323b872dd116100ff57806323b872dd146101f25780632db338641461020e57806342842e0e1461022a57806342966c681461024657806361c3a7e61461026257610137565b806301ffc9a71461013c57806306fdde031461016c578063081812fc1461018a578063095ea7b3146101ba57806309abcd3b146101d6575b600080fd5b61015660048036038101906101519190611f51565b610431565b6040516101639190611f99565b60405180910390f35b610174610443565b6040516101819190612044565b60405180910390f35b6101a4600480360381019061019f919061209c565b6104d5565b6040516101b1919061210a565b60405180910390f35b6101d460048036038101906101cf9190612151565b6104f1565b005b6101f060048036038101906101eb91906122c6565b610507565b005b61020c60048036038101906102079190612351565b61065d565b005b61022860048036038101906102239190612151565b61075f565b005b610244600480360381019061023f9190612351565b6107c9565b005b610260600480360381019061025b919061209c565b6107e9565b005b61027c6004803603810190610277919061209c565b610800565b60405161028c94939291906123cc565b60405180910390f35b6102af60048036038101906102aa919061209c565b610940565b6040516102bc919061210a565b60405180910390f35b6102df60048036038101906102da919061241f565b610952565b6040516102ec919061244c565b60405180910390f35b61030f600480360381019061030a9190612493565b610a0c565b60405161031c919061244c565b60405180910390f35b61032d610a24565b60405161033a9190612044565b60405180910390f35b61035d600480360381019061035891906124ec565b610ab6565b005b610379600480360381019061037491906125cd565b610acc565b005b6103956004803603810190610390919061209c565b610ae9565b005b6103b160048036038101906103ac919061209c565b610b22565b6040516103be9190612044565b60405180910390f35b6103e160048036038101906103dc9190612650565b610b34565b6040516103ee9190611f99565b60405180910390f35b6103ff610bc8565b60405161040c919061244c565b60405180910390f35b61042f600480360381019061042a9190612690565b610bce565b005b600061043c82610e4f565b9050919050565b60606000805461045290612766565b80601f016020809104026020016040519081016040528092919081815260200182805461047e90612766565b80156104cb5780601f106104a0576101008083540402835291602001916104cb565b820191906000526020600020905b8154815290600101906020018083116104ae57829003601f168201915b5050505050905090565b60006104e082610eb0565b506104ea82610f38565b9050919050565b61050382826104fe610f75565b610f7d565b5050565b3373ffffffffffffffffffffffffffffffffffffffff1661052784610940565b73ffffffffffffffffffffffffffffffffffffffff161461057d576040517f08c379a0000000000000000000000000000000000000000000000000000000008152600401610574906127e3565b60405180910390fd5b60006008600085815260200190815260200160002060030154036105d6576040517f08c379a00000000000000000000000000000000000000000000000000000000081526004016105cd9061284f565b60405180910390fd5b816008600085815260200190815260200160002060010190816105f99190612a1b565b508060086000858152602001908152602001600020600201908161061d9190612a1b565b50827ff0632914d6d637e9a214fc715dc019e425c105498ffe6fed5e8597ed4920e9c88383604051610650929190612aed565b60405180910390a2505050565b600073ffffffffffffffffffffffffffffffffffffffff168273ffffffffffffffffffffffffffffffffffffffff16036106cf5760006040517f64a0ae920000000000000000000000000000000000000000000000000000000081526004016106c6919061210a565b60405180910390fd5b60006106e383836106de610f75565b610f8f565b90508373ffffffffffffffffffffffffffffffffffffffff168173ffffffffffffffffffffffffffffffffffffffff1614610759578382826040517f64283d7b00000000000000000000000000000000000000000000000000000000815260040161075093929190612b24565b60405180910390fd5b50505050565b61076a3383836107c9565b8173ffffffffffffffffffffffffffffffffffffffff163373ffffffffffffffffffffffffffffffffffffffff16827fd4f6512e9f51f51f993c331d47fd72d3a549b0c0bc1c99556d98edb66e76690060405160405180910390a45050565b6107e483838360405180602001604052806000815250610acc565b505050565b6107fc6000826107f7610f75565b610f8f565b5050565b600860205280600052604060002060009150905080600001549080600101805461082990612766565b80601f016020809104026020016040519081016040528092919081815260200182805461085590612766565b80156108a25780601f10610877576101008083540402835291602001916108a2565b820191906000526020600020905b81548152906001019060200180831161088557829003601f168201915b5050505050908060020180546108b790612766565b80601f01602080910402602001604051908101604052809291908181526020018280546108e390612766565b80156109305780601f1061090557610100808354040283529160200191610930565b820191906000526020600020905b81548152906001019060200180831161091357829003601f168201915b5050505050908060030154905084565b600061094b82610eb0565b9050919050565b60008073ffffffffffffffffffffffffffffffffffffffff168273ffffffffffffffffffffffffffffffffffffffff16036109c55760006040517f89c62b640000000000000000000000000000000000000000000000000000000081526004016109bc919061210a565b60405180910390fd5b600360008373ffffffffffffffffffffffffffffffffffffffff1673ffffffffffffffffffffffffffffffffffffffff168152602001908152602001600020549050919050565b60096020528060005260406000206000915090505481565b606060018054610a3390612766565b80601f0160208091040260200160405190810160405280929190818152602001828054610a5f90612766565b8015610aac5780601f10610a8157610100808354040283529160200191610aac565b820191906000526020600020905b815481529060010190602001808311610a8f57829003601f168201915b5050505050905090565b610ac8610ac1610f75565b83836111a9565b5050565b610ad784848461065d565b610ae384848484611318565b50505050565b610af2816107e9565b807f89af6ba62ab348dc535a3187c267090f834c868a3820cd552a7110c3dc3eedb860405160405180910390a250565b6060610b2d826114cf565b9050919050565b6000600560008473ffffffffffffffffffffffffffffffffffffffff1673ffffffffffffffffffffffffffffffffffffffff16815260200190815260200160002060008373ffffffffffffffffffffffffffffffffffffffff1673ffffffffffffffffffffffffffffffffffffffff16815260200190815260200160002060009054906101000a900460ff16905092915050565b600a5481565b600760009054906101000a900461ffff1661ffff1683511115610c26576040517f08c379a0000000000000000000000000000000000000000000000000000000008152600401610c1d90612ba7565b60405180910390fd5b600760029054906101000a900463ffffffff1663ffffffff1682511115610c82576040517f08c379a0000000000000000000000000000000000000000000000000000000008152600401610c7990612c13565b60405180910390fd5b60008242604051602001610c97929190612c90565b6040516020818303038152906040528051906020012090506000600960008381526020019081526020016000205490506000811480610d0a5750600073ffffffffffffffffffffffffffffffffffffffff16610cf2826115e2565b73ffffffffffffffffffffffffffffffffffffffff16145b610d49576040517f08c379a0000000000000000000000000000000000000000000000000000000008152600401610d4090612d04565b60405180910390fd5b600a6000815480929190610d5c90612d53565b919050555060405180608001604052808381526020018681526020018581526020014281525060086000600a548152602001908152602001600020600082015181600001556020820151816001019081610db69190612a1b565b506040820151816002019081610dcc9190612a1b565b5060608201518160030155905050600a546009600084815260200190815260200160002081905550610e0033600a5461161f565b610e0c600a548461163d565b600a547f7b17cec98a34b9bfb820ec7d14bde246bd07fe7d020da060964a681219ce97258686604051610e40929190612aed565b60405180910390a25050505050565b6000634906490660e01b7bffffffffffffffffffffffffffffffffffffffffffffffffffffffff1916827bffffffffffffffffffffffffffffffffffffffffffffffffffffffff19161480610ea95750610ea882611699565b5b9050919050565b600080610ebc836115e2565b9050600073ffffffffffffffffffffffffffffffffffffffff168173ffffffffffffffffffffffffffffffffffffffff1603610f2f57826040517f7e273289000000000000000000000000000000000000000000000000000000008152600401610f26919061244c565b60405180910390fd5b80915050919050565b60006004600083815260200190815260200160002060009054906101000a900473ffffffffffffffffffffffffffffffffffffffff169050919050565b600033905090565b610f8a838383600161177b565b505050565b600080610f9b846115e2565b9050600073ffffffffffffffffffffffffffffffffffffffff168373ffffffffffffffffffffffffffffffffffffffff1614610fdd57610fdc818486611940565b5b600073ffffffffffffffffffffffffffffffffffffffff168173ffffffffffffffffffffffffffffffffffffffff161461106e5761101f60008560008061177b565b6001600360008373ffffffffffffffffffffffffffffffffffffffff1673ffffffffffffffffffffffffffffffffffffffff168152602001908152602001600020600082825403925050819055505b600073ffffffffffffffffffffffffffffffffffffffff168573ffffffffffffffffffffffffffffffffffffffff16146110f1576001600360008773ffffffffffffffffffffffffffffffffffffffff1673ffffffffffffffffffffffffffffffffffffffff168152602001908152602001600020600082825401925050819055505b846002600086815260200190815260200160002060006101000a81548173ffffffffffffffffffffffffffffffffffffffff021916908373ffffffffffffffffffffffffffffffffffffffff160217905550838573ffffffffffffffffffffffffffffffffffffffff168273ffffffffffffffffffffffffffffffffffffffff167fddf252ad1be2c89b69c2b068fc378daa952ba7f163c4a11628f55a4df523b3ef60405160405180910390a4809150509392505050565b600073ffffffffffffffffffffffffffffffffffffffff168273ffffffffffffffffffffffffffffffffffffffff160361121a57816040517f5b08ba18000000000000000000000000000000000000000000000000000000008152600401611211919061210a565b60405180910390fd5b80600560008573ffffffffffffffffffffffffffffffffffffffff1673ffffffffffffffffffffffffffffffffffffffff16815260200190815260200160002060008473ffffffffffffffffffffffffffffffffffffffff1673ffffffffffffffffffffffffffffffffffffffff16815260200190815260200160002060006101000a81548160ff0219169083151502179055508173ffffffffffffffffffffffffffffffffffffffff168373ffffffffffffffffffffffffffffffffffffffff167f17307eab39ab6107e8899845ad3d59bd9653f200f220920489ca2b5937696c318360405161130b9190611f99565b60405180910390a3505050565b60008373ffffffffffffffffffffffffffffffffffffffff163b11156114c9578273ffffffffffffffffffffffffffffffffffffffff1663150b7a0261135c610f75565b8685856040518563ffffffff1660e01b815260040161137e9493929190612df0565b6020604051808303816000875af19250505080156113ba57506040513d601f19601f820116820180604052508101906113b79190612e51565b60015b61143e573d80600081146113ea576040519150601f19603f3d011682016040523d82523d6000602084013e6113ef565b606091505b50600081510361143657836040517f64a0ae9200000000000000000000000000000000000000000000000000000000815260040161142d919061210a565b60405180910390fd5b805181602001fd5b63150b7a0260e01b7bffffffffffffffffffffffffffffffffffffffffffffffffffffffff1916817bffffffffffffffffffffffffffffffffffffffffffffffffffffffff1916146114c757836040517f64a0ae920000000000000000000000000000000000000000000000000000000081526004016114be919061210a565b60405180910390fd5b505b50505050565b60606114da82610eb0565b5060006006600084815260200190815260200160002080546114fb90612766565b80601f016020809104026020016040519081016040528092919081815260200182805461152790612766565b80156115745780601f1061154957610100808354040283529160200191611574565b820191906000526020600020905b81548152906001019060200180831161155757829003601f168201915b505050505090506000611585611a04565b9050600081510361159a5781925050506115dd565b6000825111156115cf5780826040516020016115b7929190612e7e565b604051602081830303815290604052925050506115dd565b6115d884611a1b565b925050505b919050565b60006002600083815260200190815260200160002060009054906101000a900473ffffffffffffffffffffffffffffffffffffffff169050919050565b611639828260405180602001604052806000815250611a84565b5050565b8060066000848152602001908152602001600020908161165d9190612a1b565b507ff8e1a15aba9398e019f0b49df1a4fde98ee17ae345cb5f6b5e2c27f5033e8ce78260405161168d919061244c565b60405180910390a15050565b60007f80ac58cd000000000000000000000000000000000000000000000000000000007bffffffffffffffffffffffffffffffffffffffffffffffffffffffff1916827bffffffffffffffffffffffffffffffffffffffffffffffffffffffff1916148061176457507f5b5e139f000000000000000000000000000000000000000000000000000000007bffffffffffffffffffffffffffffffffffffffffffffffffffffffff1916827bffffffffffffffffffffffffffffffffffffffffffffffffffffffff1916145b80611774575061177382611aa0565b5b9050919050565b80806117b45750600073ffffffffffffffffffffffffffffffffffffffff168273ffffffffffffffffffffffffffffffffffffffff1614155b156118e85760006117c484610eb0565b9050600073ffffffffffffffffffffffffffffffffffffffff168373ffffffffffffffffffffffffffffffffffffffff161415801561182f57508273ffffffffffffffffffffffffffffffffffffffff168173ffffffffffffffffffffffffffffffffffffffff1614155b801561184257506118408184610b34565b155b1561188457826040517fa9fbf51f00000000000000000000000000000000000000000000000000000000815260040161187b919061210a565b60405180910390fd5b81156118e657838573ffffffffffffffffffffffffffffffffffffffff168273ffffffffffffffffffffffffffffffffffffffff167f8c5be1e5ebec7d5bd14f71427d1e84f3dd0314c0f7b2291e5b200ac8c7c3b92560405160405180910390a45b505b836004600085815260200190815260200160002060006101000a81548173ffffffffffffffffffffffffffffffffffffffff021916908373ffffffffffffffffffffffffffffffffffffffff16021790555050505050565b61194b838383611b0a565b6119ff57600073ffffffffffffffffffffffffffffffffffffffff168373ffffffffffffffffffffffffffffffffffffffff16036119c057806040517f7e2732890000000000000000000000000000000000000000000000000000000081526004016119b7919061244c565b60405180910390fd5b81816040517f177e802f0000000000000000000000000000000000000000000000000000000081526004016119f6929190612ea2565b60405180910390fd5b505050565b606060405180602001604052806000815250905090565b6060611a2682610eb0565b506000611a31611a04565b90506000815111611a515760405180602001604052806000815250611a7c565b80611a5b84611bcb565b604051602001611a6c929190612e7e565b6040516020818303038152906040525b915050919050565b611a8e8383611c99565b611a9b6000848484611318565b505050565b60007f01ffc9a7000000000000000000000000000000000000000000000000000000007bffffffffffffffffffffffffffffffffffffffffffffffffffffffff1916827bffffffffffffffffffffffffffffffffffffffffffffffffffffffff1916149050919050565b60008073ffffffffffffffffffffffffffffffffffffffff168373ffffffffffffffffffffffffffffffffffffffff1614158015611bc257508273ffffffffffffffffffffffffffffffffffffffff168473ffffffffffffffffffffffffffffffffffffffff161480611b835750611b828484610b34565b5b80611bc157508273ffffffffffffffffffffffffffffffffffffffff16611ba983610f38565b73ffffffffffffffffffffffffffffffffffffffff16145b5b90509392505050565b606060006001611bda84611d92565b01905060008167ffffffffffffffff811115611bf957611bf861219b565b5b6040519080825280601f01601f191660200182016040528015611c2b5781602001600182028036833780820191505090505b509050600082602001820190505b600115611c8e578080600190039150507f3031323334353637383961626364656600000000000000000000000000000000600a86061a8153600a8581611c8257611c81612ecb565b5b04945060008503611c39575b819350505050919050565b600073ffffffffffffffffffffffffffffffffffffffff168273ffffffffffffffffffffffffffffffffffffffff1603611d0b5760006040517f64a0ae92000000000000000000000000000000000000000000000000000000008152600401611d02919061210a565b60405180910390fd5b6000611d1983836000610f8f565b9050600073ffffffffffffffffffffffffffffffffffffffff168173ffffffffffffffffffffffffffffffffffffffff1614611d8d5760006040517f73c6ac6e000000000000000000000000000000000000000000000000000000008152600401611d84919061210a565b60405180910390fd5b505050565b600080600090507a184f03e93ff9f4daa797ed6e38ed64bf6a1f0100000000000000008310611df0577a184f03e93ff9f4daa797ed6e38ed64bf6a1f0100000000000000008381611de657611de5612ecb565b5b0492506040810190505b6d04ee2d6d415b85acef81000000008310611e2d576d04ee2d6d415b85acef81000000008381611e2357611e22612ecb565b5b0492506020810190505b662386f26fc100008310611e5c57662386f26fc100008381611e5257611e51612ecb565b5b0492506010810190505b6305f5e1008310611e85576305f5e1008381611e7b57611e7a612ecb565b5b0492506008810190505b6127108310611eaa576127108381611ea057611e9f612ecb565b5b0492506004810190505b60648310611ecd5760648381611ec357611ec2612ecb565b5b0492506002810190505b600a8310611edc576001810190505b80915050919050565b6000604051905090565b600080fd5b600080fd5b60007fffffffff0000000000000000000000000000000000000000000000000000000082169050919050565b611f2e81611ef9565b8114611f3957600080fd5b50565b600081359050611f4b81611f25565b92915050565b600060208284031215611f6757611f66611eef565b5b6000611f7584828501611f3c565b91505092915050565b60008115159050919050565b611f9381611f7e565b82525050565b6000602082019050611fae6000830184611f8a565b92915050565b600081519050919050565b600082825260208201905092915050565b60005b83811015611fee578082015181840152602081019050611fd3565b60008484015250505050565b6000601f19601f8301169050919050565b600061201682611fb4565b6120208185611fbf565b9350612030818560208601611fd0565b61203981611ffa565b840191505092915050565b6000602082019050818103600083015261205e818461200b565b905092915050565b6000819050919050565b61207981612066565b811461208457600080fd5b50565b60008135905061209681612070565b92915050565b6000602082840312156120b2576120b1611eef565b5b60006120c084828501612087565b91505092915050565b600073ffffffffffffffffffffffffffffffffffffffff82169050919050565b60006120f4826120c9565b9050919050565b612104816120e9565b82525050565b600060208201905061211f60008301846120fb565b92915050565b61212e816120e9565b811461213957600080fd5b50565b60008135905061214b81612125565b92915050565b6000806040838503121561216857612167611eef565b5b60006121768582860161213c565b925050602061218785828601612087565b9150509250929050565b600080fd5b600080fd5b7f4e487b7100000000000000000000000000000000000000000000000000000000600052604160045260246000fd5b6121d382611ffa565b810181811067ffffffffffffffff821117156121f2576121f161219b565b5b80604052505050565b6000612205611ee5565b905061221182826121ca565b919050565b600067ffffffffffffffff8211156122315761223061219b565b5b61223a82611ffa565b9050602081019050919050565b82818337600083830152505050565b600061226961226484612216565b6121fb565b90508281526020810184848401111561228557612284612196565b5b612290848285612247565b509392505050565b600082601f8301126122ad576122ac612191565b5b81356122bd848260208601612256565b91505092915050565b6000806000606084860312156122df576122de611eef565b5b60006122ed86828701612087565b935050602084013567ffffffffffffffff81111561230e5761230d611ef4565b5b61231a86828701612298565b925050604084013567ffffffffffffffff81111561233b5761233a611ef4565b5b61234786828701612298565b9150509250925092565b60008060006060848603121561236a57612369611eef565b5b60006123788682870161213c565b93505060206123898682870161213c565b925050604061239a86828701612087565b9150509250925092565b6000819050919050565b6123b7816123a4565b82525050565b6123c681612066565b82525050565b60006080820190506123e160008301876123ae565b81810360208301526123f3818661200b565b90508181036040830152612407818561200b565b905061241660608301846123bd565b95945050505050565b60006020828403121561243557612434611eef565b5b60006124438482850161213c565b91505092915050565b600060208201905061246160008301846123bd565b92915050565b612470816123a4565b811461247b57600080fd5b50565b60008135905061248d81612467565b92915050565b6000602082840312156124a9576124a8611eef565b5b60006124b78482850161247e565b91505092915050565b6124c981611f7e565b81146124d457600080fd5b50565b6000813590506124e6816124c0565b92915050565b6000806040838503121561250357612502611eef565b5b60006125118582860161213c565b9250506020612522858286016124d7565b9150509250929050565b600067ffffffffffffffff8211156125475761254661219b565b5b61255082611ffa565b9050602081019050919050565b600061257061256b8461252c565b6121fb565b90508281526020810184848401111561258c5761258b612196565b5b612597848285612247565b509392505050565b600082601f8301126125b4576125b3612191565b5b81356125c484826020860161255d565b91505092915050565b600080600080608085870312156125e7576125e6611eef565b5b60006125f58782880161213c565b94505060206126068782880161213c565b935050604061261787828801612087565b925050606085013567ffffffffffffffff81111561263857612637611ef4565b5b6126448782880161259f565b91505092959194509250565b6000806040838503121561266757612666611eef565b5b60006126758582860161213c565b92505060206126868582860161213c565b9150509250929050565b6000806000606084860312156126a9576126a8611eef565b5b600084013567ffffffffffffffff8111156126c7576126c6611ef4565b5b6126d386828701612298565b935050602084013567ffffffffffffffff8111156126f4576126f3611ef4565b5b61270086828701612298565b925050604084013567ffffffffffffffff81111561272157612720611ef4565b5b61272d86828701612298565b9150509250925092565b7f4e487b7100000000000000000000000000000000000000000000000000000000600052602260045260246000fd5b6000600282049050600182168061277e57607f821691505b60208210810361279157612790612737565b5b50919050565b7f4163636573732064656e69656400000000000000000000000000000000000000600082015250565b60006127cd600d83611fbf565b91506127d882612797565b602082019050919050565b600060208201905081810360008301526127fc816127c0565b9050919050565b7f4e6f7465206e6f7420666f756e64000000000000000000000000000000000000600082015250565b6000612839600e83611fbf565b915061284482612803565b602082019050919050565b600060208201905081810360008301526128688161282c565b9050919050565b60008190508160005260206000209050919050565b60006020601f8301049050919050565b600082821b905092915050565b6000600883026128d17fffffffffffffffffffffffffffffffffffffffffffffffffffffffffffffffff82612894565b6128db8683612894565b95508019841693508086168417925050509392505050565b6000819050919050565b600061291861291361290e84612066565b6128f3565b612066565b9050919050565b6000819050919050565b612932836128fd565b61294661293e8261291f565b8484546128a1565b825550505050565b600090565b61295b61294e565b612966818484612929565b505050565b5b8181101561298a5761297f600082612953565b60018101905061296c565b5050565b601f8211156129cf576129a08161286f565b6129a984612884565b810160208510156129b8578190505b6129cc6129c485612884565b83018261296b565b50505b505050565b600082821c905092915050565b60006129f2600019846008026129d4565b1980831691505092915050565b6000612a0b83836129e1565b9150826002028217905092915050565b612a2482611fb4565b67ffffffffffffffff811115612a3d57612a3c61219b565b5b612a478254612766565b612a5282828561298e565b600060209050601f831160018114612a855760008415612a73578287015190505b612a7d85826129ff565b865550612ae5565b601f198416612a938661286f565b60005b82811015612abb57848901518255600182019150602085019450602081019050612a96565b86831015612ad85784890151612ad4601f8916826129e1565b8355505b6001600288020188555050505b505050505050565b60006040820190508181036000830152612b07818561200b565b90508181036020830152612b1b818461200b565b90509392505050565b6000606082019050612b3960008301866120fb565b612b4660208301856123bd565b612b5360408301846120fb565b949350505050565b7f4e616d6520697320746f6f206c61726765000000000000000000000000000000600082015250565b6000612b91601183611fbf565b9150612b9c82612b5b565b602082019050919050565b60006020820190508181036000830152612bc081612b84565b9050919050565b7f436f6e74656e7420697320746f6f206c61726765000000000000000000000000600082015250565b6000612bfd601483611fbf565b9150612c0882612bc7565b602082019050919050565b60006020820190508181036000830152612c2c81612bf0565b9050919050565b600081905092915050565b6000612c4982611fb4565b612c538185612c33565b9350612c63818560208601611fd0565b80840191505092915050565b6000819050919050565b612c8a612c8582612066565b612c6f565b82525050565b6000612c9c8285612c3e565b9150612ca88284612c79565b6020820191508190509392505050565b7f4e6f746520616c72656164792065786973747300000000000000000000000000600082015250565b6000612cee601383611fbf565b9150612cf982612cb8565b602082019050919050565b60006020820190508181036000830152612d1d81612ce1565b9050919050565b7f4e487b7100000000000000000000000000000000000000000000000000000000600052601160045260246000fd5b6000612d5e82612066565b91507fffffffffffffffffffffffffffffffffffffffffffffffffffffffffffffffff8203612d9057612d8f612d24565b5b600182019050919050565b600081519050919050565b600082825260208201905092915050565b6000612dc282612d9b565b612dcc8185612da6565b9350612ddc818560208601611fd0565b612de581611ffa565b840191505092915050565b6000608082019050612e0560008301876120fb565b612e1260208301866120fb565b612e1f60408301856123bd565b8181036060830152612e318184612db7565b905095945050505050565b600081519050612e4b81611f25565b92915050565b600060208284031215612e6757612e66611eef565b5b6000612e7584828501612e3c565b91505092915050565b6000612e8a8285612c3e565b9150612e968284612c3e565b91508190509392505050565b6000604082019050612eb760008301856120fb565b612ec460208301846123bd565b9392505050565b7f4e487b7100000000000000000000000000000000000000000000000000000000600052601260045260246000fdfea2646970667358221220bed808acd104dc255562f5bffc22c69957ae159d651a5376109aa49c4b5211de64736f6c63430008180033","opcodes":"PUSH1 0x80 PUSH1 0x40 MSTORE PUSH1 0x32 PUSH1 0x7 PUSH1 0x0 PUSH2 0x100 EXP DUP2 SLOAD DUP2 PUSH2 0xFFFF MUL NOT AND SWAP1 DUP4 PUSH2 0xFFFF AND MUL OR SWAP1 SSTORE POP PUSH2 0x3E8 PUSH1 0x7 PUSH1 0x2 PUSH2 0x100 EXP DUP2 SLOAD DUP2 PUSH4 0xFFFFFFFF MUL NOT AND SWAP1 DUP4 PUSH4 0xFFFFFFFF AND MUL OR SWAP1 SSTORE POP CALLVALUE DUP1 ISZERO PUSH3 0x52 JUMPI PUSH1 0x0 DUP1 REVERT JUMPDEST POP PUSH1 0x40 MLOAD DUP1 PUSH1 0x40 ADD PUSH1 0x40 MSTORE DUP1 PUSH1 0x8 DUP2 MSTORE PUSH1 0x20 ADD PUSH32 0x4E6F746573323536000000000000000000000000000000000000000000000000 DUP2 MSTORE POP PUSH1 0x40 MLOAD DUP1 PUSH1 0x40 ADD PUSH1 0x40 MSTORE DUP1 PUSH1 0x3 DUP2 MSTORE PUSH1 0x20 ADD PUSH32 0x4E54530000000000000000000000000000000000000000000000000000000000 DUP2 MSTORE POP DUP2 PUSH1 0x0 SWAP1 DUP2 PUSH3 0xD0 SWAP2 SWAP1 PUSH3 0x365 JUMP JUMPDEST POP DUP1 PUSH1 0x1 SWAP1 DUP2 PUSH3 0xE2 SWAP2 SWAP1 PUSH3 0x365 JUMP JUMPDEST POP POP POP PUSH3 0x44C JUMP JUMPDEST PUSH1 0x0 DUP2 MLOAD SWAP1 POP SWAP2 SWAP1 POP JUMP JUMPDEST PUSH32 0x4E487B7100000000000000000000000000000000000000000000000000000000 PUSH1 0x0 MSTORE PUSH1 0x41 PUSH1 0x4 MSTORE PUSH1 0x24 PUSH1 0x0 REVERT JUMPDEST PUSH32 0x4E487B7100000000000000000000000000000000000000000000000000000000 PUSH1 0x0 MSTORE PUSH1 0x22 PUSH1 0x4 MSTORE PUSH1 0x24 PUSH1 0x0 REVERT JUMPDEST PUSH1 0x0 PUSH1 0x2 DUP3 DIV SWAP1 POP PUSH1 0x1 DUP3 AND DUP1 PUSH3 0x16D JUMPI PUSH1 0x7F DUP3 AND SWAP2 POP JUMPDEST PUSH1 0x20 DUP3 LT DUP2 SUB PUSH3 0x183 JUMPI PUSH3 0x182 PUSH3 0x125 JUMP JUMPDEST JUMPDEST POP SWAP2 SWAP1 POP JUMP JUMPDEST PUSH1 0x0 DUP2 SWAP1 POP DUP2 PUSH1 0x0 MSTORE PUSH1 0x20 PUSH1 0x0 KECCAK256 SWAP1 POP SWAP2 SWAP1 POP JUMP JUMPDEST PUSH1 0x0 PUSH1 0x20 PUSH1 0x1F DUP4 ADD DIV SWAP1 POP SWAP2 SWAP1 POP JUMP JUMPDEST PUSH1 0x0 DUP3 DUP3 SHL SWAP1 POP SWAP3 SWAP2 POP POP JUMP JUMPDEST PUSH1 0x0 PUSH1 0x8 DUP4 MUL PUSH3 0x1ED PUSH32 0xFFFFFFFFFFFFFFFFFFFFFFFFFFFFFFFFFFFFFFFFFFFFFFFFFFFFFFFFFFFFFFFF DUP3 PUSH3 0x1AE JUMP JUMPDEST PUSH3 0x1F9 DUP7 DUP4 PUSH3 0x1AE JUMP JUMPDEST SWAP6 POP DUP1 NOT DUP5 AND SWAP4 POP DUP1 DUP7 AND DUP5 OR SWAP3 POP POP POP SWAP4 SWAP3 POP POP POP JUMP JUMPDEST PUSH1 0x0 DUP2 SWAP1 POP SWAP2 SWAP1 POP JUMP JUMPDEST PUSH1 0x0 DUP2 SWAP1 POP SWAP2 SWAP1 POP JUMP JUMPDEST PUSH1 0x0 PUSH3 0x246 PUSH3 0x240 PUSH3 0x23A DUP5 PUSH3 0x211 JUMP JUMPDEST PUSH3 0x21B JUMP JUMPDEST PUSH3 0x211 JUMP JUMPDEST SWAP1 POP SWAP2 SWAP1 POP JUMP JUMPDEST PUSH1 0x0 DUP2 SWAP1 POP SWAP2 SWAP1 POP JUMP JUMPDEST PUSH3 0x262 DUP4 PUSH3 0x225 JUMP JUMPDEST PUSH3 0x27A PUSH3 0x271 DUP3 PUSH3 0x24D JUMP JUMPDEST DUP5 DUP5 SLOAD PUSH3 0x1BB JUMP JUMPDEST DUP3 SSTORE POP POP POP POP JUMP JUMPDEST PUSH1 0x0 SWAP1 JUMP JUMPDEST PUSH3 0x291 PUSH3 0x282 JUMP JUMPDEST PUSH3 0x29E DUP2 DUP5 DUP5 PUSH3 0x257 JUMP JUMPDEST POP POP POP JUMP JUMPDEST JUMPDEST DUP2 DUP2 LT ISZERO PUSH3 0x2C6 JUMPI PUSH3 0x2BA PUSH1 0x0 DUP3 PUSH3 0x287 JUMP JUMPDEST PUSH1 0x1 DUP2 ADD SWAP1 POP PUSH3 0x2A4 JUMP JUMPDEST POP POP JUMP JUMPDEST PUSH1 0x1F DUP3 GT ISZERO PUSH3 0x315 JUMPI PUSH3 0x2DF DUP2 PUSH3 0x189 JUMP JUMPDEST PUSH3 0x2EA DUP5 PUSH3 0x19E JUMP JUMPDEST DUP2 ADD PUSH1 0x20 DUP6 LT ISZERO PUSH3 0x2FA JUMPI DUP2 SWAP1 POP JUMPDEST PUSH3 0x312 PUSH3 0x309 DUP6 PUSH3 0x19E JUMP JUMPDEST DUP4 ADD DUP3 PUSH3 0x2A3 JUMP JUMPDEST POP POP JUMPDEST POP POP POP JUMP JUMPDEST PUSH1 0x0 DUP3 DUP3 SHR SWAP1 POP SWAP3 SWAP2 POP POP JUMP JUMPDEST PUSH1 0x0 PUSH3 0x33A PUSH1 0x0 NOT DUP5 PUSH1 0x8 MUL PUSH3 0x31A JUMP JUMPDEST NOT DUP1 DUP4 AND SWAP2 POP POP SWAP3 SWAP2 POP POP JUMP JUMPDEST PUSH1 0x0 PUSH3 0x355 DUP4 DUP4 PUSH3 0x327 JUMP JUMPDEST SWAP2 POP DUP3 PUSH1 0x2 MUL DUP3 OR SWAP1 POP SWAP3 SWAP2 POP POP JUMP JUMPDEST PUSH3 0x370 DUP3 PUSH3 0xEB JUMP JUMPDEST PUSH8 0xFFFFFFFFFFFFFFFF DUP2 GT ISZERO PUSH3 0x38C JUMPI PUSH3 0x38B PUSH3 0xF6 JUMP JUMPDEST JUMPDEST PUSH3 0x398 DUP3 SLOAD PUSH3 0x154 JUMP JUMPDEST PUSH3 0x3A5 DUP3 DUP3 DUP6 PUSH3 0x2CA JUMP JUMPDEST PUSH1 0x0 PUSH1 0x20 SWAP1 POP PUSH1 0x1F DUP4 GT PUSH1 0x1 DUP2 EQ PUSH3 0x3DD JUMPI PUSH1 0x0 DUP5 ISZERO PUSH3 0x3C8 JUMPI DUP3 DUP8 ADD MLOAD SWAP1 POP JUMPDEST PUSH3 0x3D4 DUP6 DUP3 PUSH3 0x347 JUMP JUMPDEST DUP7 SSTORE POP PUSH3 0x444 JUMP JUMPDEST PUSH1 0x1F NOT DUP5 AND PUSH3 0x3ED DUP7 PUSH3 0x189 JUMP JUMPDEST PUSH1 0x0 JUMPDEST DUP3 DUP2 LT ISZERO PUSH3 0x417 JUMPI DUP5 DUP10 ADD MLOAD DUP3 SSTORE PUSH1 0x1 DUP3 ADD SWAP2 POP PUSH1 0x20 DUP6 ADD SWAP5 POP PUSH1 0x20 DUP2 ADD SWAP1 POP PUSH3 0x3F0 JUMP JUMPDEST DUP7 DUP4 LT ISZERO PUSH3 0x437 JUMPI DUP5 DUP10 ADD MLOAD PUSH3 0x433 PUSH1 0x1F DUP10 AND DUP3 PUSH3 0x327 JUMP JUMPDEST DUP4 SSTORE POP JUMPDEST PUSH1 0x1 PUSH1 0x2 DUP9 MUL ADD DUP9 SSTORE POP POP POP JUMPDEST POP POP POP POP POP POP JUMP JUMPDEST PUSH2 0x2F30 DUP1 PUSH3 0x45C PUSH1 0x0 CODECOPY PUSH1 0x0 RETURN INVALID PUSH1 0x80 PUSH1 0x40 MSTORE CALLVALUE DUP1 ISZERO PUSH2 0x10 JUMPI PUSH1 0x0 DUP1 REVERT JUMPDEST POP PUSH1 0x4 CALLDATASIZE LT PUSH2 0x137 JUMPI PUSH1 0x0 CALLDATALOAD PUSH1 0xE0 SHR DUP1 PUSH4 0x6352211E GT PUSH2 0xB8 JUMPI DUP1 PUSH4 0xB88D4FDE GT PUSH2 0x7C JUMPI DUP1 PUSH4 0xB88D4FDE EQ PUSH2 0x35F JUMPI DUP1 PUSH4 0xC47177F4 EQ PUSH2 0x37B JUMPI DUP1 PUSH4 0xC87B56DD EQ PUSH2 0x397 JUMPI DUP1 PUSH4 0xE985E9C5 EQ PUSH2 0x3C7 JUMPI DUP1 PUSH4 0xF84DDF0B EQ PUSH2 0x3F7 JUMPI DUP1 PUSH4 0xFFE65749 EQ PUSH2 0x415 JUMPI PUSH2 0x137 JUMP JUMPDEST DUP1 PUSH4 0x6352211E EQ PUSH2 0x295 JUMPI DUP1 PUSH4 0x70A08231 EQ PUSH2 0x2C5 JUMPI DUP1 PUSH4 0x7FFCB16C EQ PUSH2 0x2F5 JUMPI DUP1 PUSH4 0x95D89B41 EQ PUSH2 0x325 JUMPI DUP1 PUSH4 0xA22CB465 EQ PUSH2 0x343 JUMPI PUSH2 0x137 JUMP JUMPDEST DUP1 PUSH4 0x23B872DD GT PUSH2 0xFF JUMPI DUP1 PUSH4 0x23B872DD EQ PUSH2 0x1F2 JUMPI DUP1 PUSH4 0x2DB33864 EQ PUSH2 0x20E JUMPI DUP1 PUSH4 0x42842E0E EQ PUSH2 0x22A JUMPI DUP1 PUSH4 0x42966C68 EQ PUSH2 0x246 JUMPI DUP1 PUSH4 0x61C3A7E6 EQ PUSH2 0x262 JUMPI PUSH2 0x137 JUMP JUMPDEST DUP1 PUSH4 0x1FFC9A7 EQ PUSH2 0x13C JUMPI DUP1 PUSH4 0x6FDDE03 EQ PUSH2 0x16C JUMPI DUP1 PUSH4 0x81812FC EQ PUSH2 0x18A JUMPI DUP1 PUSH4 0x95EA7B3 EQ PUSH2 0x1BA JUMPI DUP1 PUSH4 0x9ABCD3B EQ PUSH2 0x1D6 JUMPI JUMPDEST PUSH1 0x0 DUP1 REVERT JUMPDEST PUSH2 0x156 PUSH1 0x4 DUP1 CALLDATASIZE SUB DUP2 ADD SWAP1 PUSH2 0x151 SWAP2 SWAP1 PUSH2 0x1F51 JUMP JUMPDEST PUSH2 0x431 JUMP JUMPDEST PUSH1 0x40 MLOAD PUSH2 0x163 SWAP2 SWAP1 PUSH2 0x1F99 JUMP JUMPDEST PUSH1 0x40 MLOAD DUP1 SWAP2 SUB SWAP1 RETURN JUMPDEST PUSH2 0x174 PUSH2 0x443 JUMP JUMPDEST PUSH1 0x40 MLOAD PUSH2 0x181 SWAP2 SWAP1 PUSH2 0x2044 JUMP JUMPDEST PUSH1 0x40 MLOAD DUP1 SWAP2 SUB SWAP1 RETURN JUMPDEST PUSH2 0x1A4 PUSH1 0x4 DUP1 CALLDATASIZE SUB DUP2 ADD SWAP1 PUSH2 0x19F SWAP2 SWAP1 PUSH2 0x209C JUMP JUMPDEST PUSH2 0x4D5 JUMP JUMPDEST PUSH1 0x40 MLOAD PUSH2 0x1B1 SWAP2 SWAP1 PUSH2 0x210A JUMP JUMPDEST PUSH1 0x40 MLOAD DUP1 SWAP2 SUB SWAP1 RETURN JUMPDEST PUSH2 0x1D4 PUSH1 0x4 DUP1 CALLDATASIZE SUB DUP2 ADD SWAP1 PUSH2 0x1CF SWAP2 SWAP1 PUSH2 0x2151 JUMP JUMPDEST PUSH2 0x4F1 JUMP JUMPDEST STOP JUMPDEST PUSH2 0x1F0 PUSH1 0x4 DUP1 CALLDATASIZE SUB DUP2 ADD SWAP1 PUSH2 0x1EB SWAP2 SWAP1 PUSH2 0x22C6 JUMP JUMPDEST PUSH2 0x507 JUMP JUMPDEST STOP JUMPDEST PUSH2 0x20C PUSH1 0x4 DUP1 CALLDATASIZE SUB DUP2 ADD SWAP1 PUSH2 0x207 SWAP2 SWAP1 PUSH2 0x2351 JUMP JUMPDEST PUSH2 0x65D JUMP JUMPDEST STOP JUMPDEST PUSH2 0x228 PUSH1 0x4 DUP1 CALLDATASIZE SUB DUP2 ADD SWAP1 PUSH2 0x223 SWAP2 SWAP1 PUSH2 0x2151 JUMP JUMPDEST PUSH2 0x75F JUMP JUMPDEST STOP JUMPDEST PUSH2 0x244 PUSH1 0x4 DUP1 CALLDATASIZE SUB DUP2 ADD SWAP1 PUSH2 0x23F SWAP2 SWAP1 PUSH2 0x2351 JUMP JUMPDEST PUSH2 0x7C9 JUMP JUMPDEST STOP JUMPDEST PUSH2 0x260 PUSH1 0x4 DUP1 CALLDATASIZE SUB DUP2 ADD SWAP1 PUSH2 0x25B SWAP2 SWAP1 PUSH2 0x209C JUMP JUMPDEST PUSH2 0x7E9 JUMP JUMPDEST STOP JUMPDEST PUSH2 0x27C PUSH1 0x4 DUP1 CALLDATASIZE SUB DUP2 ADD SWAP1 PUSH2 0x277 SWAP2 SWAP1 PUSH2 0x209C JUMP JUMPDEST PUSH2 0x800 JUMP JUMPDEST PUSH1 0x40 MLOAD PUSH2 0x28C SWAP5 SWAP4 SWAP3 SWAP2 SWAP1 PUSH2 0x23CC JUMP JUMPDEST PUSH1 0x40 MLOAD DUP1 SWAP2 SUB SWAP1 RETURN JUMPDEST PUSH2 0x2AF PUSH1 0x4 DUP1 CALLDATASIZE SUB DUP2 ADD SWAP1 PUSH2 0x2AA SWAP2 SWAP1 PUSH2 0x209C JUMP JUMPDEST PUSH2 0x940 JUMP JUMPDEST PUSH1 0x40 MLOAD PUSH2 0x2BC SWAP2 SWAP1 PUSH2 0x210A JUMP JUMPDEST PUSH1 0x40 MLOAD DUP1 SWAP2 SUB SWAP1 RETURN JUMPDEST PUSH2 0x2DF PUSH1 0x4 DUP1 CALLDATASIZE SUB DUP2 ADD SWAP1 PUSH2 0x2DA SWAP2 SWAP1 PUSH2 0x241F JUMP JUMPDEST PUSH2 0x952 JUMP JUMPDEST PUSH1 0x40 MLOAD PUSH2 0x2EC SWAP2 SWAP1 PUSH2 0x244C JUMP JUMPDEST PUSH1 0x40 MLOAD DUP1 SWAP2 SUB SWAP1 RETURN JUMPDEST PUSH2 0x30F PUSH1 0x4 DUP1 CALLDATASIZE SUB DUP2 ADD SWAP1 PUSH2 0x30A SWAP2 SWAP1 PUSH2 0x2493 JUMP JUMPDEST PUSH2 0xA0C JUMP JUMPDEST PUSH1 0x40 MLOAD PUSH2 0x31C SWAP2 SWAP1 PUSH2 0x244C JUMP JUMPDEST PUSH1 0x40 MLOAD DUP1 SWAP2 SUB SWAP1 RETURN JUMPDEST PUSH2 0x32D PUSH2 0xA24 JUMP JUMPDEST PUSH1 0x40 MLOAD PUSH2 0x33A SWAP2 SWAP1 PUSH2 0x2044 JUMP JUMPDEST PUSH1 0x40 MLOAD DUP1 SWAP2 SUB SWAP1 RETURN JUMPDEST PUSH2 0x35D PUSH1 0x4 DUP1 CALLDATASIZE SUB DUP2 ADD SWAP1 PUSH2 0x358 SWAP2 SWAP1 PUSH2 0x24EC JUMP JUMPDEST PUSH2 0xAB6 JUMP JUMPDEST STOP JUMPDEST PUSH2 0x379 PUSH1 0x4 DUP1 CALLDATASIZE SUB DUP2 ADD SWAP1 PUSH2 0x374 SWAP2 SWAP1 PUSH2 0x25CD JUMP JUMPDEST PUSH2 0xACC JUMP JUMPDEST STOP JUMPDEST PUSH2 0x395 PUSH1 0x4 DUP1 CALLDATASIZE SUB DUP2 ADD SWAP1 PUSH2 0x390 SWAP2 SWAP1 PUSH2 0x209C JUMP JUMPDEST PUSH2 0xAE9 JUMP JUMPDEST STOP JUMPDEST PUSH2 0x3B1 PUSH1 0x4 DUP1 CALLDATASIZE SUB DUP2 ADD SWAP1 PUSH2 0x3AC SWAP2 SWAP1 PUSH2 0x209C JUMP JUMPDEST PUSH2 0xB22 JUMP JUMPDEST PUSH1 0x40 MLOAD PUSH2 0x3BE SWAP2 SWAP1 PUSH2 0x2044 JUMP JUMPDEST PUSH1 0x40 MLOAD DUP1 SWAP2 SUB SWAP1 RETURN JUMPDEST PUSH2 0x3E1 PUSH1 0x4 DUP1 CALLDATASIZE SUB DUP2 ADD SWAP1 PUSH2 0x3DC SWAP2 SWAP1 PUSH2 0x2650 JUMP JUMPDEST PUSH2 0xB34 JUMP JUMPDEST PUSH1 0x40 MLOAD PUSH2 0x3EE SWAP2 SWAP1 PUSH2 0x1F99 JUMP JUMPDEST PUSH1 0x40 MLOAD DUP1 SWAP2 SUB SWAP1 RETURN JUMPDEST PUSH2 0x3FF PUSH2 0xBC8 JUMP JUMPDEST PUSH1 0x40 MLOAD PUSH2 0x40C SWAP2 SWAP1 PUSH2 0x244C JUMP JUMPDEST PUSH1 0x40 MLOAD DUP1 SWAP2 SUB SWAP1 RETURN JUMPDEST PUSH2 0x42F PUSH1 0x4 DUP1 CALLDATASIZE SUB DUP2 ADD SWAP1 PUSH2 0x42A SWAP2 SWAP1 PUSH2 0x2690 JUMP JUMPDEST PUSH2 0xBCE JUMP JUMPDEST STOP JUMPDEST PUSH1 0x0 PUSH2 0x43C DUP3 PUSH2 0xE4F JUMP JUMPDEST SWAP1 POP SWAP2 SWAP1 POP JUMP JUMPDEST PUSH1 0x60 PUSH1 0x0 DUP1 SLOAD PUSH2 0x452 SWAP1 PUSH2 0x2766 JUMP JUMPDEST DUP1 PUSH1 0x1F ADD PUSH1 0x20 DUP1 SWAP2 DIV MUL PUSH1 0x20 ADD PUSH1 0x40 MLOAD SWAP1 DUP2 ADD PUSH1 0x40 MSTORE DUP1 SWAP3 SWAP2 SWAP1 DUP2 DUP2 MSTORE PUSH1 0x20 ADD DUP3 DUP1 SLOAD PUSH2 0x47E SWAP1 PUSH2 0x2766 JUMP JUMPDEST DUP1 ISZERO PUSH2 0x4CB JUMPI DUP1 PUSH1 0x1F LT PUSH2 0x4A0 JUMPI PUSH2 0x100 DUP1 DUP4 SLOAD DIV MUL DUP4 MSTORE SWAP2 PUSH1 0x20 ADD SWAP2 PUSH2 0x4CB JUMP JUMPDEST DUP3 ADD SWAP2 SWAP1 PUSH1 0x0 MSTORE PUSH1 0x20 PUSH1 0x0 KECCAK256 SWAP1 JUMPDEST DUP2 SLOAD DUP2 MSTORE SWAP1 PUSH1 0x1 ADD SWAP1 PUSH1 0x20 ADD DUP1 DUP4 GT PUSH2 0x4AE JUMPI DUP3 SWAP1 SUB PUSH1 0x1F AND DUP3 ADD SWAP2 JUMPDEST POP POP POP POP POP SWAP1 POP SWAP1 JUMP JUMPDEST PUSH1 0x0 PUSH2 0x4E0 DUP3 PUSH2 0xEB0 JUMP JUMPDEST POP PUSH2 0x4EA DUP3 PUSH2 0xF38 JUMP JUMPDEST SWAP1 POP SWAP2 SWAP1 POP JUMP JUMPDEST PUSH2 0x503 DUP3 DUP3 PUSH2 0x4FE PUSH2 0xF75 JUMP JUMPDEST PUSH2 0xF7D JUMP JUMPDEST POP POP JUMP JUMPDEST CALLER PUSH20 0xFFFFFFFFFFFFFFFFFFFFFFFFFFFFFFFFFFFFFFFF AND PUSH2 0x527 DUP5 PUSH2 0x940 JUMP JUMPDEST PUSH20 0xFFFFFFFFFFFFFFFFFFFFFFFFFFFFFFFFFFFFFFFF AND EQ PUSH2 0x57D JUMPI PUSH1 0x40 MLOAD PUSH32 0x8C379A000000000000000000000000000000000000000000000000000000000 DUP2 MSTORE PUSH1 0x4 ADD PUSH2 0x574 SWAP1 PUSH2 0x27E3 JUMP JUMPDEST PUSH1 0x40 MLOAD DUP1 SWAP2 SUB SWAP1 REVERT JUMPDEST PUSH1 0x0 PUSH1 0x8 PUSH1 0x0 DUP6 DUP2 MSTORE PUSH1 0x20 ADD SWAP1 DUP2 MSTORE PUSH1 0x20 ADD PUSH1 0x0 KECCAK256 PUSH1 0x3 ADD SLOAD SUB PUSH2 0x5D6 JUMPI PUSH1 0x40 MLOAD PUSH32 0x8C379A000000000000000000000000000000000000000000000000000000000 DUP2 MSTORE PUSH1 0x4 ADD PUSH2 0x5CD SWAP1 PUSH2 0x284F JUMP JUMPDEST PUSH1 0x40 MLOAD DUP1 SWAP2 SUB SWAP1 REVERT JUMPDEST DUP2 PUSH1 0x8 PUSH1 0x0 DUP6 DUP2 MSTORE PUSH1 0x20 ADD SWAP1 DUP2 MSTORE PUSH1 0x20 ADD PUSH1 0x0 KECCAK256 PUSH1 0x1 ADD SWAP1 DUP2 PUSH2 0x5F9 SWAP2 SWAP1 PUSH2 0x2A1B JUMP JUMPDEST POP DUP1 PUSH1 0x8 PUSH1 0x0 DUP6 DUP2 MSTORE PUSH1 0x20 ADD SWAP1 DUP2 MSTORE PUSH1 0x20 ADD PUSH1 0x0 KECCAK256 PUSH1 0x2 ADD SWAP1 DUP2 PUSH2 0x61D SWAP2 SWAP1 PUSH2 0x2A1B JUMP JUMPDEST POP DUP3 PUSH32 0xF0632914D6D637E9A214FC715DC019E425C105498FFE6FED5E8597ED4920E9C8 DUP4 DUP4 PUSH1 0x40 MLOAD PUSH2 0x650 SWAP3 SWAP2 SWAP1 PUSH2 0x2AED JUMP JUMPDEST PUSH1 0x40 MLOAD DUP1 SWAP2 SUB SWAP1 LOG2 POP POP POP JUMP JUMPDEST PUSH1 0x0 PUSH20 0xFFFFFFFFFFFFFFFFFFFFFFFFFFFFFFFFFFFFFFFF AND DUP3 PUSH20 0xFFFFFFFFFFFFFFFFFFFFFFFFFFFFFFFFFFFFFFFF AND SUB PUSH2 0x6CF JUMPI PUSH1 0x0 PUSH1 0x40 MLOAD PUSH32 0x64A0AE9200000000000000000000000000000000000000000000000000000000 DUP2 MSTORE PUSH1 0x4 ADD PUSH2 0x6C6 SWAP2 SWAP1 PUSH2 0x210A JUMP JUMPDEST PUSH1 0x40 MLOAD DUP1 SWAP2 SUB SWAP1 REVERT JUMPDEST PUSH1 0x0 PUSH2 0x6E3 DUP4 DUP4 PUSH2 0x6DE PUSH2 0xF75 JUMP JUMPDEST PUSH2 0xF8F JUMP JUMPDEST SWAP1 POP DUP4 PUSH20 0xFFFFFFFFFFFFFFFFFFFFFFFFFFFFFFFFFFFFFFFF AND DUP2 PUSH20 0xFFFFFFFFFFFFFFFFFFFFFFFFFFFFFFFFFFFFFFFF AND EQ PUSH2 0x759 JUMPI DUP4 DUP3 DUP3 PUSH1 0x40 MLOAD PUSH32 0x64283D7B00000000000000000000000000000000000000000000000000000000 DUP2 MSTORE PUSH1 0x4 ADD PUSH2 0x750 SWAP4 SWAP3 SWAP2 SWAP1 PUSH2 0x2B24 JUMP JUMPDEST PUSH1 0x40 MLOAD DUP1 SWAP2 SUB SWAP1 REVERT JUMPDEST POP POP POP POP JUMP JUMPDEST PUSH2 0x76A CALLER DUP4 DUP4 PUSH2 0x7C9 JUMP JUMPDEST DUP2 PUSH20 0xFFFFFFFFFFFFFFFFFFFFFFFFFFFFFFFFFFFFFFFF AND CALLER PUSH20 0xFFFFFFFFFFFFFFFFFFFFFFFFFFFFFFFFFFFFFFFF AND DUP3 PUSH32 0xD4F6512E9F51F51F993C331D47FD72D3A549B0C0BC1C99556D98EDB66E766900 PUSH1 0x40 MLOAD PUSH1 0x40 MLOAD DUP1 SWAP2 SUB SWAP1 LOG4 POP POP JUMP JUMPDEST PUSH2 0x7E4 DUP4 DUP4 DUP4 PUSH1 0x40 MLOAD DUP1 PUSH1 0x20 ADD PUSH1 0x40 MSTORE DUP1 PUSH1 0x0 DUP2 MSTORE POP PUSH2 0xACC JUMP JUMPDEST POP POP POP JUMP JUMPDEST PUSH2 0x7FC PUSH1 0x0 DUP3 PUSH2 0x7F7 PUSH2 0xF75 JUMP JUMPDEST PUSH2 0xF8F JUMP JUMPDEST POP POP JUMP JUMPDEST PUSH1 0x8 PUSH1 0x20 MSTORE DUP1 PUSH1 0x0 MSTORE PUSH1 0x40 PUSH1 0x0 KECCAK256 PUSH1 0x0 SWAP2 POP SWAP1 POP DUP1 PUSH1 0x0 ADD SLOAD SWAP1 DUP1 PUSH1 0x1 ADD DUP1 SLOAD PUSH2 0x829 SWAP1 PUSH2 0x2766 JUMP JUMPDEST DUP1 PUSH1 0x1F ADD PUSH1 0x20 DUP1 SWAP2 DIV MUL PUSH1 0x20 ADD PUSH1 0x40 MLOAD SWAP1 DUP2 ADD PUSH1 0x40 MSTORE DUP1 SWAP3 SWAP2 SWAP1 DUP2 DUP2 MSTORE PUSH1 0x20 ADD DUP3 DUP1 SLOAD PUSH2 0x855 SWAP1 PUSH2 0x2766 JUMP JUMPDEST DUP1 ISZERO PUSH2 0x8A2 JUMPI DUP1 PUSH1 0x1F LT PUSH2 0x877 JUMPI PUSH2 0x100 DUP1 DUP4 SLOAD DIV MUL DUP4 MSTORE SWAP2 PUSH1 0x20 ADD SWAP2 PUSH2 0x8A2 JUMP JUMPDEST DUP3 ADD SWAP2 SWAP1 PUSH1 0x0 MSTORE PUSH1 0x20 PUSH1 0x0 KECCAK256 SWAP1 JUMPDEST DUP2 SLOAD DUP2 MSTORE SWAP1 PUSH1 0x1 ADD SWAP1 PUSH1 0x20 ADD DUP1 DUP4 GT PUSH2 0x885 JUMPI DUP3 SWAP1 SUB PUSH1 0x1F AND DUP3 ADD SWAP2 JUMPDEST POP POP POP POP POP SWAP1 DUP1 PUSH1 0x2 ADD DUP1 SLOAD PUSH2 0x8B7 SWAP1 PUSH2 0x2766 JUMP JUMPDEST DUP1 PUSH1 0x1F ADD PUSH1 0x20 DUP1 SWAP2 DIV MUL PUSH1 0x20 ADD PUSH1 0x40 MLOAD SWAP1 DUP2 ADD PUSH1 0x40 MSTORE DUP1 SWAP3 SWAP2 SWAP1 DUP2 DUP2 MSTORE PUSH1 0x20 ADD DUP3 DUP1 SLOAD PUSH2 0x8E3 SWAP1 PUSH2 0x2766 JUMP JUMPDEST DUP1 ISZERO PUSH2 0x930 JUMPI DUP1 PUSH1 0x1F LT PUSH2 0x905 JUMPI PUSH2 0x100 DUP1 DUP4 SLOAD DIV MUL DUP4 MSTORE SWAP2 PUSH1 0x20 ADD SWAP2 PUSH2 0x930 JUMP JUMPDEST DUP3 ADD SWAP2 SWAP1 PUSH1 0x0 MSTORE PUSH1 0x20 PUSH1 0x0 KECCAK256 SWAP1 JUMPDEST DUP2 SLOAD DUP2 MSTORE SWAP1 PUSH1 0x1 ADD SWAP1 PUSH1 0x20 ADD DUP1 DUP4 GT PUSH2 0x913 JUMPI DUP3 SWAP1 SUB PUSH1 0x1F AND DUP3 ADD SWAP2 JUMPDEST POP POP POP POP POP SWAP1 DUP1 PUSH1 0x3 ADD SLOAD SWAP1 POP DUP5 JUMP JUMPDEST PUSH1 0x0 PUSH2 0x94B DUP3 PUSH2 0xEB0 JUMP JUMPDEST SWAP1 POP SWAP2 SWAP1 POP JUMP JUMPDEST PUSH1 0x0 DUP1 PUSH20 0xFFFFFFFFFFFFFFFFFFFFFFFFFFFFFFFFFFFFFFFF AND DUP3 PUSH20 0xFFFFFFFFFFFFFFFFFFFFFFFFFFFFFFFFFFFFFFFF AND SUB PUSH2 0x9C5 JUMPI PUSH1 0x0 PUSH1 0x40 MLOAD PUSH32 0x89C62B6400000000000000000000000000000000000000000000000000000000 DUP2 MSTORE PUSH1 0x4 ADD PUSH2 0x9BC SWAP2 SWAP1 PUSH2 0x210A JUMP JUMPDEST PUSH1 0x40 MLOAD DUP1 SWAP2 SUB SWAP1 REVERT JUMPDEST PUSH1 0x3 PUSH1 0x0 DUP4 PUSH20 0xFFFFFFFFFFFFFFFFFFFFFFFFFFFFFFFFFFFFFFFF AND PUSH20 0xFFFFFFFFFFFFFFFFFFFFFFFFFFFFFFFFFFFFFFFF AND DUP2 MSTORE PUSH1 0x20 ADD SWAP1 DUP2 MSTORE PUSH1 0x20 ADD PUSH1 0x0 KECCAK256 SLOAD SWAP1 POP SWAP2 SWAP1 POP JUMP JUMPDEST PUSH1 0x9 PUSH1 0x20 MSTORE DUP1 PUSH1 0x0 MSTORE PUSH1 0x40 PUSH1 0x0 KECCAK256 PUSH1 0x0 SWAP2 POP SWAP1 POP SLOAD DUP2 JUMP JUMPDEST PUSH1 0x60 PUSH1 0x1 DUP1 SLOAD PUSH2 0xA33 SWAP1 PUSH2 0x2766 JUMP JUMPDEST DUP1 PUSH1 0x1F ADD PUSH1 0x20 DUP1 SWAP2 DIV MUL PUSH1 0x20 ADD PUSH1 0x40 MLOAD SWAP1 DUP2 ADD PUSH1 0x40 MSTORE DUP1 SWAP3 SWAP2 SWAP1 DUP2 DUP2 MSTORE PUSH1 0x20 ADD DUP3 DUP1 SLOAD PUSH2 0xA5F SWAP1 PUSH2 0x2766 JUMP JUMPDEST DUP1 ISZERO PUSH2 0xAAC JUMPI DUP1 PUSH1 0x1F LT PUSH2 0xA81 JUMPI PUSH2 0x100 DUP1 DUP4 SLOAD DIV MUL DUP4 MSTORE SWAP2 PUSH1 0x20 ADD SWAP2 PUSH2 0xAAC JUMP JUMPDEST DUP3 ADD SWAP2 SWAP1 PUSH1 0x0 MSTORE PUSH1 0x20 PUSH1 0x0 KECCAK256 SWAP1 JUMPDEST DUP2 SLOAD DUP2 MSTORE SWAP1 PUSH1 0x1 ADD SWAP1 PUSH1 0x20 ADD DUP1 DUP4 GT PUSH2 0xA8F JUMPI DUP3 SWAP1 SUB PUSH1 0x1F AND DUP3 ADD SWAP2 JUMPDEST POP POP POP POP POP SWAP1 POP SWAP1 JUMP JUMPDEST PUSH2 0xAC8 PUSH2 0xAC1 PUSH2 0xF75 JUMP JUMPDEST DUP4 DUP4 PUSH2 0x11A9 JUMP JUMPDEST POP POP JUMP JUMPDEST PUSH2 0xAD7 DUP5 DUP5 DUP5 PUSH2 0x65D JUMP JUMPDEST PUSH2 0xAE3 DUP5 DUP5 DUP5 DUP5 PUSH2 0x1318 JUMP JUMPDEST POP POP POP POP JUMP JUMPDEST PUSH2 0xAF2 DUP2 PUSH2 0x7E9 JUMP JUMPDEST DUP1 PUSH32 0x89AF6BA62AB348DC535A3187C267090F834C868A3820CD552A7110C3DC3EEDB8 PUSH1 0x40 MLOAD PUSH1 0x40 MLOAD DUP1 SWAP2 SUB SWAP1 LOG2 POP JUMP JUMPDEST PUSH1 0x60 PUSH2 0xB2D DUP3 PUSH2 0x14CF JUMP JUMPDEST SWAP1 POP SWAP2 SWAP1 POP JUMP JUMPDEST PUSH1 0x0 PUSH1 0x5 PUSH1 0x0 DUP5 PUSH20 0xFFFFFFFFFFFFFFFFFFFFFFFFFFFFFFFFFFFFFFFF AND PUSH20 0xFFFFFFFFFFFFFFFFFFFFFFFFFFFFFFFFFFFFFFFF AND DUP2 MSTORE PUSH1 0x20 ADD SWAP1 DUP2 MSTORE PUSH1 0x20 ADD PUSH1 0x0 KECCAK256 PUSH1 0x0 DUP4 PUSH20 0xFFFFFFFFFFFFFFFFFFFFFFFFFFFFFFFFFFFFFFFF AND PUSH20 0xFFFFFFFFFFFFFFFFFFFFFFFFFFFFFFFFFFFFFFFF AND DUP2 MSTORE PUSH1 0x20 ADD SWAP1 DUP2 MSTORE PUSH1 0x20 ADD PUSH1 0x0 KECCAK256 PUSH1 0x0 SWAP1 SLOAD SWAP1 PUSH2 0x100 EXP SWAP1 DIV PUSH1 0xFF AND SWAP1 POP SWAP3 SWAP2 POP POP JUMP JUMPDEST PUSH1 0xA SLOAD DUP2 JUMP JUMPDEST PUSH1 0x7 PUSH1 0x0 SWAP1 SLOAD SWAP1 PUSH2 0x100 EXP SWAP1 DIV PUSH2 0xFFFF AND PUSH2 0xFFFF AND DUP4 MLOAD GT ISZERO PUSH2 0xC26 JUMPI PUSH1 0x40 MLOAD PUSH32 0x8C379A000000000000000000000000000000000000000000000000000000000 DUP2 MSTORE PUSH1 0x4 ADD PUSH2 0xC1D SWAP1 PUSH2 0x2BA7 JUMP JUMPDEST PUSH1 0x40 MLOAD DUP1 SWAP2 SUB SWAP1 REVERT JUMPDEST PUSH1 0x7 PUSH1 0x2 SWAP1 SLOAD SWAP1 PUSH2 0x100 EXP SWAP1 DIV PUSH4 0xFFFFFFFF AND PUSH4 0xFFFFFFFF AND DUP3 MLOAD GT ISZERO PUSH2 0xC82 JUMPI PUSH1 0x40 MLOAD PUSH32 0x8C379A000000000000000000000000000000000000000000000000000000000 DUP2 MSTORE PUSH1 0x4 ADD PUSH2 0xC79 SWAP1 PUSH2 0x2C13 JUMP JUMPDEST PUSH1 0x40 MLOAD DUP1 SWAP2 SUB SWAP1 REVERT JUMPDEST PUSH1 0x0 DUP3 TIMESTAMP PUSH1 0x40 MLOAD PUSH1 0x20 ADD PUSH2 0xC97 SWAP3 SWAP2 SWAP1 PUSH2 0x2C90 JUMP JUMPDEST PUSH1 0x40 MLOAD PUSH1 0x20 DUP2 DUP4 SUB SUB DUP2 MSTORE SWAP1 PUSH1 0x40 MSTORE DUP1 MLOAD SWAP1 PUSH1 0x20 ADD KECCAK256 SWAP1 POP PUSH1 0x0 PUSH1 0x9 PUSH1 0x0 DUP4 DUP2 MSTORE PUSH1 0x20 ADD SWAP1 DUP2 MSTORE PUSH1 0x20 ADD PUSH1 0x0 KECCAK256 SLOAD SWAP1 POP PUSH1 0x0 DUP2 EQ DUP1 PUSH2 0xD0A JUMPI POP PUSH1 0x0 PUSH20 0xFFFFFFFFFFFFFFFFFFFFFFFFFFFFFFFFFFFFFFFF AND PUSH2 0xCF2 DUP3 PUSH2 0x15E2 JUMP JUMPDEST PUSH20 0xFFFFFFFFFFFFFFFFFFFFFFFFFFFFFFFFFFFFFFFF AND EQ JUMPDEST PUSH2 0xD49 JUMPI PUSH1 0x40 MLOAD PUSH32 0x8C379A000000000000000000000000000000000000000000000000000000000 DUP2 MSTORE PUSH1 0x4 ADD PUSH2 0xD40 SWAP1 PUSH2 0x2D04 JUMP JUMPDEST PUSH1 0x40 MLOAD DUP1 SWAP2 SUB SWAP1 REVERT JUMPDEST PUSH1 0xA PUSH1 0x0 DUP2 SLOAD DUP1 SWAP3 SWAP2 SWAP1 PUSH2 0xD5C SWAP1 PUSH2 0x2D53 JUMP JUMPDEST SWAP2 SWAP1 POP SSTORE POP PUSH1 0x40 MLOAD DUP1 PUSH1 0x80 ADD PUSH1 0x40 MSTORE DUP1 DUP4 DUP2 MSTORE PUSH1 0x20 ADD DUP7 DUP2 MSTORE PUSH1 0x20 ADD DUP6 DUP2 MSTORE PUSH1 0x20 ADD TIMESTAMP DUP2 MSTORE POP PUSH1 0x8 PUSH1 0x0 PUSH1 0xA SLOAD DUP2 MSTORE PUSH1 0x20 ADD SWAP1 DUP2 MSTORE PUSH1 0x20 ADD PUSH1 0x0 KECCAK256 PUSH1 0x0 DUP3 ADD MLOAD DUP2 PUSH1 0x0 ADD SSTORE PUSH1 0x20 DUP3 ADD MLOAD DUP2 PUSH1 0x1 ADD SWAP1 DUP2 PUSH2 0xDB6 SWAP2 SWAP1 PUSH2 0x2A1B JUMP JUMPDEST POP PUSH1 0x40 DUP3 ADD MLOAD DUP2 PUSH1 0x2 ADD SWAP1 DUP2 PUSH2 0xDCC SWAP2 SWAP1 PUSH2 0x2A1B JUMP JUMPDEST POP PUSH1 0x60 DUP3 ADD MLOAD DUP2 PUSH1 0x3 ADD SSTORE SWAP1 POP POP PUSH1 0xA SLOAD PUSH1 0x9 PUSH1 0x0 DUP5 DUP2 MSTORE PUSH1 0x20 ADD SWAP1 DUP2 MSTORE PUSH1 0x20 ADD PUSH1 0x0 KECCAK256 DUP2 SWAP1 SSTORE POP PUSH2 0xE00 CALLER PUSH1 0xA SLOAD PUSH2 0x161F JUMP JUMPDEST PUSH2 0xE0C PUSH1 0xA SLOAD DUP5 PUSH2 0x163D JUMP JUMPDEST PUSH1 0xA SLOAD PUSH32 0x7B17CEC98A34B9BFB820EC7D14BDE246BD07FE7D020DA060964A681219CE9725 DUP7 DUP7 PUSH1 0x40 MLOAD PUSH2 0xE40 SWAP3 SWAP2 SWAP1 PUSH2 0x2AED JUMP JUMPDEST PUSH1 0x40 MLOAD DUP1 SWAP2 SUB SWAP1 LOG2 POP POP POP POP POP JUMP JUMPDEST PUSH1 0x0 PUSH4 0x49064906 PUSH1 0xE0 SHL PUSH28 0xFFFFFFFFFFFFFFFFFFFFFFFFFFFFFFFFFFFFFFFFFFFFFFFFFFFFFFFF NOT AND DUP3 PUSH28 0xFFFFFFFFFFFFFFFFFFFFFFFFFFFFFFFFFFFFFFFFFFFFFFFFFFFFFFFF NOT AND EQ DUP1 PUSH2 0xEA9 JUMPI POP PUSH2 0xEA8 DUP3 PUSH2 0x1699 JUMP JUMPDEST JUMPDEST SWAP1 POP SWAP2 SWAP1 POP JUMP JUMPDEST PUSH1 0x0 DUP1 PUSH2 0xEBC DUP4 PUSH2 0x15E2 JUMP JUMPDEST SWAP1 POP PUSH1 0x0 PUSH20 0xFFFFFFFFFFFFFFFFFFFFFFFFFFFFFFFFFFFFFFFF AND DUP2 PUSH20 0xFFFFFFFFFFFFFFFFFFFFFFFFFFFFFFFFFFFFFFFF AND SUB PUSH2 0xF2F JUMPI DUP3 PUSH1 0x40 MLOAD PUSH32 0x7E27328900000000000000000000000000000000000000000000000000000000 DUP2 MSTORE PUSH1 0x4 ADD PUSH2 0xF26 SWAP2 SWAP1 PUSH2 0x244C JUMP JUMPDEST PUSH1 0x40 MLOAD DUP1 SWAP2 SUB SWAP1 REVERT JUMPDEST DUP1 SWAP2 POP POP SWAP2 SWAP1 POP JUMP JUMPDEST PUSH1 0x0 PUSH1 0x4 PUSH1 0x0 DUP4 DUP2 MSTORE PUSH1 0x20 ADD SWAP1 DUP2 MSTORE PUSH1 0x20 ADD PUSH1 0x0 KECCAK256 PUSH1 0x0 SWAP1 SLOAD SWAP1 PUSH2 0x100 EXP SWAP1 DIV PUSH20 0xFFFFFFFFFFFFFFFFFFFFFFFFFFFFFFFFFFFFFFFF AND SWAP1 POP SWAP2 SWAP1 POP JUMP JUMPDEST PUSH1 0x0 CALLER SWAP1 POP SWAP1 JUMP JUMPDEST PUSH2 0xF8A DUP4 DUP4 DUP4 PUSH1 0x1 PUSH2 0x177B JUMP JUMPDEST POP POP POP JUMP JUMPDEST PUSH1 0x0 DUP1 PUSH2 0xF9B DUP5 PUSH2 0x15E2 JUMP JUMPDEST SWAP1 POP PUSH1 0x0 PUSH20 0xFFFFFFFFFFFFFFFFFFFFFFFFFFFFFFFFFFFFFFFF AND DUP4 PUSH20 0xFFFFFFFFFFFFFFFFFFFFFFFFFFFFFFFFFFFFFFFF AND EQ PUSH2 0xFDD JUMPI PUSH2 0xFDC DUP2 DUP5 DUP7 PUSH2 0x1940 JUMP JUMPDEST JUMPDEST PUSH1 0x0 PUSH20 0xFFFFFFFFFFFFFFFFFFFFFFFFFFFFFFFFFFFFFFFF AND DUP2 PUSH20 0xFFFFFFFFFFFFFFFFFFFFFFFFFFFFFFFFFFFFFFFF AND EQ PUSH2 0x106E JUMPI PUSH2 0x101F PUSH1 0x0 DUP6 PUSH1 0x0 DUP1 PUSH2 0x177B JUMP JUMPDEST PUSH1 0x1 PUSH1 0x3 PUSH1 0x0 DUP4 PUSH20 0xFFFFFFFFFFFFFFFFFFFFFFFFFFFFFFFFFFFFFFFF AND PUSH20 0xFFFFFFFFFFFFFFFFFFFFFFFFFFFFFFFFFFFFFFFF AND DUP2 MSTORE PUSH1 0x20 ADD SWAP1 DUP2 MSTORE PUSH1 0x20 ADD PUSH1 0x0 KECCAK256 PUSH1 0x0 DUP3 DUP3 SLOAD SUB SWAP3 POP POP DUP2 SWAP1 SSTORE POP JUMPDEST PUSH1 0x0 PUSH20 0xFFFFFFFFFFFFFFFFFFFFFFFFFFFFFFFFFFFFFFFF AND DUP6 PUSH20 0xFFFFFFFFFFFFFFFFFFFFFFFFFFFFFFFFFFFFFFFF AND EQ PUSH2 0x10F1 JUMPI PUSH1 0x1 PUSH1 0x3 PUSH1 0x0 DUP8 PUSH20 0xFFFFFFFFFFFFFFFFFFFFFFFFFFFFFFFFFFFFFFFF AND PUSH20 0xFFFFFFFFFFFFFFFFFFFFFFFFFFFFFFFFFFFFFFFF AND DUP2 MSTORE PUSH1 0x20 ADD SWAP1 DUP2 MSTORE PUSH1 0x20 ADD PUSH1 0x0 KECCAK256 PUSH1 0x0 DUP3 DUP3 SLOAD ADD SWAP3 POP POP DUP2 SWAP1 SSTORE POP JUMPDEST DUP5 PUSH1 0x2 PUSH1 0x0 DUP7 DUP2 MSTORE PUSH1 0x20 ADD SWAP1 DUP2 MSTORE PUSH1 0x20 ADD PUSH1 0x0 KECCAK256 PUSH1 0x0 PUSH2 0x100 EXP DUP2 SLOAD DUP2 PUSH20 0xFFFFFFFFFFFFFFFFFFFFFFFFFFFFFFFFFFFFFFFF MUL NOT AND SWAP1 DUP4 PUSH20 0xFFFFFFFFFFFFFFFFFFFFFFFFFFFFFFFFFFFFFFFF AND MUL OR SWAP1 SSTORE POP DUP4 DUP6 PUSH20 0xFFFFFFFFFFFFFFFFFFFFFFFFFFFFFFFFFFFFFFFF AND DUP3 PUSH20 0xFFFFFFFFFFFFFFFFFFFFFFFFFFFFFFFFFFFFFFFF AND PUSH32 0xDDF252AD1BE2C89B69C2B068FC378DAA952BA7F163C4A11628F55A4DF523B3EF PUSH1 0x40 MLOAD PUSH1 0x40 MLOAD DUP1 SWAP2 SUB SWAP1 LOG4 DUP1 SWAP2 POP POP SWAP4 SWAP3 POP POP POP JUMP JUMPDEST PUSH1 0x0 PUSH20 0xFFFFFFFFFFFFFFFFFFFFFFFFFFFFFFFFFFFFFFFF AND DUP3 PUSH20 0xFFFFFFFFFFFFFFFFFFFFFFFFFFFFFFFFFFFFFFFF AND SUB PUSH2 0x121A JUMPI DUP2 PUSH1 0x40 MLOAD PUSH32 0x5B08BA1800000000000000000000000000000000000000000000000000000000 DUP2 MSTORE PUSH1 0x4 ADD PUSH2 0x1211 SWAP2 SWAP1 PUSH2 0x210A JUMP JUMPDEST PUSH1 0x40 MLOAD DUP1 SWAP2 SUB SWAP1 REVERT JUMPDEST DUP1 PUSH1 0x5 PUSH1 0x0 DUP6 PUSH20 0xFFFFFFFFFFFFFFFFFFFFFFFFFFFFFFFFFFFFFFFF AND PUSH20 0xFFFFFFFFFFFFFFFFFFFFFFFFFFFFFFFFFFFFFFFF AND DUP2 MSTORE PUSH1 0x20 ADD SWAP1 DUP2 MSTORE PUSH1 0x20 ADD PUSH1 0x0 KECCAK256 PUSH1 0x0 DUP5 PUSH20 0xFFFFFFFFFFFFFFFFFFFFFFFFFFFFFFFFFFFFFFFF AND PUSH20 0xFFFFFFFFFFFFFFFFFFFFFFFFFFFFFFFFFFFFFFFF AND DUP2 MSTORE PUSH1 0x20 ADD SWAP1 DUP2 MSTORE PUSH1 0x20 ADD PUSH1 0x0 KECCAK256 PUSH1 0x0 PUSH2 0x100 EXP DUP2 SLOAD DUP2 PUSH1 0xFF MUL NOT AND SWAP1 DUP4 ISZERO ISZERO MUL OR SWAP1 SSTORE POP DUP2 PUSH20 0xFFFFFFFFFFFFFFFFFFFFFFFFFFFFFFFFFFFFFFFF AND DUP4 PUSH20 0xFFFFFFFFFFFFFFFFFFFFFFFFFFFFFFFFFFFFFFFF AND PUSH32 0x17307EAB39AB6107E8899845AD3D59BD9653F200F220920489CA2B5937696C31 DUP4 PUSH1 0x40 MLOAD PUSH2 0x130B SWAP2 SWAP1 PUSH2 0x1F99 JUMP JUMPDEST PUSH1 0x40 MLOAD DUP1 SWAP2 SUB SWAP1 LOG3 POP POP POP JUMP JUMPDEST PUSH1 0x0 DUP4 PUSH20 0xFFFFFFFFFFFFFFFFFFFFFFFFFFFFFFFFFFFFFFFF AND EXTCODESIZE GT ISZERO PUSH2 0x14C9 JUMPI DUP3 PUSH20 0xFFFFFFFFFFFFFFFFFFFFFFFFFFFFFFFFFFFFFFFF AND PUSH4 0x150B7A02 PUSH2 0x135C PUSH2 0xF75 JUMP JUMPDEST DUP7 DUP6 DUP6 PUSH1 0x40 MLOAD DUP6 PUSH4 0xFFFFFFFF AND PUSH1 0xE0 SHL DUP2 MSTORE PUSH1 0x4 ADD PUSH2 0x137E SWAP5 SWAP4 SWAP3 SWAP2 SWAP1 PUSH2 0x2DF0 JUMP JUMPDEST PUSH1 0x20 PUSH1 0x40 MLOAD DUP1 DUP4 SUB DUP2 PUSH1 0x0 DUP8 GAS CALL SWAP3 POP POP POP DUP1 ISZERO PUSH2 0x13BA JUMPI POP PUSH1 0x40 MLOAD RETURNDATASIZE PUSH1 0x1F NOT PUSH1 0x1F DUP3 ADD AND DUP3 ADD DUP1 PUSH1 0x40 MSTORE POP DUP2 ADD SWAP1 PUSH2 0x13B7 SWAP2 SWAP1 PUSH2 0x2E51 JUMP JUMPDEST PUSH1 0x1 JUMPDEST PUSH2 0x143E JUMPI RETURNDATASIZE DUP1 PUSH1 0x0 DUP2 EQ PUSH2 0x13EA JUMPI PUSH1 0x40 MLOAD SWAP2 POP PUSH1 0x1F NOT PUSH1 0x3F RETURNDATASIZE ADD AND DUP3 ADD PUSH1 0x40 MSTORE RETURNDATASIZE DUP3 MSTORE RETURNDATASIZE PUSH1 0x0 PUSH1 0x20 DUP5 ADD RETURNDATACOPY PUSH2 0x13EF JUMP JUMPDEST PUSH1 0x60 SWAP2 POP JUMPDEST POP PUSH1 0x0 DUP2 MLOAD SUB PUSH2 0x1436 JUMPI DUP4 PUSH1 0x40 MLOAD PUSH32 0x64A0AE9200000000000000000000000000000000000000000000000000000000 DUP2 MSTORE PUSH1 0x4 ADD PUSH2 0x142D SWAP2 SWAP1 PUSH2 0x210A JUMP JUMPDEST PUSH1 0x40 MLOAD DUP1 SWAP2 SUB SWAP1 REVERT JUMPDEST DUP1 MLOAD DUP2 PUSH1 0x20 ADD REVERT JUMPDEST PUSH4 0x150B7A02 PUSH1 0xE0 SHL PUSH28 0xFFFFFFFFFFFFFFFFFFFFFFFFFFFFFFFFFFFFFFFFFFFFFFFFFFFFFFFF NOT AND DUP2 PUSH28 0xFFFFFFFFFFFFFFFFFFFFFFFFFFFFFFFFFFFFFFFFFFFFFFFFFFFFFFFF NOT AND EQ PUSH2 0x14C7 JUMPI DUP4 PUSH1 0x40 MLOAD PUSH32 0x64A0AE9200000000000000000000000000000000000000000000000000000000 DUP2 MSTORE PUSH1 0x4 ADD PUSH2 0x14BE SWAP2 SWAP1 PUSH2 0x210A JUMP JUMPDEST PUSH1 0x40 MLOAD DUP1 SWAP2 SUB SWAP1 REVERT JUMPDEST POP JUMPDEST POP POP POP POP JUMP JUMPDEST PUSH1 0x60 PUSH2 0x14DA DUP3 PUSH2 0xEB0 JUMP JUMPDEST POP PUSH1 0x0 PUSH1 0x6 PUSH1 0x0 DUP5 DUP2 MSTORE PUSH1 0x20 ADD SWAP1 DUP2 MSTORE PUSH1 0x20 ADD PUSH1 0x0 KECCAK256 DUP1 SLOAD PUSH2 0x14FB SWAP1 PUSH2 0x2766 JUMP JUMPDEST DUP1 PUSH1 0x1F ADD PUSH1 0x20 DUP1 SWAP2 DIV MUL PUSH1 0x20 ADD PUSH1 0x40 MLOAD SWAP1 DUP2 ADD PUSH1 0x40 MSTORE DUP1 SWAP3 SWAP2 SWAP1 DUP2 DUP2 MSTORE PUSH1 0x20 ADD DUP3 DUP1 SLOAD PUSH2 0x1527 SWAP1 PUSH2 0x2766 JUMP JUMPDEST DUP1 ISZERO PUSH2 0x1574 JUMPI DUP1 PUSH1 0x1F LT PUSH2 0x1549 JUMPI PUSH2 0x100 DUP1 DUP4 SLOAD DIV MUL DUP4 MSTORE SWAP2 PUSH1 0x20 ADD SWAP2 PUSH2 0x1574 JUMP JUMPDEST DUP3 ADD SWAP2 SWAP1 PUSH1 0x0 MSTORE PUSH1 0x20 PUSH1 0x0 KECCAK256 SWAP1 JUMPDEST DUP2 SLOAD DUP2 MSTORE SWAP1 PUSH1 0x1 ADD SWAP1 PUSH1 0x20 ADD DUP1 DUP4 GT PUSH2 0x1557 JUMPI DUP3 SWAP1 SUB PUSH1 0x1F AND DUP3 ADD SWAP2 JUMPDEST POP POP POP POP POP SWAP1 POP PUSH1 0x0 PUSH2 0x1585 PUSH2 0x1A04 JUMP JUMPDEST SWAP1 POP PUSH1 0x0 DUP2 MLOAD SUB PUSH2 0x159A JUMPI DUP2 SWAP3 POP POP POP PUSH2 0x15DD JUMP JUMPDEST PUSH1 0x0 DUP3 MLOAD GT ISZERO PUSH2 0x15CF JUMPI DUP1 DUP3 PUSH1 0x40 MLOAD PUSH1 0x20 ADD PUSH2 0x15B7 SWAP3 SWAP2 SWAP1 PUSH2 0x2E7E JUMP JUMPDEST PUSH1 0x40 MLOAD PUSH1 0x20 DUP2 DUP4 SUB SUB DUP2 MSTORE SWAP1 PUSH1 0x40 MSTORE SWAP3 POP POP POP PUSH2 0x15DD JUMP JUMPDEST PUSH2 0x15D8 DUP5 PUSH2 0x1A1B JUMP JUMPDEST SWAP3 POP POP POP JUMPDEST SWAP2 SWAP1 POP JUMP JUMPDEST PUSH1 0x0 PUSH1 0x2 PUSH1 0x0 DUP4 DUP2 MSTORE PUSH1 0x20 ADD SWAP1 DUP2 MSTORE PUSH1 0x20 ADD PUSH1 0x0 KECCAK256 PUSH1 0x0 SWAP1 SLOAD SWAP1 PUSH2 0x100 EXP SWAP1 DIV PUSH20 0xFFFFFFFFFFFFFFFFFFFFFFFFFFFFFFFFFFFFFFFF AND SWAP1 POP SWAP2 SWAP1 POP JUMP JUMPDEST PUSH2 0x1639 DUP3 DUP3 PUSH1 0x40 MLOAD DUP1 PUSH1 0x20 ADD PUSH1 0x40 MSTORE DUP1 PUSH1 0x0 DUP2 MSTORE POP PUSH2 0x1A84 JUMP JUMPDEST POP POP JUMP JUMPDEST DUP1 PUSH1 0x6 PUSH1 0x0 DUP5 DUP2 MSTORE PUSH1 0x20 ADD SWAP1 DUP2 MSTORE PUSH1 0x20 ADD PUSH1 0x0 KECCAK256 SWAP1 DUP2 PUSH2 0x165D SWAP2 SWAP1 PUSH2 0x2A1B JUMP JUMPDEST POP PUSH32 0xF8E1A15ABA9398E019F0B49DF1A4FDE98EE17AE345CB5F6B5E2C27F5033E8CE7 DUP3 PUSH1 0x40 MLOAD PUSH2 0x168D SWAP2 SWAP1 PUSH2 0x244C JUMP JUMPDEST PUSH1 0x40 MLOAD DUP1 SWAP2 SUB SWAP1 LOG1 POP POP JUMP JUMPDEST PUSH1 0x0 PUSH32 0x80AC58CD00000000000000000000000000000000000000000000000000000000 PUSH28 0xFFFFFFFFFFFFFFFFFFFFFFFFFFFFFFFFFFFFFFFFFFFFFFFFFFFFFFFF NOT AND DUP3 PUSH28 0xFFFFFFFFFFFFFFFFFFFFFFFFFFFFFFFFFFFFFFFFFFFFFFFFFFFFFFFF NOT AND EQ DUP1 PUSH2 0x1764 JUMPI POP PUSH32 0x5B5E139F00000000000000000000000000000000000000000000000000000000 PUSH28 0xFFFFFFFFFFFFFFFFFFFFFFFFFFFFFFFFFFFFFFFFFFFFFFFFFFFFFFFF NOT AND DUP3 PUSH28 0xFFFFFFFFFFFFFFFFFFFFFFFFFFFFFFFFFFFFFFFFFFFFFFFFFFFFFFFF NOT AND EQ JUMPDEST DUP1 PUSH2 0x1774 JUMPI POP PUSH2 0x1773 DUP3 PUSH2 0x1AA0 JUMP JUMPDEST JUMPDEST SWAP1 POP SWAP2 SWAP1 POP JUMP JUMPDEST DUP1 DUP1 PUSH2 0x17B4 JUMPI POP PUSH1 0x0 PUSH20 0xFFFFFFFFFFFFFFFFFFFFFFFFFFFFFFFFFFFFFFFF AND DUP3 PUSH20 0xFFFFFFFFFFFFFFFFFFFFFFFFFFFFFFFFFFFFFFFF AND EQ ISZERO JUMPDEST ISZERO PUSH2 0x18E8 JUMPI PUSH1 0x0 PUSH2 0x17C4 DUP5 PUSH2 0xEB0 JUMP JUMPDEST SWAP1 POP PUSH1 0x0 PUSH20 0xFFFFFFFFFFFFFFFFFFFFFFFFFFFFFFFFFFFFFFFF AND DUP4 PUSH20 0xFFFFFFFFFFFFFFFFFFFFFFFFFFFFFFFFFFFFFFFF AND EQ ISZERO DUP1 ISZERO PUSH2 0x182F JUMPI POP DUP3 PUSH20 0xFFFFFFFFFFFFFFFFFFFFFFFFFFFFFFFFFFFFFFFF AND DUP2 PUSH20 0xFFFFFFFFFFFFFFFFFFFFFFFFFFFFFFFFFFFFFFFF AND EQ ISZERO JUMPDEST DUP1 ISZERO PUSH2 0x1842 JUMPI POP PUSH2 0x1840 DUP2 DUP5 PUSH2 0xB34 JUMP JUMPDEST ISZERO JUMPDEST ISZERO PUSH2 0x1884 JUMPI DUP3 PUSH1 0x40 MLOAD PUSH32 0xA9FBF51F00000000000000000000000000000000000000000000000000000000 DUP2 MSTORE PUSH1 0x4 ADD PUSH2 0x187B SWAP2 SWAP1 PUSH2 0x210A JUMP JUMPDEST PUSH1 0x40 MLOAD DUP1 SWAP2 SUB SWAP1 REVERT JUMPDEST DUP2 ISZERO PUSH2 0x18E6 JUMPI DUP4 DUP6 PUSH20 0xFFFFFFFFFFFFFFFFFFFFFFFFFFFFFFFFFFFFFFFF AND DUP3 PUSH20 0xFFFFFFFFFFFFFFFFFFFFFFFFFFFFFFFFFFFFFFFF AND PUSH32 0x8C5BE1E5EBEC7D5BD14F71427D1E84F3DD0314C0F7B2291E5B200AC8C7C3B925 PUSH1 0x40 MLOAD PUSH1 0x40 MLOAD DUP1 SWAP2 SUB SWAP1 LOG4 JUMPDEST POP JUMPDEST DUP4 PUSH1 0x4 PUSH1 0x0 DUP6 DUP2 MSTORE PUSH1 0x20 ADD SWAP1 DUP2 MSTORE PUSH1 0x20 ADD PUSH1 0x0 KECCAK256 PUSH1 0x0 PUSH2 0x100 EXP DUP2 SLOAD DUP2 PUSH20 0xFFFFFFFFFFFFFFFFFFFFFFFFFFFFFFFFFFFFFFFF MUL NOT AND SWAP1 DUP4 PUSH20 0xFFFFFFFFFFFFFFFFFFFFFFFFFFFFFFFFFFFFFFFF AND MUL OR SWAP1 SSTORE POP POP POP POP POP JUMP JUMPDEST PUSH2 0x194B DUP4 DUP4 DUP4 PUSH2 0x1B0A JUMP JUMPDEST PUSH2 0x19FF JUMPI PUSH1 0x0 PUSH20 0xFFFFFFFFFFFFFFFFFFFFFFFFFFFFFFFFFFFFFFFF AND DUP4 PUSH20 0xFFFFFFFFFFFFFFFFFFFFFFFFFFFFFFFFFFFFFFFF AND SUB PUSH2 0x19C0 JUMPI DUP1 PUSH1 0x40 MLOAD PUSH32 0x7E27328900000000000000000000000000000000000000000000000000000000 DUP2 MSTORE PUSH1 0x4 ADD PUSH2 0x19B7 SWAP2 SWAP1 PUSH2 0x244C JUMP JUMPDEST PUSH1 0x40 MLOAD DUP1 SWAP2 SUB SWAP1 REVERT JUMPDEST DUP2 DUP2 PUSH1 0x40 MLOAD PUSH32 0x177E802F00000000000000000000000000000000000000000000000000000000 DUP2 MSTORE PUSH1 0x4 ADD PUSH2 0x19F6 SWAP3 SWAP2 SWAP1 PUSH2 0x2EA2 JUMP JUMPDEST PUSH1 0x40 MLOAD DUP1 SWAP2 SUB SWAP1 REVERT JUMPDEST POP POP POP JUMP JUMPDEST PUSH1 0x60 PUSH1 0x40 MLOAD DUP1 PUSH1 0x20 ADD PUSH1 0x40 MSTORE DUP1 PUSH1 0x0 DUP2 MSTORE POP SWAP1 POP SWAP1 JUMP JUMPDEST PUSH1 0x60 PUSH2 0x1A26 DUP3 PUSH2 0xEB0 JUMP JUMPDEST POP PUSH1 0x0 PUSH2 0x1A31 PUSH2 0x1A04 JUMP JUMPDEST SWAP1 POP PUSH1 0x0 DUP2 MLOAD GT PUSH2 0x1A51 JUMPI PUSH1 0x40 MLOAD DUP1 PUSH1 0x20 ADD PUSH1 0x40 MSTORE DUP1 PUSH1 0x0 DUP2 MSTORE POP PUSH2 0x1A7C JUMP JUMPDEST DUP1 PUSH2 0x1A5B DUP5 PUSH2 0x1BCB JUMP JUMPDEST PUSH1 0x40 MLOAD PUSH1 0x20 ADD PUSH2 0x1A6C SWAP3 SWAP2 SWAP1 PUSH2 0x2E7E JUMP JUMPDEST PUSH1 0x40 MLOAD PUSH1 0x20 DUP2 DUP4 SUB SUB DUP2 MSTORE SWAP1 PUSH1 0x40 MSTORE JUMPDEST SWAP2 POP POP SWAP2 SWAP1 POP JUMP JUMPDEST PUSH2 0x1A8E DUP4 DUP4 PUSH2 0x1C99 JUMP JUMPDEST PUSH2 0x1A9B PUSH1 0x0 DUP5 DUP5 DUP5 PUSH2 0x1318 JUMP JUMPDEST POP POP POP JUMP JUMPDEST PUSH1 0x0 PUSH32 0x1FFC9A700000000000000000000000000000000000000000000000000000000 PUSH28 0xFFFFFFFFFFFFFFFFFFFFFFFFFFFFFFFFFFFFFFFFFFFFFFFFFFFFFFFF NOT AND DUP3 PUSH28 0xFFFFFFFFFFFFFFFFFFFFFFFFFFFFFFFFFFFFFFFFFFFFFFFFFFFFFFFF NOT AND EQ SWAP1 POP SWAP2 SWAP1 POP JUMP JUMPDEST PUSH1 0x0 DUP1 PUSH20 0xFFFFFFFFFFFFFFFFFFFFFFFFFFFFFFFFFFFFFFFF AND DUP4 PUSH20 0xFFFFFFFFFFFFFFFFFFFFFFFFFFFFFFFFFFFFFFFF AND EQ ISZERO DUP1 ISZERO PUSH2 0x1BC2 JUMPI POP DUP3 PUSH20 0xFFFFFFFFFFFFFFFFFFFFFFFFFFFFFFFFFFFFFFFF AND DUP5 PUSH20 0xFFFFFFFFFFFFFFFFFFFFFFFFFFFFFFFFFFFFFFFF AND EQ DUP1 PUSH2 0x1B83 JUMPI POP PUSH2 0x1B82 DUP5 DUP5 PUSH2 0xB34 JUMP JUMPDEST JUMPDEST DUP1 PUSH2 0x1BC1 JUMPI POP DUP3 PUSH20 0xFFFFFFFFFFFFFFFFFFFFFFFFFFFFFFFFFFFFFFFF AND PUSH2 0x1BA9 DUP4 PUSH2 0xF38 JUMP JUMPDEST PUSH20 0xFFFFFFFFFFFFFFFFFFFFFFFFFFFFFFFFFFFFFFFF AND EQ JUMPDEST JUMPDEST SWAP1 POP SWAP4 SWAP3 POP POP POP JUMP JUMPDEST PUSH1 0x60 PUSH1 0x0 PUSH1 0x1 PUSH2 0x1BDA DUP5 PUSH2 0x1D92 JUMP JUMPDEST ADD SWAP1 POP PUSH1 0x0 DUP2 PUSH8 0xFFFFFFFFFFFFFFFF DUP2 GT ISZERO PUSH2 0x1BF9 JUMPI PUSH2 0x1BF8 PUSH2 0x219B JUMP JUMPDEST JUMPDEST PUSH1 0x40 MLOAD SWAP1 DUP1 DUP3 MSTORE DUP1 PUSH1 0x1F ADD PUSH1 0x1F NOT AND PUSH1 0x20 ADD DUP3 ADD PUSH1 0x40 MSTORE DUP1 ISZERO PUSH2 0x1C2B JUMPI DUP2 PUSH1 0x20 ADD PUSH1 0x1 DUP3 MUL DUP1 CALLDATASIZE DUP4 CALLDATACOPY DUP1 DUP3 ADD SWAP2 POP POP SWAP1 POP JUMPDEST POP SWAP1 POP PUSH1 0x0 DUP3 PUSH1 0x20 ADD DUP3 ADD SWAP1 POP JUMPDEST PUSH1 0x1 ISZERO PUSH2 0x1C8E JUMPI DUP1 DUP1 PUSH1 0x1 SWAP1 SUB SWAP2 POP POP PUSH32 0x3031323334353637383961626364656600000000000000000000000000000000 PUSH1 0xA DUP7 MOD BYTE DUP2 MSTORE8 PUSH1 0xA DUP6 DUP2 PUSH2 0x1C82 JUMPI PUSH2 0x1C81 PUSH2 0x2ECB JUMP JUMPDEST JUMPDEST DIV SWAP5 POP PUSH1 0x0 DUP6 SUB PUSH2 0x1C39 JUMPI JUMPDEST DUP2 SWAP4 POP POP POP POP SWAP2 SWAP1 POP JUMP JUMPDEST PUSH1 0x0 PUSH20 0xFFFFFFFFFFFFFFFFFFFFFFFFFFFFFFFFFFFFFFFF AND DUP3 PUSH20 0xFFFFFFFFFFFFFFFFFFFFFFFFFFFFFFFFFFFFFFFF AND SUB PUSH2 0x1D0B JUMPI PUSH1 0x0 PUSH1 0x40 MLOAD PUSH32 0x64A0AE9200000000000000000000000000000000000000000000000000000000 DUP2 MSTORE PUSH1 0x4 ADD PUSH2 0x1D02 SWAP2 SWAP1 PUSH2 0x210A JUMP JUMPDEST PUSH1 0x40 MLOAD DUP1 SWAP2 SUB SWAP1 REVERT JUMPDEST PUSH1 0x0 PUSH2 0x1D19 DUP4 DUP4 PUSH1 0x0 PUSH2 0xF8F JUMP JUMPDEST SWAP1 POP PUSH1 0x0 PUSH20 0xFFFFFFFFFFFFFFFFFFFFFFFFFFFFFFFFFFFFFFFF AND DUP2 PUSH20 0xFFFFFFFFFFFFFFFFFFFFFFFFFFFFFFFFFFFFFFFF AND EQ PUSH2 0x1D8D JUMPI PUSH1 0x0 PUSH1 0x40 MLOAD PUSH32 0x73C6AC6E00000000000000000000000000000000000000000000000000000000 DUP2 MSTORE PUSH1 0x4 ADD PUSH2 0x1D84 SWAP2 SWAP1 PUSH2 0x210A JUMP JUMPDEST PUSH1 0x40 MLOAD DUP1 SWAP2 SUB SWAP1 REVERT JUMPDEST POP POP POP JUMP JUMPDEST PUSH1 0x0 DUP1 PUSH1 0x0 SWAP1 POP PUSH27 0x184F03E93FF9F4DAA797ED6E38ED64BF6A1F010000000000000000 DUP4 LT PUSH2 0x1DF0 JUMPI PUSH27 0x184F03E93FF9F4DAA797ED6E38ED64BF6A1F010000000000000000 DUP4 DUP2 PUSH2 0x1DE6 JUMPI PUSH2 0x1DE5 PUSH2 0x2ECB JUMP JUMPDEST JUMPDEST DIV SWAP3 POP PUSH1 0x40 DUP2 ADD SWAP1 POP JUMPDEST PUSH14 0x4EE2D6D415B85ACEF8100000000 DUP4 LT PUSH2 0x1E2D JUMPI PUSH14 0x4EE2D6D415B85ACEF8100000000 DUP4 DUP2 PUSH2 0x1E23 JUMPI PUSH2 0x1E22 PUSH2 0x2ECB JUMP JUMPDEST JUMPDEST DIV SWAP3 POP PUSH1 0x20 DUP2 ADD SWAP1 POP JUMPDEST PUSH7 0x2386F26FC10000 DUP4 LT PUSH2 0x1E5C JUMPI PUSH7 0x2386F26FC10000 DUP4 DUP2 PUSH2 0x1E52 JUMPI PUSH2 0x1E51 PUSH2 0x2ECB JUMP JUMPDEST JUMPDEST DIV SWAP3 POP PUSH1 0x10 DUP2 ADD SWAP1 POP JUMPDEST PUSH4 0x5F5E100 DUP4 LT PUSH2 0x1E85 JUMPI PUSH4 0x5F5E100 DUP4 DUP2 PUSH2 0x1E7B JUMPI PUSH2 0x1E7A PUSH2 0x2ECB JUMP JUMPDEST JUMPDEST DIV SWAP3 POP PUSH1 0x8 DUP2 ADD SWAP1 POP JUMPDEST PUSH2 0x2710 DUP4 LT PUSH2 0x1EAA JUMPI PUSH2 0x2710 DUP4 DUP2 PUSH2 0x1EA0 JUMPI PUSH2 0x1E9F PUSH2 0x2ECB JUMP JUMPDEST JUMPDEST DIV SWAP3 POP PUSH1 0x4 DUP2 ADD SWAP1 POP JUMPDEST PUSH1 0x64 DUP4 LT PUSH2 0x1ECD JUMPI PUSH1 0x64 DUP4 DUP2 PUSH2 0x1EC3 JUMPI PUSH2 0x1EC2 PUSH2 0x2ECB JUMP JUMPDEST JUMPDEST DIV SWAP3 POP PUSH1 0x2 DUP2 ADD SWAP1 POP JUMPDEST PUSH1 0xA DUP4 LT PUSH2 0x1EDC JUMPI PUSH1 0x1 DUP2 ADD SWAP1 POP JUMPDEST DUP1 SWAP2 POP POP SWAP2 SWAP1 POP JUMP JUMPDEST PUSH1 0x0 PUSH1 0x40 MLOAD SWAP1 POP SWAP1 JUMP JUMPDEST PUSH1 0x0 DUP1 REVERT JUMPDEST PUSH1 0x0 DUP1 REVERT JUMPDEST PUSH1 0x0 PUSH32 0xFFFFFFFF00000000000000000000000000000000000000000000000000000000 DUP3 AND SWAP1 POP SWAP2 SWAP1 POP JUMP JUMPDEST PUSH2 0x1F2E DUP2 PUSH2 0x1EF9 JUMP JUMPDEST DUP2 EQ PUSH2 0x1F39 JUMPI PUSH1 0x0 DUP1 REVERT JUMPDEST POP JUMP JUMPDEST PUSH1 0x0 DUP2 CALLDATALOAD SWAP1 POP PUSH2 0x1F4B DUP2 PUSH2 0x1F25 JUMP JUMPDEST SWAP3 SWAP2 POP POP JUMP JUMPDEST PUSH1 0x0 PUSH1 0x20 DUP3 DUP5 SUB SLT ISZERO PUSH2 0x1F67 JUMPI PUSH2 0x1F66 PUSH2 0x1EEF JUMP JUMPDEST JUMPDEST PUSH1 0x0 PUSH2 0x1F75 DUP5 DUP3 DUP6 ADD PUSH2 0x1F3C JUMP JUMPDEST SWAP2 POP POP SWAP3 SWAP2 POP POP JUMP JUMPDEST PUSH1 0x0 DUP2 ISZERO ISZERO SWAP1 POP SWAP2 SWAP1 POP JUMP JUMPDEST PUSH2 0x1F93 DUP2 PUSH2 0x1F7E JUMP JUMPDEST DUP3 MSTORE POP POP JUMP JUMPDEST PUSH1 0x0 PUSH1 0x20 DUP3 ADD SWAP1 POP PUSH2 0x1FAE PUSH1 0x0 DUP4 ADD DUP5 PUSH2 0x1F8A JUMP JUMPDEST SWAP3 SWAP2 POP POP JUMP JUMPDEST PUSH1 0x0 DUP2 MLOAD SWAP1 POP SWAP2 SWAP1 POP JUMP JUMPDEST PUSH1 0x0 DUP3 DUP3 MSTORE PUSH1 0x20 DUP3 ADD SWAP1 POP SWAP3 SWAP2 POP POP JUMP JUMPDEST PUSH1 0x0 JUMPDEST DUP4 DUP2 LT ISZERO PUSH2 0x1FEE JUMPI DUP1 DUP3 ADD MLOAD DUP2 DUP5 ADD MSTORE PUSH1 0x20 DUP2 ADD SWAP1 POP PUSH2 0x1FD3 JUMP JUMPDEST PUSH1 0x0 DUP5 DUP5 ADD MSTORE POP POP POP POP JUMP JUMPDEST PUSH1 0x0 PUSH1 0x1F NOT PUSH1 0x1F DUP4 ADD AND SWAP1 POP SWAP2 SWAP1 POP JUMP JUMPDEST PUSH1 0x0 PUSH2 0x2016 DUP3 PUSH2 0x1FB4 JUMP JUMPDEST PUSH2 0x2020 DUP2 DUP6 PUSH2 0x1FBF JUMP JUMPDEST SWAP4 POP PUSH2 0x2030 DUP2 DUP6 PUSH1 0x20 DUP7 ADD PUSH2 0x1FD0 JUMP JUMPDEST PUSH2 0x2039 DUP2 PUSH2 0x1FFA JUMP JUMPDEST DUP5 ADD SWAP2 POP POP SWAP3 SWAP2 POP POP JUMP JUMPDEST PUSH1 0x0 PUSH1 0x20 DUP3 ADD SWAP1 POP DUP2 DUP2 SUB PUSH1 0x0 DUP4 ADD MSTORE PUSH2 0x205E DUP2 DUP5 PUSH2 0x200B JUMP JUMPDEST SWAP1 POP SWAP3 SWAP2 POP POP JUMP JUMPDEST PUSH1 0x0 DUP2 SWAP1 POP SWAP2 SWAP1 POP JUMP JUMPDEST PUSH2 0x2079 DUP2 PUSH2 0x2066 JUMP JUMPDEST DUP2 EQ PUSH2 0x2084 JUMPI PUSH1 0x0 DUP1 REVERT JUMPDEST POP JUMP JUMPDEST PUSH1 0x0 DUP2 CALLDATALOAD SWAP1 POP PUSH2 0x2096 DUP2 PUSH2 0x2070 JUMP JUMPDEST SWAP3 SWAP2 POP POP JUMP JUMPDEST PUSH1 0x0 PUSH1 0x20 DUP3 DUP5 SUB SLT ISZERO PUSH2 0x20B2 JUMPI PUSH2 0x20B1 PUSH2 0x1EEF JUMP JUMPDEST JUMPDEST PUSH1 0x0 PUSH2 0x20C0 DUP5 DUP3 DUP6 ADD PUSH2 0x2087 JUMP JUMPDEST SWAP2 POP POP SWAP3 SWAP2 POP POP JUMP JUMPDEST PUSH1 0x0 PUSH20 0xFFFFFFFFFFFFFFFFFFFFFFFFFFFFFFFFFFFFFFFF DUP3 AND SWAP1 POP SWAP2 SWAP1 POP JUMP JUMPDEST PUSH1 0x0 PUSH2 0x20F4 DUP3 PUSH2 0x20C9 JUMP JUMPDEST SWAP1 POP SWAP2 SWAP1 POP JUMP JUMPDEST PUSH2 0x2104 DUP2 PUSH2 0x20E9 JUMP JUMPDEST DUP3 MSTORE POP POP JUMP JUMPDEST PUSH1 0x0 PUSH1 0x20 DUP3 ADD SWAP1 POP PUSH2 0x211F PUSH1 0x0 DUP4 ADD DUP5 PUSH2 0x20FB JUMP JUMPDEST SWAP3 SWAP2 POP POP JUMP JUMPDEST PUSH2 0x212E DUP2 PUSH2 0x20E9 JUMP JUMPDEST DUP2 EQ PUSH2 0x2139 JUMPI PUSH1 0x0 DUP1 REVERT JUMPDEST POP JUMP JUMPDEST PUSH1 0x0 DUP2 CALLDATALOAD SWAP1 POP PUSH2 0x214B DUP2 PUSH2 0x2125 JUMP JUMPDEST SWAP3 SWAP2 POP POP JUMP JUMPDEST PUSH1 0x0 DUP1 PUSH1 0x40 DUP4 DUP6 SUB SLT ISZERO PUSH2 0x2168 JUMPI PUSH2 0x2167 PUSH2 0x1EEF JUMP JUMPDEST JUMPDEST PUSH1 0x0 PUSH2 0x2176 DUP6 DUP3 DUP7 ADD PUSH2 0x213C JUMP JUMPDEST SWAP3 POP POP PUSH1 0x20 PUSH2 0x2187 DUP6 DUP3 DUP7 ADD PUSH2 0x2087 JUMP JUMPDEST SWAP2 POP POP SWAP3 POP SWAP3 SWAP1 POP JUMP JUMPDEST PUSH1 0x0 DUP1 REVERT JUMPDEST PUSH1 0x0 DUP1 REVERT JUMPDEST PUSH32 0x4E487B7100000000000000000000000000000000000000000000000000000000 PUSH1 0x0 MSTORE PUSH1 0x41 PUSH1 0x4 MSTORE PUSH1 0x24 PUSH1 0x0 REVERT JUMPDEST PUSH2 0x21D3 DUP3 PUSH2 0x1FFA JUMP JUMPDEST DUP2 ADD DUP2 DUP2 LT PUSH8 0xFFFFFFFFFFFFFFFF DUP3 GT OR ISZERO PUSH2 0x21F2 JUMPI PUSH2 0x21F1 PUSH2 0x219B JUMP JUMPDEST JUMPDEST DUP1 PUSH1 0x40 MSTORE POP POP POP JUMP JUMPDEST PUSH1 0x0 PUSH2 0x2205 PUSH2 0x1EE5 JUMP JUMPDEST SWAP1 POP PUSH2 0x2211 DUP3 DUP3 PUSH2 0x21CA JUMP JUMPDEST SWAP2 SWAP1 POP JUMP JUMPDEST PUSH1 0x0 PUSH8 0xFFFFFFFFFFFFFFFF DUP3 GT ISZERO PUSH2 0x2231 JUMPI PUSH2 0x2230 PUSH2 0x219B JUMP JUMPDEST JUMPDEST PUSH2 0x223A DUP3 PUSH2 0x1FFA JUMP JUMPDEST SWAP1 POP PUSH1 0x20 DUP2 ADD SWAP1 POP SWAP2 SWAP1 POP JUMP JUMPDEST DUP3 DUP2 DUP4 CALLDATACOPY PUSH1 0x0 DUP4 DUP4 ADD MSTORE POP POP POP JUMP JUMPDEST PUSH1 0x0 PUSH2 0x2269 PUSH2 0x2264 DUP5 PUSH2 0x2216 JUMP JUMPDEST PUSH2 0x21FB JUMP JUMPDEST SWAP1 POP DUP3 DUP2 MSTORE PUSH1 0x20 DUP2 ADD DUP5 DUP5 DUP5 ADD GT ISZERO PUSH2 0x2285 JUMPI PUSH2 0x2284 PUSH2 0x2196 JUMP JUMPDEST JUMPDEST PUSH2 0x2290 DUP5 DUP3 DUP6 PUSH2 0x2247 JUMP JUMPDEST POP SWAP4 SWAP3 POP POP POP JUMP JUMPDEST PUSH1 0x0 DUP3 PUSH1 0x1F DUP4 ADD SLT PUSH2 0x22AD JUMPI PUSH2 0x22AC PUSH2 0x2191 JUMP JUMPDEST JUMPDEST DUP2 CALLDATALOAD PUSH2 0x22BD DUP5 DUP3 PUSH1 0x20 DUP7 ADD PUSH2 0x2256 JUMP JUMPDEST SWAP2 POP POP SWAP3 SWAP2 POP POP JUMP JUMPDEST PUSH1 0x0 DUP1 PUSH1 0x0 PUSH1 0x60 DUP5 DUP7 SUB SLT ISZERO PUSH2 0x22DF JUMPI PUSH2 0x22DE PUSH2 0x1EEF JUMP JUMPDEST JUMPDEST PUSH1 0x0 PUSH2 0x22ED DUP7 DUP3 DUP8 ADD PUSH2 0x2087 JUMP JUMPDEST SWAP4 POP POP PUSH1 0x20 DUP5 ADD CALLDATALOAD PUSH8 0xFFFFFFFFFFFFFFFF DUP2 GT ISZERO PUSH2 0x230E JUMPI PUSH2 0x230D PUSH2 0x1EF4 JUMP JUMPDEST JUMPDEST PUSH2 0x231A DUP7 DUP3 DUP8 ADD PUSH2 0x2298 JUMP JUMPDEST SWAP3 POP POP PUSH1 0x40 DUP5 ADD CALLDATALOAD PUSH8 0xFFFFFFFFFFFFFFFF DUP2 GT ISZERO PUSH2 0x233B JUMPI PUSH2 0x233A PUSH2 0x1EF4 JUMP JUMPDEST JUMPDEST PUSH2 0x2347 DUP7 DUP3 DUP8 ADD PUSH2 0x2298 JUMP JUMPDEST SWAP2 POP POP SWAP3 POP SWAP3 POP SWAP3 JUMP JUMPDEST PUSH1 0x0 DUP1 PUSH1 0x0 PUSH1 0x60 DUP5 DUP7 SUB SLT ISZERO PUSH2 0x236A JUMPI PUSH2 0x2369 PUSH2 0x1EEF JUMP JUMPDEST JUMPDEST PUSH1 0x0 PUSH2 0x2378 DUP7 DUP3 DUP8 ADD PUSH2 0x213C JUMP JUMPDEST SWAP4 POP POP PUSH1 0x20 PUSH2 0x2389 DUP7 DUP3 DUP8 ADD PUSH2 0x213C JUMP JUMPDEST SWAP3 POP POP PUSH1 0x40 PUSH2 0x239A DUP7 DUP3 DUP8 ADD PUSH2 0x2087 JUMP JUMPDEST SWAP2 POP POP SWAP3 POP SWAP3 POP SWAP3 JUMP JUMPDEST PUSH1 0x0 DUP2 SWAP1 POP SWAP2 SWAP1 POP JUMP JUMPDEST PUSH2 0x23B7 DUP2 PUSH2 0x23A4 JUMP JUMPDEST DUP3 MSTORE POP POP JUMP JUMPDEST PUSH2 0x23C6 DUP2 PUSH2 0x2066 JUMP JUMPDEST DUP3 MSTORE POP POP JUMP JUMPDEST PUSH1 0x0 PUSH1 0x80 DUP3 ADD SWAP1 POP PUSH2 0x23E1 PUSH1 0x0 DUP4 ADD DUP8 PUSH2 0x23AE JUMP JUMPDEST DUP2 DUP2 SUB PUSH1 0x20 DUP4 ADD MSTORE PUSH2 0x23F3 DUP2 DUP7 PUSH2 0x200B JUMP JUMPDEST SWAP1 POP DUP2 DUP2 SUB PUSH1 0x40 DUP4 ADD MSTORE PUSH2 0x2407 DUP2 DUP6 PUSH2 0x200B JUMP JUMPDEST SWAP1 POP PUSH2 0x2416 PUSH1 0x60 DUP4 ADD DUP5 PUSH2 0x23BD JUMP JUMPDEST SWAP6 SWAP5 POP POP POP POP POP JUMP JUMPDEST PUSH1 0x0 PUSH1 0x20 DUP3 DUP5 SUB SLT ISZERO PUSH2 0x2435 JUMPI PUSH2 0x2434 PUSH2 0x1EEF JUMP JUMPDEST JUMPDEST PUSH1 0x0 PUSH2 0x2443 DUP5 DUP3 DUP6 ADD PUSH2 0x213C JUMP JUMPDEST SWAP2 POP POP SWAP3 SWAP2 POP POP JUMP JUMPDEST PUSH1 0x0 PUSH1 0x20 DUP3 ADD SWAP1 POP PUSH2 0x2461 PUSH1 0x0 DUP4 ADD DUP5 PUSH2 0x23BD JUMP JUMPDEST SWAP3 SWAP2 POP POP JUMP JUMPDEST PUSH2 0x2470 DUP2 PUSH2 0x23A4 JUMP JUMPDEST DUP2 EQ PUSH2 0x247B JUMPI PUSH1 0x0 DUP1 REVERT JUMPDEST POP JUMP JUMPDEST PUSH1 0x0 DUP2 CALLDATALOAD SWAP1 POP PUSH2 0x248D DUP2 PUSH2 0x2467 JUMP JUMPDEST SWAP3 SWAP2 POP POP JUMP JUMPDEST PUSH1 0x0 PUSH1 0x20 DUP3 DUP5 SUB SLT ISZERO PUSH2 0x24A9 JUMPI PUSH2 0x24A8 PUSH2 0x1EEF JUMP JUMPDEST JUMPDEST PUSH1 0x0 PUSH2 0x24B7 DUP5 DUP3 DUP6 ADD PUSH2 0x247E JUMP JUMPDEST SWAP2 POP POP SWAP3 SWAP2 POP POP JUMP JUMPDEST PUSH2 0x24C9 DUP2 PUSH2 0x1F7E JUMP JUMPDEST DUP2 EQ PUSH2 0x24D4 JUMPI PUSH1 0x0 DUP1 REVERT JUMPDEST POP JUMP JUMPDEST PUSH1 0x0 DUP2 CALLDATALOAD SWAP1 POP PUSH2 0x24E6 DUP2 PUSH2 0x24C0 JUMP JUMPDEST SWAP3 SWAP2 POP POP JUMP JUMPDEST PUSH1 0x0 DUP1 PUSH1 0x40 DUP4 DUP6 SUB SLT ISZERO PUSH2 0x2503 JUMPI PUSH2 0x2502 PUSH2 0x1EEF JUMP JUMPDEST JUMPDEST PUSH1 0x0 PUSH2 0x2511 DUP6 DUP3 DUP7 ADD PUSH2 0x213C JUMP JUMPDEST SWAP3 POP POP PUSH1 0x20 PUSH2 0x2522 DUP6 DUP3 DUP7 ADD PUSH2 0x24D7 JUMP JUMPDEST SWAP2 POP POP SWAP3 POP SWAP3 SWAP1 POP JUMP JUMPDEST PUSH1 0x0 PUSH8 0xFFFFFFFFFFFFFFFF DUP3 GT ISZERO PUSH2 0x2547 JUMPI PUSH2 0x2546 PUSH2 0x219B JUMP JUMPDEST JUMPDEST PUSH2 0x2550 DUP3 PUSH2 0x1FFA JUMP JUMPDEST SWAP1 POP PUSH1 0x20 DUP2 ADD SWAP1 POP SWAP2 SWAP1 POP JUMP JUMPDEST PUSH1 0x0 PUSH2 0x2570 PUSH2 0x256B DUP5 PUSH2 0x252C JUMP JUMPDEST PUSH2 0x21FB JUMP JUMPDEST SWAP1 POP DUP3 DUP2 MSTORE PUSH1 0x20 DUP2 ADD DUP5 DUP5 DUP5 ADD GT ISZERO PUSH2 0x258C JUMPI PUSH2 0x258B PUSH2 0x2196 JUMP JUMPDEST JUMPDEST PUSH2 0x2597 DUP5 DUP3 DUP6 PUSH2 0x2247 JUMP JUMPDEST POP SWAP4 SWAP3 POP POP POP JUMP JUMPDEST PUSH1 0x0 DUP3 PUSH1 0x1F DUP4 ADD SLT PUSH2 0x25B4 JUMPI PUSH2 0x25B3 PUSH2 0x2191 JUMP JUMPDEST JUMPDEST DUP2 CALLDATALOAD PUSH2 0x25C4 DUP5 DUP3 PUSH1 0x20 DUP7 ADD PUSH2 0x255D JUMP JUMPDEST SWAP2 POP POP SWAP3 SWAP2 POP POP JUMP JUMPDEST PUSH1 0x0 DUP1 PUSH1 0x0 DUP1 PUSH1 0x80 DUP6 DUP8 SUB SLT ISZERO PUSH2 0x25E7 JUMPI PUSH2 0x25E6 PUSH2 0x1EEF JUMP JUMPDEST JUMPDEST PUSH1 0x0 PUSH2 0x25F5 DUP8 DUP3 DUP9 ADD PUSH2 0x213C JUMP JUMPDEST SWAP5 POP POP PUSH1 0x20 PUSH2 0x2606 DUP8 DUP3 DUP9 ADD PUSH2 0x213C JUMP JUMPDEST SWAP4 POP POP PUSH1 0x40 PUSH2 0x2617 DUP8 DUP3 DUP9 ADD PUSH2 0x2087 JUMP JUMPDEST SWAP3 POP POP PUSH1 0x60 DUP6 ADD CALLDATALOAD PUSH8 0xFFFFFFFFFFFFFFFF DUP2 GT ISZERO PUSH2 0x2638 JUMPI PUSH2 0x2637 PUSH2 0x1EF4 JUMP JUMPDEST JUMPDEST PUSH2 0x2644 DUP8 DUP3 DUP9 ADD PUSH2 0x259F JUMP JUMPDEST SWAP2 POP POP SWAP3 SWAP6 SWAP2 SWAP5 POP SWAP3 POP JUMP JUMPDEST PUSH1 0x0 DUP1 PUSH1 0x40 DUP4 DUP6 SUB SLT ISZERO PUSH2 0x2667 JUMPI PUSH2 0x2666 PUSH2 0x1EEF JUMP JUMPDEST JUMPDEST PUSH1 0x0 PUSH2 0x2675 DUP6 DUP3 DUP7 ADD PUSH2 0x213C JUMP JUMPDEST SWAP3 POP POP PUSH1 0x20 PUSH2 0x2686 DUP6 DUP3 DUP7 ADD PUSH2 0x213C JUMP JUMPDEST SWAP2 POP POP SWAP3 POP SWAP3 SWAP1 POP JUMP JUMPDEST PUSH1 0x0 DUP1 PUSH1 0x0 PUSH1 0x60 DUP5 DUP7 SUB SLT ISZERO PUSH2 0x26A9 JUMPI PUSH2 0x26A8 PUSH2 0x1EEF JUMP JUMPDEST JUMPDEST PUSH1 0x0 DUP5 ADD CALLDATALOAD PUSH8 0xFFFFFFFFFFFFFFFF DUP2 GT ISZERO PUSH2 0x26C7 JUMPI PUSH2 0x26C6 PUSH2 0x1EF4 JUMP JUMPDEST JUMPDEST PUSH2 0x26D3 DUP7 DUP3 DUP8 ADD PUSH2 0x2298 JUMP JUMPDEST SWAP4 POP POP PUSH1 0x20 DUP5 ADD CALLDATALOAD PUSH8 0xFFFFFFFFFFFFFFFF DUP2 GT ISZERO PUSH2 0x26F4 JUMPI PUSH2 0x26F3 PUSH2 0x1EF4 JUMP JUMPDEST JUMPDEST PUSH2 0x2700 DUP7 DUP3 DUP8 ADD PUSH2 0x2298 JUMP JUMPDEST SWAP3 POP POP PUSH1 0x40 DUP5 ADD CALLDATALOAD PUSH8 0xFFFFFFFFFFFFFFFF DUP2 GT ISZERO PUSH2 0x2721 JUMPI PUSH2 0x2720 PUSH2 0x1EF4 JUMP JUMPDEST JUMPDEST PUSH2 0x272D DUP7 DUP3 DUP8 ADD PUSH2 0x2298 JUMP JUMPDEST SWAP2 POP POP SWAP3 POP SWAP3 POP SWAP3 JUMP JUMPDEST PUSH32 0x4E487B7100000000000000000000000000000000000000000000000000000000 PUSH1 0x0 MSTORE PUSH1 0x22 PUSH1 0x4 MSTORE PUSH1 0x24 PUSH1 0x0 REVERT JUMPDEST PUSH1 0x0 PUSH1 0x2 DUP3 DIV SWAP1 POP PUSH1 0x1 DUP3 AND DUP1 PUSH2 0x277E JUMPI PUSH1 0x7F DUP3 AND SWAP2 POP JUMPDEST PUSH1 0x20 DUP3 LT DUP2 SUB PUSH2 0x2791 JUMPI PUSH2 0x2790 PUSH2 0x2737 JUMP JUMPDEST JUMPDEST POP SWAP2 SWAP1 POP JUMP JUMPDEST PUSH32 0x4163636573732064656E69656400000000000000000000000000000000000000 PUSH1 0x0 DUP3 ADD MSTORE POP JUMP JUMPDEST PUSH1 0x0 PUSH2 0x27CD PUSH1 0xD DUP4 PUSH2 0x1FBF JUMP JUMPDEST SWAP2 POP PUSH2 0x27D8 DUP3 PUSH2 0x2797 JUMP JUMPDEST PUSH1 0x20 DUP3 ADD SWAP1 POP SWAP2 SWAP1 POP JUMP JUMPDEST PUSH1 0x0 PUSH1 0x20 DUP3 ADD SWAP1 POP DUP2 DUP2 SUB PUSH1 0x0 DUP4 ADD MSTORE PUSH2 0x27FC DUP2 PUSH2 0x27C0 JUMP JUMPDEST SWAP1 POP SWAP2 SWAP1 POP JUMP JUMPDEST PUSH32 0x4E6F7465206E6F7420666F756E64000000000000000000000000000000000000 PUSH1 0x0 DUP3 ADD MSTORE POP JUMP JUMPDEST PUSH1 0x0 PUSH2 0x2839 PUSH1 0xE DUP4 PUSH2 0x1FBF JUMP JUMPDEST SWAP2 POP PUSH2 0x2844 DUP3 PUSH2 0x2803 JUMP JUMPDEST PUSH1 0x20 DUP3 ADD SWAP1 POP SWAP2 SWAP1 POP JUMP JUMPDEST PUSH1 0x0 PUSH1 0x20 DUP3 ADD SWAP1 POP DUP2 DUP2 SUB PUSH1 0x0 DUP4 ADD MSTORE PUSH2 0x2868 DUP2 PUSH2 0x282C JUMP JUMPDEST SWAP1 POP SWAP2 SWAP1 POP JUMP JUMPDEST PUSH1 0x0 DUP2 SWAP1 POP DUP2 PUSH1 0x0 MSTORE PUSH1 0x20 PUSH1 0x0 KECCAK256 SWAP1 POP SWAP2 SWAP1 POP JUMP JUMPDEST PUSH1 0x0 PUSH1 0x20 PUSH1 0x1F DUP4 ADD DIV SWAP1 POP SWAP2 SWAP1 POP JUMP JUMPDEST PUSH1 0x0 DUP3 DUP3 SHL SWAP1 POP SWAP3 SWAP2 POP POP JUMP JUMPDEST PUSH1 0x0 PUSH1 0x8 DUP4 MUL PUSH2 0x28D1 PUSH32 0xFFFFFFFFFFFFFFFFFFFFFFFFFFFFFFFFFFFFFFFFFFFFFFFFFFFFFFFFFFFFFFFF DUP3 PUSH2 0x2894 JUMP JUMPDEST PUSH2 0x28DB DUP7 DUP4 PUSH2 0x2894 JUMP JUMPDEST SWAP6 POP DUP1 NOT DUP5 AND SWAP4 POP DUP1 DUP7 AND DUP5 OR SWAP3 POP POP POP SWAP4 SWAP3 POP POP POP JUMP JUMPDEST PUSH1 0x0 DUP2 SWAP1 POP SWAP2 SWAP1 POP JUMP JUMPDEST PUSH1 0x0 PUSH2 0x2918 PUSH2 0x2913 PUSH2 0x290E DUP5 PUSH2 0x2066 JUMP JUMPDEST PUSH2 0x28F3 JUMP JUMPDEST PUSH2 0x2066 JUMP JUMPDEST SWAP1 POP SWAP2 SWAP1 POP JUMP JUMPDEST PUSH1 0x0 DUP2 SWAP1 POP SWAP2 SWAP1 POP JUMP JUMPDEST PUSH2 0x2932 DUP4 PUSH2 0x28FD JUMP JUMPDEST PUSH2 0x2946 PUSH2 0x293E DUP3 PUSH2 0x291F JUMP JUMPDEST DUP5 DUP5 SLOAD PUSH2 0x28A1 JUMP JUMPDEST DUP3 SSTORE POP POP POP POP JUMP JUMPDEST PUSH1 0x0 SWAP1 JUMP JUMPDEST PUSH2 0x295B PUSH2 0x294E JUMP JUMPDEST PUSH2 0x2966 DUP2 DUP5 DUP5 PUSH2 0x2929 JUMP JUMPDEST POP POP POP JUMP JUMPDEST JUMPDEST DUP2 DUP2 LT ISZERO PUSH2 0x298A JUMPI PUSH2 0x297F PUSH1 0x0 DUP3 PUSH2 0x2953 JUMP JUMPDEST PUSH1 0x1 DUP2 ADD SWAP1 POP PUSH2 0x296C JUMP JUMPDEST POP POP JUMP JUMPDEST PUSH1 0x1F DUP3 GT ISZERO PUSH2 0x29CF JUMPI PUSH2 0x29A0 DUP2 PUSH2 0x286F JUMP JUMPDEST PUSH2 0x29A9 DUP5 PUSH2 0x2884 JUMP JUMPDEST DUP2 ADD PUSH1 0x20 DUP6 LT ISZERO PUSH2 0x29B8 JUMPI DUP2 SWAP1 POP JUMPDEST PUSH2 0x29CC PUSH2 0x29C4 DUP6 PUSH2 0x2884 JUMP JUMPDEST DUP4 ADD DUP3 PUSH2 0x296B JUMP JUMPDEST POP POP JUMPDEST POP POP POP JUMP JUMPDEST PUSH1 0x0 DUP3 DUP3 SHR SWAP1 POP SWAP3 SWAP2 POP POP JUMP JUMPDEST PUSH1 0x0 PUSH2 0x29F2 PUSH1 0x0 NOT DUP5 PUSH1 0x8 MUL PUSH2 0x29D4 JUMP JUMPDEST NOT DUP1 DUP4 AND SWAP2 POP POP SWAP3 SWAP2 POP POP JUMP JUMPDEST PUSH1 0x0 PUSH2 0x2A0B DUP4 DUP4 PUSH2 0x29E1 JUMP JUMPDEST SWAP2 POP DUP3 PUSH1 0x2 MUL DUP3 OR SWAP1 POP SWAP3 SWAP2 POP POP JUMP JUMPDEST PUSH2 0x2A24 DUP3 PUSH2 0x1FB4 JUMP JUMPDEST PUSH8 0xFFFFFFFFFFFFFFFF DUP2 GT ISZERO PUSH2 0x2A3D JUMPI PUSH2 0x2A3C PUSH2 0x219B JUMP JUMPDEST JUMPDEST PUSH2 0x2A47 DUP3 SLOAD PUSH2 0x2766 JUMP JUMPDEST PUSH2 0x2A52 DUP3 DUP3 DUP6 PUSH2 0x298E JUMP JUMPDEST PUSH1 0x0 PUSH1 0x20 SWAP1 POP PUSH1 0x1F DUP4 GT PUSH1 0x1 DUP2 EQ PUSH2 0x2A85 JUMPI PUSH1 0x0 DUP5 ISZERO PUSH2 0x2A73 JUMPI DUP3 DUP8 ADD MLOAD SWAP1 POP JUMPDEST PUSH2 0x2A7D DUP6 DUP3 PUSH2 0x29FF JUMP JUMPDEST DUP7 SSTORE POP PUSH2 0x2AE5 JUMP JUMPDEST PUSH1 0x1F NOT DUP5 AND PUSH2 0x2A93 DUP7 PUSH2 0x286F JUMP JUMPDEST PUSH1 0x0 JUMPDEST DUP3 DUP2 LT ISZERO PUSH2 0x2ABB JUMPI DUP5 DUP10 ADD MLOAD DUP3 SSTORE PUSH1 0x1 DUP3 ADD SWAP2 POP PUSH1 0x20 DUP6 ADD SWAP5 POP PUSH1 0x20 DUP2 ADD SWAP1 POP PUSH2 0x2A96 JUMP JUMPDEST DUP7 DUP4 LT ISZERO PUSH2 0x2AD8 JUMPI DUP5 DUP10 ADD MLOAD PUSH2 0x2AD4 PUSH1 0x1F DUP10 AND DUP3 PUSH2 0x29E1 JUMP JUMPDEST DUP4 SSTORE POP JUMPDEST PUSH1 0x1 PUSH1 0x2 DUP9 MUL ADD DUP9 SSTORE POP POP POP JUMPDEST POP POP POP POP POP POP JUMP JUMPDEST PUSH1 0x0 PUSH1 0x40 DUP3 ADD SWAP1 POP DUP2 DUP2 SUB PUSH1 0x0 DUP4 ADD MSTORE PUSH2 0x2B07 DUP2 DUP6 PUSH2 0x200B JUMP JUMPDEST SWAP1 POP DUP2 DUP2 SUB PUSH1 0x20 DUP4 ADD MSTORE PUSH2 0x2B1B DUP2 DUP5 PUSH2 0x200B JUMP JUMPDEST SWAP1 POP SWAP4 SWAP3 POP POP POP JUMP JUMPDEST PUSH1 0x0 PUSH1 0x60 DUP3 ADD SWAP1 POP PUSH2 0x2B39 PUSH1 0x0 DUP4 ADD DUP7 PUSH2 0x20FB JUMP JUMPDEST PUSH2 0x2B46 PUSH1 0x20 DUP4 ADD DUP6 PUSH2 0x23BD JUMP JUMPDEST PUSH2 0x2B53 PUSH1 0x40 DUP4 ADD DUP5 PUSH2 0x20FB JUMP JUMPDEST SWAP5 SWAP4 POP POP POP POP JUMP JUMPDEST PUSH32 0x4E616D6520697320746F6F206C61726765000000000000000000000000000000 PUSH1 0x0 DUP3 ADD MSTORE POP JUMP JUMPDEST PUSH1 0x0 PUSH2 0x2B91 PUSH1 0x11 DUP4 PUSH2 0x1FBF JUMP JUMPDEST SWAP2 POP PUSH2 0x2B9C DUP3 PUSH2 0x2B5B JUMP JUMPDEST PUSH1 0x20 DUP3 ADD SWAP1 POP SWAP2 SWAP1 POP JUMP JUMPDEST PUSH1 0x0 PUSH1 0x20 DUP3 ADD SWAP1 POP DUP2 DUP2 SUB PUSH1 0x0 DUP4 ADD MSTORE PUSH2 0x2BC0 DUP2 PUSH2 0x2B84 JUMP JUMPDEST SWAP1 POP SWAP2 SWAP1 POP JUMP JUMPDEST PUSH32 0x436F6E74656E7420697320746F6F206C61726765000000000000000000000000 PUSH1 0x0 DUP3 ADD MSTORE POP JUMP JUMPDEST PUSH1 0x0 PUSH2 0x2BFD PUSH1 0x14 DUP4 PUSH2 0x1FBF JUMP JUMPDEST SWAP2 POP PUSH2 0x2C08 DUP3 PUSH2 0x2BC7 JUMP JUMPDEST PUSH1 0x20 DUP3 ADD SWAP1 POP SWAP2 SWAP1 POP JUMP JUMPDEST PUSH1 0x0 PUSH1 0x20 DUP3 ADD SWAP1 POP DUP2 DUP2 SUB PUSH1 0x0 DUP4 ADD MSTORE PUSH2 0x2C2C DUP2 PUSH2 0x2BF0 JUMP JUMPDEST SWAP1 POP SWAP2 SWAP1 POP JUMP JUMPDEST PUSH1 0x0 DUP2 SWAP1 POP SWAP3 SWAP2 POP POP JUMP JUMPDEST PUSH1 0x0 PUSH2 0x2C49 DUP3 PUSH2 0x1FB4 JUMP JUMPDEST PUSH2 0x2C53 DUP2 DUP6 PUSH2 0x2C33 JUMP JUMPDEST SWAP4 POP PUSH2 0x2C63 DUP2 DUP6 PUSH1 0x20 DUP7 ADD PUSH2 0x1FD0 JUMP JUMPDEST DUP1 DUP5 ADD SWAP2 POP POP SWAP3 SWAP2 POP POP JUMP JUMPDEST PUSH1 0x0 DUP2 SWAP1 POP SWAP2 SWAP1 POP JUMP JUMPDEST PUSH2 0x2C8A PUSH2 0x2C85 DUP3 PUSH2 0x2066 JUMP JUMPDEST PUSH2 0x2C6F JUMP JUMPDEST DUP3 MSTORE POP POP JUMP JUMPDEST PUSH1 0x0 PUSH2 0x2C9C DUP3 DUP6 PUSH2 0x2C3E JUMP JUMPDEST SWAP2 POP PUSH2 0x2CA8 DUP3 DUP5 PUSH2 0x2C79 JUMP JUMPDEST PUSH1 0x20 DUP3 ADD SWAP2 POP DUP2 SWAP1 POP SWAP4 SWAP3 POP POP POP JUMP JUMPDEST PUSH32 0x4E6F746520616C72656164792065786973747300000000000000000000000000 PUSH1 0x0 DUP3 ADD MSTORE POP JUMP JUMPDEST PUSH1 0x0 PUSH2 0x2CEE PUSH1 0x13 DUP4 PUSH2 0x1FBF JUMP JUMPDEST SWAP2 POP PUSH2 0x2CF9 DUP3 PUSH2 0x2CB8 JUMP JUMPDEST PUSH1 0x20 DUP3 ADD SWAP1 POP SWAP2 SWAP1 POP JUMP JUMPDEST PUSH1 0x0 PUSH1 0x20 DUP3 ADD SWAP1 POP DUP2 DUP2 SUB PUSH1 0x0 DUP4 ADD MSTORE PUSH2 0x2D1D DUP2 PUSH2 0x2CE1 JUMP JUMPDEST SWAP1 POP SWAP2 SWAP1 POP JUMP JUMPDEST PUSH32 0x4E487B7100000000000000000000000000000000000000000000000000000000 PUSH1 0x0 MSTORE PUSH1 0x11 PUSH1 0x4 MSTORE PUSH1 0x24 PUSH1 0x0 REVERT JUMPDEST PUSH1 0x0 PUSH2 0x2D5E DUP3 PUSH2 0x2066 JUMP JUMPDEST SWAP2 POP PUSH32 0xFFFFFFFFFFFFFFFFFFFFFFFFFFFFFFFFFFFFFFFFFFFFFFFFFFFFFFFFFFFFFFFF DUP3 SUB PUSH2 0x2D90 JUMPI PUSH2 0x2D8F PUSH2 0x2D24 JUMP JUMPDEST JUMPDEST PUSH1 0x1 DUP3 ADD SWAP1 POP SWAP2 SWAP1 POP JUMP JUMPDEST PUSH1 0x0 DUP2 MLOAD SWAP1 POP SWAP2 SWAP1 POP JUMP JUMPDEST PUSH1 0x0 DUP3 DUP3 MSTORE PUSH1 0x20 DUP3 ADD SWAP1 POP SWAP3 SWAP2 POP POP JUMP JUMPDEST PUSH1 0x0 PUSH2 0x2DC2 DUP3 PUSH2 0x2D9B JUMP JUMPDEST PUSH2 0x2DCC DUP2 DUP6 PUSH2 0x2DA6 JUMP JUMPDEST SWAP4 POP PUSH2 0x2DDC DUP2 DUP6 PUSH1 0x20 DUP7 ADD PUSH2 0x1FD0 JUMP JUMPDEST PUSH2 0x2DE5 DUP2 PUSH2 0x1FFA JUMP JUMPDEST DUP5 ADD SWAP2 POP POP SWAP3 SWAP2 POP POP JUMP JUMPDEST PUSH1 0x0 PUSH1 0x80 DUP3 ADD SWAP1 POP PUSH2 0x2E05 PUSH1 0x0 DUP4 ADD DUP8 PUSH2 0x20FB JUMP JUMPDEST PUSH2 0x2E12 PUSH1 0x20 DUP4 ADD DUP7 PUSH2 0x20FB JUMP JUMPDEST PUSH2 0x2E1F PUSH1 0x40 DUP4 ADD DUP6 PUSH2 0x23BD JUMP JUMPDEST DUP2 DUP2 SUB PUSH1 0x60 DUP4 ADD MSTORE PUSH2 0x2E31 DUP2 DUP5 PUSH2 0x2DB7 JUMP JUMPDEST SWAP1 POP SWAP6 SWAP5 POP POP POP POP POP JUMP JUMPDEST PUSH1 0x0 DUP2 MLOAD SWAP1 POP PUSH2 0x2E4B DUP2 PUSH2 0x1F25 JUMP JUMPDEST SWAP3 SWAP2 POP POP JUMP JUMPDEST PUSH1 0x0 PUSH1 0x20 DUP3 DUP5 SUB SLT ISZERO PUSH2 0x2E67 JUMPI PUSH2 0x2E66 PUSH2 0x1EEF JUMP JUMPDEST JUMPDEST PUSH1 0x0 PUSH2 0x2E75 DUP5 DUP3 DUP6 ADD PUSH2 0x2E3C JUMP JUMPDEST SWAP2 POP POP SWAP3 SWAP2 POP POP JUMP JUMPDEST PUSH1 0x0 PUSH2 0x2E8A DUP3 DUP6 PUSH2 0x2C3E JUMP JUMPDEST SWAP2 POP PUSH2 0x2E96 DUP3 DUP5 PUSH2 0x2C3E JUMP JUMPDEST SWAP2 POP DUP2 SWAP1 POP SWAP4 SWAP3 POP POP POP JUMP JUMPDEST PUSH1 0x0 PUSH1 0x40 DUP3 ADD SWAP1 POP PUSH2 0x2EB7 PUSH1 0x0 DUP4 ADD DUP6 PUSH2 0x20FB JUMP JUMPDEST PUSH2 0x2EC4 PUSH1 0x20 DUP4 ADD DUP5 PUSH2 0x23BD JUMP JUMPDEST SWAP4 SWAP3 POP POP POP JUMP JUMPDEST PUSH32 0x4E487B7100000000000000000000000000000000000000000000000000000000 PUSH1 0x0 MSTORE PUSH1 0x12 PUSH1 0x4 MSTORE PUSH1 0x24 PUSH1 0x0 REVERT INVALID LOG2 PUSH5 0x6970667358 0x22 SLT KECCAK256 0xBE 0xD8 ADDMOD 0xAC 0xD1 DIV 0xDC 0x25 SSTORE PUSH3 0xF5BFFC 0x22 0xC6 SWAP10 JUMPI 0xAE ISZERO SWAP14 PUSH6 0x1A5376109AA4 SWAP13 0x4B MSTORE GT 0xDE PUSH5 0x736F6C6343 STOP ADDMOD XOR STOP CALLER "},"methodIdentifiers":{"approve(address,uint256)":"095ea7b3","balanceOf(address)":"70a08231","burn(uint256)":"42966c68","createNote(string,string,string)":"ffe65749","deleteNote(uint256)":"c47177f4","getApproved(uint256)":"081812fc","isApprovedForAll(address,address)":"e985e9c5","lastTokenId()":"f84ddf0b","name()":"06fdde03","notes(uint256)":"61c3a7e6","notesIds(bytes32)":"7ffcb16c","ownerOf(uint256)":"6352211e","safeTransferFrom(address,address,uint256)":"42842e0e","safeTransferFrom(address,address,uint256,bytes)":"b88d4fde","setApprovalForAll(address,bool)":"a22cb465","supportsInterface(bytes4)":"01ffc9a7","symbol()":"95d89b41","tokenURI(uint256)":"c87b56dd","transferFrom(address,address,uint256)":"23b872dd","transferNote(address,uint256)":"2db33864","updateNote(uint256,string,string)":"09abcd3b"}}}}}