{
  "_format": "hh-sol-artifact-1",
  "contractName": "Provify",
  "sourceName": "contracts/Provify.sol",
  "abi": [
    {
      "inputs": [],
      "stateMutability": "nonpayable",
      "type": "constructor"
    },
    {
      "inputs": [
        {
          "internalType": "address",
          "name": "sender",
          "type": "address"
        },
        {
          "internalType": "uint256",
          "name": "tokenId",
          "type": "uint256"
        },
        {
          "internalType": "address",
          "name": "owner",
          "type": "address"
        }
      ],
      "name": "ERC721IncorrectOwner",
      "type": "error"
    },
    {
      "inputs": [
        {
          "internalType": "address",
          "name": "operator",
          "type": "address"
        },
        {
          "internalType": "uint256",
          "name": "tokenId",
          "type": "uint256"
        }
      ],
      "name": "ERC721InsufficientApproval",
      "type": "error"
    },
    {
      "inputs": [
        {
          "internalType": "address",
          "name": "approver",
          "type": "address"
        }
      ],
      "name": "ERC721InvalidApprover",
      "type": "error"
    },
    {
      "inputs": [
        {
          "internalType": "address",
          "name": "operator",
          "type": "address"
        }
      ],
      "name": "ERC721InvalidOperator",
      "type": "error"
    },
    {
      "inputs": [
        {
          "internalType": "address",
          "name": "owner",
          "type": "address"
        }
      ],
      "name": "ERC721InvalidOwner",
      "type": "error"
    },
    {
      "inputs": [
        {
          "internalType": "address",
          "name": "receiver",
          "type": "address"
        }
      ],
      "name": "ERC721InvalidReceiver",
      "type": "error"
    },
    {
      "inputs": [
        {
          "internalType": "address",
          "name": "sender",
          "type": "address"
        }
      ],
      "name": "ERC721InvalidSender",
      "type": "error"
    },
    {
      "inputs": [
        {
          "internalType": "uint256",
          "name": "tokenId",
          "type": "uint256"
        }
      ],
      "name": "ERC721NonexistentToken",
      "type": "error"
    },
    {
      "anonymous": false,
      "inputs": [
        {
          "indexed": true,
          "internalType": "address",
          "name": "owner",
          "type": "address"
        },
        {
          "indexed": true,
          "internalType": "address",
          "name": "approved",
          "type": "address"
        },
        {
          "indexed": true,
          "internalType": "uint256",
          "name": "tokenId",
          "type": "uint256"
        }
      ],
      "name": "Approval",
      "type": "event"
    },
    {
      "anonymous": false,
      "inputs": [
        {
          "indexed": true,
          "internalType": "address",
          "name": "owner",
          "type": "address"
        },
        {
          "indexed": true,
          "internalType": "address",
          "name": "operator",
          "type": "address"
        },
        {
          "indexed": false,
          "internalType": "bool",
          "name": "approved",
          "type": "bool"
        }
      ],
      "name": "ApprovalForAll",
      "type": "event"
    },
    {
      "anonymous": false,
      "inputs": [
        {
          "indexed": false,
          "internalType": "uint256",
          "name": "_fromTokenId",
          "type": "uint256"
        },
        {
          "indexed": false,
          "internalType": "uint256",
          "name": "_toTokenId",
          "type": "uint256"
        }
      ],
      "name": "BatchMetadataUpdate",
      "type": "event"
    },
    {
      "anonymous": false,
      "inputs": [
        {
          "indexed": false,
          "internalType": "uint256",
          "name": "_tokenId",
          "type": "uint256"
        }
      ],
      "name": "MetadataUpdate",
      "type": "event"
    },
    {
      "anonymous": false,
      "inputs": [
        {
          "indexed": true,
          "internalType": "uint256",
          "name": "proofId",
          "type": "uint256"
        },
        {
          "indexed": false,
          "internalType": "string",
          "name": "name",
          "type": "string"
        },
        {
          "indexed": false,
          "internalType": "string",
          "name": "description",
          "type": "string"
        },
        {
          "indexed": true,
          "internalType": "address",
          "name": "issuer",
          "type": "address"
        }
      ],
      "name": "ProofCreated",
      "type": "event"
    },
    {
      "anonymous": false,
      "inputs": [
        {
          "indexed": true,
          "internalType": "address",
          "name": "from",
          "type": "address"
        },
        {
          "indexed": true,
          "internalType": "address",
          "name": "to",
          "type": "address"
        },
        {
          "indexed": true,
          "internalType": "uint256",
          "name": "tokenId",
          "type": "uint256"
        }
      ],
      "name": "Transfer",
      "type": "event"
    },
    {
      "inputs": [
        {
          "internalType": "address",
          "name": "to",
          "type": "address"
        },
        {
          "internalType": "uint256",
          "name": "tokenId",
          "type": "uint256"
        }
      ],
      "name": "approve",
      "outputs": [],
      "stateMutability": "nonpayable",
      "type": "function"
    },
    {
      "inputs": [
        {
          "internalType": "address",
          "name": "owner",
          "type": "address"
        }
      ],
      "name": "balanceOf",
      "outputs": [
        {
          "internalType": "uint256",
          "name": "",
          "type": "uint256"
        }
      ],
      "stateMutability": "view",
      "type": "function"
    },
    {
      "inputs": [
        {
          "internalType": "string",
          "name": "_name",
          "type": "string"
        },
        {
          "internalType": "string",
          "name": "_description",
          "type": "string"
        },
        {
          "internalType": "string",
          "name": "_tokenURI",
          "type": "string"
        }
      ],
      "name": "createProof",
      "outputs": [],
      "stateMutability": "nonpayable",
      "type": "function"
    },
    {
      "inputs": [
        {
          "internalType": "uint256",
          "name": "tokenId",
          "type": "uint256"
        }
      ],
      "name": "getApproved",
      "outputs": [
        {
          "internalType": "address",
          "name": "",
          "type": "address"
        }
      ],
      "stateMutability": "view",
      "type": "function"
    },
    {
      "inputs": [
        {
          "internalType": "address",
          "name": "owner",
          "type": "address"
        },
        {
          "internalType": "address",
          "name": "operator",
          "type": "address"
        }
      ],
      "name": "isApprovedForAll",
      "outputs": [
        {
          "internalType": "bool",
          "name": "",
          "type": "bool"
        }
      ],
      "stateMutability": "view",
      "type": "function"
    },
    {
      "inputs": [],
      "name": "name",
      "outputs": [
        {
          "internalType": "string",
          "name": "",
          "type": "string"
        }
      ],
      "stateMutability": "view",
      "type": "function"
    },
    {
      "inputs": [
        {
          "internalType": "uint256",
          "name": "tokenId",
          "type": "uint256"
        }
      ],
      "name": "ownerOf",
      "outputs": [
        {
          "internalType": "address",
          "name": "",
          "type": "address"
        }
      ],
      "stateMutability": "view",
      "type": "function"
    },
    {
      "inputs": [
        {
          "internalType": "uint256",
          "name": "",
          "type": "uint256"
        }
      ],
      "name": "proofs",
      "outputs": [
        {
          "internalType": "string",
          "name": "name",
          "type": "string"
        },
        {
          "internalType": "string",
          "name": "description",
          "type": "string"
        },
        {
          "internalType": "address",
          "name": "issuer",
          "type": "address"
        },
        {
          "internalType": "uint256",
          "name": "timestamp",
          "type": "uint256"
        }
      ],
      "stateMutability": "view",
      "type": "function"
    },
    {
      "inputs": [
        {
          "internalType": "address",
          "name": "from",
          "type": "address"
        },
        {
          "internalType": "address",
          "name": "to",
          "type": "address"
        },
        {
          "internalType": "uint256",
          "name": "tokenId",
          "type": "uint256"
        }
      ],
      "name": "safeTransferFrom",
      "outputs": [],
      "stateMutability": "nonpayable",
      "type": "function"
    },
    {
      "inputs": [
        {
          "internalType": "address",
          "name": "from",
          "type": "address"
        },
        {
          "internalType": "address",
          "name": "to",
          "type": "address"
        },
        {
          "internalType": "uint256",
          "name": "tokenId",
          "type": "uint256"
        },
        {
          "internalType": "bytes",
          "name": "data",
          "type": "bytes"
        }
      ],
      "name": "safeTransferFrom",
      "outputs": [],
      "stateMutability": "nonpayable",
      "type": "function"
    },
    {
      "inputs": [
        {
          "internalType": "address",
          "name": "operator",
          "type": "address"
        },
        {
          "internalType": "bool",
          "name": "approved",
          "type": "bool"
        }
      ],
      "name": "setApprovalForAll",
      "outputs": [],
      "stateMutability": "nonpayable",
      "type": "function"
    },
    {
      "inputs": [
        {
          "internalType": "bytes4",
          "name": "interfaceId",
          "type": "bytes4"
        }
      ],
      "name": "supportsInterface",
      "outputs": [
        {
          "internalType": "bool",
          "name": "",
          "type": "bool"
        }
      ],
      "stateMutability": "view",
      "type": "function"
    },
    {
      "inputs": [],
      "name": "symbol",
      "outputs": [
        {
          "internalType": "string",
          "name": "",
          "type": "string"
        }
      ],
      "stateMutability": "view",
      "type": "function"
    },
    {
      "inputs": [],
      "name": "tokenIdCounter",
      "outputs": [
        {
          "internalType": "uint256",
          "name": "",
          "type": "uint256"
        }
      ],
      "stateMutability": "view",
      "type": "function"
    },
    {
      "inputs": [
        {
          "internalType": "uint256",
          "name": "tokenId",
          "type": "uint256"
        }
      ],
      "name": "tokenURI",
      "outputs": [
        {
          "internalType": "string",
          "name": "",
          "type": "string"
        }
      ],
      "stateMutability": "view",
      "type": "function"
    },
    {
      "inputs": [
        {
          "internalType": "address",
          "name": "from",
          "type": "address"
        },
        {
          "internalType": "address",
          "name": "to",
          "type": "address"
        },
        {
          "internalType": "uint256",
          "name": "tokenId",
          "type": "uint256"
        }
      ],
      "name": "transferFrom",
      "outputs": [],
      "stateMutability": "nonpayable",
      "type": "function"
    }
  ],
  "bytecode": "0x60806040523480156200001157600080fd5b506040518060400160405280600581526020017f50726f6f660000000000000000000000000000000000000000000000000000008152506040518060400160405280600381526020017f505246000000000000000000000000000000000000000000000000000000000081525081600090816200008f919062000324565b508060019081620000a1919062000324565b5050506200040b565b600081519050919050565b7f4e487b7100000000000000000000000000000000000000000000000000000000600052604160045260246000fd5b7f4e487b7100000000000000000000000000000000000000000000000000000000600052602260045260246000fd5b600060028204905060018216806200012c57607f821691505b602082108103620001425762000141620000e4565b5b50919050565b60008190508160005260206000209050919050565b60006020601f8301049050919050565b600082821b905092915050565b600060088302620001ac7fffffffffffffffffffffffffffffffffffffffffffffffffffffffffffffffff826200016d565b620001b886836200016d565b95508019841693508086168417925050509392505050565b6000819050919050565b6000819050919050565b600062000205620001ff620001f984620001d0565b620001da565b620001d0565b9050919050565b6000819050919050565b6200022183620001e4565b6200023962000230826200020c565b8484546200017a565b825550505050565b600090565b6200025062000241565b6200025d81848462000216565b505050565b5b8181101562000285576200027960008262000246565b60018101905062000263565b5050565b601f821115620002d4576200029e8162000148565b620002a9846200015d565b81016020851015620002b9578190505b620002d1620002c8856200015d565b83018262000262565b50505b505050565b600082821c905092915050565b6000620002f960001984600802620002d9565b1980831691505092915050565b6000620003148383620002e6565b9150826002028217905092915050565b6200032f82620000aa565b67ffffffffffffffff8111156200034b576200034a620000b5565b5b62000357825462000113565b6200036482828562000289565b600060209050601f8311600181146200039c576000841562000387578287015190505b62000393858262000306565b86555062000403565b601f198416620003ac8662000148565b60005b82811015620003d657848901518255600182019150602085019450602081019050620003af565b86831015620003f65784890151620003f2601f891682620002e6565b8355505b6001600288020188555050505b505050505050565b6127a0806200041b6000396000f3fe608060405234801561001057600080fd5b50600436106101005760003560e01c806370a0823111610097578063a22cb46511610066578063a22cb465146102c2578063b88d4fde146102de578063c87b56dd146102fa578063e985e9c51461032a57610100565b806370a082311461022357806395d89b411461025357806398bdf6f5146102715780639ddaf5aa1461028f57610100565b806323b872dd116100d357806323b872dd1461019f57806328ffc4e5146101bb57806342842e0e146101d75780636352211e146101f357610100565b806301ffc9a71461010557806306fdde0314610135578063081812fc14610153578063095ea7b314610183575b600080fd5b61011f600480360381019061011a9190611b23565b61035a565b60405161012c9190611b6b565b60405180910390f35b61013d6103bb565b60405161014a9190611c16565b60405180910390f35b61016d60048036038101906101689190611c6e565b61044d565b60405161017a9190611cdc565b60405180910390f35b61019d60048036038101906101989190611d23565b610469565b005b6101b960048036038101906101b49190611d63565b61047f565b005b6101d560048036038101906101d09190611eeb565b610581565b005b6101f160048036038101906101ec9190611d63565b6106d7565b005b61020d60048036038101906102089190611c6e565b6106f7565b60405161021a9190611cdc565b60405180910390f35b61023d60048036038101906102389190611f92565b610709565b60405161024a9190611fce565b60405180910390f35b61025b6107c3565b6040516102689190611c16565b60405180910390f35b610279610855565b6040516102869190611fce565b60405180910390f35b6102a960048036038101906102a49190611c6e565b61085b565b6040516102b99493929190611fe9565b60405180910390f35b6102dc60048036038101906102d79190612068565b6109bb565b005b6102f860048036038101906102f39190612149565b6109d1565b005b610314600480360381019061030f9190611c6e565b6109ee565b6040516103219190611c16565b60405180910390f35b610344600480360381019061033f91906121cc565b610b01565b6040516103519190611b6b565b60405180910390f35b6000634906490660e01b7bffffffffffffffffffffffffffffffffffffffffffffffffffffffff1916827bffffffffffffffffffffffffffffffffffffffffffffffffffffffff191614806103b457506103b382610b95565b5b9050919050565b6060600080546103ca9061223b565b80601f01602080910402602001604051908101604052809291908181526020018280546103f69061223b565b80156104435780601f1061041857610100808354040283529160200191610443565b820191906000526020600020905b81548152906001019060200180831161042657829003601f168201915b5050505050905090565b600061045882610c77565b5061046282610cff565b9050919050565b61047b8282610476610d3c565b610d44565b5050565b600073ffffffffffffffffffffffffffffffffffffffff168273ffffffffffffffffffffffffffffffffffffffff16036104f15760006040517f64a0ae920000000000000000000000000000000000000000000000000000000081526004016104e89190611cdc565b60405180910390fd5b60006105058383610500610d3c565b610d56565b90508373ffffffffffffffffffffffffffffffffffffffff168173ffffffffffffffffffffffffffffffffffffffff161461057b578382826040517f64283d7b0000000000000000000000000000000000000000000000000000000081526004016105729392919061226c565b60405180910390fd5b50505050565b60405180608001604052808481526020018381526020013373ffffffffffffffffffffffffffffffffffffffff1681526020014281525060076000600854815260200190815260200160002060008201518160000190816105e2919061244f565b5060208201518160010190816105f8919061244f565b5060408201518160020160006101000a81548173ffffffffffffffffffffffffffffffffffffffff021916908373ffffffffffffffffffffffffffffffffffffffff16021790555060608201518160030155905050600060085490506008600081548092919061066790612550565b91905055506106763382610f70565b6106808183610f8e565b3373ffffffffffffffffffffffffffffffffffffffff16817f4eae5ade74fcbf717dc8e4bab9aec05293b75487dc7535867b5502bba7479c1186866040516106c9929190612598565b60405180910390a350505050565b6106f2838383604051806020016040528060008152506109d1565b505050565b600061070282610c77565b9050919050565b60008073ffffffffffffffffffffffffffffffffffffffff168273ffffffffffffffffffffffffffffffffffffffff160361077c5760006040517f89c62b640000000000000000000000000000000000000000000000000000000081526004016107739190611cdc565b60405180910390fd5b600360008373ffffffffffffffffffffffffffffffffffffffff1673ffffffffffffffffffffffffffffffffffffffff168152602001908152602001600020549050919050565b6060600180546107d29061223b565b80601f01602080910402602001604051908101604052809291908181526020018280546107fe9061223b565b801561084b5780601f106108205761010080835404028352916020019161084b565b820191906000526020600020905b81548152906001019060200180831161082e57829003601f168201915b5050505050905090565b60085481565b600760205280600052604060002060009150905080600001805461087e9061223b565b80601f01602080910402602001604051908101604052809291908181526020018280546108aa9061223b565b80156108f75780601f106108cc576101008083540402835291602001916108f7565b820191906000526020600020905b8154815290600101906020018083116108da57829003601f168201915b50505050509080600101805461090c9061223b565b80601f01602080910402602001604051908101604052809291908181526020018280546109389061223b565b80156109855780601f1061095a57610100808354040283529160200191610985565b820191906000526020600020905b81548152906001019060200180831161096857829003601f168201915b5050505050908060020160009054906101000a900473ffffffffffffffffffffffffffffffffffffffff16908060030154905084565b6109cd6109c6610d3c565b8383610fea565b5050565b6109dc84848461047f565b6109e884848484611159565b50505050565b60606109f982610c77565b506000600660008481526020019081526020016000208054610a1a9061223b565b80601f0160208091040260200160405190810160405280929190818152602001828054610a469061223b565b8015610a935780601f10610a6857610100808354040283529160200191610a93565b820191906000526020600020905b815481529060010190602001808311610a7657829003601f168201915b505050505090506000610aa4611310565b90506000815103610ab9578192505050610afc565b600082511115610aee578082604051602001610ad692919061260b565b60405160208183030381529060405292505050610afc565b610af784611327565b925050505b919050565b6000600560008473ffffffffffffffffffffffffffffffffffffffff1673ffffffffffffffffffffffffffffffffffffffff16815260200190815260200160002060008373ffffffffffffffffffffffffffffffffffffffff1673ffffffffffffffffffffffffffffffffffffffff16815260200190815260200160002060009054906101000a900460ff16905092915050565b60007f80ac58cd000000000000000000000000000000000000000000000000000000007bffffffffffffffffffffffffffffffffffffffffffffffffffffffff1916827bffffffffffffffffffffffffffffffffffffffffffffffffffffffff19161480610c6057507f5b5e139f000000000000000000000000000000000000000000000000000000007bffffffffffffffffffffffffffffffffffffffffffffffffffffffff1916827bffffffffffffffffffffffffffffffffffffffffffffffffffffffff1916145b80610c705750610c6f82611390565b5b9050919050565b600080610c83836113fa565b9050600073ffffffffffffffffffffffffffffffffffffffff168173ffffffffffffffffffffffffffffffffffffffff1603610cf657826040517f7e273289000000000000000000000000000000000000000000000000000000008152600401610ced9190611fce565b60405180910390fd5b80915050919050565b60006004600083815260200190815260200160002060009054906101000a900473ffffffffffffffffffffffffffffffffffffffff169050919050565b600033905090565b610d518383836001611437565b505050565b600080610d62846113fa565b9050600073ffffffffffffffffffffffffffffffffffffffff168373ffffffffffffffffffffffffffffffffffffffff1614610da457610da38184866115fc565b5b600073ffffffffffffffffffffffffffffffffffffffff168173ffffffffffffffffffffffffffffffffffffffff1614610e3557610de6600085600080611437565b6001600360008373ffffffffffffffffffffffffffffffffffffffff1673ffffffffffffffffffffffffffffffffffffffff168152602001908152602001600020600082825403925050819055505b600073ffffffffffffffffffffffffffffffffffffffff168573ffffffffffffffffffffffffffffffffffffffff1614610eb8576001600360008773ffffffffffffffffffffffffffffffffffffffff1673ffffffffffffffffffffffffffffffffffffffff168152602001908152602001600020600082825401925050819055505b846002600086815260200190815260200160002060006101000a81548173ffffffffffffffffffffffffffffffffffffffff021916908373ffffffffffffffffffffffffffffffffffffffff160217905550838573ffffffffffffffffffffffffffffffffffffffff168273ffffffffffffffffffffffffffffffffffffffff167fddf252ad1be2c89b69c2b068fc378daa952ba7f163c4a11628f55a4df523b3ef60405160405180910390a4809150509392505050565b610f8a8282604051806020016040528060008152506116c0565b5050565b80600660008481526020019081526020016000209081610fae919061244f565b507ff8e1a15aba9398e019f0b49df1a4fde98ee17ae345cb5f6b5e2c27f5033e8ce782604051610fde9190611fce565b60405180910390a15050565b600073ffffffffffffffffffffffffffffffffffffffff168273ffffffffffffffffffffffffffffffffffffffff160361105b57816040517f5b08ba180000000000000000000000000000000000000000000000000000000081526004016110529190611cdc565b60405180910390fd5b80600560008573ffffffffffffffffffffffffffffffffffffffff1673ffffffffffffffffffffffffffffffffffffffff16815260200190815260200160002060008473ffffffffffffffffffffffffffffffffffffffff1673ffffffffffffffffffffffffffffffffffffffff16815260200190815260200160002060006101000a81548160ff0219169083151502179055508173ffffffffffffffffffffffffffffffffffffffff168373ffffffffffffffffffffffffffffffffffffffff167f17307eab39ab6107e8899845ad3d59bd9653f200f220920489ca2b5937696c318360405161114c9190611b6b565b60405180910390a3505050565b60008373ffffffffffffffffffffffffffffffffffffffff163b111561130a578273ffffffffffffffffffffffffffffffffffffffff1663150b7a0261119d610d3c565b8685856040518563ffffffff1660e01b81526004016111bf9493929190612684565b6020604051808303816000875af19250505080156111fb57506040513d601f19601f820116820180604052508101906111f891906126e5565b60015b61127f573d806000811461122b576040519150601f19603f3d011682016040523d82523d6000602084013e611230565b606091505b50600081510361127757836040517f64a0ae9200000000000000000000000000000000000000000000000000000000815260040161126e9190611cdc565b60405180910390fd5b805181602001fd5b63150b7a0260e01b7bffffffffffffffffffffffffffffffffffffffffffffffffffffffff1916817bffffffffffffffffffffffffffffffffffffffffffffffffffffffff19161461130857836040517f64a0ae920000000000000000000000000000000000000000000000000000000081526004016112ff9190611cdc565b60405180910390fd5b505b50505050565b606060405180602001604052806000815250905090565b606061133282610c77565b50600061133d611310565b9050600081511161135d5760405180602001604052806000815250611388565b80611367846116dc565b60405160200161137892919061260b565b6040516020818303038152906040525b915050919050565b60007f01ffc9a7000000000000000000000000000000000000000000000000000000007bffffffffffffffffffffffffffffffffffffffffffffffffffffffff1916827bffffffffffffffffffffffffffffffffffffffffffffffffffffffff1916149050919050565b60006002600083815260200190815260200160002060009054906101000a900473ffffffffffffffffffffffffffffffffffffffff169050919050565b80806114705750600073ffffffffffffffffffffffffffffffffffffffff168273ffffffffffffffffffffffffffffffffffffffff1614155b156115a457600061148084610c77565b9050600073ffffffffffffffffffffffffffffffffffffffff168373ffffffffffffffffffffffffffffffffffffffff16141580156114eb57508273ffffffffffffffffffffffffffffffffffffffff168173ffffffffffffffffffffffffffffffffffffffff1614155b80156114fe57506114fc8184610b01565b155b1561154057826040517fa9fbf51f0000000000000000000000000000000000000000000000000000000081526004016115379190611cdc565b60405180910390fd5b81156115a257838573ffffffffffffffffffffffffffffffffffffffff168273ffffffffffffffffffffffffffffffffffffffff167f8c5be1e5ebec7d5bd14f71427d1e84f3dd0314c0f7b2291e5b200ac8c7c3b92560405160405180910390a45b505b836004600085815260200190815260200160002060006101000a81548173ffffffffffffffffffffffffffffffffffffffff021916908373ffffffffffffffffffffffffffffffffffffffff16021790555050505050565b6116078383836117aa565b6116bb57600073ffffffffffffffffffffffffffffffffffffffff168373ffffffffffffffffffffffffffffffffffffffff160361167c57806040517f7e2732890000000000000000000000000000000000000000000000000000000081526004016116739190611fce565b60405180910390fd5b81816040517f177e802f0000000000000000000000000000000000000000000000000000000081526004016116b2929190612712565b60405180910390fd5b505050565b6116ca838361186b565b6116d76000848484611159565b505050565b6060600060016116eb84611964565b01905060008167ffffffffffffffff81111561170a57611709611dc0565b5b6040519080825280601f01601f19166020018201604052801561173c5781602001600182028036833780820191505090505b509050600082602001820190505b60011561179f578080600190039150507f3031323334353637383961626364656600000000000000000000000000000000600a86061a8153600a85816117935761179261273b565b5b0494506000850361174a575b819350505050919050565b60008073ffffffffffffffffffffffffffffffffffffffff168373ffffffffffffffffffffffffffffffffffffffff161415801561186257508273ffffffffffffffffffffffffffffffffffffffff168473ffffffffffffffffffffffffffffffffffffffff16148061182357506118228484610b01565b5b8061186157508273ffffffffffffffffffffffffffffffffffffffff1661184983610cff565b73ffffffffffffffffffffffffffffffffffffffff16145b5b90509392505050565b600073ffffffffffffffffffffffffffffffffffffffff168273ffffffffffffffffffffffffffffffffffffffff16036118dd5760006040517f64a0ae920000000000000000000000000000000000000000000000000000000081526004016118d49190611cdc565b60405180910390fd5b60006118eb83836000610d56565b9050600073ffffffffffffffffffffffffffffffffffffffff168173ffffffffffffffffffffffffffffffffffffffff161461195f5760006040517f73c6ac6e0000000000000000000000000000000000000000000000000000000081526004016119569190611cdc565b60405180910390fd5b505050565b600080600090507a184f03e93ff9f4daa797ed6e38ed64bf6a1f01000000000000000083106119c2577a184f03e93ff9f4daa797ed6e38ed64bf6a1f01000000000000000083816119b8576119b761273b565b5b0492506040810190505b6d04ee2d6d415b85acef810000000083106119ff576d04ee2d6d415b85acef810000000083816119f5576119f461273b565b5b0492506020810190505b662386f26fc100008310611a2e57662386f26fc100008381611a2457611a2361273b565b5b0492506010810190505b6305f5e1008310611a57576305f5e1008381611a4d57611a4c61273b565b5b0492506008810190505b6127108310611a7c576127108381611a7257611a7161273b565b5b0492506004810190505b60648310611a9f5760648381611a9557611a9461273b565b5b0492506002810190505b600a8310611aae576001810190505b80915050919050565b6000604051905090565b600080fd5b600080fd5b60007fffffffff0000000000000000000000000000000000000000000000000000000082169050919050565b611b0081611acb565b8114611b0b57600080fd5b50565b600081359050611b1d81611af7565b92915050565b600060208284031215611b3957611b38611ac1565b5b6000611b4784828501611b0e565b91505092915050565b60008115159050919050565b611b6581611b50565b82525050565b6000602082019050611b806000830184611b5c565b92915050565b600081519050919050565b600082825260208201905092915050565b60005b83811015611bc0578082015181840152602081019050611ba5565b60008484015250505050565b6000601f19601f8301169050919050565b6000611be882611b86565b611bf28185611b91565b9350611c02818560208601611ba2565b611c0b81611bcc565b840191505092915050565b60006020820190508181036000830152611c308184611bdd565b905092915050565b6000819050919050565b611c4b81611c38565b8114611c5657600080fd5b50565b600081359050611c6881611c42565b92915050565b600060208284031215611c8457611c83611ac1565b5b6000611c9284828501611c59565b91505092915050565b600073ffffffffffffffffffffffffffffffffffffffff82169050919050565b6000611cc682611c9b565b9050919050565b611cd681611cbb565b82525050565b6000602082019050611cf16000830184611ccd565b92915050565b611d0081611cbb565b8114611d0b57600080fd5b50565b600081359050611d1d81611cf7565b92915050565b60008060408385031215611d3a57611d39611ac1565b5b6000611d4885828601611d0e565b9250506020611d5985828601611c59565b9150509250929050565b600080600060608486031215611d7c57611d7b611ac1565b5b6000611d8a86828701611d0e565b9350506020611d9b86828701611d0e565b9250506040611dac86828701611c59565b9150509250925092565b600080fd5b600080fd5b7f4e487b7100000000000000000000000000000000000000000000000000000000600052604160045260246000fd5b611df882611bcc565b810181811067ffffffffffffffff82111715611e1757611e16611dc0565b5b80604052505050565b6000611e2a611ab7565b9050611e368282611def565b919050565b600067ffffffffffffffff821115611e5657611e55611dc0565b5b611e5f82611bcc565b9050602081019050919050565b82818337600083830152505050565b6000611e8e611e8984611e3b565b611e20565b905082815260208101848484011115611eaa57611ea9611dbb565b5b611eb5848285611e6c565b509392505050565b600082601f830112611ed257611ed1611db6565b5b8135611ee2848260208601611e7b565b91505092915050565b600080600060608486031215611f0457611f03611ac1565b5b600084013567ffffffffffffffff811115611f2257611f21611ac6565b5b611f2e86828701611ebd565b935050602084013567ffffffffffffffff811115611f4f57611f4e611ac6565b5b611f5b86828701611ebd565b925050604084013567ffffffffffffffff811115611f7c57611f7b611ac6565b5b611f8886828701611ebd565b9150509250925092565b600060208284031215611fa857611fa7611ac1565b5b6000611fb684828501611d0e565b91505092915050565b611fc881611c38565b82525050565b6000602082019050611fe36000830184611fbf565b92915050565b600060808201905081810360008301526120038187611bdd565b905081810360208301526120178186611bdd565b90506120266040830185611ccd565b6120336060830184611fbf565b95945050505050565b61204581611b50565b811461205057600080fd5b50565b6000813590506120628161203c565b92915050565b6000806040838503121561207f5761207e611ac1565b5b600061208d85828601611d0e565b925050602061209e85828601612053565b9150509250929050565b600067ffffffffffffffff8211156120c3576120c2611dc0565b5b6120cc82611bcc565b9050602081019050919050565b60006120ec6120e7846120a8565b611e20565b90508281526020810184848401111561210857612107611dbb565b5b612113848285611e6c565b509392505050565b600082601f8301126121305761212f611db6565b5b81356121408482602086016120d9565b91505092915050565b6000806000806080858703121561216357612162611ac1565b5b600061217187828801611d0e565b945050602061218287828801611d0e565b935050604061219387828801611c59565b925050606085013567ffffffffffffffff8111156121b4576121b3611ac6565b5b6121c08782880161211b565b91505092959194509250565b600080604083850312156121e3576121e2611ac1565b5b60006121f185828601611d0e565b925050602061220285828601611d0e565b9150509250929050565b7f4e487b7100000000000000000000000000000000000000000000000000000000600052602260045260246000fd5b6000600282049050600182168061225357607f821691505b6020821081036122665761226561220c565b5b50919050565b60006060820190506122816000830186611ccd565b61228e6020830185611fbf565b61229b6040830184611ccd565b949350505050565b60008190508160005260206000209050919050565b60006020601f8301049050919050565b600082821b905092915050565b6000600883026123057fffffffffffffffffffffffffffffffffffffffffffffffffffffffffffffffff826122c8565b61230f86836122c8565b95508019841693508086168417925050509392505050565b6000819050919050565b600061234c61234761234284611c38565b612327565b611c38565b9050919050565b6000819050919050565b61236683612331565b61237a61237282612353565b8484546122d5565b825550505050565b600090565b61238f612382565b61239a81848461235d565b505050565b5b818110156123be576123b3600082612387565b6001810190506123a0565b5050565b601f821115612403576123d4816122a3565b6123dd846122b8565b810160208510156123ec578190505b6124006123f8856122b8565b83018261239f565b50505b505050565b600082821c905092915050565b600061242660001984600802612408565b1980831691505092915050565b600061243f8383612415565b9150826002028217905092915050565b61245882611b86565b67ffffffffffffffff81111561247157612470611dc0565b5b61247b825461223b565b6124868282856123c2565b600060209050601f8311600181146124b957600084156124a7578287015190505b6124b18582612433565b865550612519565b601f1984166124c7866122a3565b60005b828110156124ef578489015182556001820191506020850194506020810190506124ca565b8683101561250c5784890151612508601f891682612415565b8355505b6001600288020188555050505b505050505050565b7f4e487b7100000000000000000000000000000000000000000000000000000000600052601160045260246000fd5b600061255b82611c38565b91507fffffffffffffffffffffffffffffffffffffffffffffffffffffffffffffffff820361258d5761258c612521565b5b600182019050919050565b600060408201905081810360008301526125b28185611bdd565b905081810360208301526125c68184611bdd565b90509392505050565b600081905092915050565b60006125e582611b86565b6125ef81856125cf565b93506125ff818560208601611ba2565b80840191505092915050565b600061261782856125da565b915061262382846125da565b91508190509392505050565b600081519050919050565b600082825260208201905092915050565b60006126568261262f565b612660818561263a565b9350612670818560208601611ba2565b61267981611bcc565b840191505092915050565b60006080820190506126996000830187611ccd565b6126a66020830186611ccd565b6126b36040830185611fbf565b81810360608301526126c5818461264b565b905095945050505050565b6000815190506126df81611af7565b92915050565b6000602082840312156126fb576126fa611ac1565b5b6000612709848285016126d0565b91505092915050565b60006040820190506127276000830185611ccd565b6127346020830184611fbf565b9392505050565b7f4e487b7100000000000000000000000000000000000000000000000000000000600052601260045260246000fdfea2646970667358221220a0115fcd3a1a7d06de76a8e3f228ab4ba611870b54e173f5c02de462d21828c864736f6c63430008180033",
  "linkReferences": {},
  "deployedLinkReferences": {}
}