{
  "_format": "hh-sol-artifact-1",
  "contractName": "Provify",
  "sourceName": "contracts/Provify.sol",
  "abi": [
    {
      "inputs": [],
      "stateMutability": "nonpayable",
      "type": "constructor"
    },
    {
      "inputs": [
        {
          "internalType": "address",
          "name": "sender",
          "type": "address"
        },
        {
          "internalType": "uint256",
          "name": "tokenId",
          "type": "uint256"
        },
        {
          "internalType": "address",
          "name": "owner",
          "type": "address"
        }
      ],
      "name": "ERC721IncorrectOwner",
      "type": "error"
    },
    {
      "inputs": [
        {
          "internalType": "address",
          "name": "operator",
          "type": "address"
        },
        {
          "internalType": "uint256",
          "name": "tokenId",
          "type": "uint256"
        }
      ],
      "name": "ERC721InsufficientApproval",
      "type": "error"
    },
    {
      "inputs": [
        {
          "internalType": "address",
          "name": "approver",
          "type": "address"
        }
      ],
      "name": "ERC721InvalidApprover",
      "type": "error"
    },
    {
      "inputs": [
        {
          "internalType": "address",
          "name": "operator",
          "type": "address"
        }
      ],
      "name": "ERC721InvalidOperator",
      "type": "error"
    },
    {
      "inputs": [
        {
          "internalType": "address",
          "name": "owner",
          "type": "address"
        }
      ],
      "name": "ERC721InvalidOwner",
      "type": "error"
    },
    {
      "inputs": [
        {
          "internalType": "address",
          "name": "receiver",
          "type": "address"
        }
      ],
      "name": "ERC721InvalidReceiver",
      "type": "error"
    },
    {
      "inputs": [
        {
          "internalType": "address",
          "name": "sender",
          "type": "address"
        }
      ],
      "name": "ERC721InvalidSender",
      "type": "error"
    },
    {
      "inputs": [
        {
          "internalType": "uint256",
          "name": "tokenId",
          "type": "uint256"
        }
      ],
      "name": "ERC721NonexistentToken",
      "type": "error"
    },
    {
      "inputs": [
        {
          "internalType": "address",
          "name": "owner",
          "type": "address"
        }
      ],
      "name": "OwnableInvalidOwner",
      "type": "error"
    },
    {
      "inputs": [
        {
          "internalType": "address",
          "name": "account",
          "type": "address"
        }
      ],
      "name": "OwnableUnauthorizedAccount",
      "type": "error"
    },
    {
      "anonymous": false,
      "inputs": [
        {
          "indexed": true,
          "internalType": "address",
          "name": "owner",
          "type": "address"
        },
        {
          "indexed": true,
          "internalType": "address",
          "name": "approved",
          "type": "address"
        },
        {
          "indexed": true,
          "internalType": "uint256",
          "name": "tokenId",
          "type": "uint256"
        }
      ],
      "name": "Approval",
      "type": "event"
    },
    {
      "anonymous": false,
      "inputs": [
        {
          "indexed": true,
          "internalType": "address",
          "name": "owner",
          "type": "address"
        },
        {
          "indexed": true,
          "internalType": "address",
          "name": "operator",
          "type": "address"
        },
        {
          "indexed": false,
          "internalType": "bool",
          "name": "approved",
          "type": "bool"
        }
      ],
      "name": "ApprovalForAll",
      "type": "event"
    },
    {
      "anonymous": false,
      "inputs": [
        {
          "indexed": true,
          "internalType": "uint256",
          "name": "proofId",
          "type": "uint256"
        },
        {
          "indexed": true,
          "internalType": "address",
          "name": "recipient",
          "type": "address"
        },
        {
          "indexed": false,
          "internalType": "uint256",
          "name": "tokenId",
          "type": "uint256"
        }
      ],
      "name": "NFTIssued",
      "type": "event"
    },
    {
      "anonymous": false,
      "inputs": [
        {
          "indexed": true,
          "internalType": "address",
          "name": "previousOwner",
          "type": "address"
        },
        {
          "indexed": true,
          "internalType": "address",
          "name": "newOwner",
          "type": "address"
        }
      ],
      "name": "OwnershipTransferred",
      "type": "event"
    },
    {
      "anonymous": false,
      "inputs": [
        {
          "indexed": true,
          "internalType": "uint256",
          "name": "proofId",
          "type": "uint256"
        },
        {
          "indexed": false,
          "internalType": "string",
          "name": "name",
          "type": "string"
        },
        {
          "indexed": false,
          "internalType": "string",
          "name": "description",
          "type": "string"
        },
        {
          "indexed": true,
          "internalType": "address",
          "name": "issuer",
          "type": "address"
        }
      ],
      "name": "ProofCreated",
      "type": "event"
    },
    {
      "anonymous": false,
      "inputs": [
        {
          "indexed": true,
          "internalType": "address",
          "name": "from",
          "type": "address"
        },
        {
          "indexed": true,
          "internalType": "address",
          "name": "to",
          "type": "address"
        },
        {
          "indexed": true,
          "internalType": "uint256",
          "name": "tokenId",
          "type": "uint256"
        }
      ],
      "name": "Transfer",
      "type": "event"
    },
    {
      "inputs": [
        {
          "internalType": "address",
          "name": "to",
          "type": "address"
        },
        {
          "internalType": "uint256",
          "name": "tokenId",
          "type": "uint256"
        }
      ],
      "name": "approve",
      "outputs": [],
      "stateMutability": "nonpayable",
      "type": "function"
    },
    {
      "inputs": [
        {
          "internalType": "address",
          "name": "owner",
          "type": "address"
        }
      ],
      "name": "balanceOf",
      "outputs": [
        {
          "internalType": "uint256",
          "name": "",
          "type": "uint256"
        }
      ],
      "stateMutability": "view",
      "type": "function"
    },
    {
      "inputs": [
        {
          "internalType": "string",
          "name": "_name",
          "type": "string"
        },
        {
          "internalType": "string",
          "name": "_description",
          "type": "string"
        }
      ],
      "name": "createProof",
      "outputs": [
        {
          "internalType": "uint256",
          "name": "",
          "type": "uint256"
        }
      ],
      "stateMutability": "nonpayable",
      "type": "function"
    },
    {
      "inputs": [
        {
          "internalType": "uint256",
          "name": "tokenId",
          "type": "uint256"
        }
      ],
      "name": "getApproved",
      "outputs": [
        {
          "internalType": "address",
          "name": "",
          "type": "address"
        }
      ],
      "stateMutability": "view",
      "type": "function"
    },
    {
      "inputs": [
        {
          "internalType": "uint256",
          "name": "_proofId",
          "type": "uint256"
        }
      ],
      "name": "getProofDetails",
      "outputs": [
        {
          "components": [
            {
              "internalType": "string",
              "name": "name",
              "type": "string"
            },
            {
              "internalType": "string",
              "name": "description",
              "type": "string"
            },
            {
              "internalType": "address",
              "name": "issuer",
              "type": "address"
            },
            {
              "internalType": "uint256",
              "name": "timestamp",
              "type": "uint256"
            }
          ],
          "internalType": "struct Provify.Proof",
          "name": "",
          "type": "tuple"
        }
      ],
      "stateMutability": "view",
      "type": "function"
    },
    {
      "inputs": [
        {
          "internalType": "address",
          "name": "owner",
          "type": "address"
        },
        {
          "internalType": "address",
          "name": "operator",
          "type": "address"
        }
      ],
      "name": "isApprovedForAll",
      "outputs": [
        {
          "internalType": "bool",
          "name": "",
          "type": "bool"
        }
      ],
      "stateMutability": "view",
      "type": "function"
    },
    {
      "inputs": [],
      "name": "name",
      "outputs": [
        {
          "internalType": "string",
          "name": "",
          "type": "string"
        }
      ],
      "stateMutability": "view",
      "type": "function"
    },
    {
      "inputs": [],
      "name": "owner",
      "outputs": [
        {
          "internalType": "address",
          "name": "",
          "type": "address"
        }
      ],
      "stateMutability": "view",
      "type": "function"
    },
    {
      "inputs": [
        {
          "internalType": "uint256",
          "name": "tokenId",
          "type": "uint256"
        }
      ],
      "name": "ownerOf",
      "outputs": [
        {
          "internalType": "address",
          "name": "",
          "type": "address"
        }
      ],
      "stateMutability": "view",
      "type": "function"
    },
    {
      "inputs": [],
      "name": "proofCounter",
      "outputs": [
        {
          "internalType": "uint256",
          "name": "",
          "type": "uint256"
        }
      ],
      "stateMutability": "view",
      "type": "function"
    },
    {
      "inputs": [
        {
          "internalType": "uint256",
          "name": "",
          "type": "uint256"
        }
      ],
      "name": "proofs",
      "outputs": [
        {
          "internalType": "string",
          "name": "name",
          "type": "string"
        },
        {
          "internalType": "string",
          "name": "description",
          "type": "string"
        },
        {
          "internalType": "address",
          "name": "issuer",
          "type": "address"
        },
        {
          "internalType": "uint256",
          "name": "timestamp",
          "type": "uint256"
        }
      ],
      "stateMutability": "view",
      "type": "function"
    },
    {
      "inputs": [],
      "name": "renounceOwnership",
      "outputs": [],
      "stateMutability": "nonpayable",
      "type": "function"
    },
    {
      "inputs": [
        {
          "internalType": "address",
          "name": "from",
          "type": "address"
        },
        {
          "internalType": "address",
          "name": "to",
          "type": "address"
        },
        {
          "internalType": "uint256",
          "name": "tokenId",
          "type": "uint256"
        }
      ],
      "name": "safeTransferFrom",
      "outputs": [],
      "stateMutability": "nonpayable",
      "type": "function"
    },
    {
      "inputs": [
        {
          "internalType": "address",
          "name": "from",
          "type": "address"
        },
        {
          "internalType": "address",
          "name": "to",
          "type": "address"
        },
        {
          "internalType": "uint256",
          "name": "tokenId",
          "type": "uint256"
        },
        {
          "internalType": "bytes",
          "name": "data",
          "type": "bytes"
        }
      ],
      "name": "safeTransferFrom",
      "outputs": [],
      "stateMutability": "nonpayable",
      "type": "function"
    },
    {
      "inputs": [
        {
          "internalType": "address",
          "name": "operator",
          "type": "address"
        },
        {
          "internalType": "bool",
          "name": "approved",
          "type": "bool"
        }
      ],
      "name": "setApprovalForAll",
      "outputs": [],
      "stateMutability": "nonpayable",
      "type": "function"
    },
    {
      "inputs": [
        {
          "internalType": "bytes4",
          "name": "interfaceId",
          "type": "bytes4"
        }
      ],
      "name": "supportsInterface",
      "outputs": [
        {
          "internalType": "bool",
          "name": "",
          "type": "bool"
        }
      ],
      "stateMutability": "view",
      "type": "function"
    },
    {
      "inputs": [],
      "name": "symbol",
      "outputs": [
        {
          "internalType": "string",
          "name": "",
          "type": "string"
        }
      ],
      "stateMutability": "view",
      "type": "function"
    },
    {
      "inputs": [
        {
          "internalType": "uint256",
          "name": "tokenId",
          "type": "uint256"
        }
      ],
      "name": "tokenURI",
      "outputs": [
        {
          "internalType": "string",
          "name": "",
          "type": "string"
        }
      ],
      "stateMutability": "view",
      "type": "function"
    },
    {
      "inputs": [
        {
          "internalType": "address",
          "name": "from",
          "type": "address"
        },
        {
          "internalType": "address",
          "name": "to",
          "type": "address"
        },
        {
          "internalType": "uint256",
          "name": "tokenId",
          "type": "uint256"
        }
      ],
      "name": "transferFrom",
      "outputs": [],
      "stateMutability": "nonpayable",
      "type": "function"
    },
    {
      "inputs": [
        {
          "internalType": "address",
          "name": "newOwner",
          "type": "address"
        }
      ],
      "name": "transferOwnership",
      "outputs": [],
      "stateMutability": "nonpayable",
      "type": "function"
    }
  ],
  "bytecode": "0x60806040523480156200001157600080fd5b50336040518060400160405280600581526020017f50726f6f660000000000000000000000000000000000000000000000000000008152506040518060400160405280600381526020017f5052460000000000000000000000000000000000000000000000000000000000815250816000908162000090919062000472565b508060019081620000a2919062000472565b505050600073ffffffffffffffffffffffffffffffffffffffff168173ffffffffffffffffffffffffffffffffffffffff16036200011a5760006040517f1e4fbdf70000000000000000000000000000000000000000000000000000000081526004016200011191906200059e565b60405180910390fd5b6200012b816200013260201b60201c565b50620005bb565b6000600660009054906101000a900473ffffffffffffffffffffffffffffffffffffffff16905081600660006101000a81548173ffffffffffffffffffffffffffffffffffffffff021916908373ffffffffffffffffffffffffffffffffffffffff1602179055508173ffffffffffffffffffffffffffffffffffffffff168173ffffffffffffffffffffffffffffffffffffffff167f8be0079c531659141344cd1fd0a4f28419497f9722a3daafe3b4186f6b6457e060405160405180910390a35050565b600081519050919050565b7f4e487b7100000000000000000000000000000000000000000000000000000000600052604160045260246000fd5b7f4e487b7100000000000000000000000000000000000000000000000000000000600052602260045260246000fd5b600060028204905060018216806200027a57607f821691505b60208210810362000290576200028f62000232565b5b50919050565b60008190508160005260206000209050919050565b60006020601f8301049050919050565b600082821b905092915050565b600060088302620002fa7fffffffffffffffffffffffffffffffffffffffffffffffffffffffffffffffff82620002bb565b620003068683620002bb565b95508019841693508086168417925050509392505050565b6000819050919050565b6000819050919050565b6000620003536200034d62000347846200031e565b62000328565b6200031e565b9050919050565b6000819050919050565b6200036f8362000332565b620003876200037e826200035a565b848454620002c8565b825550505050565b600090565b6200039e6200038f565b620003ab81848462000364565b505050565b5b81811015620003d357620003c760008262000394565b600181019050620003b1565b5050565b601f8211156200042257620003ec8162000296565b620003f784620002ab565b8101602085101562000407578190505b6200041f6200041685620002ab565b830182620003b0565b50505b505050565b600082821c905092915050565b6000620004476000198460080262000427565b1980831691505092915050565b600062000462838362000434565b9150826002028217905092915050565b6200047d82620001f8565b67ffffffffffffffff81111562000499576200049862000203565b5b620004a5825462000261565b620004b2828285620003d7565b600060209050601f831160018114620004ea5760008415620004d5578287015190505b620004e1858262000454565b86555062000551565b601f198416620004fa8662000296565b60005b828110156200052457848901518255600182019150602085019450602081019050620004fd565b8683101562000544578489015162000540601f89168262000434565b8355505b6001600288020188555050505b505050505050565b600073ffffffffffffffffffffffffffffffffffffffff82169050919050565b6000620005868262000559565b9050919050565b620005988162000579565b82525050565b6000602082019050620005b560008301846200058d565b92915050565b612c1980620005cb6000396000f3fe608060405234801561001057600080fd5b506004361061012c5760003560e01c8063715018a6116100ad578063b88d4fde11610071578063b88d4fde14610346578063c51b7e7714610362578063c87b56dd14610392578063e985e9c5146103c2578063f2fde38b146103f25761012c565b8063715018a6146102b15780638da5cb5b146102bb57806395d89b41146102d95780639ddaf5aa146102f7578063a22cb4651461032a5761012c565b806342842e0e116100f457806342842e0e146101e75780636352211e146102035780636d9f4370146102335780636fa20f071461025157806370a08231146102815761012c565b806301ffc9a71461013157806306fdde0314610161578063081812fc1461017f578063095ea7b3146101af57806323b872dd146101cb575b600080fd5b61014b60048036038101906101469190611e6b565b61040e565b6040516101589190611eb3565b60405180910390f35b6101696104f0565b6040516101769190611f5e565b60405180910390f35b61019960048036038101906101949190611fb6565b610582565b6040516101a69190612024565b60405180910390f35b6101c960048036038101906101c4919061206b565b61059e565b005b6101e560048036038101906101e091906120ab565b6105b4565b005b61020160048036038101906101fc91906120ab565b6106b6565b005b61021d60048036038101906102189190611fb6565b6106d6565b60405161022a9190612024565b60405180910390f35b61023b6106e8565b604051610248919061210d565b60405180910390f35b61026b60048036038101906102669190611fb6565b6106ee565b60405161027891906121fa565b60405180910390f35b61029b6004803603810190610296919061221c565b6108f0565b6040516102a8919061210d565b60405180910390f35b6102b96109aa565b005b6102c36109be565b6040516102d09190612024565b60405180910390f35b6102e16109e8565b6040516102ee9190611f5e565b60405180910390f35b610311600480360381019061030c9190611fb6565b610a7a565b6040516103219493929190612249565b60405180910390f35b610344600480360381019061033f91906122c8565b610bda565b005b610360600480360381019061035b919061243d565b610bf0565b005b61037c60048036038101906103779190612561565b610c0d565b604051610389919061210d565b60405180910390f35b6103ac60048036038101906103a79190611fb6565b610db0565b6040516103b99190611f5e565b60405180910390f35b6103dc60048036038101906103d791906125d9565b610e19565b6040516103e99190611eb3565b60405180910390f35b61040c6004803603810190610407919061221c565b610ead565b005b60007f80ac58cd000000000000000000000000000000000000000000000000000000007bffffffffffffffffffffffffffffffffffffffffffffffffffffffff1916827bffffffffffffffffffffffffffffffffffffffffffffffffffffffff191614806104d957507f5b5e139f000000000000000000000000000000000000000000000000000000007bffffffffffffffffffffffffffffffffffffffffffffffffffffffff1916827bffffffffffffffffffffffffffffffffffffffffffffffffffffffff1916145b806104e957506104e882610f33565b5b9050919050565b6060600080546104ff90612648565b80601f016020809104026020016040519081016040528092919081815260200182805461052b90612648565b80156105785780601f1061054d57610100808354040283529160200191610578565b820191906000526020600020905b81548152906001019060200180831161055b57829003601f168201915b5050505050905090565b600061058d82610f9d565b5061059782611025565b9050919050565b6105b082826105ab611062565b61106a565b5050565b600073ffffffffffffffffffffffffffffffffffffffff168273ffffffffffffffffffffffffffffffffffffffff16036106265760006040517f64a0ae9200000000000000000000000000000000000000000000000000000000815260040161061d9190612024565b60405180910390fd5b600061063a8383610635611062565b61107c565b90508373ffffffffffffffffffffffffffffffffffffffff168173ffffffffffffffffffffffffffffffffffffffff16146106b0578382826040517f64283d7b0000000000000000000000000000000000000000000000000000000081526004016106a793929190612679565b60405180910390fd5b50505050565b6106d183838360405180602001604052806000815250610bf0565b505050565b60006106e182610f9d565b9050919050565b60085481565b6106f6611dc1565b60085482111580156107085750600082115b610747576040517f08c379a000000000000000000000000000000000000000000000000000000000815260040161073e906126fc565b60405180910390fd5b6007600083815260200190815260200160002060405180608001604052908160008201805461077590612648565b80601f01602080910402602001604051908101604052809291908181526020018280546107a190612648565b80156107ee5780601f106107c3576101008083540402835291602001916107ee565b820191906000526020600020905b8154815290600101906020018083116107d157829003601f168201915b5050505050815260200160018201805461080790612648565b80601f016020809104026020016040519081016040528092919081815260200182805461083390612648565b80156108805780601f1061085557610100808354040283529160200191610880565b820191906000526020600020905b81548152906001019060200180831161086357829003601f168201915b505050505081526020016002820160009054906101000a900473ffffffffffffffffffffffffffffffffffffffff1673ffffffffffffffffffffffffffffffffffffffff1673ffffffffffffffffffffffffffffffffffffffff1681526020016003820154815250509050919050565b60008073ffffffffffffffffffffffffffffffffffffffff168273ffffffffffffffffffffffffffffffffffffffff16036109635760006040517f89c62b6400000000000000000000000000000000000000000000000000000000815260040161095a9190612024565b60405180910390fd5b600360008373ffffffffffffffffffffffffffffffffffffffff1673ffffffffffffffffffffffffffffffffffffffff168152602001908152602001600020549050919050565b6109b2611296565b6109bc600061131d565b565b6000600660009054906101000a900473ffffffffffffffffffffffffffffffffffffffff16905090565b6060600180546109f790612648565b80601f0160208091040260200160405190810160405280929190818152602001828054610a2390612648565b8015610a705780601f10610a4557610100808354040283529160200191610a70565b820191906000526020600020905b815481529060010190602001808311610a5357829003601f168201915b5050505050905090565b6007602052806000526040600020600091509050806000018054610a9d90612648565b80601f0160208091040260200160405190810160405280929190818152602001828054610ac990612648565b8015610b165780601f10610aeb57610100808354040283529160200191610b16565b820191906000526020600020905b815481529060010190602001808311610af957829003601f168201915b505050505090806001018054610b2b90612648565b80601f0160208091040260200160405190810160405280929190818152602001828054610b5790612648565b8015610ba45780601f10610b7957610100808354040283529160200191610ba4565b820191906000526020600020905b815481529060010190602001808311610b8757829003601f168201915b5050505050908060020160009054906101000a900473ffffffffffffffffffffffffffffffffffffffff16908060030154905084565b610bec610be5611062565b83836113e3565b5050565b610bfb8484846105b4565b610c0784848484611552565b50505050565b600060086000815480929190610c229061274b565b919050555060405180608001604052808481526020018381526020013373ffffffffffffffffffffffffffffffffffffffff168152602001428152506007600060085481526020019081526020016000206000820151816000019081610c88919061293f565b506020820151816001019081610c9e919061293f565b5060408201518160020160006101000a81548173ffffffffffffffffffffffffffffffffffffffff021916908373ffffffffffffffffffffffffffffffffffffffff160217905550606082015181600301559050503373ffffffffffffffffffffffffffffffffffffffff166008547f4eae5ade74fcbf717dc8e4bab9aec05293b75487dc7535867b5502bba7479c118585604051610d3e929190612a11565b60405180910390a3610d5233600854611709565b3373ffffffffffffffffffffffffffffffffffffffff166008547ff471c5fed142e6523d703be11d0192c86f3d6d0659b72d1c60513767cee43ecb600854604051610d9d919061210d565b60405180910390a3600854905092915050565b6060610dbb82610f9d565b506000610dc6611802565b90506000815111610de65760405180602001604052806000815250610e11565b80610df084611819565b604051602001610e01929190612a84565b6040516020818303038152906040525b915050919050565b6000600560008473ffffffffffffffffffffffffffffffffffffffff1673ffffffffffffffffffffffffffffffffffffffff16815260200190815260200160002060008373ffffffffffffffffffffffffffffffffffffffff1673ffffffffffffffffffffffffffffffffffffffff16815260200190815260200160002060009054906101000a900460ff16905092915050565b610eb5611296565b600073ffffffffffffffffffffffffffffffffffffffff168173ffffffffffffffffffffffffffffffffffffffff1603610f275760006040517f1e4fbdf7000000000000000000000000000000000000000000000000000000008152600401610f1e9190612024565b60405180910390fd5b610f308161131d565b50565b60007f01ffc9a7000000000000000000000000000000000000000000000000000000007bffffffffffffffffffffffffffffffffffffffffffffffffffffffff1916827bffffffffffffffffffffffffffffffffffffffffffffffffffffffff1916149050919050565b600080610fa9836118e7565b9050600073ffffffffffffffffffffffffffffffffffffffff168173ffffffffffffffffffffffffffffffffffffffff160361101c57826040517f7e273289000000000000000000000000000000000000000000000000000000008152600401611013919061210d565b60405180910390fd5b80915050919050565b60006004600083815260200190815260200160002060009054906101000a900473ffffffffffffffffffffffffffffffffffffffff169050919050565b600033905090565b6110778383836001611924565b505050565b600080611088846118e7565b9050600073ffffffffffffffffffffffffffffffffffffffff168373ffffffffffffffffffffffffffffffffffffffff16146110ca576110c9818486611ae9565b5b600073ffffffffffffffffffffffffffffffffffffffff168173ffffffffffffffffffffffffffffffffffffffff161461115b5761110c600085600080611924565b6001600360008373ffffffffffffffffffffffffffffffffffffffff1673ffffffffffffffffffffffffffffffffffffffff168152602001908152602001600020600082825403925050819055505b600073ffffffffffffffffffffffffffffffffffffffff168573ffffffffffffffffffffffffffffffffffffffff16146111de576001600360008773ffffffffffffffffffffffffffffffffffffffff1673ffffffffffffffffffffffffffffffffffffffff168152602001908152602001600020600082825401925050819055505b846002600086815260200190815260200160002060006101000a81548173ffffffffffffffffffffffffffffffffffffffff021916908373ffffffffffffffffffffffffffffffffffffffff160217905550838573ffffffffffffffffffffffffffffffffffffffff168273ffffffffffffffffffffffffffffffffffffffff167fddf252ad1be2c89b69c2b068fc378daa952ba7f163c4a11628f55a4df523b3ef60405160405180910390a4809150509392505050565b61129e611062565b73ffffffffffffffffffffffffffffffffffffffff166112bc6109be565b73ffffffffffffffffffffffffffffffffffffffff161461131b576112df611062565b6040517f118cdaa70000000000000000000000000000000000000000000000000000000081526004016113129190612024565b60405180910390fd5b565b6000600660009054906101000a900473ffffffffffffffffffffffffffffffffffffffff16905081600660006101000a81548173ffffffffffffffffffffffffffffffffffffffff021916908373ffffffffffffffffffffffffffffffffffffffff1602179055508173ffffffffffffffffffffffffffffffffffffffff168173ffffffffffffffffffffffffffffffffffffffff167f8be0079c531659141344cd1fd0a4f28419497f9722a3daafe3b4186f6b6457e060405160405180910390a35050565b600073ffffffffffffffffffffffffffffffffffffffff168273ffffffffffffffffffffffffffffffffffffffff160361145457816040517f5b08ba1800000000000000000000000000000000000000000000000000000000815260040161144b9190612024565b60405180910390fd5b80600560008573ffffffffffffffffffffffffffffffffffffffff1673ffffffffffffffffffffffffffffffffffffffff16815260200190815260200160002060008473ffffffffffffffffffffffffffffffffffffffff1673ffffffffffffffffffffffffffffffffffffffff16815260200190815260200160002060006101000a81548160ff0219169083151502179055508173ffffffffffffffffffffffffffffffffffffffff168373ffffffffffffffffffffffffffffffffffffffff167f17307eab39ab6107e8899845ad3d59bd9653f200f220920489ca2b5937696c31836040516115459190611eb3565b60405180910390a3505050565b60008373ffffffffffffffffffffffffffffffffffffffff163b1115611703578273ffffffffffffffffffffffffffffffffffffffff1663150b7a02611596611062565b8685856040518563ffffffff1660e01b81526004016115b89493929190612afd565b6020604051808303816000875af19250505080156115f457506040513d601f19601f820116820180604052508101906115f19190612b5e565b60015b611678573d8060008114611624576040519150601f19603f3d011682016040523d82523d6000602084013e611629565b606091505b50600081510361167057836040517f64a0ae920000000000000000000000000000000000000000000000000000000081526004016116679190612024565b60405180910390fd5b805181602001fd5b63150b7a0260e01b7bffffffffffffffffffffffffffffffffffffffffffffffffffffffff1916817bffffffffffffffffffffffffffffffffffffffffffffffffffffffff19161461170157836040517f64a0ae920000000000000000000000000000000000000000000000000000000081526004016116f89190612024565b60405180910390fd5b505b50505050565b600073ffffffffffffffffffffffffffffffffffffffff168273ffffffffffffffffffffffffffffffffffffffff160361177b5760006040517f64a0ae920000000000000000000000000000000000000000000000000000000081526004016117729190612024565b60405180910390fd5b60006117898383600061107c565b9050600073ffffffffffffffffffffffffffffffffffffffff168173ffffffffffffffffffffffffffffffffffffffff16146117fd5760006040517f73c6ac6e0000000000000000000000000000000000000000000000000000000081526004016117f49190612024565b60405180910390fd5b505050565b606060405180602001604052806000815250905090565b60606000600161182884611bad565b01905060008167ffffffffffffffff81111561184757611846612312565b5b6040519080825280601f01601f1916602001820160405280156118795781602001600182028036833780820191505090505b509050600082602001820190505b6001156118dc578080600190039150507f3031323334353637383961626364656600000000000000000000000000000000600a86061a8153600a85816118d0576118cf612b8b565b5b04945060008503611887575b819350505050919050565b60006002600083815260200190815260200160002060009054906101000a900473ffffffffffffffffffffffffffffffffffffffff169050919050565b808061195d5750600073ffffffffffffffffffffffffffffffffffffffff168273ffffffffffffffffffffffffffffffffffffffff1614155b15611a9157600061196d84610f9d565b9050600073ffffffffffffffffffffffffffffffffffffffff168373ffffffffffffffffffffffffffffffffffffffff16141580156119d857508273ffffffffffffffffffffffffffffffffffffffff168173ffffffffffffffffffffffffffffffffffffffff1614155b80156119eb57506119e98184610e19565b155b15611a2d57826040517fa9fbf51f000000000000000000000000000000000000000000000000000000008152600401611a249190612024565b60405180910390fd5b8115611a8f57838573ffffffffffffffffffffffffffffffffffffffff168273ffffffffffffffffffffffffffffffffffffffff167f8c5be1e5ebec7d5bd14f71427d1e84f3dd0314c0f7b2291e5b200ac8c7c3b92560405160405180910390a45b505b836004600085815260200190815260200160002060006101000a81548173ffffffffffffffffffffffffffffffffffffffff021916908373ffffffffffffffffffffffffffffffffffffffff16021790555050505050565b611af4838383611d00565b611ba857600073ffffffffffffffffffffffffffffffffffffffff168373ffffffffffffffffffffffffffffffffffffffff1603611b6957806040517f7e273289000000000000000000000000000000000000000000000000000000008152600401611b60919061210d565b60405180910390fd5b81816040517f177e802f000000000000000000000000000000000000000000000000000000008152600401611b9f929190612bba565b60405180910390fd5b505050565b600080600090507a184f03e93ff9f4daa797ed6e38ed64bf6a1f0100000000000000008310611c0b577a184f03e93ff9f4daa797ed6e38ed64bf6a1f0100000000000000008381611c0157611c00612b8b565b5b0492506040810190505b6d04ee2d6d415b85acef81000000008310611c48576d04ee2d6d415b85acef81000000008381611c3e57611c3d612b8b565b5b0492506020810190505b662386f26fc100008310611c7757662386f26fc100008381611c6d57611c6c612b8b565b5b0492506010810190505b6305f5e1008310611ca0576305f5e1008381611c9657611c95612b8b565b5b0492506008810190505b6127108310611cc5576127108381611cbb57611cba612b8b565b5b0492506004810190505b60648310611ce85760648381611cde57611cdd612b8b565b5b0492506002810190505b600a8310611cf7576001810190505b80915050919050565b60008073ffffffffffffffffffffffffffffffffffffffff168373ffffffffffffffffffffffffffffffffffffffff1614158015611db857508273ffffffffffffffffffffffffffffffffffffffff168473ffffffffffffffffffffffffffffffffffffffff161480611d795750611d788484610e19565b5b80611db757508273ffffffffffffffffffffffffffffffffffffffff16611d9f83611025565b73ffffffffffffffffffffffffffffffffffffffff16145b5b90509392505050565b60405180608001604052806060815260200160608152602001600073ffffffffffffffffffffffffffffffffffffffff168152602001600081525090565b6000604051905090565b600080fd5b600080fd5b60007fffffffff0000000000000000000000000000000000000000000000000000000082169050919050565b611e4881611e13565b8114611e5357600080fd5b50565b600081359050611e6581611e3f565b92915050565b600060208284031215611e8157611e80611e09565b5b6000611e8f84828501611e56565b91505092915050565b60008115159050919050565b611ead81611e98565b82525050565b6000602082019050611ec86000830184611ea4565b92915050565b600081519050919050565b600082825260208201905092915050565b60005b83811015611f08578082015181840152602081019050611eed565b60008484015250505050565b6000601f19601f8301169050919050565b6000611f3082611ece565b611f3a8185611ed9565b9350611f4a818560208601611eea565b611f5381611f14565b840191505092915050565b60006020820190508181036000830152611f788184611f25565b905092915050565b6000819050919050565b611f9381611f80565b8114611f9e57600080fd5b50565b600081359050611fb081611f8a565b92915050565b600060208284031215611fcc57611fcb611e09565b5b6000611fda84828501611fa1565b91505092915050565b600073ffffffffffffffffffffffffffffffffffffffff82169050919050565b600061200e82611fe3565b9050919050565b61201e81612003565b82525050565b60006020820190506120396000830184612015565b92915050565b61204881612003565b811461205357600080fd5b50565b6000813590506120658161203f565b92915050565b6000806040838503121561208257612081611e09565b5b600061209085828601612056565b92505060206120a185828601611fa1565b9150509250929050565b6000806000606084860312156120c4576120c3611e09565b5b60006120d286828701612056565b93505060206120e386828701612056565b92505060406120f486828701611fa1565b9150509250925092565b61210781611f80565b82525050565b600060208201905061212260008301846120fe565b92915050565b600082825260208201905092915050565b600061214482611ece565b61214e8185612128565b935061215e818560208601611eea565b61216781611f14565b840191505092915050565b61217b81612003565b82525050565b61218a81611f80565b82525050565b600060808301600083015184820360008601526121ad8282612139565b915050602083015184820360208601526121c78282612139565b91505060408301516121dc6040860182612172565b5060608301516121ef6060860182612181565b508091505092915050565b600060208201905081810360008301526122148184612190565b905092915050565b60006020828403121561223257612231611e09565b5b600061224084828501612056565b91505092915050565b600060808201905081810360008301526122638187611f25565b905081810360208301526122778186611f25565b90506122866040830185612015565b61229360608301846120fe565b95945050505050565b6122a581611e98565b81146122b057600080fd5b50565b6000813590506122c28161229c565b92915050565b600080604083850312156122df576122de611e09565b5b60006122ed85828601612056565b92505060206122fe858286016122b3565b9150509250929050565b600080fd5b600080fd5b7f4e487b7100000000000000000000000000000000000000000000000000000000600052604160045260246000fd5b61234a82611f14565b810181811067ffffffffffffffff8211171561236957612368612312565b5b80604052505050565b600061237c611dff565b90506123888282612341565b919050565b600067ffffffffffffffff8211156123a8576123a7612312565b5b6123b182611f14565b9050602081019050919050565b82818337600083830152505050565b60006123e06123db8461238d565b612372565b9050828152602081018484840111156123fc576123fb61230d565b5b6124078482856123be565b509392505050565b600082601f83011261242457612423612308565b5b81356124348482602086016123cd565b91505092915050565b6000806000806080858703121561245757612456611e09565b5b600061246587828801612056565b945050602061247687828801612056565b935050604061248787828801611fa1565b925050606085013567ffffffffffffffff8111156124a8576124a7611e0e565b5b6124b48782880161240f565b91505092959194509250565b600067ffffffffffffffff8211156124db576124da612312565b5b6124e482611f14565b9050602081019050919050565b60006125046124ff846124c0565b612372565b9050828152602081018484840111156125205761251f61230d565b5b61252b8482856123be565b509392505050565b600082601f83011261254857612547612308565b5b81356125588482602086016124f1565b91505092915050565b6000806040838503121561257857612577611e09565b5b600083013567ffffffffffffffff81111561259657612595611e0e565b5b6125a285828601612533565b925050602083013567ffffffffffffffff8111156125c3576125c2611e0e565b5b6125cf85828601612533565b9150509250929050565b600080604083850312156125f0576125ef611e09565b5b60006125fe85828601612056565b925050602061260f85828601612056565b9150509250929050565b7f4e487b7100000000000000000000000000000000000000000000000000000000600052602260045260246000fd5b6000600282049050600182168061266057607f821691505b60208210810361267357612672612619565b5b50919050565b600060608201905061268e6000830186612015565b61269b60208301856120fe565b6126a86040830184612015565b949350505050565b7f50726f6f6620646f6573206e6f74206578697374000000000000000000000000600082015250565b60006126e6601483611ed9565b91506126f1826126b0565b602082019050919050565b60006020820190508181036000830152612715816126d9565b9050919050565b7f4e487b7100000000000000000000000000000000000000000000000000000000600052601160045260246000fd5b600061275682611f80565b91507fffffffffffffffffffffffffffffffffffffffffffffffffffffffffffffffff82036127885761278761271c565b5b600182019050919050565b60008190508160005260206000209050919050565b60006020601f8301049050919050565b600082821b905092915050565b6000600883026127f57fffffffffffffffffffffffffffffffffffffffffffffffffffffffffffffffff826127b8565b6127ff86836127b8565b95508019841693508086168417925050509392505050565b6000819050919050565b600061283c61283761283284611f80565b612817565b611f80565b9050919050565b6000819050919050565b61285683612821565b61286a61286282612843565b8484546127c5565b825550505050565b600090565b61287f612872565b61288a81848461284d565b505050565b5b818110156128ae576128a3600082612877565b600181019050612890565b5050565b601f8211156128f3576128c481612793565b6128cd846127a8565b810160208510156128dc578190505b6128f06128e8856127a8565b83018261288f565b50505b505050565b600082821c905092915050565b6000612916600019846008026128f8565b1980831691505092915050565b600061292f8383612905565b9150826002028217905092915050565b61294882611ece565b67ffffffffffffffff81111561296157612960612312565b5b61296b8254612648565b6129768282856128b2565b600060209050601f8311600181146129a95760008415612997578287015190505b6129a18582612923565b865550612a09565b601f1984166129b786612793565b60005b828110156129df578489015182556001820191506020850194506020810190506129ba565b868310156129fc57848901516129f8601f891682612905565b8355505b6001600288020188555050505b505050505050565b60006040820190508181036000830152612a2b8185611f25565b90508181036020830152612a3f8184611f25565b90509392505050565b600081905092915050565b6000612a5e82611ece565b612a688185612a48565b9350612a78818560208601611eea565b80840191505092915050565b6000612a908285612a53565b9150612a9c8284612a53565b91508190509392505050565b600081519050919050565b600082825260208201905092915050565b6000612acf82612aa8565b612ad98185612ab3565b9350612ae9818560208601611eea565b612af281611f14565b840191505092915050565b6000608082019050612b126000830187612015565b612b1f6020830186612015565b612b2c60408301856120fe565b8181036060830152612b3e8184612ac4565b905095945050505050565b600081519050612b5881611e3f565b92915050565b600060208284031215612b7457612b73611e09565b5b6000612b8284828501612b49565b91505092915050565b7f4e487b7100000000000000000000000000000000000000000000000000000000600052601260045260246000fd5b6000604082019050612bcf6000830185612015565b612bdc60208301846120fe565b939250505056fea26469706673582212205a1eaeed933ea23d727dde30910e121f6f3984fbd77296ae763b70a5fbe6c7f964736f6c63430008180033",
  "linkReferences": {},
  "deployedLinkReferences": {}
}