{
  "_format": "hh-sol-artifact-1",
  "contractName": "Provify",
  "sourceName": "contracts/Provify.sol",
  "abi": [
    {
      "inputs": [],
      "stateMutability": "nonpayable",
      "type": "constructor"
    },
    {
      "inputs": [
        {
          "internalType": "address",
          "name": "sender",
          "type": "address"
        },
        {
          "internalType": "uint256",
          "name": "tokenId",
          "type": "uint256"
        },
        {
          "internalType": "address",
          "name": "owner",
          "type": "address"
        }
      ],
      "name": "ERC721IncorrectOwner",
      "type": "error"
    },
    {
      "inputs": [
        {
          "internalType": "address",
          "name": "operator",
          "type": "address"
        },
        {
          "internalType": "uint256",
          "name": "tokenId",
          "type": "uint256"
        }
      ],
      "name": "ERC721InsufficientApproval",
      "type": "error"
    },
    {
      "inputs": [
        {
          "internalType": "address",
          "name": "approver",
          "type": "address"
        }
      ],
      "name": "ERC721InvalidApprover",
      "type": "error"
    },
    {
      "inputs": [
        {
          "internalType": "address",
          "name": "operator",
          "type": "address"
        }
      ],
      "name": "ERC721InvalidOperator",
      "type": "error"
    },
    {
      "inputs": [
        {
          "internalType": "address",
          "name": "owner",
          "type": "address"
        }
      ],
      "name": "ERC721InvalidOwner",
      "type": "error"
    },
    {
      "inputs": [
        {
          "internalType": "address",
          "name": "receiver",
          "type": "address"
        }
      ],
      "name": "ERC721InvalidReceiver",
      "type": "error"
    },
    {
      "inputs": [
        {
          "internalType": "address",
          "name": "sender",
          "type": "address"
        }
      ],
      "name": "ERC721InvalidSender",
      "type": "error"
    },
    {
      "inputs": [
        {
          "internalType": "uint256",
          "name": "tokenId",
          "type": "uint256"
        }
      ],
      "name": "ERC721NonexistentToken",
      "type": "error"
    },
    {
      "anonymous": false,
      "inputs": [
        {
          "indexed": true,
          "internalType": "address",
          "name": "owner",
          "type": "address"
        },
        {
          "indexed": true,
          "internalType": "address",
          "name": "approved",
          "type": "address"
        },
        {
          "indexed": true,
          "internalType": "uint256",
          "name": "tokenId",
          "type": "uint256"
        }
      ],
      "name": "Approval",
      "type": "event"
    },
    {
      "anonymous": false,
      "inputs": [
        {
          "indexed": true,
          "internalType": "address",
          "name": "owner",
          "type": "address"
        },
        {
          "indexed": true,
          "internalType": "address",
          "name": "operator",
          "type": "address"
        },
        {
          "indexed": false,
          "internalType": "bool",
          "name": "approved",
          "type": "bool"
        }
      ],
      "name": "ApprovalForAll",
      "type": "event"
    },
    {
      "anonymous": false,
      "inputs": [
        {
          "indexed": true,
          "internalType": "uint256",
          "name": "proofId",
          "type": "uint256"
        },
        {
          "indexed": true,
          "internalType": "address",
          "name": "recipient",
          "type": "address"
        },
        {
          "indexed": false,
          "internalType": "uint256",
          "name": "tokenId",
          "type": "uint256"
        }
      ],
      "name": "NFTIssued",
      "type": "event"
    },
    {
      "anonymous": false,
      "inputs": [
        {
          "indexed": true,
          "internalType": "uint256",
          "name": "proofId",
          "type": "uint256"
        },
        {
          "indexed": false,
          "internalType": "string",
          "name": "name",
          "type": "string"
        },
        {
          "indexed": false,
          "internalType": "string",
          "name": "description",
          "type": "string"
        },
        {
          "indexed": true,
          "internalType": "address",
          "name": "issuer",
          "type": "address"
        }
      ],
      "name": "ProofCreated",
      "type": "event"
    },
    {
      "anonymous": false,
      "inputs": [
        {
          "indexed": true,
          "internalType": "address",
          "name": "from",
          "type": "address"
        },
        {
          "indexed": true,
          "internalType": "address",
          "name": "to",
          "type": "address"
        },
        {
          "indexed": true,
          "internalType": "uint256",
          "name": "tokenId",
          "type": "uint256"
        }
      ],
      "name": "Transfer",
      "type": "event"
    },
    {
      "inputs": [
        {
          "internalType": "address",
          "name": "to",
          "type": "address"
        },
        {
          "internalType": "uint256",
          "name": "tokenId",
          "type": "uint256"
        }
      ],
      "name": "approve",
      "outputs": [],
      "stateMutability": "nonpayable",
      "type": "function"
    },
    {
      "inputs": [
        {
          "internalType": "address",
          "name": "owner",
          "type": "address"
        }
      ],
      "name": "balanceOf",
      "outputs": [
        {
          "internalType": "uint256",
          "name": "",
          "type": "uint256"
        }
      ],
      "stateMutability": "view",
      "type": "function"
    },
    {
      "inputs": [
        {
          "internalType": "string",
          "name": "_name",
          "type": "string"
        },
        {
          "internalType": "string",
          "name": "_description",
          "type": "string"
        }
      ],
      "name": "createProof",
      "outputs": [],
      "stateMutability": "nonpayable",
      "type": "function"
    },
    {
      "inputs": [
        {
          "internalType": "uint256",
          "name": "tokenId",
          "type": "uint256"
        }
      ],
      "name": "getApproved",
      "outputs": [
        {
          "internalType": "address",
          "name": "",
          "type": "address"
        }
      ],
      "stateMutability": "view",
      "type": "function"
    },
    {
      "inputs": [
        {
          "internalType": "address",
          "name": "owner",
          "type": "address"
        },
        {
          "internalType": "address",
          "name": "operator",
          "type": "address"
        }
      ],
      "name": "isApprovedForAll",
      "outputs": [
        {
          "internalType": "bool",
          "name": "",
          "type": "bool"
        }
      ],
      "stateMutability": "view",
      "type": "function"
    },
    {
      "inputs": [],
      "name": "name",
      "outputs": [
        {
          "internalType": "string",
          "name": "",
          "type": "string"
        }
      ],
      "stateMutability": "view",
      "type": "function"
    },
    {
      "inputs": [
        {
          "internalType": "uint256",
          "name": "tokenId",
          "type": "uint256"
        }
      ],
      "name": "ownerOf",
      "outputs": [
        {
          "internalType": "address",
          "name": "",
          "type": "address"
        }
      ],
      "stateMutability": "view",
      "type": "function"
    },
    {
      "inputs": [],
      "name": "proofCounter",
      "outputs": [
        {
          "internalType": "uint256",
          "name": "",
          "type": "uint256"
        }
      ],
      "stateMutability": "view",
      "type": "function"
    },
    {
      "inputs": [
        {
          "internalType": "uint256",
          "name": "",
          "type": "uint256"
        }
      ],
      "name": "proofs",
      "outputs": [
        {
          "internalType": "string",
          "name": "name",
          "type": "string"
        },
        {
          "internalType": "string",
          "name": "description",
          "type": "string"
        },
        {
          "internalType": "address",
          "name": "issuer",
          "type": "address"
        },
        {
          "internalType": "uint256",
          "name": "timestamp",
          "type": "uint256"
        }
      ],
      "stateMutability": "view",
      "type": "function"
    },
    {
      "inputs": [
        {
          "internalType": "address",
          "name": "from",
          "type": "address"
        },
        {
          "internalType": "address",
          "name": "to",
          "type": "address"
        },
        {
          "internalType": "uint256",
          "name": "tokenId",
          "type": "uint256"
        }
      ],
      "name": "safeTransferFrom",
      "outputs": [],
      "stateMutability": "nonpayable",
      "type": "function"
    },
    {
      "inputs": [
        {
          "internalType": "address",
          "name": "from",
          "type": "address"
        },
        {
          "internalType": "address",
          "name": "to",
          "type": "address"
        },
        {
          "internalType": "uint256",
          "name": "tokenId",
          "type": "uint256"
        },
        {
          "internalType": "bytes",
          "name": "data",
          "type": "bytes"
        }
      ],
      "name": "safeTransferFrom",
      "outputs": [],
      "stateMutability": "nonpayable",
      "type": "function"
    },
    {
      "inputs": [
        {
          "internalType": "address",
          "name": "operator",
          "type": "address"
        },
        {
          "internalType": "bool",
          "name": "approved",
          "type": "bool"
        }
      ],
      "name": "setApprovalForAll",
      "outputs": [],
      "stateMutability": "nonpayable",
      "type": "function"
    },
    {
      "inputs": [
        {
          "internalType": "bytes4",
          "name": "interfaceId",
          "type": "bytes4"
        }
      ],
      "name": "supportsInterface",
      "outputs": [
        {
          "internalType": "bool",
          "name": "",
          "type": "bool"
        }
      ],
      "stateMutability": "view",
      "type": "function"
    },
    {
      "inputs": [],
      "name": "symbol",
      "outputs": [
        {
          "internalType": "string",
          "name": "",
          "type": "string"
        }
      ],
      "stateMutability": "view",
      "type": "function"
    },
    {
      "inputs": [
        {
          "internalType": "uint256",
          "name": "tokenId",
          "type": "uint256"
        }
      ],
      "name": "tokenURI",
      "outputs": [
        {
          "internalType": "string",
          "name": "",
          "type": "string"
        }
      ],
      "stateMutability": "view",
      "type": "function"
    },
    {
      "inputs": [
        {
          "internalType": "address",
          "name": "from",
          "type": "address"
        },
        {
          "internalType": "address",
          "name": "to",
          "type": "address"
        },
        {
          "internalType": "uint256",
          "name": "tokenId",
          "type": "uint256"
        }
      ],
      "name": "transferFrom",
      "outputs": [],
      "stateMutability": "nonpayable",
      "type": "function"
    }
  ],
  "bytecode": "0x60806040523480156200001157600080fd5b506040518060400160405280600581526020017f50726f6f660000000000000000000000000000000000000000000000000000008152506040518060400160405280600381526020017f505246000000000000000000000000000000000000000000000000000000000081525081600090816200008f919062000324565b508060019081620000a1919062000324565b5050506200040b565b600081519050919050565b7f4e487b7100000000000000000000000000000000000000000000000000000000600052604160045260246000fd5b7f4e487b7100000000000000000000000000000000000000000000000000000000600052602260045260246000fd5b600060028204905060018216806200012c57607f821691505b602082108103620001425762000141620000e4565b5b50919050565b60008190508160005260206000209050919050565b60006020601f8301049050919050565b600082821b905092915050565b600060088302620001ac7fffffffffffffffffffffffffffffffffffffffffffffffffffffffffffffffff826200016d565b620001b886836200016d565b95508019841693508086168417925050509392505050565b6000819050919050565b6000819050919050565b600062000205620001ff620001f984620001d0565b620001da565b620001d0565b9050919050565b6000819050919050565b6200022183620001e4565b6200023962000230826200020c565b8484546200017a565b825550505050565b600090565b6200025062000241565b6200025d81848462000216565b505050565b5b8181101562000285576200027960008262000246565b60018101905062000263565b5050565b601f821115620002d4576200029e8162000148565b620002a9846200015d565b81016020851015620002b9578190505b620002d1620002c8856200015d565b83018262000262565b50505b505050565b600082821c905092915050565b6000620002f960001984600802620002d9565b1980831691505092915050565b6000620003148383620002e6565b9150826002028217905092915050565b6200032f82620000aa565b67ffffffffffffffff8111156200034b576200034a620000b5565b5b62000357825462000113565b6200036482828562000289565b600060209050601f8311600181146200039c576000841562000387578287015190505b62000393858262000306565b86555062000403565b601f198416620003ac8662000148565b60005b82811015620003d657848901518255600182019150602085019450602081019050620003af565b86831015620003f65784890151620003f2601f891682620002e6565b8355505b6001600288020188555050505b505050505050565b6125e5806200041b6000396000f3fe608060405234801561001057600080fd5b50600436106101005760003560e01c806370a0823111610097578063b88d4fde11610066578063b88d4fde146102c2578063c51b7e77146102de578063c87b56dd146102fa578063e985e9c51461032a57610100565b806370a082311461022557806395d89b41146102555780639ddaf5aa14610273578063a22cb465146102a657610100565b806323b872dd116100d357806323b872dd1461019f57806342842e0e146101bb5780636352211e146101d75780636d9f43701461020757610100565b806301ffc9a71461010557806306fdde0314610135578063081812fc14610153578063095ea7b314610183575b600080fd5b61011f600480360381019061011a9190611997565b61035a565b60405161012c91906119df565b60405180910390f35b61013d61043c565b60405161014a9190611a8a565b60405180910390f35b61016d60048036038101906101689190611ae2565b6104ce565b60405161017a9190611b50565b60405180910390f35b61019d60048036038101906101989190611b97565b6104ea565b005b6101b960048036038101906101b49190611bd7565b610500565b005b6101d560048036038101906101d09190611bd7565b610602565b005b6101f160048036038101906101ec9190611ae2565b610622565b6040516101fe9190611b50565b60405180910390f35b61020f610634565b60405161021c9190611c39565b60405180910390f35b61023f600480360381019061023a9190611c54565b61063a565b60405161024c9190611c39565b60405180910390f35b61025d6106f4565b60405161026a9190611a8a565b60405180910390f35b61028d60048036038101906102889190611ae2565b610786565b60405161029d9493929190611c81565b60405180910390f35b6102c060048036038101906102bb9190611d00565b6108e6565b005b6102dc60048036038101906102d79190611e75565b6108fc565b005b6102f860048036038101906102f39190611f99565b610919565b005b610314600480360381019061030f9190611ae2565b610ab3565b6040516103219190611a8a565b60405180910390f35b610344600480360381019061033f9190612011565b610b1c565b60405161035191906119df565b60405180910390f35b60007f80ac58cd000000000000000000000000000000000000000000000000000000007bffffffffffffffffffffffffffffffffffffffffffffffffffffffff1916827bffffffffffffffffffffffffffffffffffffffffffffffffffffffff1916148061042557507f5b5e139f000000000000000000000000000000000000000000000000000000007bffffffffffffffffffffffffffffffffffffffffffffffffffffffff1916827bffffffffffffffffffffffffffffffffffffffffffffffffffffffff1916145b80610435575061043482610bb0565b5b9050919050565b60606000805461044b90612080565b80601f016020809104026020016040519081016040528092919081815260200182805461047790612080565b80156104c45780601f10610499576101008083540402835291602001916104c4565b820191906000526020600020905b8154815290600101906020018083116104a757829003601f168201915b5050505050905090565b60006104d982610c1a565b506104e382610ca2565b9050919050565b6104fc82826104f7610cdf565b610ce7565b5050565b600073ffffffffffffffffffffffffffffffffffffffff168273ffffffffffffffffffffffffffffffffffffffff16036105725760006040517f64a0ae920000000000000000000000000000000000000000000000000000000081526004016105699190611b50565b60405180910390fd5b60006105868383610581610cdf565b610cf9565b90508373ffffffffffffffffffffffffffffffffffffffff168173ffffffffffffffffffffffffffffffffffffffff16146105fc578382826040517f64283d7b0000000000000000000000000000000000000000000000000000000081526004016105f3939291906120b1565b60405180910390fd5b50505050565b61061d838383604051806020016040528060008152506108fc565b505050565b600061062d82610c1a565b9050919050565b60075481565b60008073ffffffffffffffffffffffffffffffffffffffff168273ffffffffffffffffffffffffffffffffffffffff16036106ad5760006040517f89c62b640000000000000000000000000000000000000000000000000000000081526004016106a49190611b50565b60405180910390fd5b600360008373ffffffffffffffffffffffffffffffffffffffff1673ffffffffffffffffffffffffffffffffffffffff168152602001908152602001600020549050919050565b60606001805461070390612080565b80601f016020809104026020016040519081016040528092919081815260200182805461072f90612080565b801561077c5780601f106107515761010080835404028352916020019161077c565b820191906000526020600020905b81548152906001019060200180831161075f57829003601f168201915b5050505050905090565b60066020528060005260406000206000915090508060000180546107a990612080565b80601f01602080910402602001604051908101604052809291908181526020018280546107d590612080565b80156108225780601f106107f757610100808354040283529160200191610822565b820191906000526020600020905b81548152906001019060200180831161080557829003601f168201915b50505050509080600101805461083790612080565b80601f016020809104026020016040519081016040528092919081815260200182805461086390612080565b80156108b05780601f10610885576101008083540402835291602001916108b0565b820191906000526020600020905b81548152906001019060200180831161089357829003601f168201915b5050505050908060020160009054906101000a900473ffffffffffffffffffffffffffffffffffffffff16908060030154905084565b6108f86108f1610cdf565b8383610f13565b5050565b610907848484610500565b61091384848484611082565b50505050565b6007600081548092919061092c90612117565b919050555060405180608001604052808381526020018281526020013373ffffffffffffffffffffffffffffffffffffffff168152602001428152506006600060075481526020019081526020016000206000820151816000019081610992919061230b565b5060208201518160010190816109a8919061230b565b5060408201518160020160006101000a81548173ffffffffffffffffffffffffffffffffffffffff021916908373ffffffffffffffffffffffffffffffffffffffff160217905550606082015181600301559050503373ffffffffffffffffffffffffffffffffffffffff166007547f4eae5ade74fcbf717dc8e4bab9aec05293b75487dc7535867b5502bba7479c118484604051610a489291906123dd565b60405180910390a3610a5c33600754611239565b3373ffffffffffffffffffffffffffffffffffffffff166007547ff471c5fed142e6523d703be11d0192c86f3d6d0659b72d1c60513767cee43ecb600754604051610aa79190611c39565b60405180910390a35050565b6060610abe82610c1a565b506000610ac9611257565b90506000815111610ae95760405180602001604052806000815250610b14565b80610af38461126e565b604051602001610b04929190612450565b6040516020818303038152906040525b915050919050565b6000600560008473ffffffffffffffffffffffffffffffffffffffff1673ffffffffffffffffffffffffffffffffffffffff16815260200190815260200160002060008373ffffffffffffffffffffffffffffffffffffffff1673ffffffffffffffffffffffffffffffffffffffff16815260200190815260200160002060009054906101000a900460ff16905092915050565b60007f01ffc9a7000000000000000000000000000000000000000000000000000000007bffffffffffffffffffffffffffffffffffffffffffffffffffffffff1916827bffffffffffffffffffffffffffffffffffffffffffffffffffffffff1916149050919050565b600080610c268361133c565b9050600073ffffffffffffffffffffffffffffffffffffffff168173ffffffffffffffffffffffffffffffffffffffff1603610c9957826040517f7e273289000000000000000000000000000000000000000000000000000000008152600401610c909190611c39565b60405180910390fd5b80915050919050565b60006004600083815260200190815260200160002060009054906101000a900473ffffffffffffffffffffffffffffffffffffffff169050919050565b600033905090565b610cf48383836001611379565b505050565b600080610d058461133c565b9050600073ffffffffffffffffffffffffffffffffffffffff168373ffffffffffffffffffffffffffffffffffffffff1614610d4757610d4681848661153e565b5b600073ffffffffffffffffffffffffffffffffffffffff168173ffffffffffffffffffffffffffffffffffffffff1614610dd857610d89600085600080611379565b6001600360008373ffffffffffffffffffffffffffffffffffffffff1673ffffffffffffffffffffffffffffffffffffffff168152602001908152602001600020600082825403925050819055505b600073ffffffffffffffffffffffffffffffffffffffff168573ffffffffffffffffffffffffffffffffffffffff1614610e5b576001600360008773ffffffffffffffffffffffffffffffffffffffff1673ffffffffffffffffffffffffffffffffffffffff168152602001908152602001600020600082825401925050819055505b846002600086815260200190815260200160002060006101000a81548173ffffffffffffffffffffffffffffffffffffffff021916908373ffffffffffffffffffffffffffffffffffffffff160217905550838573ffffffffffffffffffffffffffffffffffffffff168273ffffffffffffffffffffffffffffffffffffffff167fddf252ad1be2c89b69c2b068fc378daa952ba7f163c4a11628f55a4df523b3ef60405160405180910390a4809150509392505050565b600073ffffffffffffffffffffffffffffffffffffffff168273ffffffffffffffffffffffffffffffffffffffff1603610f8457816040517f5b08ba18000000000000000000000000000000000000000000000000000000008152600401610f7b9190611b50565b60405180910390fd5b80600560008573ffffffffffffffffffffffffffffffffffffffff1673ffffffffffffffffffffffffffffffffffffffff16815260200190815260200160002060008473ffffffffffffffffffffffffffffffffffffffff1673ffffffffffffffffffffffffffffffffffffffff16815260200190815260200160002060006101000a81548160ff0219169083151502179055508173ffffffffffffffffffffffffffffffffffffffff168373ffffffffffffffffffffffffffffffffffffffff167f17307eab39ab6107e8899845ad3d59bd9653f200f220920489ca2b5937696c318360405161107591906119df565b60405180910390a3505050565b60008373ffffffffffffffffffffffffffffffffffffffff163b1115611233578273ffffffffffffffffffffffffffffffffffffffff1663150b7a026110c6610cdf565b8685856040518563ffffffff1660e01b81526004016110e894939291906124c9565b6020604051808303816000875af192505050801561112457506040513d601f19601f82011682018060405250810190611121919061252a565b60015b6111a8573d8060008114611154576040519150601f19603f3d011682016040523d82523d6000602084013e611159565b606091505b5060008151036111a057836040517f64a0ae920000000000000000000000000000000000000000000000000000000081526004016111979190611b50565b60405180910390fd5b805181602001fd5b63150b7a0260e01b7bffffffffffffffffffffffffffffffffffffffffffffffffffffffff1916817bffffffffffffffffffffffffffffffffffffffffffffffffffffffff19161461123157836040517f64a0ae920000000000000000000000000000000000000000000000000000000081526004016112289190611b50565b60405180910390fd5b505b50505050565b611253828260405180602001604052806000815250611602565b5050565b606060405180602001604052806000815250905090565b60606000600161127d8461161e565b01905060008167ffffffffffffffff81111561129c5761129b611d4a565b5b6040519080825280601f01601f1916602001820160405280156112ce5781602001600182028036833780820191505090505b509050600082602001820190505b600115611331578080600190039150507f3031323334353637383961626364656600000000000000000000000000000000600a86061a8153600a858161132557611324612557565b5b049450600085036112dc575b819350505050919050565b60006002600083815260200190815260200160002060009054906101000a900473ffffffffffffffffffffffffffffffffffffffff169050919050565b80806113b25750600073ffffffffffffffffffffffffffffffffffffffff168273ffffffffffffffffffffffffffffffffffffffff1614155b156114e65760006113c284610c1a565b9050600073ffffffffffffffffffffffffffffffffffffffff168373ffffffffffffffffffffffffffffffffffffffff161415801561142d57508273ffffffffffffffffffffffffffffffffffffffff168173ffffffffffffffffffffffffffffffffffffffff1614155b8015611440575061143e8184610b1c565b155b1561148257826040517fa9fbf51f0000000000000000000000000000000000000000000000000000000081526004016114799190611b50565b60405180910390fd5b81156114e457838573ffffffffffffffffffffffffffffffffffffffff168273ffffffffffffffffffffffffffffffffffffffff167f8c5be1e5ebec7d5bd14f71427d1e84f3dd0314c0f7b2291e5b200ac8c7c3b92560405160405180910390a45b505b836004600085815260200190815260200160002060006101000a81548173ffffffffffffffffffffffffffffffffffffffff021916908373ffffffffffffffffffffffffffffffffffffffff16021790555050505050565b611549838383611771565b6115fd57600073ffffffffffffffffffffffffffffffffffffffff168373ffffffffffffffffffffffffffffffffffffffff16036115be57806040517f7e2732890000000000000000000000000000000000000000000000000000000081526004016115b59190611c39565b60405180910390fd5b81816040517f177e802f0000000000000000000000000000000000000000000000000000000081526004016115f4929190612586565b60405180910390fd5b505050565b61160c8383611832565b6116196000848484611082565b505050565b600080600090507a184f03e93ff9f4daa797ed6e38ed64bf6a1f010000000000000000831061167c577a184f03e93ff9f4daa797ed6e38ed64bf6a1f010000000000000000838161167257611671612557565b5b0492506040810190505b6d04ee2d6d415b85acef810000000083106116b9576d04ee2d6d415b85acef810000000083816116af576116ae612557565b5b0492506020810190505b662386f26fc1000083106116e857662386f26fc1000083816116de576116dd612557565b5b0492506010810190505b6305f5e1008310611711576305f5e100838161170757611706612557565b5b0492506008810190505b612710831061173657612710838161172c5761172b612557565b5b0492506004810190505b60648310611759576064838161174f5761174e612557565b5b0492506002810190505b600a8310611768576001810190505b80915050919050565b60008073ffffffffffffffffffffffffffffffffffffffff168373ffffffffffffffffffffffffffffffffffffffff161415801561182957508273ffffffffffffffffffffffffffffffffffffffff168473ffffffffffffffffffffffffffffffffffffffff1614806117ea57506117e98484610b1c565b5b8061182857508273ffffffffffffffffffffffffffffffffffffffff1661181083610ca2565b73ffffffffffffffffffffffffffffffffffffffff16145b5b90509392505050565b600073ffffffffffffffffffffffffffffffffffffffff168273ffffffffffffffffffffffffffffffffffffffff16036118a45760006040517f64a0ae9200000000000000000000000000000000000000000000000000000000815260040161189b9190611b50565b60405180910390fd5b60006118b283836000610cf9565b9050600073ffffffffffffffffffffffffffffffffffffffff168173ffffffffffffffffffffffffffffffffffffffff16146119265760006040517f73c6ac6e00000000000000000000000000000000000000000000000000000000815260040161191d9190611b50565b60405180910390fd5b505050565b6000604051905090565b600080fd5b600080fd5b60007fffffffff0000000000000000000000000000000000000000000000000000000082169050919050565b6119748161193f565b811461197f57600080fd5b50565b6000813590506119918161196b565b92915050565b6000602082840312156119ad576119ac611935565b5b60006119bb84828501611982565b91505092915050565b60008115159050919050565b6119d9816119c4565b82525050565b60006020820190506119f460008301846119d0565b92915050565b600081519050919050565b600082825260208201905092915050565b60005b83811015611a34578082015181840152602081019050611a19565b60008484015250505050565b6000601f19601f8301169050919050565b6000611a5c826119fa565b611a668185611a05565b9350611a76818560208601611a16565b611a7f81611a40565b840191505092915050565b60006020820190508181036000830152611aa48184611a51565b905092915050565b6000819050919050565b611abf81611aac565b8114611aca57600080fd5b50565b600081359050611adc81611ab6565b92915050565b600060208284031215611af857611af7611935565b5b6000611b0684828501611acd565b91505092915050565b600073ffffffffffffffffffffffffffffffffffffffff82169050919050565b6000611b3a82611b0f565b9050919050565b611b4a81611b2f565b82525050565b6000602082019050611b656000830184611b41565b92915050565b611b7481611b2f565b8114611b7f57600080fd5b50565b600081359050611b9181611b6b565b92915050565b60008060408385031215611bae57611bad611935565b5b6000611bbc85828601611b82565b9250506020611bcd85828601611acd565b9150509250929050565b600080600060608486031215611bf057611bef611935565b5b6000611bfe86828701611b82565b9350506020611c0f86828701611b82565b9250506040611c2086828701611acd565b9150509250925092565b611c3381611aac565b82525050565b6000602082019050611c4e6000830184611c2a565b92915050565b600060208284031215611c6a57611c69611935565b5b6000611c7884828501611b82565b91505092915050565b60006080820190508181036000830152611c9b8187611a51565b90508181036020830152611caf8186611a51565b9050611cbe6040830185611b41565b611ccb6060830184611c2a565b95945050505050565b611cdd816119c4565b8114611ce857600080fd5b50565b600081359050611cfa81611cd4565b92915050565b60008060408385031215611d1757611d16611935565b5b6000611d2585828601611b82565b9250506020611d3685828601611ceb565b9150509250929050565b600080fd5b600080fd5b7f4e487b7100000000000000000000000000000000000000000000000000000000600052604160045260246000fd5b611d8282611a40565b810181811067ffffffffffffffff82111715611da157611da0611d4a565b5b80604052505050565b6000611db461192b565b9050611dc08282611d79565b919050565b600067ffffffffffffffff821115611de057611ddf611d4a565b5b611de982611a40565b9050602081019050919050565b82818337600083830152505050565b6000611e18611e1384611dc5565b611daa565b905082815260208101848484011115611e3457611e33611d45565b5b611e3f848285611df6565b509392505050565b600082601f830112611e5c57611e5b611d40565b5b8135611e6c848260208601611e05565b91505092915050565b60008060008060808587031215611e8f57611e8e611935565b5b6000611e9d87828801611b82565b9450506020611eae87828801611b82565b9350506040611ebf87828801611acd565b925050606085013567ffffffffffffffff811115611ee057611edf61193a565b5b611eec87828801611e47565b91505092959194509250565b600067ffffffffffffffff821115611f1357611f12611d4a565b5b611f1c82611a40565b9050602081019050919050565b6000611f3c611f3784611ef8565b611daa565b905082815260208101848484011115611f5857611f57611d45565b5b611f63848285611df6565b509392505050565b600082601f830112611f8057611f7f611d40565b5b8135611f90848260208601611f29565b91505092915050565b60008060408385031215611fb057611faf611935565b5b600083013567ffffffffffffffff811115611fce57611fcd61193a565b5b611fda85828601611f6b565b925050602083013567ffffffffffffffff811115611ffb57611ffa61193a565b5b61200785828601611f6b565b9150509250929050565b6000806040838503121561202857612027611935565b5b600061203685828601611b82565b925050602061204785828601611b82565b9150509250929050565b7f4e487b7100000000000000000000000000000000000000000000000000000000600052602260045260246000fd5b6000600282049050600182168061209857607f821691505b6020821081036120ab576120aa612051565b5b50919050565b60006060820190506120c66000830186611b41565b6120d36020830185611c2a565b6120e06040830184611b41565b949350505050565b7f4e487b7100000000000000000000000000000000000000000000000000000000600052601160045260246000fd5b600061212282611aac565b91507fffffffffffffffffffffffffffffffffffffffffffffffffffffffffffffffff8203612154576121536120e8565b5b600182019050919050565b60008190508160005260206000209050919050565b60006020601f8301049050919050565b600082821b905092915050565b6000600883026121c17fffffffffffffffffffffffffffffffffffffffffffffffffffffffffffffffff82612184565b6121cb8683612184565b95508019841693508086168417925050509392505050565b6000819050919050565b60006122086122036121fe84611aac565b6121e3565b611aac565b9050919050565b6000819050919050565b612222836121ed565b61223661222e8261220f565b848454612191565b825550505050565b600090565b61224b61223e565b612256818484612219565b505050565b5b8181101561227a5761226f600082612243565b60018101905061225c565b5050565b601f8211156122bf576122908161215f565b61229984612174565b810160208510156122a8578190505b6122bc6122b485612174565b83018261225b565b50505b505050565b600082821c905092915050565b60006122e2600019846008026122c4565b1980831691505092915050565b60006122fb83836122d1565b9150826002028217905092915050565b612314826119fa565b67ffffffffffffffff81111561232d5761232c611d4a565b5b6123378254612080565b61234282828561227e565b600060209050601f8311600181146123755760008415612363578287015190505b61236d85826122ef565b8655506123d5565b601f1984166123838661215f565b60005b828110156123ab57848901518255600182019150602085019450602081019050612386565b868310156123c857848901516123c4601f8916826122d1565b8355505b6001600288020188555050505b505050505050565b600060408201905081810360008301526123f78185611a51565b9050818103602083015261240b8184611a51565b90509392505050565b600081905092915050565b600061242a826119fa565b6124348185612414565b9350612444818560208601611a16565b80840191505092915050565b600061245c828561241f565b9150612468828461241f565b91508190509392505050565b600081519050919050565b600082825260208201905092915050565b600061249b82612474565b6124a5818561247f565b93506124b5818560208601611a16565b6124be81611a40565b840191505092915050565b60006080820190506124de6000830187611b41565b6124eb6020830186611b41565b6124f86040830185611c2a565b818103606083015261250a8184612490565b905095945050505050565b6000815190506125248161196b565b92915050565b6000602082840312156125405761253f611935565b5b600061254e84828501612515565b91505092915050565b7f4e487b7100000000000000000000000000000000000000000000000000000000600052601260045260246000fd5b600060408201905061259b6000830185611b41565b6125a86020830184611c2a565b939250505056fea2646970667358221220a89944613756c0fbd9fddccc3ea59e5091370878e8d246d77340ffd349c80bcf64736f6c63430008180033",
  "linkReferences": {},
  "deployedLinkReferences": {}
}