{
  "_format": "hh-sol-artifact-1",
  "contractName": "Provify",
  "sourceName": "contracts/Provify.sol",
  "abi": [
    {
      "inputs": [],
      "stateMutability": "nonpayable",
      "type": "constructor"
    },
    {
      "inputs": [
        {
          "internalType": "address",
          "name": "sender",
          "type": "address"
        },
        {
          "internalType": "uint256",
          "name": "tokenId",
          "type": "uint256"
        },
        {
          "internalType": "address",
          "name": "owner",
          "type": "address"
        }
      ],
      "name": "ERC721IncorrectOwner",
      "type": "error"
    },
    {
      "inputs": [
        {
          "internalType": "address",
          "name": "operator",
          "type": "address"
        },
        {
          "internalType": "uint256",
          "name": "tokenId",
          "type": "uint256"
        }
      ],
      "name": "ERC721InsufficientApproval",
      "type": "error"
    },
    {
      "inputs": [
        {
          "internalType": "address",
          "name": "approver",
          "type": "address"
        }
      ],
      "name": "ERC721InvalidApprover",
      "type": "error"
    },
    {
      "inputs": [
        {
          "internalType": "address",
          "name": "operator",
          "type": "address"
        }
      ],
      "name": "ERC721InvalidOperator",
      "type": "error"
    },
    {
      "inputs": [
        {
          "internalType": "address",
          "name": "owner",
          "type": "address"
        }
      ],
      "name": "ERC721InvalidOwner",
      "type": "error"
    },
    {
      "inputs": [
        {
          "internalType": "address",
          "name": "receiver",
          "type": "address"
        }
      ],
      "name": "ERC721InvalidReceiver",
      "type": "error"
    },
    {
      "inputs": [
        {
          "internalType": "address",
          "name": "sender",
          "type": "address"
        }
      ],
      "name": "ERC721InvalidSender",
      "type": "error"
    },
    {
      "inputs": [
        {
          "internalType": "uint256",
          "name": "tokenId",
          "type": "uint256"
        }
      ],
      "name": "ERC721NonexistentToken",
      "type": "error"
    },
    {
      "anonymous": false,
      "inputs": [
        {
          "indexed": true,
          "internalType": "address",
          "name": "owner",
          "type": "address"
        },
        {
          "indexed": true,
          "internalType": "address",
          "name": "approved",
          "type": "address"
        },
        {
          "indexed": true,
          "internalType": "uint256",
          "name": "tokenId",
          "type": "uint256"
        }
      ],
      "name": "Approval",
      "type": "event"
    },
    {
      "anonymous": false,
      "inputs": [
        {
          "indexed": true,
          "internalType": "address",
          "name": "owner",
          "type": "address"
        },
        {
          "indexed": true,
          "internalType": "address",
          "name": "operator",
          "type": "address"
        },
        {
          "indexed": false,
          "internalType": "bool",
          "name": "approved",
          "type": "bool"
        }
      ],
      "name": "ApprovalForAll",
      "type": "event"
    },
    {
      "anonymous": false,
      "inputs": [
        {
          "indexed": false,
          "internalType": "uint256",
          "name": "_fromTokenId",
          "type": "uint256"
        },
        {
          "indexed": false,
          "internalType": "uint256",
          "name": "_toTokenId",
          "type": "uint256"
        }
      ],
      "name": "BatchMetadataUpdate",
      "type": "event"
    },
    {
      "anonymous": false,
      "inputs": [
        {
          "indexed": false,
          "internalType": "uint256",
          "name": "_tokenId",
          "type": "uint256"
        }
      ],
      "name": "MetadataUpdate",
      "type": "event"
    },
    {
      "anonymous": false,
      "inputs": [
        {
          "indexed": true,
          "internalType": "bytes32",
          "name": "proofId",
          "type": "bytes32"
        },
        {
          "indexed": false,
          "internalType": "string",
          "name": "name",
          "type": "string"
        },
        {
          "indexed": false,
          "internalType": "string",
          "name": "description",
          "type": "string"
        },
        {
          "indexed": true,
          "internalType": "address",
          "name": "issuer",
          "type": "address"
        }
      ],
      "name": "ProofCreated",
      "type": "event"
    },
    {
      "anonymous": false,
      "inputs": [
        {
          "indexed": true,
          "internalType": "address",
          "name": "from",
          "type": "address"
        },
        {
          "indexed": true,
          "internalType": "address",
          "name": "to",
          "type": "address"
        },
        {
          "indexed": true,
          "internalType": "uint256",
          "name": "tokenId",
          "type": "uint256"
        }
      ],
      "name": "Transfer",
      "type": "event"
    },
    {
      "inputs": [
        {
          "internalType": "address",
          "name": "to",
          "type": "address"
        },
        {
          "internalType": "uint256",
          "name": "tokenId",
          "type": "uint256"
        }
      ],
      "name": "approve",
      "outputs": [],
      "stateMutability": "nonpayable",
      "type": "function"
    },
    {
      "inputs": [
        {
          "internalType": "address",
          "name": "owner",
          "type": "address"
        }
      ],
      "name": "balanceOf",
      "outputs": [
        {
          "internalType": "uint256",
          "name": "",
          "type": "uint256"
        }
      ],
      "stateMutability": "view",
      "type": "function"
    },
    {
      "inputs": [
        {
          "internalType": "uint256",
          "name": "tokenId",
          "type": "uint256"
        }
      ],
      "name": "burn",
      "outputs": [],
      "stateMutability": "nonpayable",
      "type": "function"
    },
    {
      "inputs": [
        {
          "internalType": "string",
          "name": "_name",
          "type": "string"
        },
        {
          "internalType": "string",
          "name": "_description",
          "type": "string"
        },
        {
          "internalType": "string",
          "name": "_tokenURI",
          "type": "string"
        }
      ],
      "name": "createProof",
      "outputs": [],
      "stateMutability": "nonpayable",
      "type": "function"
    },
    {
      "inputs": [
        {
          "internalType": "uint256",
          "name": "_tokenId",
          "type": "uint256"
        }
      ],
      "name": "deleteProof",
      "outputs": [],
      "stateMutability": "nonpayable",
      "type": "function"
    },
    {
      "inputs": [
        {
          "internalType": "uint256",
          "name": "tokenId",
          "type": "uint256"
        }
      ],
      "name": "getApproved",
      "outputs": [
        {
          "internalType": "address",
          "name": "",
          "type": "address"
        }
      ],
      "stateMutability": "view",
      "type": "function"
    },
    {
      "inputs": [
        {
          "internalType": "address",
          "name": "owner",
          "type": "address"
        },
        {
          "internalType": "address",
          "name": "operator",
          "type": "address"
        }
      ],
      "name": "isApprovedForAll",
      "outputs": [
        {
          "internalType": "bool",
          "name": "",
          "type": "bool"
        }
      ],
      "stateMutability": "view",
      "type": "function"
    },
    {
      "inputs": [],
      "name": "name",
      "outputs": [
        {
          "internalType": "string",
          "name": "",
          "type": "string"
        }
      ],
      "stateMutability": "view",
      "type": "function"
    },
    {
      "inputs": [
        {
          "internalType": "uint256",
          "name": "tokenId",
          "type": "uint256"
        }
      ],
      "name": "ownerOf",
      "outputs": [
        {
          "internalType": "address",
          "name": "",
          "type": "address"
        }
      ],
      "stateMutability": "view",
      "type": "function"
    },
    {
      "inputs": [
        {
          "internalType": "bytes32",
          "name": "",
          "type": "bytes32"
        }
      ],
      "name": "owners",
      "outputs": [
        {
          "internalType": "address",
          "name": "",
          "type": "address"
        }
      ],
      "stateMutability": "view",
      "type": "function"
    },
    {
      "inputs": [
        {
          "internalType": "bytes32",
          "name": "",
          "type": "bytes32"
        }
      ],
      "name": "proofs",
      "outputs": [
        {
          "internalType": "string",
          "name": "name",
          "type": "string"
        },
        {
          "internalType": "string",
          "name": "description",
          "type": "string"
        },
        {
          "internalType": "address",
          "name": "issuer",
          "type": "address"
        },
        {
          "internalType": "uint256",
          "name": "timestamp",
          "type": "uint256"
        }
      ],
      "stateMutability": "view",
      "type": "function"
    },
    {
      "inputs": [],
      "name": "proofsCount",
      "outputs": [
        {
          "internalType": "uint256",
          "name": "",
          "type": "uint256"
        }
      ],
      "stateMutability": "view",
      "type": "function"
    },
    {
      "inputs": [
        {
          "internalType": "uint256",
          "name": "",
          "type": "uint256"
        }
      ],
      "name": "proofsIds",
      "outputs": [
        {
          "internalType": "bytes32",
          "name": "",
          "type": "bytes32"
        }
      ],
      "stateMutability": "view",
      "type": "function"
    },
    {
      "inputs": [
        {
          "internalType": "address",
          "name": "from",
          "type": "address"
        },
        {
          "internalType": "address",
          "name": "to",
          "type": "address"
        },
        {
          "internalType": "uint256",
          "name": "tokenId",
          "type": "uint256"
        }
      ],
      "name": "safeTransferFrom",
      "outputs": [],
      "stateMutability": "nonpayable",
      "type": "function"
    },
    {
      "inputs": [
        {
          "internalType": "address",
          "name": "from",
          "type": "address"
        },
        {
          "internalType": "address",
          "name": "to",
          "type": "address"
        },
        {
          "internalType": "uint256",
          "name": "tokenId",
          "type": "uint256"
        },
        {
          "internalType": "bytes",
          "name": "data",
          "type": "bytes"
        }
      ],
      "name": "safeTransferFrom",
      "outputs": [],
      "stateMutability": "nonpayable",
      "type": "function"
    },
    {
      "inputs": [
        {
          "internalType": "address",
          "name": "operator",
          "type": "address"
        },
        {
          "internalType": "bool",
          "name": "approved",
          "type": "bool"
        }
      ],
      "name": "setApprovalForAll",
      "outputs": [],
      "stateMutability": "nonpayable",
      "type": "function"
    },
    {
      "inputs": [
        {
          "internalType": "bytes4",
          "name": "interfaceId",
          "type": "bytes4"
        }
      ],
      "name": "supportsInterface",
      "outputs": [
        {
          "internalType": "bool",
          "name": "",
          "type": "bool"
        }
      ],
      "stateMutability": "view",
      "type": "function"
    },
    {
      "inputs": [],
      "name": "symbol",
      "outputs": [
        {
          "internalType": "string",
          "name": "",
          "type": "string"
        }
      ],
      "stateMutability": "view",
      "type": "function"
    },
    {
      "inputs": [
        {
          "internalType": "uint256",
          "name": "tokenId",
          "type": "uint256"
        }
      ],
      "name": "tokenURI",
      "outputs": [
        {
          "internalType": "string",
          "name": "",
          "type": "string"
        }
      ],
      "stateMutability": "view",
      "type": "function"
    },
    {
      "inputs": [
        {
          "internalType": "bytes32",
          "name": "",
          "type": "bytes32"
        }
      ],
      "name": "tokensIds",
      "outputs": [
        {
          "internalType": "uint256",
          "name": "",
          "type": "uint256"
        }
      ],
      "stateMutability": "view",
      "type": "function"
    },
    {
      "inputs": [
        {
          "internalType": "address",
          "name": "from",
          "type": "address"
        },
        {
          "internalType": "address",
          "name": "to",
          "type": "address"
        },
        {
          "internalType": "uint256",
          "name": "tokenId",
          "type": "uint256"
        }
      ],
      "name": "transferFrom",
      "outputs": [],
      "stateMutability": "nonpayable",
      "type": "function"
    },
    {
      "inputs": [
        {
          "internalType": "address",
          "name": "to",
          "type": "address"
        },
        {
          "internalType": "uint256",
          "name": "_tokenId",
          "type": "uint256"
        }
      ],
      "name": "transferProof",
      "outputs": [],
      "stateMutability": "nonpayable",
      "type": "function"
    }
  ],
  "bytecode": "0x60806040523480156200001157600080fd5b506040518060400160405280600581526020017f50726f6f660000000000000000000000000000000000000000000000000000008152506040518060400160405280600381526020017f505246000000000000000000000000000000000000000000000000000000000081525081600090816200008f919062000324565b508060019081620000a1919062000324565b5050506200040b565b600081519050919050565b7f4e487b7100000000000000000000000000000000000000000000000000000000600052604160045260246000fd5b7f4e487b7100000000000000000000000000000000000000000000000000000000600052602260045260246000fd5b600060028204905060018216806200012c57607f821691505b602082108103620001425762000141620000e4565b5b50919050565b60008190508160005260206000209050919050565b60006020601f8301049050919050565b600082821b905092915050565b600060088302620001ac7fffffffffffffffffffffffffffffffffffffffffffffffffffffffffffffffff826200016d565b620001b886836200016d565b95508019841693508086168417925050509392505050565b6000819050919050565b6000819050919050565b600062000205620001ff620001f984620001d0565b620001da565b620001d0565b9050919050565b6000819050919050565b6200022183620001e4565b6200023962000230826200020c565b8484546200017a565b825550505050565b600090565b6200025062000241565b6200025d81848462000216565b505050565b5b8181101562000285576200027960008262000246565b60018101905062000263565b5050565b601f821115620002d4576200029e8162000148565b620002a9846200015d565b81016020851015620002b9578190505b620002d1620002c8856200015d565b83018262000262565b50505b505050565b600082821c905092915050565b6000620002f960001984600802620002d9565b1980831691505092915050565b6000620003148383620002e6565b9150826002028217905092915050565b6200032f82620000aa565b67ffffffffffffffff8111156200034b576200034a620000b5565b5b62000357825462000113565b6200036482828562000289565b600060209050601f8311600181146200039c576000841562000387578287015190505b62000393858262000306565b86555062000403565b601f198416620003ac8662000148565b60005b82811015620003d657848901518255600182019150602085019450602081019050620003af565b86831015620003f65784890151620003f2601f891682620002e6565b8355505b6001600288020188555050505b505050505050565b612eb1806200041b6000396000f3fe608060405234801561001057600080fd5b50600436106101425760003560e01c80636352211e116100b8578063b88d4fde1161007c578063b88d4fde14610388578063c87b56dd146103a4578063e985e9c5146103d4578063fb8ad6ff14610404578063fe93e42814610434578063ff9872691461046457610142565b80636352211e146102d257806370a08231146103025780638fca4ab91461033257806395d89b411461034e578063a22cb4651461036c57610142565b806323b872dd1161010a57806323b872dd1461021157806328ffc4e51461022d57806342842e0e1461024957806342966c6814610265578063444d95b014610281578063534e67a2146102b457610142565b806301ffc9a71461014757806306fdde0314610177578063081812fc14610195578063095ea7b3146101c55780630dde4ace146101e1575b600080fd5b610161600480360381019061015c9190612020565b610480565b60405161016e9190612068565b60405180910390f35b61017f610492565b60405161018c9190612113565b60405180910390f35b6101af60048036038101906101aa919061216b565b610524565b6040516101bc91906121d9565b60405180910390f35b6101df60048036038101906101da9190612220565b610540565b005b6101fb60048036038101906101f6919061216b565b610556565b6040516102089190612279565b60405180910390f35b61022b60048036038101906102269190612294565b61056e565b005b6102476004803603810190610242919061241c565b610670565b005b610263600480360381019061025e9190612294565b6108cb565b005b61027f600480360381019061027a919061216b565b6108eb565b005b61029b600480360381019061029691906124ef565b610902565b6040516102ab949392919061252b565b60405180910390f35b6102bc610a62565b6040516102c9919061257e565b60405180910390f35b6102ec60048036038101906102e7919061216b565b610a68565b6040516102f991906121d9565b60405180910390f35b61031c60048036038101906103179190612599565b610a7a565b604051610329919061257e565b60405180910390f35b61034c60048036038101906103479190612220565b610b34565b005b610356610c4f565b6040516103639190612113565b60405180910390f35b610386600480360381019061038191906125f2565b610ce1565b005b6103a2600480360381019061039d91906126d3565b610cf7565b005b6103be60048036038101906103b9919061216b565b610d14565b6040516103cb9190612113565b60405180910390f35b6103ee60048036038101906103e99190612756565b610d26565b6040516103fb9190612068565b60405180910390f35b61041e600480360381019061041991906124ef565b610dba565b60405161042b91906121d9565b60405180910390f35b61044e600480360381019061044991906124ef565b610ded565b60405161045b919061257e565b60405180910390f35b61047e6004803603810190610479919061216b565b610e05565b005b600061048b82610f1e565b9050919050565b6060600080546104a1906127c5565b80601f01602080910402602001604051908101604052809291908181526020018280546104cd906127c5565b801561051a5780601f106104ef5761010080835404028352916020019161051a565b820191906000526020600020905b8154815290600101906020018083116104fd57829003601f168201915b5050505050905090565b600061052f82610f7f565b5061053982611007565b9050919050565b610552828261054d611044565b61104c565b5050565b60096020528060005260406000206000915090505481565b600073ffffffffffffffffffffffffffffffffffffffff168273ffffffffffffffffffffffffffffffffffffffff16036105e05760006040517f64a0ae920000000000000000000000000000000000000000000000000000000081526004016105d791906121d9565b60405180910390fd5b60006105f483836105ef611044565b61105e565b90508373ffffffffffffffffffffffffffffffffffffffff168173ffffffffffffffffffffffffffffffffffffffff161461066a578382826040517f64283d7b000000000000000000000000000000000000000000000000000000008152600401610661939291906127f6565b60405180910390fd5b50505050565b60008383334260405160200161068994939291906128d2565b60405160208183030381529060405280519060200120905060006007600083815260200190815260200160002060030154146106fa576040517f08c379a00000000000000000000000000000000000000000000000000000000081526004016106f190612964565b60405180910390fd5b60405180608001604052808581526020018481526020013373ffffffffffffffffffffffffffffffffffffffff168152602001428152506007600083815260200190815260200160002060008201518160000190816107599190612b30565b50602082015181600101908161076f9190612b30565b5060408201518160020160006101000a81548173ffffffffffffffffffffffffffffffffffffffff021916908373ffffffffffffffffffffffffffffffffffffffff1602179055506060820151816003015590505060006008600081546107d590612c31565b91905081905590506107e73382611278565b6107f18184611296565b81600960008381526020019081526020016000208190555080600a60008481526020019081526020016000208190555033600b600084815260200190815260200160002060006101000a81548173ffffffffffffffffffffffffffffffffffffffff021916908373ffffffffffffffffffffffffffffffffffffffff1602179055503373ffffffffffffffffffffffffffffffffffffffff16827f2e8f6b80cdb336319572d87f6e8433a7891092af7e85b0315d8d13399e84020d87876040516108bc929190612c79565b60405180910390a35050505050565b6108e683838360405180602001604052806000815250610cf7565b505050565b6108fe6000826108f9611044565b61105e565b5050565b6007602052806000526040600020600091509050806000018054610925906127c5565b80601f0160208091040260200160405190810160405280929190818152602001828054610951906127c5565b801561099e5780601f106109735761010080835404028352916020019161099e565b820191906000526020600020905b81548152906001019060200180831161098157829003601f168201915b5050505050908060010180546109b3906127c5565b80601f01602080910402602001604051908101604052809291908181526020018280546109df906127c5565b8015610a2c5780601f10610a0157610100808354040283529160200191610a2c565b820191906000526020600020905b815481529060010190602001808311610a0f57829003601f168201915b5050505050908060020160009054906101000a900473ffffffffffffffffffffffffffffffffffffffff16908060030154905084565b60085481565b6000610a7382610f7f565b9050919050565b60008073ffffffffffffffffffffffffffffffffffffffff168273ffffffffffffffffffffffffffffffffffffffff1603610aed5760006040517f89c62b64000000000000000000000000000000000000000000000000000000008152600401610ae491906121d9565b60405180910390fd5b600360008373ffffffffffffffffffffffffffffffffffffffff1673ffffffffffffffffffffffffffffffffffffffff168152602001908152602001600020549050919050565b6000600960008381526020019081526020016000205490503373ffffffffffffffffffffffffffffffffffffffff16600b600083815260200190815260200160002060009054906101000a900473ffffffffffffffffffffffffffffffffffffffff1673ffffffffffffffffffffffffffffffffffffffff1614610bed576040517f08c379a0000000000000000000000000000000000000000000000000000000008152600401610be490612cfc565b60405180910390fd5b610bf83384846108cb565b82600b600083815260200190815260200160002060006101000a81548173ffffffffffffffffffffffffffffffffffffffff021916908373ffffffffffffffffffffffffffffffffffffffff160217905550505050565b606060018054610c5e906127c5565b80601f0160208091040260200160405190810160405280929190818152602001828054610c8a906127c5565b8015610cd75780601f10610cac57610100808354040283529160200191610cd7565b820191906000526020600020905b815481529060010190602001808311610cba57829003601f168201915b5050505050905090565b610cf3610cec611044565b83836112f2565b5050565b610d0284848461056e565b610d0e84848484611461565b50505050565b6060610d1f82611618565b9050919050565b6000600560008473ffffffffffffffffffffffffffffffffffffffff1673ffffffffffffffffffffffffffffffffffffffff16815260200190815260200160002060008373ffffffffffffffffffffffffffffffffffffffff1673ffffffffffffffffffffffffffffffffffffffff16815260200190815260200160002060009054906101000a900460ff16905092915050565b600b6020528060005260406000206000915054906101000a900473ffffffffffffffffffffffffffffffffffffffff1681565b600a6020528060005260406000206000915090505481565b6000600960008381526020019081526020016000205490503373ffffffffffffffffffffffffffffffffffffffff16600b600083815260200190815260200160002060009054906101000a900473ffffffffffffffffffffffffffffffffffffffff1673ffffffffffffffffffffffffffffffffffffffff1614610ebe576040517f08c379a0000000000000000000000000000000000000000000000000000000008152600401610eb590612cfc565b60405180910390fd5b610ec7826108eb565b6000600b600083815260200190815260200160002060006101000a81548173ffffffffffffffffffffffffffffffffffffffff021916908373ffffffffffffffffffffffffffffffffffffffff1602179055505050565b6000634906490660e01b7bffffffffffffffffffffffffffffffffffffffffffffffffffffffff1916827bffffffffffffffffffffffffffffffffffffffffffffffffffffffff19161480610f785750610f778261172b565b5b9050919050565b600080610f8b8361180d565b9050600073ffffffffffffffffffffffffffffffffffffffff168173ffffffffffffffffffffffffffffffffffffffff1603610ffe57826040517f7e273289000000000000000000000000000000000000000000000000000000008152600401610ff5919061257e565b60405180910390fd5b80915050919050565b60006004600083815260200190815260200160002060009054906101000a900473ffffffffffffffffffffffffffffffffffffffff169050919050565b600033905090565b611059838383600161184a565b505050565b60008061106a8461180d565b9050600073ffffffffffffffffffffffffffffffffffffffff168373ffffffffffffffffffffffffffffffffffffffff16146110ac576110ab818486611a0f565b5b600073ffffffffffffffffffffffffffffffffffffffff168173ffffffffffffffffffffffffffffffffffffffff161461113d576110ee60008560008061184a565b6001600360008373ffffffffffffffffffffffffffffffffffffffff1673ffffffffffffffffffffffffffffffffffffffff168152602001908152602001600020600082825403925050819055505b600073ffffffffffffffffffffffffffffffffffffffff168573ffffffffffffffffffffffffffffffffffffffff16146111c0576001600360008773ffffffffffffffffffffffffffffffffffffffff1673ffffffffffffffffffffffffffffffffffffffff168152602001908152602001600020600082825401925050819055505b846002600086815260200190815260200160002060006101000a81548173ffffffffffffffffffffffffffffffffffffffff021916908373ffffffffffffffffffffffffffffffffffffffff160217905550838573ffffffffffffffffffffffffffffffffffffffff168273ffffffffffffffffffffffffffffffffffffffff167fddf252ad1be2c89b69c2b068fc378daa952ba7f163c4a11628f55a4df523b3ef60405160405180910390a4809150509392505050565b611292828260405180602001604052806000815250611ad3565b5050565b806006600084815260200190815260200160002090816112b69190612b30565b507ff8e1a15aba9398e019f0b49df1a4fde98ee17ae345cb5f6b5e2c27f5033e8ce7826040516112e6919061257e565b60405180910390a15050565b600073ffffffffffffffffffffffffffffffffffffffff168273ffffffffffffffffffffffffffffffffffffffff160361136357816040517f5b08ba1800000000000000000000000000000000000000000000000000000000815260040161135a91906121d9565b60405180910390fd5b80600560008573ffffffffffffffffffffffffffffffffffffffff1673ffffffffffffffffffffffffffffffffffffffff16815260200190815260200160002060008473ffffffffffffffffffffffffffffffffffffffff1673ffffffffffffffffffffffffffffffffffffffff16815260200190815260200160002060006101000a81548160ff0219169083151502179055508173ffffffffffffffffffffffffffffffffffffffff168373ffffffffffffffffffffffffffffffffffffffff167f17307eab39ab6107e8899845ad3d59bd9653f200f220920489ca2b5937696c31836040516114549190612068565b60405180910390a3505050565b60008373ffffffffffffffffffffffffffffffffffffffff163b1115611612578273ffffffffffffffffffffffffffffffffffffffff1663150b7a026114a5611044565b8685856040518563ffffffff1660e01b81526004016114c79493929190612d71565b6020604051808303816000875af192505050801561150357506040513d601f19601f820116820180604052508101906115009190612dd2565b60015b611587573d8060008114611533576040519150601f19603f3d011682016040523d82523d6000602084013e611538565b606091505b50600081510361157f57836040517f64a0ae9200000000000000000000000000000000000000000000000000000000815260040161157691906121d9565b60405180910390fd5b805181602001fd5b63150b7a0260e01b7bffffffffffffffffffffffffffffffffffffffffffffffffffffffff1916817bffffffffffffffffffffffffffffffffffffffffffffffffffffffff19161461161057836040517f64a0ae9200000000000000000000000000000000000000000000000000000000815260040161160791906121d9565b60405180910390fd5b505b50505050565b606061162382610f7f565b506000600660008481526020019081526020016000208054611644906127c5565b80601f0160208091040260200160405190810160405280929190818152602001828054611670906127c5565b80156116bd5780601f10611692576101008083540402835291602001916116bd565b820191906000526020600020905b8154815290600101906020018083116116a057829003601f168201915b5050505050905060006116ce611aef565b905060008151036116e3578192505050611726565b600082511115611718578082604051602001611700929190612dff565b60405160208183030381529060405292505050611726565b61172184611b06565b925050505b919050565b60007f80ac58cd000000000000000000000000000000000000000000000000000000007bffffffffffffffffffffffffffffffffffffffffffffffffffffffff1916827bffffffffffffffffffffffffffffffffffffffffffffffffffffffff191614806117f657507f5b5e139f000000000000000000000000000000000000000000000000000000007bffffffffffffffffffffffffffffffffffffffffffffffffffffffff1916827bffffffffffffffffffffffffffffffffffffffffffffffffffffffff1916145b80611806575061180582611b6f565b5b9050919050565b60006002600083815260200190815260200160002060009054906101000a900473ffffffffffffffffffffffffffffffffffffffff169050919050565b80806118835750600073ffffffffffffffffffffffffffffffffffffffff168273ffffffffffffffffffffffffffffffffffffffff1614155b156119b757600061189384610f7f565b9050600073ffffffffffffffffffffffffffffffffffffffff168373ffffffffffffffffffffffffffffffffffffffff16141580156118fe57508273ffffffffffffffffffffffffffffffffffffffff168173ffffffffffffffffffffffffffffffffffffffff1614155b8015611911575061190f8184610d26565b155b1561195357826040517fa9fbf51f00000000000000000000000000000000000000000000000000000000815260040161194a91906121d9565b60405180910390fd5b81156119b557838573ffffffffffffffffffffffffffffffffffffffff168273ffffffffffffffffffffffffffffffffffffffff167f8c5be1e5ebec7d5bd14f71427d1e84f3dd0314c0f7b2291e5b200ac8c7c3b92560405160405180910390a45b505b836004600085815260200190815260200160002060006101000a81548173ffffffffffffffffffffffffffffffffffffffff021916908373ffffffffffffffffffffffffffffffffffffffff16021790555050505050565b611a1a838383611bd9565b611ace57600073ffffffffffffffffffffffffffffffffffffffff168373ffffffffffffffffffffffffffffffffffffffff1603611a8f57806040517f7e273289000000000000000000000000000000000000000000000000000000008152600401611a86919061257e565b60405180910390fd5b81816040517f177e802f000000000000000000000000000000000000000000000000000000008152600401611ac5929190612e23565b60405180910390fd5b505050565b611add8383611c9a565b611aea6000848484611461565b505050565b606060405180602001604052806000815250905090565b6060611b1182610f7f565b506000611b1c611aef565b90506000815111611b3c5760405180602001604052806000815250611b67565b80611b4684611d93565b604051602001611b57929190612dff565b6040516020818303038152906040525b915050919050565b60007f01ffc9a7000000000000000000000000000000000000000000000000000000007bffffffffffffffffffffffffffffffffffffffffffffffffffffffff1916827bffffffffffffffffffffffffffffffffffffffffffffffffffffffff1916149050919050565b60008073ffffffffffffffffffffffffffffffffffffffff168373ffffffffffffffffffffffffffffffffffffffff1614158015611c9157508273ffffffffffffffffffffffffffffffffffffffff168473ffffffffffffffffffffffffffffffffffffffff161480611c525750611c518484610d26565b5b80611c9057508273ffffffffffffffffffffffffffffffffffffffff16611c7883611007565b73ffffffffffffffffffffffffffffffffffffffff16145b5b90509392505050565b600073ffffffffffffffffffffffffffffffffffffffff168273ffffffffffffffffffffffffffffffffffffffff1603611d0c5760006040517f64a0ae92000000000000000000000000000000000000000000000000000000008152600401611d0391906121d9565b60405180910390fd5b6000611d1a8383600061105e565b9050600073ffffffffffffffffffffffffffffffffffffffff168173ffffffffffffffffffffffffffffffffffffffff1614611d8e5760006040517f73c6ac6e000000000000000000000000000000000000000000000000000000008152600401611d8591906121d9565b60405180910390fd5b505050565b606060006001611da284611e61565b01905060008167ffffffffffffffff811115611dc157611dc06122f1565b5b6040519080825280601f01601f191660200182016040528015611df35781602001600182028036833780820191505090505b509050600082602001820190505b600115611e56578080600190039150507f3031323334353637383961626364656600000000000000000000000000000000600a86061a8153600a8581611e4a57611e49612e4c565b5b04945060008503611e01575b819350505050919050565b600080600090507a184f03e93ff9f4daa797ed6e38ed64bf6a1f0100000000000000008310611ebf577a184f03e93ff9f4daa797ed6e38ed64bf6a1f0100000000000000008381611eb557611eb4612e4c565b5b0492506040810190505b6d04ee2d6d415b85acef81000000008310611efc576d04ee2d6d415b85acef81000000008381611ef257611ef1612e4c565b5b0492506020810190505b662386f26fc100008310611f2b57662386f26fc100008381611f2157611f20612e4c565b5b0492506010810190505b6305f5e1008310611f54576305f5e1008381611f4a57611f49612e4c565b5b0492506008810190505b6127108310611f79576127108381611f6f57611f6e612e4c565b5b0492506004810190505b60648310611f9c5760648381611f9257611f91612e4c565b5b0492506002810190505b600a8310611fab576001810190505b80915050919050565b6000604051905090565b600080fd5b600080fd5b60007fffffffff0000000000000000000000000000000000000000000000000000000082169050919050565b611ffd81611fc8565b811461200857600080fd5b50565b60008135905061201a81611ff4565b92915050565b60006020828403121561203657612035611fbe565b5b60006120448482850161200b565b91505092915050565b60008115159050919050565b6120628161204d565b82525050565b600060208201905061207d6000830184612059565b92915050565b600081519050919050565b600082825260208201905092915050565b60005b838110156120bd5780820151818401526020810190506120a2565b60008484015250505050565b6000601f19601f8301169050919050565b60006120e582612083565b6120ef818561208e565b93506120ff81856020860161209f565b612108816120c9565b840191505092915050565b6000602082019050818103600083015261212d81846120da565b905092915050565b6000819050919050565b61214881612135565b811461215357600080fd5b50565b6000813590506121658161213f565b92915050565b60006020828403121561218157612180611fbe565b5b600061218f84828501612156565b91505092915050565b600073ffffffffffffffffffffffffffffffffffffffff82169050919050565b60006121c382612198565b9050919050565b6121d3816121b8565b82525050565b60006020820190506121ee60008301846121ca565b92915050565b6121fd816121b8565b811461220857600080fd5b50565b60008135905061221a816121f4565b92915050565b6000806040838503121561223757612236611fbe565b5b60006122458582860161220b565b925050602061225685828601612156565b9150509250929050565b6000819050919050565b61227381612260565b82525050565b600060208201905061228e600083018461226a565b92915050565b6000806000606084860312156122ad576122ac611fbe565b5b60006122bb8682870161220b565b93505060206122cc8682870161220b565b92505060406122dd86828701612156565b9150509250925092565b600080fd5b600080fd5b7f4e487b7100000000000000000000000000000000000000000000000000000000600052604160045260246000fd5b612329826120c9565b810181811067ffffffffffffffff82111715612348576123476122f1565b5b80604052505050565b600061235b611fb4565b90506123678282612320565b919050565b600067ffffffffffffffff821115612387576123866122f1565b5b612390826120c9565b9050602081019050919050565b82818337600083830152505050565b60006123bf6123ba8461236c565b612351565b9050828152602081018484840111156123db576123da6122ec565b5b6123e684828561239d565b509392505050565b600082601f830112612403576124026122e7565b5b81356124138482602086016123ac565b91505092915050565b60008060006060848603121561243557612434611fbe565b5b600084013567ffffffffffffffff81111561245357612452611fc3565b5b61245f868287016123ee565b935050602084013567ffffffffffffffff8111156124805761247f611fc3565b5b61248c868287016123ee565b925050604084013567ffffffffffffffff8111156124ad576124ac611fc3565b5b6124b9868287016123ee565b9150509250925092565b6124cc81612260565b81146124d757600080fd5b50565b6000813590506124e9816124c3565b92915050565b60006020828403121561250557612504611fbe565b5b6000612513848285016124da565b91505092915050565b61252581612135565b82525050565b6000608082019050818103600083015261254581876120da565b9050818103602083015261255981866120da565b905061256860408301856121ca565b612575606083018461251c565b95945050505050565b6000602082019050612593600083018461251c565b92915050565b6000602082840312156125af576125ae611fbe565b5b60006125bd8482850161220b565b91505092915050565b6125cf8161204d565b81146125da57600080fd5b50565b6000813590506125ec816125c6565b92915050565b6000806040838503121561260957612608611fbe565b5b60006126178582860161220b565b9250506020612628858286016125dd565b9150509250929050565b600067ffffffffffffffff82111561264d5761264c6122f1565b5b612656826120c9565b9050602081019050919050565b600061267661267184612632565b612351565b905082815260208101848484011115612692576126916122ec565b5b61269d84828561239d565b509392505050565b600082601f8301126126ba576126b96122e7565b5b81356126ca848260208601612663565b91505092915050565b600080600080608085870312156126ed576126ec611fbe565b5b60006126fb8782880161220b565b945050602061270c8782880161220b565b935050604061271d87828801612156565b925050606085013567ffffffffffffffff81111561273e5761273d611fc3565b5b61274a878288016126a5565b91505092959194509250565b6000806040838503121561276d5761276c611fbe565b5b600061277b8582860161220b565b925050602061278c8582860161220b565b9150509250929050565b7f4e487b7100000000000000000000000000000000000000000000000000000000600052602260045260246000fd5b600060028204905060018216806127dd57607f821691505b6020821081036127f0576127ef612796565b5b50919050565b600060608201905061280b60008301866121ca565b612818602083018561251c565b61282560408301846121ca565b949350505050565b600081905092915050565b600061284382612083565b61284d818561282d565b935061285d81856020860161209f565b80840191505092915050565b60008160601b9050919050565b600061288182612869565b9050919050565b600061289382612876565b9050919050565b6128ab6128a6826121b8565b612888565b82525050565b6000819050919050565b6128cc6128c782612135565b6128b1565b82525050565b60006128de8287612838565b91506128ea8286612838565b91506128f6828561289a565b60148201915061290682846128bb565b60208201915081905095945050505050565b7f50726f6f6620616c726561647920657869737473000000000000000000000000600082015250565b600061294e60148361208e565b915061295982612918565b602082019050919050565b6000602082019050818103600083015261297d81612941565b9050919050565b60008190508160005260206000209050919050565b60006020601f8301049050919050565b600082821b905092915050565b6000600883026129e67fffffffffffffffffffffffffffffffffffffffffffffffffffffffffffffffff826129a9565b6129f086836129a9565b95508019841693508086168417925050509392505050565b6000819050919050565b6000612a2d612a28612a2384612135565b612a08565b612135565b9050919050565b6000819050919050565b612a4783612a12565b612a5b612a5382612a34565b8484546129b6565b825550505050565b600090565b612a70612a63565b612a7b818484612a3e565b505050565b5b81811015612a9f57612a94600082612a68565b600181019050612a81565b5050565b601f821115612ae457612ab581612984565b612abe84612999565b81016020851015612acd578190505b612ae1612ad985612999565b830182612a80565b50505b505050565b600082821c905092915050565b6000612b0760001984600802612ae9565b1980831691505092915050565b6000612b208383612af6565b9150826002028217905092915050565b612b3982612083565b67ffffffffffffffff811115612b5257612b516122f1565b5b612b5c82546127c5565b612b67828285612aa3565b600060209050601f831160018114612b9a5760008415612b88578287015190505b612b928582612b14565b865550612bfa565b601f198416612ba886612984565b60005b82811015612bd057848901518255600182019150602085019450602081019050612bab565b86831015612bed5784890151612be9601f891682612af6565b8355505b6001600288020188555050505b505050505050565b7f4e487b7100000000000000000000000000000000000000000000000000000000600052601160045260246000fd5b6000612c3c82612135565b91507fffffffffffffffffffffffffffffffffffffffffffffffffffffffffffffffff8203612c6e57612c6d612c02565b5b600182019050919050565b60006040820190508181036000830152612c9381856120da565b90508181036020830152612ca781846120da565b90509392505050565b7f4e6f74207468652070726f6f66206f776e657200000000000000000000000000600082015250565b6000612ce660138361208e565b9150612cf182612cb0565b602082019050919050565b60006020820190508181036000830152612d1581612cd9565b9050919050565b600081519050919050565b600082825260208201905092915050565b6000612d4382612d1c565b612d4d8185612d27565b9350612d5d81856020860161209f565b612d66816120c9565b840191505092915050565b6000608082019050612d8660008301876121ca565b612d9360208301866121ca565b612da0604083018561251c565b8181036060830152612db28184612d38565b905095945050505050565b600081519050612dcc81611ff4565b92915050565b600060208284031215612de857612de7611fbe565b5b6000612df684828501612dbd565b91505092915050565b6000612e0b8285612838565b9150612e178284612838565b91508190509392505050565b6000604082019050612e3860008301856121ca565b612e45602083018461251c565b9392505050565b7f4e487b7100000000000000000000000000000000000000000000000000000000600052601260045260246000fdfea2646970667358221220714b0f6a61064e0ff932a124e7d87c94a74989719925631e1d32d0c5c016aef064736f6c63430008180033",
  "linkReferences": {},
  "deployedLinkReferences": {}
}