{
  "_format": "hh-sol-artifact-1",
  "contractName": "Provify",
  "sourceName": "contracts/Provify.sol",
  "abi": [
    {
      "inputs": [],
      "stateMutability": "nonpayable",
      "type": "constructor"
    },
    {
      "inputs": [
        {
          "internalType": "address",
          "name": "sender",
          "type": "address"
        },
        {
          "internalType": "uint256",
          "name": "tokenId",
          "type": "uint256"
        },
        {
          "internalType": "address",
          "name": "owner",
          "type": "address"
        }
      ],
      "name": "ERC721IncorrectOwner",
      "type": "error"
    },
    {
      "inputs": [
        {
          "internalType": "address",
          "name": "operator",
          "type": "address"
        },
        {
          "internalType": "uint256",
          "name": "tokenId",
          "type": "uint256"
        }
      ],
      "name": "ERC721InsufficientApproval",
      "type": "error"
    },
    {
      "inputs": [
        {
          "internalType": "address",
          "name": "approver",
          "type": "address"
        }
      ],
      "name": "ERC721InvalidApprover",
      "type": "error"
    },
    {
      "inputs": [
        {
          "internalType": "address",
          "name": "operator",
          "type": "address"
        }
      ],
      "name": "ERC721InvalidOperator",
      "type": "error"
    },
    {
      "inputs": [
        {
          "internalType": "address",
          "name": "owner",
          "type": "address"
        }
      ],
      "name": "ERC721InvalidOwner",
      "type": "error"
    },
    {
      "inputs": [
        {
          "internalType": "address",
          "name": "receiver",
          "type": "address"
        }
      ],
      "name": "ERC721InvalidReceiver",
      "type": "error"
    },
    {
      "inputs": [
        {
          "internalType": "address",
          "name": "sender",
          "type": "address"
        }
      ],
      "name": "ERC721InvalidSender",
      "type": "error"
    },
    {
      "inputs": [
        {
          "internalType": "uint256",
          "name": "tokenId",
          "type": "uint256"
        }
      ],
      "name": "ERC721NonexistentToken",
      "type": "error"
    },
    {
      "anonymous": false,
      "inputs": [
        {
          "indexed": true,
          "internalType": "address",
          "name": "owner",
          "type": "address"
        },
        {
          "indexed": true,
          "internalType": "address",
          "name": "approved",
          "type": "address"
        },
        {
          "indexed": true,
          "internalType": "uint256",
          "name": "tokenId",
          "type": "uint256"
        }
      ],
      "name": "Approval",
      "type": "event"
    },
    {
      "anonymous": false,
      "inputs": [
        {
          "indexed": true,
          "internalType": "address",
          "name": "owner",
          "type": "address"
        },
        {
          "indexed": true,
          "internalType": "address",
          "name": "operator",
          "type": "address"
        },
        {
          "indexed": false,
          "internalType": "bool",
          "name": "approved",
          "type": "bool"
        }
      ],
      "name": "ApprovalForAll",
      "type": "event"
    },
    {
      "anonymous": false,
      "inputs": [
        {
          "indexed": true,
          "internalType": "uint256",
          "name": "proofId",
          "type": "uint256"
        },
        {
          "indexed": true,
          "internalType": "address",
          "name": "recipient",
          "type": "address"
        },
        {
          "indexed": false,
          "internalType": "uint256",
          "name": "tokenId",
          "type": "uint256"
        }
      ],
      "name": "NFTIssued",
      "type": "event"
    },
    {
      "anonymous": false,
      "inputs": [
        {
          "indexed": true,
          "internalType": "uint256",
          "name": "proofId",
          "type": "uint256"
        },
        {
          "indexed": false,
          "internalType": "string",
          "name": "name",
          "type": "string"
        },
        {
          "indexed": false,
          "internalType": "string",
          "name": "description",
          "type": "string"
        },
        {
          "indexed": true,
          "internalType": "address",
          "name": "issuer",
          "type": "address"
        }
      ],
      "name": "ProofCreated",
      "type": "event"
    },
    {
      "anonymous": false,
      "inputs": [
        {
          "indexed": true,
          "internalType": "uint256",
          "name": "proofId",
          "type": "uint256"
        },
        {
          "indexed": false,
          "internalType": "string",
          "name": "name",
          "type": "string"
        },
        {
          "indexed": false,
          "internalType": "string",
          "name": "description",
          "type": "string"
        },
        {
          "indexed": true,
          "internalType": "address",
          "name": "issuer",
          "type": "address"
        }
      ],
      "name": "ProofDetails",
      "type": "event"
    },
    {
      "anonymous": false,
      "inputs": [
        {
          "indexed": true,
          "internalType": "address",
          "name": "from",
          "type": "address"
        },
        {
          "indexed": true,
          "internalType": "address",
          "name": "to",
          "type": "address"
        },
        {
          "indexed": true,
          "internalType": "uint256",
          "name": "tokenId",
          "type": "uint256"
        }
      ],
      "name": "Transfer",
      "type": "event"
    },
    {
      "inputs": [
        {
          "internalType": "address",
          "name": "to",
          "type": "address"
        },
        {
          "internalType": "uint256",
          "name": "tokenId",
          "type": "uint256"
        }
      ],
      "name": "approve",
      "outputs": [],
      "stateMutability": "nonpayable",
      "type": "function"
    },
    {
      "inputs": [
        {
          "internalType": "address",
          "name": "owner",
          "type": "address"
        }
      ],
      "name": "balanceOf",
      "outputs": [
        {
          "internalType": "uint256",
          "name": "",
          "type": "uint256"
        }
      ],
      "stateMutability": "view",
      "type": "function"
    },
    {
      "inputs": [
        {
          "internalType": "string",
          "name": "_name",
          "type": "string"
        },
        {
          "internalType": "string",
          "name": "_description",
          "type": "string"
        }
      ],
      "name": "createProof",
      "outputs": [],
      "stateMutability": "nonpayable",
      "type": "function"
    },
    {
      "inputs": [
        {
          "internalType": "uint256",
          "name": "tokenId",
          "type": "uint256"
        }
      ],
      "name": "getApproved",
      "outputs": [
        {
          "internalType": "address",
          "name": "",
          "type": "address"
        }
      ],
      "stateMutability": "view",
      "type": "function"
    },
    {
      "inputs": [
        {
          "internalType": "address",
          "name": "owner",
          "type": "address"
        },
        {
          "internalType": "address",
          "name": "operator",
          "type": "address"
        }
      ],
      "name": "isApprovedForAll",
      "outputs": [
        {
          "internalType": "bool",
          "name": "",
          "type": "bool"
        }
      ],
      "stateMutability": "view",
      "type": "function"
    },
    {
      "inputs": [],
      "name": "name",
      "outputs": [
        {
          "internalType": "string",
          "name": "",
          "type": "string"
        }
      ],
      "stateMutability": "view",
      "type": "function"
    },
    {
      "inputs": [
        {
          "internalType": "uint256",
          "name": "tokenId",
          "type": "uint256"
        }
      ],
      "name": "ownerOf",
      "outputs": [
        {
          "internalType": "address",
          "name": "",
          "type": "address"
        }
      ],
      "stateMutability": "view",
      "type": "function"
    },
    {
      "inputs": [],
      "name": "proofCounter",
      "outputs": [
        {
          "internalType": "uint256",
          "name": "",
          "type": "uint256"
        }
      ],
      "stateMutability": "view",
      "type": "function"
    },
    {
      "inputs": [
        {
          "internalType": "uint256",
          "name": "",
          "type": "uint256"
        }
      ],
      "name": "proofs",
      "outputs": [
        {
          "internalType": "string",
          "name": "name",
          "type": "string"
        },
        {
          "internalType": "string",
          "name": "description",
          "type": "string"
        },
        {
          "internalType": "address",
          "name": "issuer",
          "type": "address"
        },
        {
          "internalType": "uint256",
          "name": "timestamp",
          "type": "uint256"
        }
      ],
      "stateMutability": "view",
      "type": "function"
    },
    {
      "inputs": [
        {
          "internalType": "address",
          "name": "from",
          "type": "address"
        },
        {
          "internalType": "address",
          "name": "to",
          "type": "address"
        },
        {
          "internalType": "uint256",
          "name": "tokenId",
          "type": "uint256"
        }
      ],
      "name": "safeTransferFrom",
      "outputs": [],
      "stateMutability": "nonpayable",
      "type": "function"
    },
    {
      "inputs": [
        {
          "internalType": "address",
          "name": "from",
          "type": "address"
        },
        {
          "internalType": "address",
          "name": "to",
          "type": "address"
        },
        {
          "internalType": "uint256",
          "name": "tokenId",
          "type": "uint256"
        },
        {
          "internalType": "bytes",
          "name": "data",
          "type": "bytes"
        }
      ],
      "name": "safeTransferFrom",
      "outputs": [],
      "stateMutability": "nonpayable",
      "type": "function"
    },
    {
      "inputs": [
        {
          "internalType": "address",
          "name": "operator",
          "type": "address"
        },
        {
          "internalType": "bool",
          "name": "approved",
          "type": "bool"
        }
      ],
      "name": "setApprovalForAll",
      "outputs": [],
      "stateMutability": "nonpayable",
      "type": "function"
    },
    {
      "inputs": [
        {
          "internalType": "bytes4",
          "name": "interfaceId",
          "type": "bytes4"
        }
      ],
      "name": "supportsInterface",
      "outputs": [
        {
          "internalType": "bool",
          "name": "",
          "type": "bool"
        }
      ],
      "stateMutability": "view",
      "type": "function"
    },
    {
      "inputs": [],
      "name": "symbol",
      "outputs": [
        {
          "internalType": "string",
          "name": "",
          "type": "string"
        }
      ],
      "stateMutability": "view",
      "type": "function"
    },
    {
      "inputs": [
        {
          "internalType": "uint256",
          "name": "tokenId",
          "type": "uint256"
        }
      ],
      "name": "tokenURI",
      "outputs": [
        {
          "internalType": "string",
          "name": "",
          "type": "string"
        }
      ],
      "stateMutability": "view",
      "type": "function"
    },
    {
      "inputs": [
        {
          "internalType": "address",
          "name": "from",
          "type": "address"
        },
        {
          "internalType": "address",
          "name": "to",
          "type": "address"
        },
        {
          "internalType": "uint256",
          "name": "tokenId",
          "type": "uint256"
        }
      ],
      "name": "transferFrom",
      "outputs": [],
      "stateMutability": "nonpayable",
      "type": "function"
    },
    {
      "inputs": [
        {
          "internalType": "uint256",
          "name": "_proofId",
          "type": "uint256"
        }
      ],
      "name": "verifyProof",
      "outputs": [],
      "stateMutability": "nonpayable",
      "type": "function"
    }
  ],
  "bytecode": "0x60806040523480156200001157600080fd5b506040518060400160405280600581526020017f50726f6f660000000000000000000000000000000000000000000000000000008152506040518060400160405280600381526020017f505246000000000000000000000000000000000000000000000000000000000081525081600090816200008f919062000324565b508060019081620000a1919062000324565b5050506200040b565b600081519050919050565b7f4e487b7100000000000000000000000000000000000000000000000000000000600052604160045260246000fd5b7f4e487b7100000000000000000000000000000000000000000000000000000000600052602260045260246000fd5b600060028204905060018216806200012c57607f821691505b602082108103620001425762000141620000e4565b5b50919050565b60008190508160005260206000209050919050565b60006020601f8301049050919050565b600082821b905092915050565b600060088302620001ac7fffffffffffffffffffffffffffffffffffffffffffffffffffffffffffffffff826200016d565b620001b886836200016d565b95508019841693508086168417925050509392505050565b6000819050919050565b6000819050919050565b600062000205620001ff620001f984620001d0565b620001da565b620001d0565b9050919050565b6000819050919050565b6200022183620001e4565b6200023962000230826200020c565b8484546200017a565b825550505050565b600090565b6200025062000241565b6200025d81848462000216565b505050565b5b8181101562000285576200027960008262000246565b60018101905062000263565b5050565b601f821115620002d4576200029e8162000148565b620002a9846200015d565b81016020851015620002b9578190505b620002d1620002c8856200015d565b83018262000262565b50505b505050565b600082821c905092915050565b6000620002f960001984600802620002d9565b1980831691505092915050565b6000620003148383620002e6565b9150826002028217905092915050565b6200032f82620000aa565b67ffffffffffffffff8111156200034b576200034a620000b5565b5b62000357825462000113565b6200036482828562000289565b600060209050601f8311600181146200039c576000841562000387578287015190505b62000393858262000306565b86555062000403565b601f198416620003ac8662000148565b60005b82811015620003d657848901518255600182019150602085019450602081019050620003af565b86831015620003f65784890151620003f2601f891682620002e6565b8355505b6001600288020188555050505b505050505050565b612896806200041b6000396000f3fe608060405234801561001057600080fd5b506004361061010b5760003560e01c806370a08231116100a2578063a22cb46511610071578063a22cb465146102cd578063b88d4fde146102e9578063c51b7e7714610305578063c87b56dd14610321578063e985e9c5146103515761010b565b806370a08231146102305780638b6958ff1461026057806395d89b411461027c5780639ddaf5aa1461029a5761010b565b806323b872dd116100de57806323b872dd146101aa57806342842e0e146101c65780636352211e146101e25780636d9f4370146102125761010b565b806301ffc9a71461011057806306fdde0314610140578063081812fc1461015e578063095ea7b31461018e575b600080fd5b61012a60048036038101906101259190611bdc565b610381565b6040516101379190611c24565b60405180910390f35b610148610463565b6040516101559190611ccf565b60405180910390f35b61017860048036038101906101739190611d27565b6104f5565b6040516101859190611d95565b60405180910390f35b6101a860048036038101906101a39190611ddc565b610511565b005b6101c460048036038101906101bf9190611e1c565b610527565b005b6101e060048036038101906101db9190611e1c565b610629565b005b6101fc60048036038101906101f79190611d27565b610649565b6040516102099190611d95565b60405180910390f35b61021a61065b565b6040516102279190611e7e565b60405180910390f35b61024a60048036038101906102459190611e99565b610661565b6040516102579190611e7e565b60405180910390f35b61027a60048036038101906102759190611d27565b61071b565b005b610284610973565b6040516102919190611ccf565b60405180910390f35b6102b460048036038101906102af9190611d27565b610a05565b6040516102c49493929190611ec6565b60405180910390f35b6102e760048036038101906102e29190611f45565b610b65565b005b61030360048036038101906102fe91906120ba565b610b7b565b005b61031f600480360381019061031a91906121de565b610b98565b005b61033b60048036038101906103369190611d27565b610d32565b6040516103489190611ccf565b60405180910390f35b61036b60048036038101906103669190612256565b610d9b565b6040516103789190611c24565b60405180910390f35b60007f80ac58cd000000000000000000000000000000000000000000000000000000007bffffffffffffffffffffffffffffffffffffffffffffffffffffffff1916827bffffffffffffffffffffffffffffffffffffffffffffffffffffffff1916148061044c57507f5b5e139f000000000000000000000000000000000000000000000000000000007bffffffffffffffffffffffffffffffffffffffffffffffffffffffff1916827bffffffffffffffffffffffffffffffffffffffffffffffffffffffff1916145b8061045c575061045b82610e2f565b5b9050919050565b606060008054610472906122c5565b80601f016020809104026020016040519081016040528092919081815260200182805461049e906122c5565b80156104eb5780601f106104c0576101008083540402835291602001916104eb565b820191906000526020600020905b8154815290600101906020018083116104ce57829003601f168201915b5050505050905090565b600061050082610e99565b5061050a82610f21565b9050919050565b610523828261051e610f5e565b610f66565b5050565b600073ffffffffffffffffffffffffffffffffffffffff168273ffffffffffffffffffffffffffffffffffffffff16036105995760006040517f64a0ae920000000000000000000000000000000000000000000000000000000081526004016105909190611d95565b60405180910390fd5b60006105ad83836105a8610f5e565b610f78565b90508373ffffffffffffffffffffffffffffffffffffffff168173ffffffffffffffffffffffffffffffffffffffff1614610623578382826040517f64283d7b00000000000000000000000000000000000000000000000000000000815260040161061a939291906122f6565b60405180910390fd5b50505050565b61064483838360405180602001604052806000815250610b7b565b505050565b600061065482610e99565b9050919050565b60075481565b60008073ffffffffffffffffffffffffffffffffffffffff168273ffffffffffffffffffffffffffffffffffffffff16036106d45760006040517f89c62b640000000000000000000000000000000000000000000000000000000081526004016106cb9190611d95565b60405180910390fd5b600360008373ffffffffffffffffffffffffffffffffffffffff1673ffffffffffffffffffffffffffffffffffffffff168152602001908152602001600020549050919050565b600754811115801561072d5750600081115b61076c576040517f08c379a000000000000000000000000000000000000000000000000000000000815260040161076390612379565b60405180910390fd5b60006006600083815260200190815260200160002060405180608001604052908160008201805461079c906122c5565b80601f01602080910402602001604051908101604052809291908181526020018280546107c8906122c5565b80156108155780601f106107ea57610100808354040283529160200191610815565b820191906000526020600020905b8154815290600101906020018083116107f857829003601f168201915b5050505050815260200160018201805461082e906122c5565b80601f016020809104026020016040519081016040528092919081815260200182805461085a906122c5565b80156108a75780601f1061087c576101008083540402835291602001916108a7565b820191906000526020600020905b81548152906001019060200180831161088a57829003601f168201915b505050505081526020016002820160009054906101000a900473ffffffffffffffffffffffffffffffffffffffff1673ffffffffffffffffffffffffffffffffffffffff1673ffffffffffffffffffffffffffffffffffffffff1681526020016003820154815250509050806040015173ffffffffffffffffffffffffffffffffffffffff16827f400da662f66d522c5bb387b5f5031ea150e87795946b240b633b8152c70dbb0483600001518460200151604051610967929190612399565b60405180910390a35050565b606060018054610982906122c5565b80601f01602080910402602001604051908101604052809291908181526020018280546109ae906122c5565b80156109fb5780601f106109d0576101008083540402835291602001916109fb565b820191906000526020600020905b8154815290600101906020018083116109de57829003601f168201915b5050505050905090565b6006602052806000526040600020600091509050806000018054610a28906122c5565b80601f0160208091040260200160405190810160405280929190818152602001828054610a54906122c5565b8015610aa15780601f10610a7657610100808354040283529160200191610aa1565b820191906000526020600020905b815481529060010190602001808311610a8457829003601f168201915b505050505090806001018054610ab6906122c5565b80601f0160208091040260200160405190810160405280929190818152602001828054610ae2906122c5565b8015610b2f5780601f10610b0457610100808354040283529160200191610b2f565b820191906000526020600020905b815481529060010190602001808311610b1257829003601f168201915b5050505050908060020160009054906101000a900473ffffffffffffffffffffffffffffffffffffffff16908060030154905084565b610b77610b70610f5e565b8383611192565b5050565b610b86848484610527565b610b9284848484611301565b50505050565b60076000815480929190610bab906123ff565b919050555060405180608001604052808381526020018281526020013373ffffffffffffffffffffffffffffffffffffffff168152602001428152506006600060075481526020019081526020016000206000820151816000019081610c1191906125f3565b506020820151816001019081610c2791906125f3565b5060408201518160020160006101000a81548173ffffffffffffffffffffffffffffffffffffffff021916908373ffffffffffffffffffffffffffffffffffffffff160217905550606082015181600301559050503373ffffffffffffffffffffffffffffffffffffffff166007547f4eae5ade74fcbf717dc8e4bab9aec05293b75487dc7535867b5502bba7479c118484604051610cc7929190612399565b60405180910390a3610cdb336007546114b8565b3373ffffffffffffffffffffffffffffffffffffffff166007547ff471c5fed142e6523d703be11d0192c86f3d6d0659b72d1c60513767cee43ecb600754604051610d269190611e7e565b60405180910390a35050565b6060610d3d82610e99565b506000610d486115b1565b90506000815111610d685760405180602001604052806000815250610d93565b80610d72846115c8565b604051602001610d83929190612701565b6040516020818303038152906040525b915050919050565b6000600560008473ffffffffffffffffffffffffffffffffffffffff1673ffffffffffffffffffffffffffffffffffffffff16815260200190815260200160002060008373ffffffffffffffffffffffffffffffffffffffff1673ffffffffffffffffffffffffffffffffffffffff16815260200190815260200160002060009054906101000a900460ff16905092915050565b60007f01ffc9a7000000000000000000000000000000000000000000000000000000007bffffffffffffffffffffffffffffffffffffffffffffffffffffffff1916827bffffffffffffffffffffffffffffffffffffffffffffffffffffffff1916149050919050565b600080610ea583611696565b9050600073ffffffffffffffffffffffffffffffffffffffff168173ffffffffffffffffffffffffffffffffffffffff1603610f1857826040517f7e273289000000000000000000000000000000000000000000000000000000008152600401610f0f9190611e7e565b60405180910390fd5b80915050919050565b60006004600083815260200190815260200160002060009054906101000a900473ffffffffffffffffffffffffffffffffffffffff169050919050565b600033905090565b610f7383838360016116d3565b505050565b600080610f8484611696565b9050600073ffffffffffffffffffffffffffffffffffffffff168373ffffffffffffffffffffffffffffffffffffffff1614610fc657610fc5818486611898565b5b600073ffffffffffffffffffffffffffffffffffffffff168173ffffffffffffffffffffffffffffffffffffffff1614611057576110086000856000806116d3565b6001600360008373ffffffffffffffffffffffffffffffffffffffff1673ffffffffffffffffffffffffffffffffffffffff168152602001908152602001600020600082825403925050819055505b600073ffffffffffffffffffffffffffffffffffffffff168573ffffffffffffffffffffffffffffffffffffffff16146110da576001600360008773ffffffffffffffffffffffffffffffffffffffff1673ffffffffffffffffffffffffffffffffffffffff168152602001908152602001600020600082825401925050819055505b846002600086815260200190815260200160002060006101000a81548173ffffffffffffffffffffffffffffffffffffffff021916908373ffffffffffffffffffffffffffffffffffffffff160217905550838573ffffffffffffffffffffffffffffffffffffffff168273ffffffffffffffffffffffffffffffffffffffff167fddf252ad1be2c89b69c2b068fc378daa952ba7f163c4a11628f55a4df523b3ef60405160405180910390a4809150509392505050565b600073ffffffffffffffffffffffffffffffffffffffff168273ffffffffffffffffffffffffffffffffffffffff160361120357816040517f5b08ba180000000000000000000000000000000000000000000000000000000081526004016111fa9190611d95565b60405180910390fd5b80600560008573ffffffffffffffffffffffffffffffffffffffff1673ffffffffffffffffffffffffffffffffffffffff16815260200190815260200160002060008473ffffffffffffffffffffffffffffffffffffffff1673ffffffffffffffffffffffffffffffffffffffff16815260200190815260200160002060006101000a81548160ff0219169083151502179055508173ffffffffffffffffffffffffffffffffffffffff168373ffffffffffffffffffffffffffffffffffffffff167f17307eab39ab6107e8899845ad3d59bd9653f200f220920489ca2b5937696c31836040516112f49190611c24565b60405180910390a3505050565b60008373ffffffffffffffffffffffffffffffffffffffff163b11156114b2578273ffffffffffffffffffffffffffffffffffffffff1663150b7a02611345610f5e565b8685856040518563ffffffff1660e01b8152600401611367949392919061277a565b6020604051808303816000875af19250505080156113a357506040513d601f19601f820116820180604052508101906113a091906127db565b60015b611427573d80600081146113d3576040519150601f19603f3d011682016040523d82523d6000602084013e6113d8565b606091505b50600081510361141f57836040517f64a0ae920000000000000000000000000000000000000000000000000000000081526004016114169190611d95565b60405180910390fd5b805181602001fd5b63150b7a0260e01b7bffffffffffffffffffffffffffffffffffffffffffffffffffffffff1916817bffffffffffffffffffffffffffffffffffffffffffffffffffffffff1916146114b057836040517f64a0ae920000000000000000000000000000000000000000000000000000000081526004016114a79190611d95565b60405180910390fd5b505b50505050565b600073ffffffffffffffffffffffffffffffffffffffff168273ffffffffffffffffffffffffffffffffffffffff160361152a5760006040517f64a0ae920000000000000000000000000000000000000000000000000000000081526004016115219190611d95565b60405180910390fd5b600061153883836000610f78565b9050600073ffffffffffffffffffffffffffffffffffffffff168173ffffffffffffffffffffffffffffffffffffffff16146115ac5760006040517f73c6ac6e0000000000000000000000000000000000000000000000000000000081526004016115a39190611d95565b60405180910390fd5b505050565b606060405180602001604052806000815250905090565b6060600060016115d78461195c565b01905060008167ffffffffffffffff8111156115f6576115f5611f8f565b5b6040519080825280601f01601f1916602001820160405280156116285781602001600182028036833780820191505090505b509050600082602001820190505b60011561168b578080600190039150507f3031323334353637383961626364656600000000000000000000000000000000600a86061a8153600a858161167f5761167e612808565b5b04945060008503611636575b819350505050919050565b60006002600083815260200190815260200160002060009054906101000a900473ffffffffffffffffffffffffffffffffffffffff169050919050565b808061170c5750600073ffffffffffffffffffffffffffffffffffffffff168273ffffffffffffffffffffffffffffffffffffffff1614155b1561184057600061171c84610e99565b9050600073ffffffffffffffffffffffffffffffffffffffff168373ffffffffffffffffffffffffffffffffffffffff161415801561178757508273ffffffffffffffffffffffffffffffffffffffff168173ffffffffffffffffffffffffffffffffffffffff1614155b801561179a57506117988184610d9b565b155b156117dc57826040517fa9fbf51f0000000000000000000000000000000000000000000000000000000081526004016117d39190611d95565b60405180910390fd5b811561183e57838573ffffffffffffffffffffffffffffffffffffffff168273ffffffffffffffffffffffffffffffffffffffff167f8c5be1e5ebec7d5bd14f71427d1e84f3dd0314c0f7b2291e5b200ac8c7c3b92560405160405180910390a45b505b836004600085815260200190815260200160002060006101000a81548173ffffffffffffffffffffffffffffffffffffffff021916908373ffffffffffffffffffffffffffffffffffffffff16021790555050505050565b6118a3838383611aaf565b61195757600073ffffffffffffffffffffffffffffffffffffffff168373ffffffffffffffffffffffffffffffffffffffff160361191857806040517f7e27328900000000000000000000000000000000000000000000000000000000815260040161190f9190611e7e565b60405180910390fd5b81816040517f177e802f00000000000000000000000000000000000000000000000000000000815260040161194e929190612837565b60405180910390fd5b505050565b600080600090507a184f03e93ff9f4daa797ed6e38ed64bf6a1f01000000000000000083106119ba577a184f03e93ff9f4daa797ed6e38ed64bf6a1f01000000000000000083816119b0576119af612808565b5b0492506040810190505b6d04ee2d6d415b85acef810000000083106119f7576d04ee2d6d415b85acef810000000083816119ed576119ec612808565b5b0492506020810190505b662386f26fc100008310611a2657662386f26fc100008381611a1c57611a1b612808565b5b0492506010810190505b6305f5e1008310611a4f576305f5e1008381611a4557611a44612808565b5b0492506008810190505b6127108310611a74576127108381611a6a57611a69612808565b5b0492506004810190505b60648310611a975760648381611a8d57611a8c612808565b5b0492506002810190505b600a8310611aa6576001810190505b80915050919050565b60008073ffffffffffffffffffffffffffffffffffffffff168373ffffffffffffffffffffffffffffffffffffffff1614158015611b6757508273ffffffffffffffffffffffffffffffffffffffff168473ffffffffffffffffffffffffffffffffffffffff161480611b285750611b278484610d9b565b5b80611b6657508273ffffffffffffffffffffffffffffffffffffffff16611b4e83610f21565b73ffffffffffffffffffffffffffffffffffffffff16145b5b90509392505050565b6000604051905090565b600080fd5b600080fd5b60007fffffffff0000000000000000000000000000000000000000000000000000000082169050919050565b611bb981611b84565b8114611bc457600080fd5b50565b600081359050611bd681611bb0565b92915050565b600060208284031215611bf257611bf1611b7a565b5b6000611c0084828501611bc7565b91505092915050565b60008115159050919050565b611c1e81611c09565b82525050565b6000602082019050611c396000830184611c15565b92915050565b600081519050919050565b600082825260208201905092915050565b60005b83811015611c79578082015181840152602081019050611c5e565b60008484015250505050565b6000601f19601f8301169050919050565b6000611ca182611c3f565b611cab8185611c4a565b9350611cbb818560208601611c5b565b611cc481611c85565b840191505092915050565b60006020820190508181036000830152611ce98184611c96565b905092915050565b6000819050919050565b611d0481611cf1565b8114611d0f57600080fd5b50565b600081359050611d2181611cfb565b92915050565b600060208284031215611d3d57611d3c611b7a565b5b6000611d4b84828501611d12565b91505092915050565b600073ffffffffffffffffffffffffffffffffffffffff82169050919050565b6000611d7f82611d54565b9050919050565b611d8f81611d74565b82525050565b6000602082019050611daa6000830184611d86565b92915050565b611db981611d74565b8114611dc457600080fd5b50565b600081359050611dd681611db0565b92915050565b60008060408385031215611df357611df2611b7a565b5b6000611e0185828601611dc7565b9250506020611e1285828601611d12565b9150509250929050565b600080600060608486031215611e3557611e34611b7a565b5b6000611e4386828701611dc7565b9350506020611e5486828701611dc7565b9250506040611e6586828701611d12565b9150509250925092565b611e7881611cf1565b82525050565b6000602082019050611e936000830184611e6f565b92915050565b600060208284031215611eaf57611eae611b7a565b5b6000611ebd84828501611dc7565b91505092915050565b60006080820190508181036000830152611ee08187611c96565b90508181036020830152611ef48186611c96565b9050611f036040830185611d86565b611f106060830184611e6f565b95945050505050565b611f2281611c09565b8114611f2d57600080fd5b50565b600081359050611f3f81611f19565b92915050565b60008060408385031215611f5c57611f5b611b7a565b5b6000611f6a85828601611dc7565b9250506020611f7b85828601611f30565b9150509250929050565b600080fd5b600080fd5b7f4e487b7100000000000000000000000000000000000000000000000000000000600052604160045260246000fd5b611fc782611c85565b810181811067ffffffffffffffff82111715611fe657611fe5611f8f565b5b80604052505050565b6000611ff9611b70565b90506120058282611fbe565b919050565b600067ffffffffffffffff82111561202557612024611f8f565b5b61202e82611c85565b9050602081019050919050565b82818337600083830152505050565b600061205d6120588461200a565b611fef565b90508281526020810184848401111561207957612078611f8a565b5b61208484828561203b565b509392505050565b600082601f8301126120a1576120a0611f85565b5b81356120b184826020860161204a565b91505092915050565b600080600080608085870312156120d4576120d3611b7a565b5b60006120e287828801611dc7565b94505060206120f387828801611dc7565b935050604061210487828801611d12565b925050606085013567ffffffffffffffff81111561212557612124611b7f565b5b6121318782880161208c565b91505092959194509250565b600067ffffffffffffffff82111561215857612157611f8f565b5b61216182611c85565b9050602081019050919050565b600061218161217c8461213d565b611fef565b90508281526020810184848401111561219d5761219c611f8a565b5b6121a884828561203b565b509392505050565b600082601f8301126121c5576121c4611f85565b5b81356121d584826020860161216e565b91505092915050565b600080604083850312156121f5576121f4611b7a565b5b600083013567ffffffffffffffff81111561221357612212611b7f565b5b61221f858286016121b0565b925050602083013567ffffffffffffffff8111156122405761223f611b7f565b5b61224c858286016121b0565b9150509250929050565b6000806040838503121561226d5761226c611b7a565b5b600061227b85828601611dc7565b925050602061228c85828601611dc7565b9150509250929050565b7f4e487b7100000000000000000000000000000000000000000000000000000000600052602260045260246000fd5b600060028204905060018216806122dd57607f821691505b6020821081036122f0576122ef612296565b5b50919050565b600060608201905061230b6000830186611d86565b6123186020830185611e6f565b6123256040830184611d86565b949350505050565b7f50726f6f6620646f6573206e6f74206578697374000000000000000000000000600082015250565b6000612363601483611c4a565b915061236e8261232d565b602082019050919050565b6000602082019050818103600083015261239281612356565b9050919050565b600060408201905081810360008301526123b38185611c96565b905081810360208301526123c78184611c96565b90509392505050565b7f4e487b7100000000000000000000000000000000000000000000000000000000600052601160045260246000fd5b600061240a82611cf1565b91507fffffffffffffffffffffffffffffffffffffffffffffffffffffffffffffffff820361243c5761243b6123d0565b5b600182019050919050565b60008190508160005260206000209050919050565b60006020601f8301049050919050565b600082821b905092915050565b6000600883026124a97fffffffffffffffffffffffffffffffffffffffffffffffffffffffffffffffff8261246c565b6124b3868361246c565b95508019841693508086168417925050509392505050565b6000819050919050565b60006124f06124eb6124e684611cf1565b6124cb565b611cf1565b9050919050565b6000819050919050565b61250a836124d5565b61251e612516826124f7565b848454612479565b825550505050565b600090565b612533612526565b61253e818484612501565b505050565b5b818110156125625761255760008261252b565b600181019050612544565b5050565b601f8211156125a75761257881612447565b6125818461245c565b81016020851015612590578190505b6125a461259c8561245c565b830182612543565b50505b505050565b600082821c905092915050565b60006125ca600019846008026125ac565b1980831691505092915050565b60006125e383836125b9565b9150826002028217905092915050565b6125fc82611c3f565b67ffffffffffffffff81111561261557612614611f8f565b5b61261f82546122c5565b61262a828285612566565b600060209050601f83116001811461265d576000841561264b578287015190505b61265585826125d7565b8655506126bd565b601f19841661266b86612447565b60005b828110156126935784890151825560018201915060208501945060208101905061266e565b868310156126b057848901516126ac601f8916826125b9565b8355505b6001600288020188555050505b505050505050565b600081905092915050565b60006126db82611c3f565b6126e581856126c5565b93506126f5818560208601611c5b565b80840191505092915050565b600061270d82856126d0565b915061271982846126d0565b91508190509392505050565b600081519050919050565b600082825260208201905092915050565b600061274c82612725565b6127568185612730565b9350612766818560208601611c5b565b61276f81611c85565b840191505092915050565b600060808201905061278f6000830187611d86565b61279c6020830186611d86565b6127a96040830185611e6f565b81810360608301526127bb8184612741565b905095945050505050565b6000815190506127d581611bb0565b92915050565b6000602082840312156127f1576127f0611b7a565b5b60006127ff848285016127c6565b91505092915050565b7f4e487b7100000000000000000000000000000000000000000000000000000000600052601260045260246000fd5b600060408201905061284c6000830185611d86565b6128596020830184611e6f565b939250505056fea26469706673582212203ecfc60cef2cbeaf80bcfad50a62ee1e4f403d59b6c1493bdabba2ad76edbf4164736f6c63430008180033",
  "linkReferences": {},
  "deployedLinkReferences": {}
}