{
  "_format": "hh-sol-artifact-1",
  "contractName": "Notes256",
  "sourceName": "contracts/Notes256.sol",
  "abi": [
    {
      "inputs": [],
      "stateMutability": "nonpayable",
      "type": "constructor"
    },
    {
      "inputs": [
        {
          "internalType": "address",
          "name": "sender",
          "type": "address"
        },
        {
          "internalType": "uint256",
          "name": "tokenId",
          "type": "uint256"
        },
        {
          "internalType": "address",
          "name": "owner",
          "type": "address"
        }
      ],
      "name": "ERC721IncorrectOwner",
      "type": "error"
    },
    {
      "inputs": [
        {
          "internalType": "address",
          "name": "operator",
          "type": "address"
        },
        {
          "internalType": "uint256",
          "name": "tokenId",
          "type": "uint256"
        }
      ],
      "name": "ERC721InsufficientApproval",
      "type": "error"
    },
    {
      "inputs": [
        {
          "internalType": "address",
          "name": "approver",
          "type": "address"
        }
      ],
      "name": "ERC721InvalidApprover",
      "type": "error"
    },
    {
      "inputs": [
        {
          "internalType": "address",
          "name": "operator",
          "type": "address"
        }
      ],
      "name": "ERC721InvalidOperator",
      "type": "error"
    },
    {
      "inputs": [
        {
          "internalType": "address",
          "name": "owner",
          "type": "address"
        }
      ],
      "name": "ERC721InvalidOwner",
      "type": "error"
    },
    {
      "inputs": [
        {
          "internalType": "address",
          "name": "receiver",
          "type": "address"
        }
      ],
      "name": "ERC721InvalidReceiver",
      "type": "error"
    },
    {
      "inputs": [
        {
          "internalType": "address",
          "name": "sender",
          "type": "address"
        }
      ],
      "name": "ERC721InvalidSender",
      "type": "error"
    },
    {
      "inputs": [
        {
          "internalType": "uint256",
          "name": "tokenId",
          "type": "uint256"
        }
      ],
      "name": "ERC721NonexistentToken",
      "type": "error"
    },
    {
      "anonymous": false,
      "inputs": [
        {
          "indexed": true,
          "internalType": "address",
          "name": "owner",
          "type": "address"
        },
        {
          "indexed": true,
          "internalType": "address",
          "name": "approved",
          "type": "address"
        },
        {
          "indexed": true,
          "internalType": "uint256",
          "name": "tokenId",
          "type": "uint256"
        }
      ],
      "name": "Approval",
      "type": "event"
    },
    {
      "anonymous": false,
      "inputs": [
        {
          "indexed": true,
          "internalType": "address",
          "name": "owner",
          "type": "address"
        },
        {
          "indexed": true,
          "internalType": "address",
          "name": "operator",
          "type": "address"
        },
        {
          "indexed": false,
          "internalType": "bool",
          "name": "approved",
          "type": "bool"
        }
      ],
      "name": "ApprovalForAll",
      "type": "event"
    },
    {
      "anonymous": false,
      "inputs": [
        {
          "indexed": false,
          "internalType": "uint256",
          "name": "_fromTokenId",
          "type": "uint256"
        },
        {
          "indexed": false,
          "internalType": "uint256",
          "name": "_toTokenId",
          "type": "uint256"
        }
      ],
      "name": "BatchMetadataUpdate",
      "type": "event"
    },
    {
      "anonymous": false,
      "inputs": [
        {
          "indexed": false,
          "internalType": "uint256",
          "name": "_tokenId",
          "type": "uint256"
        }
      ],
      "name": "MetadataUpdate",
      "type": "event"
    },
    {
      "anonymous": false,
      "inputs": [
        {
          "indexed": true,
          "internalType": "uint256",
          "name": "tokenId",
          "type": "uint256"
        },
        {
          "indexed": false,
          "internalType": "string",
          "name": "name",
          "type": "string"
        },
        {
          "indexed": false,
          "internalType": "string",
          "name": "content",
          "type": "string"
        }
      ],
      "name": "NoteCreated",
      "type": "event"
    },
    {
      "anonymous": false,
      "inputs": [
        {
          "indexed": true,
          "internalType": "uint256",
          "name": "tokenId",
          "type": "uint256"
        }
      ],
      "name": "NoteDeleted",
      "type": "event"
    },
    {
      "anonymous": false,
      "inputs": [
        {
          "indexed": true,
          "internalType": "uint256",
          "name": "tokenId",
          "type": "uint256"
        },
        {
          "indexed": true,
          "internalType": "address",
          "name": "from",
          "type": "address"
        },
        {
          "indexed": true,
          "internalType": "address",
          "name": "to",
          "type": "address"
        }
      ],
      "name": "NoteTransfered",
      "type": "event"
    },
    {
      "anonymous": false,
      "inputs": [
        {
          "indexed": true,
          "internalType": "uint256",
          "name": "tokenId",
          "type": "uint256"
        },
        {
          "indexed": false,
          "internalType": "string",
          "name": "name",
          "type": "string"
        },
        {
          "indexed": false,
          "internalType": "string",
          "name": "content",
          "type": "string"
        }
      ],
      "name": "NoteUpdated",
      "type": "event"
    },
    {
      "anonymous": false,
      "inputs": [
        {
          "indexed": true,
          "internalType": "address",
          "name": "from",
          "type": "address"
        },
        {
          "indexed": true,
          "internalType": "address",
          "name": "to",
          "type": "address"
        },
        {
          "indexed": true,
          "internalType": "uint256",
          "name": "tokenId",
          "type": "uint256"
        }
      ],
      "name": "Transfer",
      "type": "event"
    },
    {
      "inputs": [
        {
          "internalType": "address",
          "name": "to",
          "type": "address"
        },
        {
          "internalType": "uint256",
          "name": "tokenId",
          "type": "uint256"
        }
      ],
      "name": "approve",
      "outputs": [],
      "stateMutability": "nonpayable",
      "type": "function"
    },
    {
      "inputs": [
        {
          "internalType": "address",
          "name": "owner",
          "type": "address"
        }
      ],
      "name": "balanceOf",
      "outputs": [
        {
          "internalType": "uint256",
          "name": "",
          "type": "uint256"
        }
      ],
      "stateMutability": "view",
      "type": "function"
    },
    {
      "inputs": [
        {
          "internalType": "uint256",
          "name": "tokenId",
          "type": "uint256"
        }
      ],
      "name": "burn",
      "outputs": [],
      "stateMutability": "nonpayable",
      "type": "function"
    },
    {
      "inputs": [
        {
          "internalType": "string",
          "name": "_name",
          "type": "string"
        },
        {
          "internalType": "string",
          "name": "_content",
          "type": "string"
        },
        {
          "internalType": "string",
          "name": "_tokenURI",
          "type": "string"
        }
      ],
      "name": "createNote",
      "outputs": [],
      "stateMutability": "nonpayable",
      "type": "function"
    },
    {
      "inputs": [
        {
          "internalType": "uint256",
          "name": "_tokenId",
          "type": "uint256"
        }
      ],
      "name": "deleteNote",
      "outputs": [],
      "stateMutability": "nonpayable",
      "type": "function"
    },
    {
      "inputs": [
        {
          "internalType": "uint256",
          "name": "tokenId",
          "type": "uint256"
        }
      ],
      "name": "getApproved",
      "outputs": [
        {
          "internalType": "address",
          "name": "",
          "type": "address"
        }
      ],
      "stateMutability": "view",
      "type": "function"
    },
    {
      "inputs": [
        {
          "internalType": "address",
          "name": "owner",
          "type": "address"
        },
        {
          "internalType": "address",
          "name": "operator",
          "type": "address"
        }
      ],
      "name": "isApprovedForAll",
      "outputs": [
        {
          "internalType": "bool",
          "name": "",
          "type": "bool"
        }
      ],
      "stateMutability": "view",
      "type": "function"
    },
    {
      "inputs": [],
      "name": "lastTokenId",
      "outputs": [
        {
          "internalType": "uint256",
          "name": "",
          "type": "uint256"
        }
      ],
      "stateMutability": "view",
      "type": "function"
    },
    {
      "inputs": [],
      "name": "name",
      "outputs": [
        {
          "internalType": "string",
          "name": "",
          "type": "string"
        }
      ],
      "stateMutability": "view",
      "type": "function"
    },
    {
      "inputs": [
        {
          "internalType": "uint256",
          "name": "",
          "type": "uint256"
        }
      ],
      "name": "notes",
      "outputs": [
        {
          "internalType": "bytes32",
          "name": "id",
          "type": "bytes32"
        },
        {
          "internalType": "string",
          "name": "title",
          "type": "string"
        },
        {
          "internalType": "string",
          "name": "content",
          "type": "string"
        },
        {
          "internalType": "uint256",
          "name": "timestamp",
          "type": "uint256"
        }
      ],
      "stateMutability": "view",
      "type": "function"
    },
    {
      "inputs": [
        {
          "internalType": "bytes32",
          "name": "",
          "type": "bytes32"
        }
      ],
      "name": "notesIds",
      "outputs": [
        {
          "internalType": "uint256",
          "name": "",
          "type": "uint256"
        }
      ],
      "stateMutability": "view",
      "type": "function"
    },
    {
      "inputs": [
        {
          "internalType": "uint256",
          "name": "tokenId",
          "type": "uint256"
        }
      ],
      "name": "ownerOf",
      "outputs": [
        {
          "internalType": "address",
          "name": "",
          "type": "address"
        }
      ],
      "stateMutability": "view",
      "type": "function"
    },
    {
      "inputs": [
        {
          "internalType": "address",
          "name": "from",
          "type": "address"
        },
        {
          "internalType": "address",
          "name": "to",
          "type": "address"
        },
        {
          "internalType": "uint256",
          "name": "tokenId",
          "type": "uint256"
        }
      ],
      "name": "safeTransferFrom",
      "outputs": [],
      "stateMutability": "nonpayable",
      "type": "function"
    },
    {
      "inputs": [
        {
          "internalType": "address",
          "name": "from",
          "type": "address"
        },
        {
          "internalType": "address",
          "name": "to",
          "type": "address"
        },
        {
          "internalType": "uint256",
          "name": "tokenId",
          "type": "uint256"
        },
        {
          "internalType": "bytes",
          "name": "data",
          "type": "bytes"
        }
      ],
      "name": "safeTransferFrom",
      "outputs": [],
      "stateMutability": "nonpayable",
      "type": "function"
    },
    {
      "inputs": [
        {
          "internalType": "address",
          "name": "operator",
          "type": "address"
        },
        {
          "internalType": "bool",
          "name": "approved",
          "type": "bool"
        }
      ],
      "name": "setApprovalForAll",
      "outputs": [],
      "stateMutability": "nonpayable",
      "type": "function"
    },
    {
      "inputs": [
        {
          "internalType": "bytes4",
          "name": "interfaceId",
          "type": "bytes4"
        }
      ],
      "name": "supportsInterface",
      "outputs": [
        {
          "internalType": "bool",
          "name": "",
          "type": "bool"
        }
      ],
      "stateMutability": "view",
      "type": "function"
    },
    {
      "inputs": [],
      "name": "symbol",
      "outputs": [
        {
          "internalType": "string",
          "name": "",
          "type": "string"
        }
      ],
      "stateMutability": "view",
      "type": "function"
    },
    {
      "inputs": [
        {
          "internalType": "uint256",
          "name": "tokenId",
          "type": "uint256"
        }
      ],
      "name": "tokenURI",
      "outputs": [
        {
          "internalType": "string",
          "name": "",
          "type": "string"
        }
      ],
      "stateMutability": "view",
      "type": "function"
    },
    {
      "inputs": [
        {
          "internalType": "address",
          "name": "from",
          "type": "address"
        },
        {
          "internalType": "address",
          "name": "to",
          "type": "address"
        },
        {
          "internalType": "uint256",
          "name": "tokenId",
          "type": "uint256"
        }
      ],
      "name": "transferFrom",
      "outputs": [],
      "stateMutability": "nonpayable",
      "type": "function"
    },
    {
      "inputs": [
        {
          "internalType": "address",
          "name": "to",
          "type": "address"
        },
        {
          "internalType": "uint256",
          "name": "_tokenId",
          "type": "uint256"
        }
      ],
      "name": "transferNote",
      "outputs": [],
      "stateMutability": "nonpayable",
      "type": "function"
    },
    {
      "inputs": [
        {
          "internalType": "uint256",
          "name": "_tokenId",
          "type": "uint256"
        },
        {
          "internalType": "string",
          "name": "_title",
          "type": "string"
        },
        {
          "internalType": "string",
          "name": "_content",
          "type": "string"
        }
      ],
      "name": "updateNote",
      "outputs": [],
      "stateMutability": "nonpayable",
      "type": "function"
    }
  ],
  "bytecode": "0x60806040523480156200001157600080fd5b506040518060400160405280600881526020017f4e6f7465733235360000000000000000000000000000000000000000000000008152506040518060400160405280600381526020017f4e5453000000000000000000000000000000000000000000000000000000000081525081600090816200008f919062000324565b508060019081620000a1919062000324565b5050506200040b565b600081519050919050565b7f4e487b7100000000000000000000000000000000000000000000000000000000600052604160045260246000fd5b7f4e487b7100000000000000000000000000000000000000000000000000000000600052602260045260246000fd5b600060028204905060018216806200012c57607f821691505b602082108103620001425762000141620000e4565b5b50919050565b60008190508160005260206000209050919050565b60006020601f8301049050919050565b600082821b905092915050565b600060088302620001ac7fffffffffffffffffffffffffffffffffffffffffffffffffffffffffffffffff826200016d565b620001b886836200016d565b95508019841693508086168417925050509392505050565b6000819050919050565b6000819050919050565b600062000205620001ff620001f984620001d0565b620001da565b620001d0565b9050919050565b6000819050919050565b6200022183620001e4565b6200023962000230826200020c565b8484546200017a565b825550505050565b600090565b6200025062000241565b6200025d81848462000216565b505050565b5b8181101562000285576200027960008262000246565b60018101905062000263565b5050565b601f821115620002d4576200029e8162000148565b620002a9846200015d565b81016020851015620002b9578190505b620002d1620002c8856200015d565b83018262000262565b50505b505050565b600082821c905092915050565b6000620002f960001984600802620002d9565b1980831691505092915050565b6000620003148383620002e6565b9150826002028217905092915050565b6200032f82620000aa565b67ffffffffffffffff8111156200034b576200034a620000b5565b5b62000357825462000113565b6200036482828562000289565b600060209050601f8311600181146200039c576000841562000387578287015190505b62000393858262000306565b86555062000403565b601f198416620003ac8662000148565b60005b82811015620003d657848901518255600182019150602085019450602081019050620003af565b86831015620003f65784890151620003f2601f891682620002e6565b8355505b6001600288020188555050505b505050505050565b612da4806200041b6000396000f3fe608060405234801561001057600080fd5b50600436106101375760003560e01c80636352211e116100b8578063b88d4fde1161007c578063b88d4fde1461035f578063c47177f41461037b578063c87b56dd14610397578063e985e9c5146103c7578063f84ddf0b146103f7578063ffe657491461041557610137565b80636352211e1461029557806370a08231146102c55780637ffcb16c146102f557806395d89b4114610325578063a22cb4651461034357610137565b806323b872dd116100ff57806323b872dd146101f25780632db338641461020e57806342842e0e1461022a57806342966c681461024657806361c3a7e61461026257610137565b806301ffc9a71461013c57806306fdde031461016c578063081812fc1461018a578063095ea7b3146101ba57806309abcd3b146101d6575b600080fd5b61015660048036038101906101519190611e9d565b610431565b6040516101639190611ee5565b60405180910390f35b610174610443565b6040516101819190611f90565b60405180910390f35b6101a4600480360381019061019f9190611fe8565b6104d5565b6040516101b19190612056565b60405180910390f35b6101d460048036038101906101cf919061209d565b6104f1565b005b6101f060048036038101906101eb9190612212565b610507565b005b61020c6004803603810190610207919061229d565b61065d565b005b6102286004803603810190610223919061209d565b61075f565b005b610244600480360381019061023f919061229d565b6107c9565b005b610260600480360381019061025b9190611fe8565b6107e9565b005b61027c60048036038101906102779190611fe8565b610800565b60405161028c9493929190612318565b60405180910390f35b6102af60048036038101906102aa9190611fe8565b610940565b6040516102bc9190612056565b60405180910390f35b6102df60048036038101906102da919061236b565b610952565b6040516102ec9190612398565b60405180910390f35b61030f600480360381019061030a91906123df565b610a0c565b60405161031c9190612398565b60405180910390f35b61032d610a24565b60405161033a9190611f90565b60405180910390f35b61035d60048036038101906103589190612438565b610ab6565b005b61037960048036038101906103749190612519565b610acc565b005b61039560048036038101906103909190611fe8565b610ae9565b005b6103b160048036038101906103ac9190611fe8565b610b22565b6040516103be9190611f90565b60405180910390f35b6103e160048036038101906103dc919061259c565b610b34565b6040516103ee9190611ee5565b60405180910390f35b6103ff610bc8565b60405161040c9190612398565b60405180910390f35b61042f600480360381019061042a91906125dc565b610bce565b005b600061043c82610d9b565b9050919050565b606060008054610452906126b2565b80601f016020809104026020016040519081016040528092919081815260200182805461047e906126b2565b80156104cb5780601f106104a0576101008083540402835291602001916104cb565b820191906000526020600020905b8154815290600101906020018083116104ae57829003601f168201915b5050505050905090565b60006104e082610dfc565b506104ea82610e84565b9050919050565b61050382826104fe610ec1565b610ec9565b5050565b3373ffffffffffffffffffffffffffffffffffffffff1661052784610940565b73ffffffffffffffffffffffffffffffffffffffff161461057d576040517f08c379a00000000000000000000000000000000000000000000000000000000081526004016105749061272f565b60405180910390fd5b60006007600085815260200190815260200160002060030154036105d6576040517f08c379a00000000000000000000000000000000000000000000000000000000081526004016105cd9061279b565b60405180910390fd5b816007600085815260200190815260200160002060010190816105f99190612967565b508060076000858152602001908152602001600020600201908161061d9190612967565b50827ff0632914d6d637e9a214fc715dc019e425c105498ffe6fed5e8597ed4920e9c88383604051610650929190612a39565b60405180910390a2505050565b600073ffffffffffffffffffffffffffffffffffffffff168273ffffffffffffffffffffffffffffffffffffffff16036106cf5760006040517f64a0ae920000000000000000000000000000000000000000000000000000000081526004016106c69190612056565b60405180910390fd5b60006106e383836106de610ec1565b610edb565b90508373ffffffffffffffffffffffffffffffffffffffff168173ffffffffffffffffffffffffffffffffffffffff1614610759578382826040517f64283d7b00000000000000000000000000000000000000000000000000000000815260040161075093929190612a70565b60405180910390fd5b50505050565b61076a3383836107c9565b8173ffffffffffffffffffffffffffffffffffffffff163373ffffffffffffffffffffffffffffffffffffffff16827fd4f6512e9f51f51f993c331d47fd72d3a549b0c0bc1c99556d98edb66e76690060405160405180910390a45050565b6107e483838360405180602001604052806000815250610acc565b505050565b6107fc6000826107f7610ec1565b610edb565b5050565b6007602052806000526040600020600091509050806000015490806001018054610829906126b2565b80601f0160208091040260200160405190810160405280929190818152602001828054610855906126b2565b80156108a25780601f10610877576101008083540402835291602001916108a2565b820191906000526020600020905b81548152906001019060200180831161088557829003601f168201915b5050505050908060020180546108b7906126b2565b80601f01602080910402602001604051908101604052809291908181526020018280546108e3906126b2565b80156109305780601f1061090557610100808354040283529160200191610930565b820191906000526020600020905b81548152906001019060200180831161091357829003601f168201915b5050505050908060030154905084565b600061094b82610dfc565b9050919050565b60008073ffffffffffffffffffffffffffffffffffffffff168273ffffffffffffffffffffffffffffffffffffffff16036109c55760006040517f89c62b640000000000000000000000000000000000000000000000000000000081526004016109bc9190612056565b60405180910390fd5b600360008373ffffffffffffffffffffffffffffffffffffffff1673ffffffffffffffffffffffffffffffffffffffff168152602001908152602001600020549050919050565b60086020528060005260406000206000915090505481565b606060018054610a33906126b2565b80601f0160208091040260200160405190810160405280929190818152602001828054610a5f906126b2565b8015610aac5780601f10610a8157610100808354040283529160200191610aac565b820191906000526020600020905b815481529060010190602001808311610a8f57829003601f168201915b5050505050905090565b610ac8610ac1610ec1565b83836110f5565b5050565b610ad784848461065d565b610ae384848484611264565b50505050565b610af2816107e9565b807f89af6ba62ab348dc535a3187c267090f834c868a3820cd552a7110c3dc3eedb860405160405180910390a250565b6060610b2d8261141b565b9050919050565b6000600560008473ffffffffffffffffffffffffffffffffffffffff1673ffffffffffffffffffffffffffffffffffffffff16815260200190815260200160002060008373ffffffffffffffffffffffffffffffffffffffff1673ffffffffffffffffffffffffffffffffffffffff16815260200190815260200160002060009054906101000a900460ff16905092915050565b60095481565b60008242604051602001610be3929190612b04565b6040516020818303038152906040528051906020012090506000600860008381526020019081526020016000205490506000811480610c565750600073ffffffffffffffffffffffffffffffffffffffff16610c3e8261152e565b73ffffffffffffffffffffffffffffffffffffffff16145b610c95576040517f08c379a0000000000000000000000000000000000000000000000000000000008152600401610c8c90612b78565b60405180910390fd5b60096000815480929190610ca890612bc7565b9190505550604051806080016040528083815260200186815260200185815260200142815250600760006009548152602001908152602001600020600082015181600001556020820151816001019081610d029190612967565b506040820151816002019081610d189190612967565b50606082015181600301559050506009546008600084815260200190815260200160002081905550610d4c3360095461156b565b610d5860095484611589565b6009547f7b17cec98a34b9bfb820ec7d14bde246bd07fe7d020da060964a681219ce97258686604051610d8c929190612a39565b60405180910390a25050505050565b6000634906490660e01b7bffffffffffffffffffffffffffffffffffffffffffffffffffffffff1916827bffffffffffffffffffffffffffffffffffffffffffffffffffffffff19161480610df55750610df4826115e5565b5b9050919050565b600080610e088361152e565b9050600073ffffffffffffffffffffffffffffffffffffffff168173ffffffffffffffffffffffffffffffffffffffff1603610e7b57826040517f7e273289000000000000000000000000000000000000000000000000000000008152600401610e729190612398565b60405180910390fd5b80915050919050565b60006004600083815260200190815260200160002060009054906101000a900473ffffffffffffffffffffffffffffffffffffffff169050919050565b600033905090565b610ed683838360016116c7565b505050565b600080610ee78461152e565b9050600073ffffffffffffffffffffffffffffffffffffffff168373ffffffffffffffffffffffffffffffffffffffff1614610f2957610f2881848661188c565b5b600073ffffffffffffffffffffffffffffffffffffffff168173ffffffffffffffffffffffffffffffffffffffff1614610fba57610f6b6000856000806116c7565b6001600360008373ffffffffffffffffffffffffffffffffffffffff1673ffffffffffffffffffffffffffffffffffffffff168152602001908152602001600020600082825403925050819055505b600073ffffffffffffffffffffffffffffffffffffffff168573ffffffffffffffffffffffffffffffffffffffff161461103d576001600360008773ffffffffffffffffffffffffffffffffffffffff1673ffffffffffffffffffffffffffffffffffffffff168152602001908152602001600020600082825401925050819055505b846002600086815260200190815260200160002060006101000a81548173ffffffffffffffffffffffffffffffffffffffff021916908373ffffffffffffffffffffffffffffffffffffffff160217905550838573ffffffffffffffffffffffffffffffffffffffff168273ffffffffffffffffffffffffffffffffffffffff167fddf252ad1be2c89b69c2b068fc378daa952ba7f163c4a11628f55a4df523b3ef60405160405180910390a4809150509392505050565b600073ffffffffffffffffffffffffffffffffffffffff168273ffffffffffffffffffffffffffffffffffffffff160361116657816040517f5b08ba1800000000000000000000000000000000000000000000000000000000815260040161115d9190612056565b60405180910390fd5b80600560008573ffffffffffffffffffffffffffffffffffffffff1673ffffffffffffffffffffffffffffffffffffffff16815260200190815260200160002060008473ffffffffffffffffffffffffffffffffffffffff1673ffffffffffffffffffffffffffffffffffffffff16815260200190815260200160002060006101000a81548160ff0219169083151502179055508173ffffffffffffffffffffffffffffffffffffffff168373ffffffffffffffffffffffffffffffffffffffff167f17307eab39ab6107e8899845ad3d59bd9653f200f220920489ca2b5937696c31836040516112579190611ee5565b60405180910390a3505050565b60008373ffffffffffffffffffffffffffffffffffffffff163b1115611415578273ffffffffffffffffffffffffffffffffffffffff1663150b7a026112a8610ec1565b8685856040518563ffffffff1660e01b81526004016112ca9493929190612c64565b6020604051808303816000875af192505050801561130657506040513d601f19601f820116820180604052508101906113039190612cc5565b60015b61138a573d8060008114611336576040519150601f19603f3d011682016040523d82523d6000602084013e61133b565b606091505b50600081510361138257836040517f64a0ae920000000000000000000000000000000000000000000000000000000081526004016113799190612056565b60405180910390fd5b805181602001fd5b63150b7a0260e01b7bffffffffffffffffffffffffffffffffffffffffffffffffffffffff1916817bffffffffffffffffffffffffffffffffffffffffffffffffffffffff19161461141357836040517f64a0ae9200000000000000000000000000000000000000000000000000000000815260040161140a9190612056565b60405180910390fd5b505b50505050565b606061142682610dfc565b506000600660008481526020019081526020016000208054611447906126b2565b80601f0160208091040260200160405190810160405280929190818152602001828054611473906126b2565b80156114c05780601f10611495576101008083540402835291602001916114c0565b820191906000526020600020905b8154815290600101906020018083116114a357829003601f168201915b5050505050905060006114d1611950565b905060008151036114e6578192505050611529565b60008251111561151b578082604051602001611503929190612cf2565b60405160208183030381529060405292505050611529565b61152484611967565b925050505b919050565b60006002600083815260200190815260200160002060009054906101000a900473ffffffffffffffffffffffffffffffffffffffff169050919050565b6115858282604051806020016040528060008152506119d0565b5050565b806006600084815260200190815260200160002090816115a99190612967565b507ff8e1a15aba9398e019f0b49df1a4fde98ee17ae345cb5f6b5e2c27f5033e8ce7826040516115d99190612398565b60405180910390a15050565b60007f80ac58cd000000000000000000000000000000000000000000000000000000007bffffffffffffffffffffffffffffffffffffffffffffffffffffffff1916827bffffffffffffffffffffffffffffffffffffffffffffffffffffffff191614806116b057507f5b5e139f000000000000000000000000000000000000000000000000000000007bffffffffffffffffffffffffffffffffffffffffffffffffffffffff1916827bffffffffffffffffffffffffffffffffffffffffffffffffffffffff1916145b806116c057506116bf826119ec565b5b9050919050565b80806117005750600073ffffffffffffffffffffffffffffffffffffffff168273ffffffffffffffffffffffffffffffffffffffff1614155b1561183457600061171084610dfc565b9050600073ffffffffffffffffffffffffffffffffffffffff168373ffffffffffffffffffffffffffffffffffffffff161415801561177b57508273ffffffffffffffffffffffffffffffffffffffff168173ffffffffffffffffffffffffffffffffffffffff1614155b801561178e575061178c8184610b34565b155b156117d057826040517fa9fbf51f0000000000000000000000000000000000000000000000000000000081526004016117c79190612056565b60405180910390fd5b811561183257838573ffffffffffffffffffffffffffffffffffffffff168273ffffffffffffffffffffffffffffffffffffffff167f8c5be1e5ebec7d5bd14f71427d1e84f3dd0314c0f7b2291e5b200ac8c7c3b92560405160405180910390a45b505b836004600085815260200190815260200160002060006101000a81548173ffffffffffffffffffffffffffffffffffffffff021916908373ffffffffffffffffffffffffffffffffffffffff16021790555050505050565b611897838383611a56565b61194b57600073ffffffffffffffffffffffffffffffffffffffff168373ffffffffffffffffffffffffffffffffffffffff160361190c57806040517f7e2732890000000000000000000000000000000000000000000000000000000081526004016119039190612398565b60405180910390fd5b81816040517f177e802f000000000000000000000000000000000000000000000000000000008152600401611942929190612d16565b60405180910390fd5b505050565b606060405180602001604052806000815250905090565b606061197282610dfc565b50600061197d611950565b9050600081511161199d57604051806020016040528060008152506119c8565b806119a784611b17565b6040516020016119b8929190612cf2565b6040516020818303038152906040525b915050919050565b6119da8383611be5565b6119e76000848484611264565b505050565b60007f01ffc9a7000000000000000000000000000000000000000000000000000000007bffffffffffffffffffffffffffffffffffffffffffffffffffffffff1916827bffffffffffffffffffffffffffffffffffffffffffffffffffffffff1916149050919050565b60008073ffffffffffffffffffffffffffffffffffffffff168373ffffffffffffffffffffffffffffffffffffffff1614158015611b0e57508273ffffffffffffffffffffffffffffffffffffffff168473ffffffffffffffffffffffffffffffffffffffff161480611acf5750611ace8484610b34565b5b80611b0d57508273ffffffffffffffffffffffffffffffffffffffff16611af583610e84565b73ffffffffffffffffffffffffffffffffffffffff16145b5b90509392505050565b606060006001611b2684611cde565b01905060008167ffffffffffffffff811115611b4557611b446120e7565b5b6040519080825280601f01601f191660200182016040528015611b775781602001600182028036833780820191505090505b509050600082602001820190505b600115611bda578080600190039150507f3031323334353637383961626364656600000000000000000000000000000000600a86061a8153600a8581611bce57611bcd612d3f565b5b04945060008503611b85575b819350505050919050565b600073ffffffffffffffffffffffffffffffffffffffff168273ffffffffffffffffffffffffffffffffffffffff1603611c575760006040517f64a0ae92000000000000000000000000000000000000000000000000000000008152600401611c4e9190612056565b60405180910390fd5b6000611c6583836000610edb565b9050600073ffffffffffffffffffffffffffffffffffffffff168173ffffffffffffffffffffffffffffffffffffffff1614611cd95760006040517f73c6ac6e000000000000000000000000000000000000000000000000000000008152600401611cd09190612056565b60405180910390fd5b505050565b600080600090507a184f03e93ff9f4daa797ed6e38ed64bf6a1f0100000000000000008310611d3c577a184f03e93ff9f4daa797ed6e38ed64bf6a1f0100000000000000008381611d3257611d31612d3f565b5b0492506040810190505b6d04ee2d6d415b85acef81000000008310611d79576d04ee2d6d415b85acef81000000008381611d6f57611d6e612d3f565b5b0492506020810190505b662386f26fc100008310611da857662386f26fc100008381611d9e57611d9d612d3f565b5b0492506010810190505b6305f5e1008310611dd1576305f5e1008381611dc757611dc6612d3f565b5b0492506008810190505b6127108310611df6576127108381611dec57611deb612d3f565b5b0492506004810190505b60648310611e195760648381611e0f57611e0e612d3f565b5b0492506002810190505b600a8310611e28576001810190505b80915050919050565b6000604051905090565b600080fd5b600080fd5b60007fffffffff0000000000000000000000000000000000000000000000000000000082169050919050565b611e7a81611e45565b8114611e8557600080fd5b50565b600081359050611e9781611e71565b92915050565b600060208284031215611eb357611eb2611e3b565b5b6000611ec184828501611e88565b91505092915050565b60008115159050919050565b611edf81611eca565b82525050565b6000602082019050611efa6000830184611ed6565b92915050565b600081519050919050565b600082825260208201905092915050565b60005b83811015611f3a578082015181840152602081019050611f1f565b60008484015250505050565b6000601f19601f8301169050919050565b6000611f6282611f00565b611f6c8185611f0b565b9350611f7c818560208601611f1c565b611f8581611f46565b840191505092915050565b60006020820190508181036000830152611faa8184611f57565b905092915050565b6000819050919050565b611fc581611fb2565b8114611fd057600080fd5b50565b600081359050611fe281611fbc565b92915050565b600060208284031215611ffe57611ffd611e3b565b5b600061200c84828501611fd3565b91505092915050565b600073ffffffffffffffffffffffffffffffffffffffff82169050919050565b600061204082612015565b9050919050565b61205081612035565b82525050565b600060208201905061206b6000830184612047565b92915050565b61207a81612035565b811461208557600080fd5b50565b60008135905061209781612071565b92915050565b600080604083850312156120b4576120b3611e3b565b5b60006120c285828601612088565b92505060206120d385828601611fd3565b9150509250929050565b600080fd5b600080fd5b7f4e487b7100000000000000000000000000000000000000000000000000000000600052604160045260246000fd5b61211f82611f46565b810181811067ffffffffffffffff8211171561213e5761213d6120e7565b5b80604052505050565b6000612151611e31565b905061215d8282612116565b919050565b600067ffffffffffffffff82111561217d5761217c6120e7565b5b61218682611f46565b9050602081019050919050565b82818337600083830152505050565b60006121b56121b084612162565b612147565b9050828152602081018484840111156121d1576121d06120e2565b5b6121dc848285612193565b509392505050565b600082601f8301126121f9576121f86120dd565b5b81356122098482602086016121a2565b91505092915050565b60008060006060848603121561222b5761222a611e3b565b5b600061223986828701611fd3565b935050602084013567ffffffffffffffff81111561225a57612259611e40565b5b612266868287016121e4565b925050604084013567ffffffffffffffff81111561228757612286611e40565b5b612293868287016121e4565b9150509250925092565b6000806000606084860312156122b6576122b5611e3b565b5b60006122c486828701612088565b93505060206122d586828701612088565b92505060406122e686828701611fd3565b9150509250925092565b6000819050919050565b612303816122f0565b82525050565b61231281611fb2565b82525050565b600060808201905061232d60008301876122fa565b818103602083015261233f8186611f57565b905081810360408301526123538185611f57565b90506123626060830184612309565b95945050505050565b60006020828403121561238157612380611e3b565b5b600061238f84828501612088565b91505092915050565b60006020820190506123ad6000830184612309565b92915050565b6123bc816122f0565b81146123c757600080fd5b50565b6000813590506123d9816123b3565b92915050565b6000602082840312156123f5576123f4611e3b565b5b6000612403848285016123ca565b91505092915050565b61241581611eca565b811461242057600080fd5b50565b6000813590506124328161240c565b92915050565b6000806040838503121561244f5761244e611e3b565b5b600061245d85828601612088565b925050602061246e85828601612423565b9150509250929050565b600067ffffffffffffffff821115612493576124926120e7565b5b61249c82611f46565b9050602081019050919050565b60006124bc6124b784612478565b612147565b9050828152602081018484840111156124d8576124d76120e2565b5b6124e3848285612193565b509392505050565b600082601f830112612500576124ff6120dd565b5b81356125108482602086016124a9565b91505092915050565b6000806000806080858703121561253357612532611e3b565b5b600061254187828801612088565b945050602061255287828801612088565b935050604061256387828801611fd3565b925050606085013567ffffffffffffffff81111561258457612583611e40565b5b612590878288016124eb565b91505092959194509250565b600080604083850312156125b3576125b2611e3b565b5b60006125c185828601612088565b92505060206125d285828601612088565b9150509250929050565b6000806000606084860312156125f5576125f4611e3b565b5b600084013567ffffffffffffffff81111561261357612612611e40565b5b61261f868287016121e4565b935050602084013567ffffffffffffffff8111156126405761263f611e40565b5b61264c868287016121e4565b925050604084013567ffffffffffffffff81111561266d5761266c611e40565b5b612679868287016121e4565b9150509250925092565b7f4e487b7100000000000000000000000000000000000000000000000000000000600052602260045260246000fd5b600060028204905060018216806126ca57607f821691505b6020821081036126dd576126dc612683565b5b50919050565b7f4163636573732064656e69656400000000000000000000000000000000000000600082015250565b6000612719600d83611f0b565b9150612724826126e3565b602082019050919050565b600060208201905081810360008301526127488161270c565b9050919050565b7f4e6f7465206e6f7420666f756e64000000000000000000000000000000000000600082015250565b6000612785600e83611f0b565b91506127908261274f565b602082019050919050565b600060208201905081810360008301526127b481612778565b9050919050565b60008190508160005260206000209050919050565b60006020601f8301049050919050565b600082821b905092915050565b60006008830261281d7fffffffffffffffffffffffffffffffffffffffffffffffffffffffffffffffff826127e0565b61282786836127e0565b95508019841693508086168417925050509392505050565b6000819050919050565b600061286461285f61285a84611fb2565b61283f565b611fb2565b9050919050565b6000819050919050565b61287e83612849565b61289261288a8261286b565b8484546127ed565b825550505050565b600090565b6128a761289a565b6128b2818484612875565b505050565b5b818110156128d6576128cb60008261289f565b6001810190506128b8565b5050565b601f82111561291b576128ec816127bb565b6128f5846127d0565b81016020851015612904578190505b612918612910856127d0565b8301826128b7565b50505b505050565b600082821c905092915050565b600061293e60001984600802612920565b1980831691505092915050565b6000612957838361292d565b9150826002028217905092915050565b61297082611f00565b67ffffffffffffffff811115612989576129886120e7565b5b61299382546126b2565b61299e8282856128da565b600060209050601f8311600181146129d157600084156129bf578287015190505b6129c9858261294b565b865550612a31565b601f1984166129df866127bb565b60005b82811015612a07578489015182556001820191506020850194506020810190506129e2565b86831015612a245784890151612a20601f89168261292d565b8355505b6001600288020188555050505b505050505050565b60006040820190508181036000830152612a538185611f57565b90508181036020830152612a678184611f57565b90509392505050565b6000606082019050612a856000830186612047565b612a926020830185612309565b612a9f6040830184612047565b949350505050565b600081905092915050565b6000612abd82611f00565b612ac78185612aa7565b9350612ad7818560208601611f1c565b80840191505092915050565b6000819050919050565b612afe612af982611fb2565b612ae3565b82525050565b6000612b108285612ab2565b9150612b1c8284612aed565b6020820191508190509392505050565b7f4e6f746520616c72656164792065786973747300000000000000000000000000600082015250565b6000612b62601383611f0b565b9150612b6d82612b2c565b602082019050919050565b60006020820190508181036000830152612b9181612b55565b9050919050565b7f4e487b7100000000000000000000000000000000000000000000000000000000600052601160045260246000fd5b6000612bd282611fb2565b91507fffffffffffffffffffffffffffffffffffffffffffffffffffffffffffffffff8203612c0457612c03612b98565b5b600182019050919050565b600081519050919050565b600082825260208201905092915050565b6000612c3682612c0f565b612c408185612c1a565b9350612c50818560208601611f1c565b612c5981611f46565b840191505092915050565b6000608082019050612c796000830187612047565b612c866020830186612047565b612c936040830185612309565b8181036060830152612ca58184612c2b565b905095945050505050565b600081519050612cbf81611e71565b92915050565b600060208284031215612cdb57612cda611e3b565b5b6000612ce984828501612cb0565b91505092915050565b6000612cfe8285612ab2565b9150612d0a8284612ab2565b91508190509392505050565b6000604082019050612d2b6000830185612047565b612d386020830184612309565b9392505050565b7f4e487b7100000000000000000000000000000000000000000000000000000000600052601260045260246000fdfea26469706673582212201c0c82bed3a1310ddd412f63a608c8b7ee64bf907b8d82d05cfdfb2608fba00d64736f6c63430008180033",
  "linkReferences": {},
  "deployedLinkReferences": {}
}