{
  "_format": "hh-sol-artifact-1",
  "contractName": "Provify",
  "sourceName": "contracts/Provify.sol",
  "abi": [
    {
      "inputs": [],
      "stateMutability": "nonpayable",
      "type": "constructor"
    },
    {
      "inputs": [
        {
          "internalType": "address",
          "name": "sender",
          "type": "address"
        },
        {
          "internalType": "uint256",
          "name": "tokenId",
          "type": "uint256"
        },
        {
          "internalType": "address",
          "name": "owner",
          "type": "address"
        }
      ],
      "name": "ERC721IncorrectOwner",
      "type": "error"
    },
    {
      "inputs": [
        {
          "internalType": "address",
          "name": "operator",
          "type": "address"
        },
        {
          "internalType": "uint256",
          "name": "tokenId",
          "type": "uint256"
        }
      ],
      "name": "ERC721InsufficientApproval",
      "type": "error"
    },
    {
      "inputs": [
        {
          "internalType": "address",
          "name": "approver",
          "type": "address"
        }
      ],
      "name": "ERC721InvalidApprover",
      "type": "error"
    },
    {
      "inputs": [
        {
          "internalType": "address",
          "name": "operator",
          "type": "address"
        }
      ],
      "name": "ERC721InvalidOperator",
      "type": "error"
    },
    {
      "inputs": [
        {
          "internalType": "address",
          "name": "owner",
          "type": "address"
        }
      ],
      "name": "ERC721InvalidOwner",
      "type": "error"
    },
    {
      "inputs": [
        {
          "internalType": "address",
          "name": "receiver",
          "type": "address"
        }
      ],
      "name": "ERC721InvalidReceiver",
      "type": "error"
    },
    {
      "inputs": [
        {
          "internalType": "address",
          "name": "sender",
          "type": "address"
        }
      ],
      "name": "ERC721InvalidSender",
      "type": "error"
    },
    {
      "inputs": [
        {
          "internalType": "uint256",
          "name": "tokenId",
          "type": "uint256"
        }
      ],
      "name": "ERC721NonexistentToken",
      "type": "error"
    },
    {
      "anonymous": false,
      "inputs": [
        {
          "indexed": true,
          "internalType": "address",
          "name": "owner",
          "type": "address"
        },
        {
          "indexed": true,
          "internalType": "address",
          "name": "approved",
          "type": "address"
        },
        {
          "indexed": true,
          "internalType": "uint256",
          "name": "tokenId",
          "type": "uint256"
        }
      ],
      "name": "Approval",
      "type": "event"
    },
    {
      "anonymous": false,
      "inputs": [
        {
          "indexed": true,
          "internalType": "address",
          "name": "owner",
          "type": "address"
        },
        {
          "indexed": true,
          "internalType": "address",
          "name": "operator",
          "type": "address"
        },
        {
          "indexed": false,
          "internalType": "bool",
          "name": "approved",
          "type": "bool"
        }
      ],
      "name": "ApprovalForAll",
      "type": "event"
    },
    {
      "anonymous": false,
      "inputs": [
        {
          "indexed": false,
          "internalType": "uint256",
          "name": "_fromTokenId",
          "type": "uint256"
        },
        {
          "indexed": false,
          "internalType": "uint256",
          "name": "_toTokenId",
          "type": "uint256"
        }
      ],
      "name": "BatchMetadataUpdate",
      "type": "event"
    },
    {
      "anonymous": false,
      "inputs": [
        {
          "indexed": false,
          "internalType": "uint256",
          "name": "_tokenId",
          "type": "uint256"
        }
      ],
      "name": "MetadataUpdate",
      "type": "event"
    },
    {
      "anonymous": false,
      "inputs": [
        {
          "indexed": true,
          "internalType": "bytes32",
          "name": "proofId",
          "type": "bytes32"
        },
        {
          "indexed": false,
          "internalType": "string",
          "name": "name",
          "type": "string"
        },
        {
          "indexed": false,
          "internalType": "string",
          "name": "description",
          "type": "string"
        },
        {
          "indexed": true,
          "internalType": "address",
          "name": "issuer",
          "type": "address"
        }
      ],
      "name": "ProofCreated",
      "type": "event"
    },
    {
      "anonymous": false,
      "inputs": [
        {
          "indexed": true,
          "internalType": "address",
          "name": "from",
          "type": "address"
        },
        {
          "indexed": true,
          "internalType": "address",
          "name": "to",
          "type": "address"
        },
        {
          "indexed": true,
          "internalType": "uint256",
          "name": "tokenId",
          "type": "uint256"
        }
      ],
      "name": "Transfer",
      "type": "event"
    },
    {
      "inputs": [
        {
          "internalType": "address",
          "name": "to",
          "type": "address"
        },
        {
          "internalType": "uint256",
          "name": "tokenId",
          "type": "uint256"
        }
      ],
      "name": "approve",
      "outputs": [],
      "stateMutability": "nonpayable",
      "type": "function"
    },
    {
      "inputs": [
        {
          "internalType": "address",
          "name": "owner",
          "type": "address"
        }
      ],
      "name": "balanceOf",
      "outputs": [
        {
          "internalType": "uint256",
          "name": "",
          "type": "uint256"
        }
      ],
      "stateMutability": "view",
      "type": "function"
    },
    {
      "inputs": [
        {
          "internalType": "string",
          "name": "_name",
          "type": "string"
        },
        {
          "internalType": "string",
          "name": "_description",
          "type": "string"
        },
        {
          "internalType": "string",
          "name": "_tokenURI",
          "type": "string"
        }
      ],
      "name": "createProof",
      "outputs": [],
      "stateMutability": "nonpayable",
      "type": "function"
    },
    {
      "inputs": [
        {
          "internalType": "uint256",
          "name": "tokenId",
          "type": "uint256"
        }
      ],
      "name": "getApproved",
      "outputs": [
        {
          "internalType": "address",
          "name": "",
          "type": "address"
        }
      ],
      "stateMutability": "view",
      "type": "function"
    },
    {
      "inputs": [
        {
          "internalType": "address",
          "name": "owner",
          "type": "address"
        },
        {
          "internalType": "address",
          "name": "operator",
          "type": "address"
        }
      ],
      "name": "isApprovedForAll",
      "outputs": [
        {
          "internalType": "bool",
          "name": "",
          "type": "bool"
        }
      ],
      "stateMutability": "view",
      "type": "function"
    },
    {
      "inputs": [],
      "name": "name",
      "outputs": [
        {
          "internalType": "string",
          "name": "",
          "type": "string"
        }
      ],
      "stateMutability": "view",
      "type": "function"
    },
    {
      "inputs": [
        {
          "internalType": "uint256",
          "name": "tokenId",
          "type": "uint256"
        }
      ],
      "name": "ownerOf",
      "outputs": [
        {
          "internalType": "address",
          "name": "",
          "type": "address"
        }
      ],
      "stateMutability": "view",
      "type": "function"
    },
    {
      "inputs": [
        {
          "internalType": "bytes32",
          "name": "",
          "type": "bytes32"
        }
      ],
      "name": "proofs",
      "outputs": [
        {
          "internalType": "string",
          "name": "name",
          "type": "string"
        },
        {
          "internalType": "string",
          "name": "description",
          "type": "string"
        },
        {
          "internalType": "address",
          "name": "issuer",
          "type": "address"
        },
        {
          "internalType": "uint256",
          "name": "timestamp",
          "type": "uint256"
        }
      ],
      "stateMutability": "view",
      "type": "function"
    },
    {
      "inputs": [],
      "name": "proofsCount",
      "outputs": [
        {
          "internalType": "uint256",
          "name": "",
          "type": "uint256"
        }
      ],
      "stateMutability": "view",
      "type": "function"
    },
    {
      "inputs": [
        {
          "internalType": "uint256",
          "name": "",
          "type": "uint256"
        }
      ],
      "name": "proofsIds",
      "outputs": [
        {
          "internalType": "bytes32",
          "name": "",
          "type": "bytes32"
        }
      ],
      "stateMutability": "view",
      "type": "function"
    },
    {
      "inputs": [
        {
          "internalType": "address",
          "name": "from",
          "type": "address"
        },
        {
          "internalType": "address",
          "name": "to",
          "type": "address"
        },
        {
          "internalType": "uint256",
          "name": "tokenId",
          "type": "uint256"
        }
      ],
      "name": "safeTransferFrom",
      "outputs": [],
      "stateMutability": "nonpayable",
      "type": "function"
    },
    {
      "inputs": [
        {
          "internalType": "address",
          "name": "from",
          "type": "address"
        },
        {
          "internalType": "address",
          "name": "to",
          "type": "address"
        },
        {
          "internalType": "uint256",
          "name": "tokenId",
          "type": "uint256"
        },
        {
          "internalType": "bytes",
          "name": "data",
          "type": "bytes"
        }
      ],
      "name": "safeTransferFrom",
      "outputs": [],
      "stateMutability": "nonpayable",
      "type": "function"
    },
    {
      "inputs": [
        {
          "internalType": "address",
          "name": "operator",
          "type": "address"
        },
        {
          "internalType": "bool",
          "name": "approved",
          "type": "bool"
        }
      ],
      "name": "setApprovalForAll",
      "outputs": [],
      "stateMutability": "nonpayable",
      "type": "function"
    },
    {
      "inputs": [
        {
          "internalType": "bytes4",
          "name": "interfaceId",
          "type": "bytes4"
        }
      ],
      "name": "supportsInterface",
      "outputs": [
        {
          "internalType": "bool",
          "name": "",
          "type": "bool"
        }
      ],
      "stateMutability": "view",
      "type": "function"
    },
    {
      "inputs": [],
      "name": "symbol",
      "outputs": [
        {
          "internalType": "string",
          "name": "",
          "type": "string"
        }
      ],
      "stateMutability": "view",
      "type": "function"
    },
    {
      "inputs": [
        {
          "internalType": "uint256",
          "name": "tokenId",
          "type": "uint256"
        }
      ],
      "name": "tokenURI",
      "outputs": [
        {
          "internalType": "string",
          "name": "",
          "type": "string"
        }
      ],
      "stateMutability": "view",
      "type": "function"
    },
    {
      "inputs": [
        {
          "internalType": "bytes32",
          "name": "",
          "type": "bytes32"
        }
      ],
      "name": "tokensIds",
      "outputs": [
        {
          "internalType": "uint256",
          "name": "",
          "type": "uint256"
        }
      ],
      "stateMutability": "view",
      "type": "function"
    },
    {
      "inputs": [
        {
          "internalType": "address",
          "name": "from",
          "type": "address"
        },
        {
          "internalType": "address",
          "name": "to",
          "type": "address"
        },
        {
          "internalType": "uint256",
          "name": "tokenId",
          "type": "uint256"
        }
      ],
      "name": "transferFrom",
      "outputs": [],
      "stateMutability": "nonpayable",
      "type": "function"
    }
  ],
  "bytecode": "0x60806040523480156200001157600080fd5b506040518060400160405280600581526020017f50726f6f660000000000000000000000000000000000000000000000000000008152506040518060400160405280600381526020017f505246000000000000000000000000000000000000000000000000000000000081525081600090816200008f919062000324565b508060019081620000a1919062000324565b5050506200040b565b600081519050919050565b7f4e487b7100000000000000000000000000000000000000000000000000000000600052604160045260246000fd5b7f4e487b7100000000000000000000000000000000000000000000000000000000600052602260045260246000fd5b600060028204905060018216806200012c57607f821691505b602082108103620001425762000141620000e4565b5b50919050565b60008190508160005260206000209050919050565b60006020601f8301049050919050565b600082821b905092915050565b600060088302620001ac7fffffffffffffffffffffffffffffffffffffffffffffffffffffffffffffffff826200016d565b620001b886836200016d565b95508019841693508086168417925050509392505050565b6000819050919050565b6000819050919050565b600062000205620001ff620001f984620001d0565b620001da565b620001d0565b9050919050565b6000819050919050565b6200022183620001e4565b6200023962000230826200020c565b8484546200017a565b825550505050565b600090565b6200025062000241565b6200025d81848462000216565b505050565b5b8181101562000285576200027960008262000246565b60018101905062000263565b5050565b601f821115620002d4576200029e8162000148565b620002a9846200015d565b81016020851015620002b9578190505b620002d1620002c8856200015d565b83018262000262565b50505b505050565b600082821c905092915050565b6000620002f960001984600802620002d9565b1980831691505092915050565b6000620003148383620002e6565b9150826002028217905092915050565b6200032f82620000aa565b67ffffffffffffffff8111156200034b576200034a620000b5565b5b62000357825462000113565b6200036482828562000289565b600060209050601f8311600181146200039c576000841562000387578287015190505b62000393858262000306565b86555062000403565b601f198416620003ac8662000148565b60005b82811015620003d657848901518255600182019150602085019450602081019050620003af565b86831015620003f65784890151620003f2601f891682620002e6565b8355505b6001600288020188555050505b505050505050565b612aa1806200041b6000396000f3fe608060405234801561001057600080fd5b50600436106101165760003560e01c8063534e67a2116100a2578063a22cb46511610071578063a22cb46514610308578063b88d4fde14610324578063c87b56dd14610340578063e985e9c514610370578063fe93e428146103a057610116565b8063534e67a21461026c5780636352211e1461028a57806370a08231146102ba57806395d89b41146102ea57610116565b80630dde4ace116100e95780630dde4ace146101b557806323b872dd146101e557806328ffc4e51461020157806342842e0e1461021d578063444d95b01461023957610116565b806301ffc9a71461011b57806306fdde031461014b578063081812fc14610169578063095ea7b314610199575b600080fd5b61013560048036038101906101309190611c7c565b6103d0565b6040516101429190611cc4565b60405180910390f35b610153610431565b6040516101609190611d6f565b60405180910390f35b610183600480360381019061017e9190611dc7565b6104c3565b6040516101909190611e35565b60405180910390f35b6101b360048036038101906101ae9190611e7c565b6104df565b005b6101cf60048036038101906101ca9190611dc7565b6104f5565b6040516101dc9190611ed5565b60405180910390f35b6101ff60048036038101906101fa9190611ef0565b61050d565b005b61021b60048036038101906102169190612078565b61060f565b005b61023760048036038101906102329190611ef0565b610818565b005b610253600480360381019061024e919061214b565b610838565b6040516102639493929190612187565b60405180910390f35b610274610998565b60405161028191906121da565b60405180910390f35b6102a4600480360381019061029f9190611dc7565b61099e565b6040516102b19190611e35565b60405180910390f35b6102d460048036038101906102cf91906121f5565b6109b0565b6040516102e191906121da565b60405180910390f35b6102f2610a6a565b6040516102ff9190611d6f565b60405180910390f35b610322600480360381019061031d919061224e565b610afc565b005b61033e6004803603810190610339919061232f565b610b12565b005b61035a60048036038101906103559190611dc7565b610b2f565b6040516103679190611d6f565b60405180910390f35b61038a600480360381019061038591906123b2565b610c42565b6040516103979190611cc4565b60405180910390f35b6103ba60048036038101906103b5919061214b565b610cd6565b6040516103c791906121da565b60405180910390f35b6000634906490660e01b7bffffffffffffffffffffffffffffffffffffffffffffffffffffffff1916827bffffffffffffffffffffffffffffffffffffffffffffffffffffffff1916148061042a575061042982610cee565b5b9050919050565b60606000805461044090612421565b80601f016020809104026020016040519081016040528092919081815260200182805461046c90612421565b80156104b95780601f1061048e576101008083540402835291602001916104b9565b820191906000526020600020905b81548152906001019060200180831161049c57829003601f168201915b5050505050905090565b60006104ce82610dd0565b506104d882610e58565b9050919050565b6104f182826104ec610e95565b610e9d565b5050565b60096020528060005260406000206000915090505481565b600073ffffffffffffffffffffffffffffffffffffffff168273ffffffffffffffffffffffffffffffffffffffff160361057f5760006040517f64a0ae920000000000000000000000000000000000000000000000000000000081526004016105769190611e35565b60405180910390fd5b6000610593838361058e610e95565b610eaf565b90508373ffffffffffffffffffffffffffffffffffffffff168173ffffffffffffffffffffffffffffffffffffffff1614610609578382826040517f64283d7b00000000000000000000000000000000000000000000000000000000815260040161060093929190612452565b60405180910390fd5b50505050565b600083833342604051602001610628949392919061252e565b6040516020818303038152906040528051906020012090506000600760008381526020019081526020016000206003015414610699576040517f08c379a0000000000000000000000000000000000000000000000000000000008152600401610690906125c0565b60405180910390fd5b60405180608001604052808581526020018481526020013373ffffffffffffffffffffffffffffffffffffffff168152602001428152506007600083815260200190815260200160002060008201518160000190816106f8919061278c565b50602082015181600101908161070e919061278c565b5060408201518160020160006101000a81548173ffffffffffffffffffffffffffffffffffffffff021916908373ffffffffffffffffffffffffffffffffffffffff1602179055506060820151816003015590505060006008600081546107749061288d565b919050819055905061078633826110c9565b61079081846110e7565b81600960008381526020019081526020016000208190555080600a6000848152602001908152602001600020819055503373ffffffffffffffffffffffffffffffffffffffff16827f2e8f6b80cdb336319572d87f6e8433a7891092af7e85b0315d8d13399e84020d87876040516108099291906128d5565b60405180910390a35050505050565b61083383838360405180602001604052806000815250610b12565b505050565b600760205280600052604060002060009150905080600001805461085b90612421565b80601f016020809104026020016040519081016040528092919081815260200182805461088790612421565b80156108d45780601f106108a9576101008083540402835291602001916108d4565b820191906000526020600020905b8154815290600101906020018083116108b757829003601f168201915b5050505050908060010180546108e990612421565b80601f016020809104026020016040519081016040528092919081815260200182805461091590612421565b80156109625780601f1061093757610100808354040283529160200191610962565b820191906000526020600020905b81548152906001019060200180831161094557829003601f168201915b5050505050908060020160009054906101000a900473ffffffffffffffffffffffffffffffffffffffff16908060030154905084565b60085481565b60006109a982610dd0565b9050919050565b60008073ffffffffffffffffffffffffffffffffffffffff168273ffffffffffffffffffffffffffffffffffffffff1603610a235760006040517f89c62b64000000000000000000000000000000000000000000000000000000008152600401610a1a9190611e35565b60405180910390fd5b600360008373ffffffffffffffffffffffffffffffffffffffff1673ffffffffffffffffffffffffffffffffffffffff168152602001908152602001600020549050919050565b606060018054610a7990612421565b80601f0160208091040260200160405190810160405280929190818152602001828054610aa590612421565b8015610af25780601f10610ac757610100808354040283529160200191610af2565b820191906000526020600020905b815481529060010190602001808311610ad557829003601f168201915b5050505050905090565b610b0e610b07610e95565b8383611143565b5050565b610b1d84848461050d565b610b29848484846112b2565b50505050565b6060610b3a82610dd0565b506000600660008481526020019081526020016000208054610b5b90612421565b80601f0160208091040260200160405190810160405280929190818152602001828054610b8790612421565b8015610bd45780601f10610ba957610100808354040283529160200191610bd4565b820191906000526020600020905b815481529060010190602001808311610bb757829003601f168201915b505050505090506000610be5611469565b90506000815103610bfa578192505050610c3d565b600082511115610c2f578082604051602001610c1792919061290c565b60405160208183030381529060405292505050610c3d565b610c3884611480565b925050505b919050565b6000600560008473ffffffffffffffffffffffffffffffffffffffff1673ffffffffffffffffffffffffffffffffffffffff16815260200190815260200160002060008373ffffffffffffffffffffffffffffffffffffffff1673ffffffffffffffffffffffffffffffffffffffff16815260200190815260200160002060009054906101000a900460ff16905092915050565b600a6020528060005260406000206000915090505481565b60007f80ac58cd000000000000000000000000000000000000000000000000000000007bffffffffffffffffffffffffffffffffffffffffffffffffffffffff1916827bffffffffffffffffffffffffffffffffffffffffffffffffffffffff19161480610db957507f5b5e139f000000000000000000000000000000000000000000000000000000007bffffffffffffffffffffffffffffffffffffffffffffffffffffffff1916827bffffffffffffffffffffffffffffffffffffffffffffffffffffffff1916145b80610dc95750610dc8826114e9565b5b9050919050565b600080610ddc83611553565b9050600073ffffffffffffffffffffffffffffffffffffffff168173ffffffffffffffffffffffffffffffffffffffff1603610e4f57826040517f7e273289000000000000000000000000000000000000000000000000000000008152600401610e4691906121da565b60405180910390fd5b80915050919050565b60006004600083815260200190815260200160002060009054906101000a900473ffffffffffffffffffffffffffffffffffffffff169050919050565b600033905090565b610eaa8383836001611590565b505050565b600080610ebb84611553565b9050600073ffffffffffffffffffffffffffffffffffffffff168373ffffffffffffffffffffffffffffffffffffffff1614610efd57610efc818486611755565b5b600073ffffffffffffffffffffffffffffffffffffffff168173ffffffffffffffffffffffffffffffffffffffff1614610f8e57610f3f600085600080611590565b6001600360008373ffffffffffffffffffffffffffffffffffffffff1673ffffffffffffffffffffffffffffffffffffffff168152602001908152602001600020600082825403925050819055505b600073ffffffffffffffffffffffffffffffffffffffff168573ffffffffffffffffffffffffffffffffffffffff1614611011576001600360008773ffffffffffffffffffffffffffffffffffffffff1673ffffffffffffffffffffffffffffffffffffffff168152602001908152602001600020600082825401925050819055505b846002600086815260200190815260200160002060006101000a81548173ffffffffffffffffffffffffffffffffffffffff021916908373ffffffffffffffffffffffffffffffffffffffff160217905550838573ffffffffffffffffffffffffffffffffffffffff168273ffffffffffffffffffffffffffffffffffffffff167fddf252ad1be2c89b69c2b068fc378daa952ba7f163c4a11628f55a4df523b3ef60405160405180910390a4809150509392505050565b6110e3828260405180602001604052806000815250611819565b5050565b80600660008481526020019081526020016000209081611107919061278c565b507ff8e1a15aba9398e019f0b49df1a4fde98ee17ae345cb5f6b5e2c27f5033e8ce78260405161113791906121da565b60405180910390a15050565b600073ffffffffffffffffffffffffffffffffffffffff168273ffffffffffffffffffffffffffffffffffffffff16036111b457816040517f5b08ba180000000000000000000000000000000000000000000000000000000081526004016111ab9190611e35565b60405180910390fd5b80600560008573ffffffffffffffffffffffffffffffffffffffff1673ffffffffffffffffffffffffffffffffffffffff16815260200190815260200160002060008473ffffffffffffffffffffffffffffffffffffffff1673ffffffffffffffffffffffffffffffffffffffff16815260200190815260200160002060006101000a81548160ff0219169083151502179055508173ffffffffffffffffffffffffffffffffffffffff168373ffffffffffffffffffffffffffffffffffffffff167f17307eab39ab6107e8899845ad3d59bd9653f200f220920489ca2b5937696c31836040516112a59190611cc4565b60405180910390a3505050565b60008373ffffffffffffffffffffffffffffffffffffffff163b1115611463578273ffffffffffffffffffffffffffffffffffffffff1663150b7a026112f6610e95565b8685856040518563ffffffff1660e01b81526004016113189493929190612985565b6020604051808303816000875af192505050801561135457506040513d601f19601f8201168201806040525081019061135191906129e6565b60015b6113d8573d8060008114611384576040519150601f19603f3d011682016040523d82523d6000602084013e611389565b606091505b5060008151036113d057836040517f64a0ae920000000000000000000000000000000000000000000000000000000081526004016113c79190611e35565b60405180910390fd5b805181602001fd5b63150b7a0260e01b7bffffffffffffffffffffffffffffffffffffffffffffffffffffffff1916817bffffffffffffffffffffffffffffffffffffffffffffffffffffffff19161461146157836040517f64a0ae920000000000000000000000000000000000000000000000000000000081526004016114589190611e35565b60405180910390fd5b505b50505050565b606060405180602001604052806000815250905090565b606061148b82610dd0565b506000611496611469565b905060008151116114b657604051806020016040528060008152506114e1565b806114c084611835565b6040516020016114d192919061290c565b6040516020818303038152906040525b915050919050565b60007f01ffc9a7000000000000000000000000000000000000000000000000000000007bffffffffffffffffffffffffffffffffffffffffffffffffffffffff1916827bffffffffffffffffffffffffffffffffffffffffffffffffffffffff1916149050919050565b60006002600083815260200190815260200160002060009054906101000a900473ffffffffffffffffffffffffffffffffffffffff169050919050565b80806115c95750600073ffffffffffffffffffffffffffffffffffffffff168273ffffffffffffffffffffffffffffffffffffffff1614155b156116fd5760006115d984610dd0565b9050600073ffffffffffffffffffffffffffffffffffffffff168373ffffffffffffffffffffffffffffffffffffffff161415801561164457508273ffffffffffffffffffffffffffffffffffffffff168173ffffffffffffffffffffffffffffffffffffffff1614155b801561165757506116558184610c42565b155b1561169957826040517fa9fbf51f0000000000000000000000000000000000000000000000000000000081526004016116909190611e35565b60405180910390fd5b81156116fb57838573ffffffffffffffffffffffffffffffffffffffff168273ffffffffffffffffffffffffffffffffffffffff167f8c5be1e5ebec7d5bd14f71427d1e84f3dd0314c0f7b2291e5b200ac8c7c3b92560405160405180910390a45b505b836004600085815260200190815260200160002060006101000a81548173ffffffffffffffffffffffffffffffffffffffff021916908373ffffffffffffffffffffffffffffffffffffffff16021790555050505050565b611760838383611903565b61181457600073ffffffffffffffffffffffffffffffffffffffff168373ffffffffffffffffffffffffffffffffffffffff16036117d557806040517f7e2732890000000000000000000000000000000000000000000000000000000081526004016117cc91906121da565b60405180910390fd5b81816040517f177e802f00000000000000000000000000000000000000000000000000000000815260040161180b929190612a13565b60405180910390fd5b505050565b61182383836119c4565b61183060008484846112b2565b505050565b60606000600161184484611abd565b01905060008167ffffffffffffffff81111561186357611862611f4d565b5b6040519080825280601f01601f1916602001820160405280156118955781602001600182028036833780820191505090505b509050600082602001820190505b6001156118f8578080600190039150507f3031323334353637383961626364656600000000000000000000000000000000600a86061a8153600a85816118ec576118eb612a3c565b5b049450600085036118a3575b819350505050919050565b60008073ffffffffffffffffffffffffffffffffffffffff168373ffffffffffffffffffffffffffffffffffffffff16141580156119bb57508273ffffffffffffffffffffffffffffffffffffffff168473ffffffffffffffffffffffffffffffffffffffff16148061197c575061197b8484610c42565b5b806119ba57508273ffffffffffffffffffffffffffffffffffffffff166119a283610e58565b73ffffffffffffffffffffffffffffffffffffffff16145b5b90509392505050565b600073ffffffffffffffffffffffffffffffffffffffff168273ffffffffffffffffffffffffffffffffffffffff1603611a365760006040517f64a0ae92000000000000000000000000000000000000000000000000000000008152600401611a2d9190611e35565b60405180910390fd5b6000611a4483836000610eaf565b9050600073ffffffffffffffffffffffffffffffffffffffff168173ffffffffffffffffffffffffffffffffffffffff1614611ab85760006040517f73c6ac6e000000000000000000000000000000000000000000000000000000008152600401611aaf9190611e35565b60405180910390fd5b505050565b600080600090507a184f03e93ff9f4daa797ed6e38ed64bf6a1f0100000000000000008310611b1b577a184f03e93ff9f4daa797ed6e38ed64bf6a1f0100000000000000008381611b1157611b10612a3c565b5b0492506040810190505b6d04ee2d6d415b85acef81000000008310611b58576d04ee2d6d415b85acef81000000008381611b4e57611b4d612a3c565b5b0492506020810190505b662386f26fc100008310611b8757662386f26fc100008381611b7d57611b7c612a3c565b5b0492506010810190505b6305f5e1008310611bb0576305f5e1008381611ba657611ba5612a3c565b5b0492506008810190505b6127108310611bd5576127108381611bcb57611bca612a3c565b5b0492506004810190505b60648310611bf85760648381611bee57611bed612a3c565b5b0492506002810190505b600a8310611c07576001810190505b80915050919050565b6000604051905090565b600080fd5b600080fd5b60007fffffffff0000000000000000000000000000000000000000000000000000000082169050919050565b611c5981611c24565b8114611c6457600080fd5b50565b600081359050611c7681611c50565b92915050565b600060208284031215611c9257611c91611c1a565b5b6000611ca084828501611c67565b91505092915050565b60008115159050919050565b611cbe81611ca9565b82525050565b6000602082019050611cd96000830184611cb5565b92915050565b600081519050919050565b600082825260208201905092915050565b60005b83811015611d19578082015181840152602081019050611cfe565b60008484015250505050565b6000601f19601f8301169050919050565b6000611d4182611cdf565b611d4b8185611cea565b9350611d5b818560208601611cfb565b611d6481611d25565b840191505092915050565b60006020820190508181036000830152611d898184611d36565b905092915050565b6000819050919050565b611da481611d91565b8114611daf57600080fd5b50565b600081359050611dc181611d9b565b92915050565b600060208284031215611ddd57611ddc611c1a565b5b6000611deb84828501611db2565b91505092915050565b600073ffffffffffffffffffffffffffffffffffffffff82169050919050565b6000611e1f82611df4565b9050919050565b611e2f81611e14565b82525050565b6000602082019050611e4a6000830184611e26565b92915050565b611e5981611e14565b8114611e6457600080fd5b50565b600081359050611e7681611e50565b92915050565b60008060408385031215611e9357611e92611c1a565b5b6000611ea185828601611e67565b9250506020611eb285828601611db2565b9150509250929050565b6000819050919050565b611ecf81611ebc565b82525050565b6000602082019050611eea6000830184611ec6565b92915050565b600080600060608486031215611f0957611f08611c1a565b5b6000611f1786828701611e67565b9350506020611f2886828701611e67565b9250506040611f3986828701611db2565b9150509250925092565b600080fd5b600080fd5b7f4e487b7100000000000000000000000000000000000000000000000000000000600052604160045260246000fd5b611f8582611d25565b810181811067ffffffffffffffff82111715611fa457611fa3611f4d565b5b80604052505050565b6000611fb7611c10565b9050611fc38282611f7c565b919050565b600067ffffffffffffffff821115611fe357611fe2611f4d565b5b611fec82611d25565b9050602081019050919050565b82818337600083830152505050565b600061201b61201684611fc8565b611fad565b90508281526020810184848401111561203757612036611f48565b5b612042848285611ff9565b509392505050565b600082601f83011261205f5761205e611f43565b5b813561206f848260208601612008565b91505092915050565b60008060006060848603121561209157612090611c1a565b5b600084013567ffffffffffffffff8111156120af576120ae611c1f565b5b6120bb8682870161204a565b935050602084013567ffffffffffffffff8111156120dc576120db611c1f565b5b6120e88682870161204a565b925050604084013567ffffffffffffffff81111561210957612108611c1f565b5b6121158682870161204a565b9150509250925092565b61212881611ebc565b811461213357600080fd5b50565b6000813590506121458161211f565b92915050565b60006020828403121561216157612160611c1a565b5b600061216f84828501612136565b91505092915050565b61218181611d91565b82525050565b600060808201905081810360008301526121a18187611d36565b905081810360208301526121b58186611d36565b90506121c46040830185611e26565b6121d16060830184612178565b95945050505050565b60006020820190506121ef6000830184612178565b92915050565b60006020828403121561220b5761220a611c1a565b5b600061221984828501611e67565b91505092915050565b61222b81611ca9565b811461223657600080fd5b50565b60008135905061224881612222565b92915050565b6000806040838503121561226557612264611c1a565b5b600061227385828601611e67565b925050602061228485828601612239565b9150509250929050565b600067ffffffffffffffff8211156122a9576122a8611f4d565b5b6122b282611d25565b9050602081019050919050565b60006122d26122cd8461228e565b611fad565b9050828152602081018484840111156122ee576122ed611f48565b5b6122f9848285611ff9565b509392505050565b600082601f83011261231657612315611f43565b5b81356123268482602086016122bf565b91505092915050565b6000806000806080858703121561234957612348611c1a565b5b600061235787828801611e67565b945050602061236887828801611e67565b935050604061237987828801611db2565b925050606085013567ffffffffffffffff81111561239a57612399611c1f565b5b6123a687828801612301565b91505092959194509250565b600080604083850312156123c9576123c8611c1a565b5b60006123d785828601611e67565b92505060206123e885828601611e67565b9150509250929050565b7f4e487b7100000000000000000000000000000000000000000000000000000000600052602260045260246000fd5b6000600282049050600182168061243957607f821691505b60208210810361244c5761244b6123f2565b5b50919050565b60006060820190506124676000830186611e26565b6124746020830185612178565b6124816040830184611e26565b949350505050565b600081905092915050565b600061249f82611cdf565b6124a98185612489565b93506124b9818560208601611cfb565b80840191505092915050565b60008160601b9050919050565b60006124dd826124c5565b9050919050565b60006124ef826124d2565b9050919050565b61250761250282611e14565b6124e4565b82525050565b6000819050919050565b61252861252382611d91565b61250d565b82525050565b600061253a8287612494565b91506125468286612494565b915061255282856124f6565b6014820191506125628284612517565b60208201915081905095945050505050565b7f50726f6f6620616c726561647920657869737473000000000000000000000000600082015250565b60006125aa601483611cea565b91506125b582612574565b602082019050919050565b600060208201905081810360008301526125d98161259d565b9050919050565b60008190508160005260206000209050919050565b60006020601f8301049050919050565b600082821b905092915050565b6000600883026126427fffffffffffffffffffffffffffffffffffffffffffffffffffffffffffffffff82612605565b61264c8683612605565b95508019841693508086168417925050509392505050565b6000819050919050565b600061268961268461267f84611d91565b612664565b611d91565b9050919050565b6000819050919050565b6126a38361266e565b6126b76126af82612690565b848454612612565b825550505050565b600090565b6126cc6126bf565b6126d781848461269a565b505050565b5b818110156126fb576126f06000826126c4565b6001810190506126dd565b5050565b601f82111561274057612711816125e0565b61271a846125f5565b81016020851015612729578190505b61273d612735856125f5565b8301826126dc565b50505b505050565b600082821c905092915050565b600061276360001984600802612745565b1980831691505092915050565b600061277c8383612752565b9150826002028217905092915050565b61279582611cdf565b67ffffffffffffffff8111156127ae576127ad611f4d565b5b6127b88254612421565b6127c38282856126ff565b600060209050601f8311600181146127f657600084156127e4578287015190505b6127ee8582612770565b865550612856565b601f198416612804866125e0565b60005b8281101561282c57848901518255600182019150602085019450602081019050612807565b868310156128495784890151612845601f891682612752565b8355505b6001600288020188555050505b505050505050565b7f4e487b7100000000000000000000000000000000000000000000000000000000600052601160045260246000fd5b600061289882611d91565b91507fffffffffffffffffffffffffffffffffffffffffffffffffffffffffffffffff82036128ca576128c961285e565b5b600182019050919050565b600060408201905081810360008301526128ef8185611d36565b905081810360208301526129038184611d36565b90509392505050565b60006129188285612494565b91506129248284612494565b91508190509392505050565b600081519050919050565b600082825260208201905092915050565b600061295782612930565b612961818561293b565b9350612971818560208601611cfb565b61297a81611d25565b840191505092915050565b600060808201905061299a6000830187611e26565b6129a76020830186611e26565b6129b46040830185612178565b81810360608301526129c6818461294c565b905095945050505050565b6000815190506129e081611c50565b92915050565b6000602082840312156129fc576129fb611c1a565b5b6000612a0a848285016129d1565b91505092915050565b6000604082019050612a286000830185611e26565b612a356020830184612178565b9392505050565b7f4e487b7100000000000000000000000000000000000000000000000000000000600052601260045260246000fdfea2646970667358221220de0e5a81919af8bb609ff00f250d7b621b4f70d1bd07a14f42a758fa183b360e64736f6c63430008180033",
  "linkReferences": {},
  "deployedLinkReferences": {}
}