{
  "_format": "hh-sol-artifact-1",
  "contractName": "Provify",
  "sourceName": "contracts/Provify.sol",
  "abi": [
    {
      "inputs": [],
      "stateMutability": "nonpayable",
      "type": "constructor"
    },
    {
      "inputs": [
        {
          "internalType": "address",
          "name": "sender",
          "type": "address"
        },
        {
          "internalType": "uint256",
          "name": "tokenId",
          "type": "uint256"
        },
        {
          "internalType": "address",
          "name": "owner",
          "type": "address"
        }
      ],
      "name": "ERC721IncorrectOwner",
      "type": "error"
    },
    {
      "inputs": [
        {
          "internalType": "address",
          "name": "operator",
          "type": "address"
        },
        {
          "internalType": "uint256",
          "name": "tokenId",
          "type": "uint256"
        }
      ],
      "name": "ERC721InsufficientApproval",
      "type": "error"
    },
    {
      "inputs": [
        {
          "internalType": "address",
          "name": "approver",
          "type": "address"
        }
      ],
      "name": "ERC721InvalidApprover",
      "type": "error"
    },
    {
      "inputs": [
        {
          "internalType": "address",
          "name": "operator",
          "type": "address"
        }
      ],
      "name": "ERC721InvalidOperator",
      "type": "error"
    },
    {
      "inputs": [
        {
          "internalType": "address",
          "name": "owner",
          "type": "address"
        }
      ],
      "name": "ERC721InvalidOwner",
      "type": "error"
    },
    {
      "inputs": [
        {
          "internalType": "address",
          "name": "receiver",
          "type": "address"
        }
      ],
      "name": "ERC721InvalidReceiver",
      "type": "error"
    },
    {
      "inputs": [
        {
          "internalType": "address",
          "name": "sender",
          "type": "address"
        }
      ],
      "name": "ERC721InvalidSender",
      "type": "error"
    },
    {
      "inputs": [
        {
          "internalType": "uint256",
          "name": "tokenId",
          "type": "uint256"
        }
      ],
      "name": "ERC721NonexistentToken",
      "type": "error"
    },
    {
      "anonymous": false,
      "inputs": [
        {
          "indexed": true,
          "internalType": "address",
          "name": "owner",
          "type": "address"
        },
        {
          "indexed": true,
          "internalType": "address",
          "name": "approved",
          "type": "address"
        },
        {
          "indexed": true,
          "internalType": "uint256",
          "name": "tokenId",
          "type": "uint256"
        }
      ],
      "name": "Approval",
      "type": "event"
    },
    {
      "anonymous": false,
      "inputs": [
        {
          "indexed": true,
          "internalType": "address",
          "name": "owner",
          "type": "address"
        },
        {
          "indexed": true,
          "internalType": "address",
          "name": "operator",
          "type": "address"
        },
        {
          "indexed": false,
          "internalType": "bool",
          "name": "approved",
          "type": "bool"
        }
      ],
      "name": "ApprovalForAll",
      "type": "event"
    },
    {
      "anonymous": false,
      "inputs": [
        {
          "indexed": true,
          "internalType": "uint256",
          "name": "proofId",
          "type": "uint256"
        },
        {
          "indexed": true,
          "internalType": "address",
          "name": "recipient",
          "type": "address"
        },
        {
          "indexed": false,
          "internalType": "uint256",
          "name": "tokenId",
          "type": "uint256"
        }
      ],
      "name": "NFTIssued",
      "type": "event"
    },
    {
      "anonymous": false,
      "inputs": [
        {
          "indexed": true,
          "internalType": "uint256",
          "name": "proofId",
          "type": "uint256"
        },
        {
          "indexed": false,
          "internalType": "string",
          "name": "name",
          "type": "string"
        },
        {
          "indexed": false,
          "internalType": "string",
          "name": "description",
          "type": "string"
        },
        {
          "indexed": true,
          "internalType": "address",
          "name": "issuer",
          "type": "address"
        }
      ],
      "name": "ProofCreated",
      "type": "event"
    },
    {
      "anonymous": false,
      "inputs": [
        {
          "indexed": true,
          "internalType": "uint256",
          "name": "proofId",
          "type": "uint256"
        },
        {
          "indexed": false,
          "internalType": "string",
          "name": "name",
          "type": "string"
        },
        {
          "indexed": false,
          "internalType": "string",
          "name": "description",
          "type": "string"
        },
        {
          "indexed": true,
          "internalType": "address",
          "name": "issuer",
          "type": "address"
        }
      ],
      "name": "ProofDetails",
      "type": "event"
    },
    {
      "anonymous": false,
      "inputs": [
        {
          "indexed": true,
          "internalType": "address",
          "name": "from",
          "type": "address"
        },
        {
          "indexed": true,
          "internalType": "address",
          "name": "to",
          "type": "address"
        },
        {
          "indexed": true,
          "internalType": "uint256",
          "name": "tokenId",
          "type": "uint256"
        }
      ],
      "name": "Transfer",
      "type": "event"
    },
    {
      "inputs": [
        {
          "internalType": "address",
          "name": "to",
          "type": "address"
        },
        {
          "internalType": "uint256",
          "name": "tokenId",
          "type": "uint256"
        }
      ],
      "name": "approve",
      "outputs": [],
      "stateMutability": "nonpayable",
      "type": "function"
    },
    {
      "inputs": [
        {
          "internalType": "address",
          "name": "owner",
          "type": "address"
        }
      ],
      "name": "balanceOf",
      "outputs": [
        {
          "internalType": "uint256",
          "name": "",
          "type": "uint256"
        }
      ],
      "stateMutability": "view",
      "type": "function"
    },
    {
      "inputs": [
        {
          "internalType": "string",
          "name": "_name",
          "type": "string"
        },
        {
          "internalType": "string",
          "name": "_description",
          "type": "string"
        }
      ],
      "name": "createProof",
      "outputs": [],
      "stateMutability": "nonpayable",
      "type": "function"
    },
    {
      "inputs": [
        {
          "internalType": "uint256",
          "name": "tokenId",
          "type": "uint256"
        }
      ],
      "name": "getApproved",
      "outputs": [
        {
          "internalType": "address",
          "name": "",
          "type": "address"
        }
      ],
      "stateMutability": "view",
      "type": "function"
    },
    {
      "inputs": [
        {
          "internalType": "address",
          "name": "owner",
          "type": "address"
        },
        {
          "internalType": "address",
          "name": "operator",
          "type": "address"
        }
      ],
      "name": "isApprovedForAll",
      "outputs": [
        {
          "internalType": "bool",
          "name": "",
          "type": "bool"
        }
      ],
      "stateMutability": "view",
      "type": "function"
    },
    {
      "inputs": [],
      "name": "name",
      "outputs": [
        {
          "internalType": "string",
          "name": "",
          "type": "string"
        }
      ],
      "stateMutability": "view",
      "type": "function"
    },
    {
      "inputs": [
        {
          "internalType": "uint256",
          "name": "tokenId",
          "type": "uint256"
        }
      ],
      "name": "ownerOf",
      "outputs": [
        {
          "internalType": "address",
          "name": "",
          "type": "address"
        }
      ],
      "stateMutability": "view",
      "type": "function"
    },
    {
      "inputs": [],
      "name": "proofCounter",
      "outputs": [
        {
          "internalType": "uint256",
          "name": "",
          "type": "uint256"
        }
      ],
      "stateMutability": "view",
      "type": "function"
    },
    {
      "inputs": [
        {
          "internalType": "uint256",
          "name": "",
          "type": "uint256"
        }
      ],
      "name": "proofs",
      "outputs": [
        {
          "internalType": "string",
          "name": "name",
          "type": "string"
        },
        {
          "internalType": "string",
          "name": "description",
          "type": "string"
        },
        {
          "internalType": "address",
          "name": "issuer",
          "type": "address"
        },
        {
          "internalType": "uint256",
          "name": "timestamp",
          "type": "uint256"
        }
      ],
      "stateMutability": "view",
      "type": "function"
    },
    {
      "inputs": [
        {
          "internalType": "address",
          "name": "from",
          "type": "address"
        },
        {
          "internalType": "address",
          "name": "to",
          "type": "address"
        },
        {
          "internalType": "uint256",
          "name": "tokenId",
          "type": "uint256"
        }
      ],
      "name": "safeTransferFrom",
      "outputs": [],
      "stateMutability": "nonpayable",
      "type": "function"
    },
    {
      "inputs": [
        {
          "internalType": "address",
          "name": "from",
          "type": "address"
        },
        {
          "internalType": "address",
          "name": "to",
          "type": "address"
        },
        {
          "internalType": "uint256",
          "name": "tokenId",
          "type": "uint256"
        },
        {
          "internalType": "bytes",
          "name": "data",
          "type": "bytes"
        }
      ],
      "name": "safeTransferFrom",
      "outputs": [],
      "stateMutability": "nonpayable",
      "type": "function"
    },
    {
      "inputs": [
        {
          "internalType": "address",
          "name": "operator",
          "type": "address"
        },
        {
          "internalType": "bool",
          "name": "approved",
          "type": "bool"
        }
      ],
      "name": "setApprovalForAll",
      "outputs": [],
      "stateMutability": "nonpayable",
      "type": "function"
    },
    {
      "inputs": [
        {
          "internalType": "bytes4",
          "name": "interfaceId",
          "type": "bytes4"
        }
      ],
      "name": "supportsInterface",
      "outputs": [
        {
          "internalType": "bool",
          "name": "",
          "type": "bool"
        }
      ],
      "stateMutability": "view",
      "type": "function"
    },
    {
      "inputs": [],
      "name": "symbol",
      "outputs": [
        {
          "internalType": "string",
          "name": "",
          "type": "string"
        }
      ],
      "stateMutability": "view",
      "type": "function"
    },
    {
      "inputs": [
        {
          "internalType": "uint256",
          "name": "tokenId",
          "type": "uint256"
        }
      ],
      "name": "tokenURI",
      "outputs": [
        {
          "internalType": "string",
          "name": "",
          "type": "string"
        }
      ],
      "stateMutability": "view",
      "type": "function"
    },
    {
      "inputs": [
        {
          "internalType": "address",
          "name": "from",
          "type": "address"
        },
        {
          "internalType": "address",
          "name": "to",
          "type": "address"
        },
        {
          "internalType": "uint256",
          "name": "tokenId",
          "type": "uint256"
        }
      ],
      "name": "transferFrom",
      "outputs": [],
      "stateMutability": "nonpayable",
      "type": "function"
    }
  ],
  "bytecode": "0x60806040523480156200001157600080fd5b506040518060400160405280600581526020017f50726f6f660000000000000000000000000000000000000000000000000000008152506040518060400160405280600381526020017f505246000000000000000000000000000000000000000000000000000000000081525081600090816200008f919062000324565b508060019081620000a1919062000324565b5050506200040b565b600081519050919050565b7f4e487b7100000000000000000000000000000000000000000000000000000000600052604160045260246000fd5b7f4e487b7100000000000000000000000000000000000000000000000000000000600052602260045260246000fd5b600060028204905060018216806200012c57607f821691505b602082108103620001425762000141620000e4565b5b50919050565b60008190508160005260206000209050919050565b60006020601f8301049050919050565b600082821b905092915050565b600060088302620001ac7fffffffffffffffffffffffffffffffffffffffffffffffffffffffffffffffff826200016d565b620001b886836200016d565b95508019841693508086168417925050509392505050565b6000819050919050565b6000819050919050565b600062000205620001ff620001f984620001d0565b620001da565b620001d0565b9050919050565b6000819050919050565b6200022183620001e4565b6200023962000230826200020c565b8484546200017a565b825550505050565b600090565b6200025062000241565b6200025d81848462000216565b505050565b5b8181101562000285576200027960008262000246565b60018101905062000263565b5050565b601f821115620002d4576200029e8162000148565b620002a9846200015d565b81016020851015620002b9578190505b620002d1620002c8856200015d565b83018262000262565b50505b505050565b600082821c905092915050565b6000620002f960001984600802620002d9565b1980831691505092915050565b6000620003148383620002e6565b9150826002028217905092915050565b6200032f82620000aa565b67ffffffffffffffff8111156200034b576200034a620000b5565b5b62000357825462000113565b6200036482828562000289565b600060209050601f8311600181146200039c576000841562000387578287015190505b62000393858262000306565b86555062000403565b601f198416620003ac8662000148565b60005b82811015620003d657848901518255600182019150602085019450602081019050620003af565b86831015620003f65784890151620003f2601f891682620002e6565b8355505b6001600288020188555050505b505050505050565b6125ab806200041b6000396000f3fe608060405234801561001057600080fd5b50600436106101005760003560e01c806370a0823111610097578063b88d4fde11610066578063b88d4fde146102c2578063c51b7e77146102de578063c87b56dd146102fa578063e985e9c51461032a57610100565b806370a082311461022557806395d89b41146102555780639ddaf5aa14610273578063a22cb465146102a657610100565b806323b872dd116100d357806323b872dd1461019f57806342842e0e146101bb5780636352211e146101d75780636d9f43701461020757610100565b806301ffc9a71461010557806306fdde0314610135578063081812fc14610153578063095ea7b314610183575b600080fd5b61011f600480360381019061011a919061195d565b61035a565b60405161012c91906119a5565b60405180910390f35b61013d61043c565b60405161014a9190611a50565b60405180910390f35b61016d60048036038101906101689190611aa8565b6104ce565b60405161017a9190611b16565b60405180910390f35b61019d60048036038101906101989190611b5d565b6104ea565b005b6101b960048036038101906101b49190611b9d565b610500565b005b6101d560048036038101906101d09190611b9d565b610602565b005b6101f160048036038101906101ec9190611aa8565b610622565b6040516101fe9190611b16565b60405180910390f35b61020f610634565b60405161021c9190611bff565b60405180910390f35b61023f600480360381019061023a9190611c1a565b61063a565b60405161024c9190611bff565b60405180910390f35b61025d6106f4565b60405161026a9190611a50565b60405180910390f35b61028d60048036038101906102889190611aa8565b610786565b60405161029d9493929190611c47565b60405180910390f35b6102c060048036038101906102bb9190611cc6565b6108e6565b005b6102dc60048036038101906102d79190611e3b565b6108fc565b005b6102f860048036038101906102f39190611f5f565b610919565b005b610314600480360381019061030f9190611aa8565b610ab3565b6040516103219190611a50565b60405180910390f35b610344600480360381019061033f9190611fd7565b610b1c565b60405161035191906119a5565b60405180910390f35b60007f80ac58cd000000000000000000000000000000000000000000000000000000007bffffffffffffffffffffffffffffffffffffffffffffffffffffffff1916827bffffffffffffffffffffffffffffffffffffffffffffffffffffffff1916148061042557507f5b5e139f000000000000000000000000000000000000000000000000000000007bffffffffffffffffffffffffffffffffffffffffffffffffffffffff1916827bffffffffffffffffffffffffffffffffffffffffffffffffffffffff1916145b80610435575061043482610bb0565b5b9050919050565b60606000805461044b90612046565b80601f016020809104026020016040519081016040528092919081815260200182805461047790612046565b80156104c45780601f10610499576101008083540402835291602001916104c4565b820191906000526020600020905b8154815290600101906020018083116104a757829003601f168201915b5050505050905090565b60006104d982610c1a565b506104e382610ca2565b9050919050565b6104fc82826104f7610cdf565b610ce7565b5050565b600073ffffffffffffffffffffffffffffffffffffffff168273ffffffffffffffffffffffffffffffffffffffff16036105725760006040517f64a0ae920000000000000000000000000000000000000000000000000000000081526004016105699190611b16565b60405180910390fd5b60006105868383610581610cdf565b610cf9565b90508373ffffffffffffffffffffffffffffffffffffffff168173ffffffffffffffffffffffffffffffffffffffff16146105fc578382826040517f64283d7b0000000000000000000000000000000000000000000000000000000081526004016105f393929190612077565b60405180910390fd5b50505050565b61061d838383604051806020016040528060008152506108fc565b505050565b600061062d82610c1a565b9050919050565b60075481565b60008073ffffffffffffffffffffffffffffffffffffffff168273ffffffffffffffffffffffffffffffffffffffff16036106ad5760006040517f89c62b640000000000000000000000000000000000000000000000000000000081526004016106a49190611b16565b60405180910390fd5b600360008373ffffffffffffffffffffffffffffffffffffffff1673ffffffffffffffffffffffffffffffffffffffff168152602001908152602001600020549050919050565b60606001805461070390612046565b80601f016020809104026020016040519081016040528092919081815260200182805461072f90612046565b801561077c5780601f106107515761010080835404028352916020019161077c565b820191906000526020600020905b81548152906001019060200180831161075f57829003601f168201915b5050505050905090565b60066020528060005260406000206000915090508060000180546107a990612046565b80601f01602080910402602001604051908101604052809291908181526020018280546107d590612046565b80156108225780601f106107f757610100808354040283529160200191610822565b820191906000526020600020905b81548152906001019060200180831161080557829003601f168201915b50505050509080600101805461083790612046565b80601f016020809104026020016040519081016040528092919081815260200182805461086390612046565b80156108b05780601f10610885576101008083540402835291602001916108b0565b820191906000526020600020905b81548152906001019060200180831161089357829003601f168201915b5050505050908060020160009054906101000a900473ffffffffffffffffffffffffffffffffffffffff16908060030154905084565b6108f86108f1610cdf565b8383610f13565b5050565b610907848484610500565b61091384848484611082565b50505050565b6007600081548092919061092c906120dd565b919050555060405180608001604052808381526020018281526020013373ffffffffffffffffffffffffffffffffffffffff16815260200142815250600660006007548152602001908152602001600020600082015181600001908161099291906122d1565b5060208201518160010190816109a891906122d1565b5060408201518160020160006101000a81548173ffffffffffffffffffffffffffffffffffffffff021916908373ffffffffffffffffffffffffffffffffffffffff160217905550606082015181600301559050503373ffffffffffffffffffffffffffffffffffffffff166007547f4eae5ade74fcbf717dc8e4bab9aec05293b75487dc7535867b5502bba7479c118484604051610a489291906123a3565b60405180910390a3610a5c33600754611239565b3373ffffffffffffffffffffffffffffffffffffffff166007547ff471c5fed142e6523d703be11d0192c86f3d6d0659b72d1c60513767cee43ecb600754604051610aa79190611bff565b60405180910390a35050565b6060610abe82610c1a565b506000610ac9611332565b90506000815111610ae95760405180602001604052806000815250610b14565b80610af384611349565b604051602001610b04929190612416565b6040516020818303038152906040525b915050919050565b6000600560008473ffffffffffffffffffffffffffffffffffffffff1673ffffffffffffffffffffffffffffffffffffffff16815260200190815260200160002060008373ffffffffffffffffffffffffffffffffffffffff1673ffffffffffffffffffffffffffffffffffffffff16815260200190815260200160002060009054906101000a900460ff16905092915050565b60007f01ffc9a7000000000000000000000000000000000000000000000000000000007bffffffffffffffffffffffffffffffffffffffffffffffffffffffff1916827bffffffffffffffffffffffffffffffffffffffffffffffffffffffff1916149050919050565b600080610c2683611417565b9050600073ffffffffffffffffffffffffffffffffffffffff168173ffffffffffffffffffffffffffffffffffffffff1603610c9957826040517f7e273289000000000000000000000000000000000000000000000000000000008152600401610c909190611bff565b60405180910390fd5b80915050919050565b60006004600083815260200190815260200160002060009054906101000a900473ffffffffffffffffffffffffffffffffffffffff169050919050565b600033905090565b610cf48383836001611454565b505050565b600080610d0584611417565b9050600073ffffffffffffffffffffffffffffffffffffffff168373ffffffffffffffffffffffffffffffffffffffff1614610d4757610d46818486611619565b5b600073ffffffffffffffffffffffffffffffffffffffff168173ffffffffffffffffffffffffffffffffffffffff1614610dd857610d89600085600080611454565b6001600360008373ffffffffffffffffffffffffffffffffffffffff1673ffffffffffffffffffffffffffffffffffffffff168152602001908152602001600020600082825403925050819055505b600073ffffffffffffffffffffffffffffffffffffffff168573ffffffffffffffffffffffffffffffffffffffff1614610e5b576001600360008773ffffffffffffffffffffffffffffffffffffffff1673ffffffffffffffffffffffffffffffffffffffff168152602001908152602001600020600082825401925050819055505b846002600086815260200190815260200160002060006101000a81548173ffffffffffffffffffffffffffffffffffffffff021916908373ffffffffffffffffffffffffffffffffffffffff160217905550838573ffffffffffffffffffffffffffffffffffffffff168273ffffffffffffffffffffffffffffffffffffffff167fddf252ad1be2c89b69c2b068fc378daa952ba7f163c4a11628f55a4df523b3ef60405160405180910390a4809150509392505050565b600073ffffffffffffffffffffffffffffffffffffffff168273ffffffffffffffffffffffffffffffffffffffff1603610f8457816040517f5b08ba18000000000000000000000000000000000000000000000000000000008152600401610f7b9190611b16565b60405180910390fd5b80600560008573ffffffffffffffffffffffffffffffffffffffff1673ffffffffffffffffffffffffffffffffffffffff16815260200190815260200160002060008473ffffffffffffffffffffffffffffffffffffffff1673ffffffffffffffffffffffffffffffffffffffff16815260200190815260200160002060006101000a81548160ff0219169083151502179055508173ffffffffffffffffffffffffffffffffffffffff168373ffffffffffffffffffffffffffffffffffffffff167f17307eab39ab6107e8899845ad3d59bd9653f200f220920489ca2b5937696c318360405161107591906119a5565b60405180910390a3505050565b60008373ffffffffffffffffffffffffffffffffffffffff163b1115611233578273ffffffffffffffffffffffffffffffffffffffff1663150b7a026110c6610cdf565b8685856040518563ffffffff1660e01b81526004016110e8949392919061248f565b6020604051808303816000875af192505050801561112457506040513d601f19601f8201168201806040525081019061112191906124f0565b60015b6111a8573d8060008114611154576040519150601f19603f3d011682016040523d82523d6000602084013e611159565b606091505b5060008151036111a057836040517f64a0ae920000000000000000000000000000000000000000000000000000000081526004016111979190611b16565b60405180910390fd5b805181602001fd5b63150b7a0260e01b7bffffffffffffffffffffffffffffffffffffffffffffffffffffffff1916817bffffffffffffffffffffffffffffffffffffffffffffffffffffffff19161461123157836040517f64a0ae920000000000000000000000000000000000000000000000000000000081526004016112289190611b16565b60405180910390fd5b505b50505050565b600073ffffffffffffffffffffffffffffffffffffffff168273ffffffffffffffffffffffffffffffffffffffff16036112ab5760006040517f64a0ae920000000000000000000000000000000000000000000000000000000081526004016112a29190611b16565b60405180910390fd5b60006112b983836000610cf9565b9050600073ffffffffffffffffffffffffffffffffffffffff168173ffffffffffffffffffffffffffffffffffffffff161461132d5760006040517f73c6ac6e0000000000000000000000000000000000000000000000000000000081526004016113249190611b16565b60405180910390fd5b505050565b606060405180602001604052806000815250905090565b606060006001611358846116dd565b01905060008167ffffffffffffffff81111561137757611376611d10565b5b6040519080825280601f01601f1916602001820160405280156113a95781602001600182028036833780820191505090505b509050600082602001820190505b60011561140c578080600190039150507f3031323334353637383961626364656600000000000000000000000000000000600a86061a8153600a8581611400576113ff61251d565b5b049450600085036113b7575b819350505050919050565b60006002600083815260200190815260200160002060009054906101000a900473ffffffffffffffffffffffffffffffffffffffff169050919050565b808061148d5750600073ffffffffffffffffffffffffffffffffffffffff168273ffffffffffffffffffffffffffffffffffffffff1614155b156115c157600061149d84610c1a565b9050600073ffffffffffffffffffffffffffffffffffffffff168373ffffffffffffffffffffffffffffffffffffffff161415801561150857508273ffffffffffffffffffffffffffffffffffffffff168173ffffffffffffffffffffffffffffffffffffffff1614155b801561151b57506115198184610b1c565b155b1561155d57826040517fa9fbf51f0000000000000000000000000000000000000000000000000000000081526004016115549190611b16565b60405180910390fd5b81156115bf57838573ffffffffffffffffffffffffffffffffffffffff168273ffffffffffffffffffffffffffffffffffffffff167f8c5be1e5ebec7d5bd14f71427d1e84f3dd0314c0f7b2291e5b200ac8c7c3b92560405160405180910390a45b505b836004600085815260200190815260200160002060006101000a81548173ffffffffffffffffffffffffffffffffffffffff021916908373ffffffffffffffffffffffffffffffffffffffff16021790555050505050565b611624838383611830565b6116d857600073ffffffffffffffffffffffffffffffffffffffff168373ffffffffffffffffffffffffffffffffffffffff160361169957806040517f7e2732890000000000000000000000000000000000000000000000000000000081526004016116909190611bff565b60405180910390fd5b81816040517f177e802f0000000000000000000000000000000000000000000000000000000081526004016116cf92919061254c565b60405180910390fd5b505050565b600080600090507a184f03e93ff9f4daa797ed6e38ed64bf6a1f010000000000000000831061173b577a184f03e93ff9f4daa797ed6e38ed64bf6a1f01000000000000000083816117315761173061251d565b5b0492506040810190505b6d04ee2d6d415b85acef81000000008310611778576d04ee2d6d415b85acef8100000000838161176e5761176d61251d565b5b0492506020810190505b662386f26fc1000083106117a757662386f26fc10000838161179d5761179c61251d565b5b0492506010810190505b6305f5e10083106117d0576305f5e10083816117c6576117c561251d565b5b0492506008810190505b61271083106117f55761271083816117eb576117ea61251d565b5b0492506004810190505b60648310611818576064838161180e5761180d61251d565b5b0492506002810190505b600a8310611827576001810190505b80915050919050565b60008073ffffffffffffffffffffffffffffffffffffffff168373ffffffffffffffffffffffffffffffffffffffff16141580156118e857508273ffffffffffffffffffffffffffffffffffffffff168473ffffffffffffffffffffffffffffffffffffffff1614806118a957506118a88484610b1c565b5b806118e757508273ffffffffffffffffffffffffffffffffffffffff166118cf83610ca2565b73ffffffffffffffffffffffffffffffffffffffff16145b5b90509392505050565b6000604051905090565b600080fd5b600080fd5b60007fffffffff0000000000000000000000000000000000000000000000000000000082169050919050565b61193a81611905565b811461194557600080fd5b50565b60008135905061195781611931565b92915050565b600060208284031215611973576119726118fb565b5b600061198184828501611948565b91505092915050565b60008115159050919050565b61199f8161198a565b82525050565b60006020820190506119ba6000830184611996565b92915050565b600081519050919050565b600082825260208201905092915050565b60005b838110156119fa5780820151818401526020810190506119df565b60008484015250505050565b6000601f19601f8301169050919050565b6000611a22826119c0565b611a2c81856119cb565b9350611a3c8185602086016119dc565b611a4581611a06565b840191505092915050565b60006020820190508181036000830152611a6a8184611a17565b905092915050565b6000819050919050565b611a8581611a72565b8114611a9057600080fd5b50565b600081359050611aa281611a7c565b92915050565b600060208284031215611abe57611abd6118fb565b5b6000611acc84828501611a93565b91505092915050565b600073ffffffffffffffffffffffffffffffffffffffff82169050919050565b6000611b0082611ad5565b9050919050565b611b1081611af5565b82525050565b6000602082019050611b2b6000830184611b07565b92915050565b611b3a81611af5565b8114611b4557600080fd5b50565b600081359050611b5781611b31565b92915050565b60008060408385031215611b7457611b736118fb565b5b6000611b8285828601611b48565b9250506020611b9385828601611a93565b9150509250929050565b600080600060608486031215611bb657611bb56118fb565b5b6000611bc486828701611b48565b9350506020611bd586828701611b48565b9250506040611be686828701611a93565b9150509250925092565b611bf981611a72565b82525050565b6000602082019050611c146000830184611bf0565b92915050565b600060208284031215611c3057611c2f6118fb565b5b6000611c3e84828501611b48565b91505092915050565b60006080820190508181036000830152611c618187611a17565b90508181036020830152611c758186611a17565b9050611c846040830185611b07565b611c916060830184611bf0565b95945050505050565b611ca38161198a565b8114611cae57600080fd5b50565b600081359050611cc081611c9a565b92915050565b60008060408385031215611cdd57611cdc6118fb565b5b6000611ceb85828601611b48565b9250506020611cfc85828601611cb1565b9150509250929050565b600080fd5b600080fd5b7f4e487b7100000000000000000000000000000000000000000000000000000000600052604160045260246000fd5b611d4882611a06565b810181811067ffffffffffffffff82111715611d6757611d66611d10565b5b80604052505050565b6000611d7a6118f1565b9050611d868282611d3f565b919050565b600067ffffffffffffffff821115611da657611da5611d10565b5b611daf82611a06565b9050602081019050919050565b82818337600083830152505050565b6000611dde611dd984611d8b565b611d70565b905082815260208101848484011115611dfa57611df9611d0b565b5b611e05848285611dbc565b509392505050565b600082601f830112611e2257611e21611d06565b5b8135611e32848260208601611dcb565b91505092915050565b60008060008060808587031215611e5557611e546118fb565b5b6000611e6387828801611b48565b9450506020611e7487828801611b48565b9350506040611e8587828801611a93565b925050606085013567ffffffffffffffff811115611ea657611ea5611900565b5b611eb287828801611e0d565b91505092959194509250565b600067ffffffffffffffff821115611ed957611ed8611d10565b5b611ee282611a06565b9050602081019050919050565b6000611f02611efd84611ebe565b611d70565b905082815260208101848484011115611f1e57611f1d611d0b565b5b611f29848285611dbc565b509392505050565b600082601f830112611f4657611f45611d06565b5b8135611f56848260208601611eef565b91505092915050565b60008060408385031215611f7657611f756118fb565b5b600083013567ffffffffffffffff811115611f9457611f93611900565b5b611fa085828601611f31565b925050602083013567ffffffffffffffff811115611fc157611fc0611900565b5b611fcd85828601611f31565b9150509250929050565b60008060408385031215611fee57611fed6118fb565b5b6000611ffc85828601611b48565b925050602061200d85828601611b48565b9150509250929050565b7f4e487b7100000000000000000000000000000000000000000000000000000000600052602260045260246000fd5b6000600282049050600182168061205e57607f821691505b60208210810361207157612070612017565b5b50919050565b600060608201905061208c6000830186611b07565b6120996020830185611bf0565b6120a66040830184611b07565b949350505050565b7f4e487b7100000000000000000000000000000000000000000000000000000000600052601160045260246000fd5b60006120e882611a72565b91507fffffffffffffffffffffffffffffffffffffffffffffffffffffffffffffffff820361211a576121196120ae565b5b600182019050919050565b60008190508160005260206000209050919050565b60006020601f8301049050919050565b600082821b905092915050565b6000600883026121877fffffffffffffffffffffffffffffffffffffffffffffffffffffffffffffffff8261214a565b612191868361214a565b95508019841693508086168417925050509392505050565b6000819050919050565b60006121ce6121c96121c484611a72565b6121a9565b611a72565b9050919050565b6000819050919050565b6121e8836121b3565b6121fc6121f4826121d5565b848454612157565b825550505050565b600090565b612211612204565b61221c8184846121df565b505050565b5b8181101561224057612235600082612209565b600181019050612222565b5050565b601f8211156122855761225681612125565b61225f8461213a565b8101602085101561226e578190505b61228261227a8561213a565b830182612221565b50505b505050565b600082821c905092915050565b60006122a86000198460080261228a565b1980831691505092915050565b60006122c18383612297565b9150826002028217905092915050565b6122da826119c0565b67ffffffffffffffff8111156122f3576122f2611d10565b5b6122fd8254612046565b612308828285612244565b600060209050601f83116001811461233b5760008415612329578287015190505b61233385826122b5565b86555061239b565b601f19841661234986612125565b60005b828110156123715784890151825560018201915060208501945060208101905061234c565b8683101561238e578489015161238a601f891682612297565b8355505b6001600288020188555050505b505050505050565b600060408201905081810360008301526123bd8185611a17565b905081810360208301526123d18184611a17565b90509392505050565b600081905092915050565b60006123f0826119c0565b6123fa81856123da565b935061240a8185602086016119dc565b80840191505092915050565b600061242282856123e5565b915061242e82846123e5565b91508190509392505050565b600081519050919050565b600082825260208201905092915050565b60006124618261243a565b61246b8185612445565b935061247b8185602086016119dc565b61248481611a06565b840191505092915050565b60006080820190506124a46000830187611b07565b6124b16020830186611b07565b6124be6040830185611bf0565b81810360608301526124d08184612456565b905095945050505050565b6000815190506124ea81611931565b92915050565b600060208284031215612506576125056118fb565b5b6000612514848285016124db565b91505092915050565b7f4e487b7100000000000000000000000000000000000000000000000000000000600052601260045260246000fd5b60006040820190506125616000830185611b07565b61256e6020830184611bf0565b939250505056fea264697066735822122001c9669aa3339defc15b4a948b8281b0d6c17879053b19bc5810024d9e46d33c64736f6c63430008180033",
  "linkReferences": {},
  "deployedLinkReferences": {}
}